{
  "_format": "hh-sol-artifact-1",
  "contractName": "BinancePunksMarket",
  "sourceName": "contracts/BinancePunksMarket.sol",
  "abi": [
    {
      "inputs": [],
      "stateMutability": "payable",
      "type": "constructor"
    },
    {
      "anonymous": false,
      "inputs": [
        {
          "indexed": true,
          "internalType": "address",
          "name": "to",
          "type": "address"
        },
        {
          "indexed": false,
          "internalType": "uint256",
          "name": "punkIndex",
          "type": "uint256"
        }
      ],
      "name": "Assign",
      "type": "event"
    },
    {
      "anonymous": false,
      "inputs": [
        {
          "indexed": true,
          "internalType": "uint256",
          "name": "punkIndex",
          "type": "uint256"
        },
        {
          "indexed": false,
          "internalType": "uint256",
          "name": "value",
          "type": "uint256"
        },
        {
          "indexed": true,
          "internalType": "address",
          "name": "fromAddress",
          "type": "address"
        }
      ],
      "name": "PunkBidEntered",
      "type": "event"
    },
    {
      "anonymous": false,
      "inputs": [
        {
          "indexed": true,
          "internalType": "uint256",
          "name": "punkIndex",
          "type": "uint256"
        },
        {
          "indexed": false,
          "internalType": "uint256",
          "name": "value",
          "type": "uint256"
        },
        {
          "indexed": true,
          "internalType": "address",
          "name": "fromAddress",
          "type": "address"
        }
      ],
      "name": "PunkBidWithdrawn",
      "type": "event"
    },
    {
      "anonymous": false,
      "inputs": [
        {
          "indexed": true,
          "internalType": "uint256",
          "name": "punkIndex",
          "type": "uint256"
        },
        {
          "indexed": false,
          "internalType": "uint256",
          "name": "value",
          "type": "uint256"
        },
        {
          "indexed": true,
          "internalType": "address",
          "name": "fromAddress",
          "type": "address"
        },
        {
          "indexed": true,
          "internalType": "address",
          "name": "toAddress",
          "type": "address"
        }
      ],
      "name": "PunkBought",
      "type": "event"
    },
    {
      "anonymous": false,
      "inputs": [
        {
          "indexed": true,
          "internalType": "uint256",
          "name": "punkIndex",
          "type": "uint256"
        }
      ],
      "name": "PunkNoLongerForSale",
      "type": "event"
    },
    {
      "anonymous": false,
      "inputs": [
        {
          "indexed": true,
          "internalType": "uint256",
          "name": "punkIndex",
          "type": "uint256"
        },
        {
          "indexed": false,
          "internalType": "uint256",
          "name": "minValue",
          "type": "uint256"
        },
        {
          "indexed": true,
          "internalType": "address",
          "name": "toAddress",
          "type": "address"
        }
      ],
      "name": "PunkOffered",
      "type": "event"
    },
    {
      "anonymous": false,
      "inputs": [
        {
          "indexed": true,
          "internalType": "address",
          "name": "from",
          "type": "address"
        },
        {
          "indexed": true,
          "internalType": "address",
          "name": "to",
          "type": "address"
        },
        {
          "indexed": false,
          "internalType": "uint256",
          "name": "punkIndex",
          "type": "uint256"
        }
      ],
      "name": "PunkTransfer",
      "type": "event"
    },
    {
      "anonymous": false,
      "inputs": [
        {
          "indexed": true,
          "internalType": "address",
          "name": "from",
          "type": "address"
        },
        {
          "indexed": true,
          "internalType": "address",
          "name": "to",
          "type": "address"
        },
        {
          "indexed": false,
          "internalType": "uint256",
          "name": "value",
          "type": "uint256"
        }
      ],
      "name": "Transfer",
      "type": "event"
    },
    {
      "inputs": [
        {
          "internalType": "uint256",
          "name": "punkIndex",
          "type": "uint256"
        },
        {
          "internalType": "uint256",
          "name": "minPrice",
          "type": "uint256"
        }
      ],
      "name": "acceptBidForPunk",
      "outputs": [],
      "stateMutability": "nonpayable",
      "type": "function"
    },
    {
      "inputs": [],
      "name": "allInitialOwnersAssigned",
      "outputs": [],
      "stateMutability": "nonpayable",
      "type": "function"
    },
    {
      "inputs": [],
      "name": "allPunksAssigned",
      "outputs": [
        {
          "internalType": "bool",
          "name": "",
          "type": "bool"
        }
      ],
      "stateMutability": "view",
      "type": "function"
    },
    {
      "inputs": [
        {
          "internalType": "address",
          "name": "",
          "type": "address"
        }
      ],
      "name": "balanceOf",
      "outputs": [
        {
          "internalType": "uint256",
          "name": "",
          "type": "uint256"
        }
      ],
      "stateMutability": "view",
      "type": "function"
    },
    {
      "inputs": [
        {
          "internalType": "uint256",
          "name": "punkIndex",
          "type": "uint256"
        }
      ],
      "name": "buyPunk",
      "outputs": [],
      "stateMutability": "payable",
      "type": "function"
    },
    {
      "inputs": [],
      "name": "claimPrice",
      "outputs": [
        {
          "internalType": "uint256",
          "name": "",
          "type": "uint256"
        }
      ],
      "stateMutability": "view",
      "type": "function"
    },
    {
      "inputs": [],
      "name": "decimals",
      "outputs": [
        {
          "internalType": "uint8",
          "name": "",
          "type": "uint8"
        }
      ],
      "stateMutability": "view",
      "type": "function"
    },
    {
      "inputs": [
        {
          "internalType": "uint256",
          "name": "punkIndex",
          "type": "uint256"
        }
      ],
      "name": "enterBidForPunk",
      "outputs": [],
      "stateMutability": "payable",
      "type": "function"
    },
    {
      "inputs": [],
      "name": "getPunk",
      "outputs": [],
      "stateMutability": "payable",
      "type": "function"
    },
    {
      "inputs": [],
      "name": "imageHash",
      "outputs": [
        {
          "internalType": "string",
          "name": "",
          "type": "string"
        }
      ],
      "stateMutability": "view",
      "type": "function"
    },
    {
      "inputs": [],
      "name": "name",
      "outputs": [
        {
          "internalType": "string",
          "name": "",
          "type": "string"
        }
      ],
      "stateMutability": "view",
      "type": "function"
    },
    {
      "inputs": [],
      "name": "nextPunkIndexToAssign",
      "outputs": [
        {
          "internalType": "uint256",
          "name": "",
          "type": "uint256"
        }
      ],
      "stateMutability": "view",
      "type": "function"
    },
    {
      "inputs": [
        {
          "internalType": "uint256",
          "name": "punkIndex",
          "type": "uint256"
        },
        {
          "internalType": "uint256",
          "name": "minSalePriceInWei",
          "type": "uint256"
        }
      ],
      "name": "offerPunkForSale",
      "outputs": [],
      "stateMutability": "nonpayable",
      "type": "function"
    },
    {
      "inputs": [
        {
          "internalType": "uint256",
          "name": "punkIndex",
          "type": "uint256"
        },
        {
          "internalType": "uint256",
          "name": "minSalePriceInWei",
          "type": "uint256"
        },
        {
          "internalType": "address",
          "name": "toAddress",
          "type": "address"
        }
      ],
      "name": "offerPunkForSaleToAddress",
      "outputs": [],
      "stateMutability": "nonpayable",
      "type": "function"
    },
    {
      "inputs": [],
      "name": "owner",
      "outputs": [
        {
          "internalType": "address",
          "name": "",
          "type": "address"
        }
      ],
      "stateMutability": "view",
      "type": "function"
    },
    {
      "inputs": [
        {
          "internalType": "address",
          "name": "",
          "type": "address"
        }
      ],
      "name": "pendingWithdrawals",
      "outputs": [
        {
          "internalType": "uint256",
          "name": "",
          "type": "uint256"
        }
      ],
      "stateMutability": "view",
      "type": "function"
    },
    {
      "inputs": [
        {
          "internalType": "uint256",
          "name": "",
          "type": "uint256"
        }
      ],
      "name": "punkBids",
      "outputs": [
        {
          "internalType": "bool",
          "name": "hasBid",
          "type": "bool"
        },
        {
          "internalType": "uint256",
          "name": "punkIndex",
          "type": "uint256"
        },
        {
          "internalType": "address",
          "name": "bidder",
          "type": "address"
        },
        {
          "internalType": "uint256",
          "name": "value",
          "type": "uint256"
        }
      ],
      "stateMutability": "view",
      "type": "function"
    },
    {
      "inputs": [
        {
          "internalType": "uint256",
          "name": "",
          "type": "uint256"
        }
      ],
      "name": "punkIndexToAddress",
      "outputs": [
        {
          "internalType": "address",
          "name": "",
          "type": "address"
        }
      ],
      "stateMutability": "view",
      "type": "function"
    },
    {
      "inputs": [
        {
          "internalType": "uint256",
          "name": "punkIndex",
          "type": "uint256"
        }
      ],
      "name": "punkNoLongerForSale",
      "outputs": [],
      "stateMutability": "nonpayable",
      "type": "function"
    },
    {
      "inputs": [
        {
          "internalType": "uint256",
          "name": "",
          "type": "uint256"
        }
      ],
      "name": "punksOfferedForSale",
      "outputs": [
        {
          "internalType": "bool",
          "name": "isForSale",
          "type": "bool"
        },
        {
          "internalType": "uint256",
          "name": "punkIndex",
          "type": "uint256"
        },
        {
          "internalType": "address",
          "name": "seller",
          "type": "address"
        },
        {
          "internalType": "uint256",
          "name": "minValue",
          "type": "uint256"
        },
        {
          "internalType": "address",
          "name": "onlySellTo",
          "type": "address"
        }
      ],
      "stateMutability": "view",
      "type": "function"
    },
    {
      "inputs": [],
      "name": "punksRemainingToAssign",
      "outputs": [
        {
          "internalType": "uint256",
          "name": "",
          "type": "uint256"
        }
      ],
      "stateMutability": "view",
      "type": "function"
    },
    {
      "inputs": [
        {
          "internalType": "address",
          "name": "to",
          "type": "address"
        },
        {
          "internalType": "uint256",
          "name": "punkIndex",
          "type": "uint256"
        }
      ],
      "name": "setInitialOwner",
      "outputs": [],
      "stateMutability": "nonpayable",
      "type": "function"
    },
    {
      "inputs": [
        {
          "internalType": "address[]",
          "name": "addresses",
          "type": "address[]"
        },
        {
          "internalType": "uint256[]",
          "name": "indices",
          "type": "uint256[]"
        }
      ],
      "name": "setInitialOwners",
      "outputs": [],
      "stateMutability": "nonpayable",
      "type": "function"
    },
    {
      "inputs": [],
      "name": "standard",
      "outputs": [
        {
          "internalType": "string",
          "name": "",
          "type": "string"
        }
      ],
      "stateMutability": "view",
      "type": "function"
    },
    {
      "inputs": [],
      "name": "symbol",
      "outputs": [
        {
          "internalType": "string",
          "name": "",
          "type": "string"
        }
      ],
      "stateMutability": "view",
      "type": "function"
    },
    {
      "inputs": [],
      "name": "totalSupply",
      "outputs": [
        {
          "internalType": "uint256",
          "name": "",
          "type": "uint256"
        }
      ],
      "stateMutability": "view",
      "type": "function"
    },
    {
      "inputs": [
        {
          "internalType": "address",
          "name": "to",
          "type": "address"
        },
        {
          "internalType": "uint256",
          "name": "punkIndex",
          "type": "uint256"
        }
      ],
      "name": "transferPunk",
      "outputs": [],
      "stateMutability": "nonpayable",
      "type": "function"
    },
    {
      "inputs": [],
      "name": "withdraw",
      "outputs": [],
      "stateMutability": "nonpayable",
      "type": "function"
    },
    {
      "inputs": [
        {
          "internalType": "uint256",
          "name": "punkIndex",
          "type": "uint256"
        }
      ],
      "name": "withdrawBidForPunk",
      "outputs": [],
      "stateMutability": "nonpayable",
      "type": "function"
    }
  ],
  "bytecode": "0x60e0604090815260808181529062001e6260a0398051620000299160009160209091019062000109565b5060408051808201909152600c8082526b42696e616e636550756e6b7360a01b60209092019182526200005f9160029162000109565b5060006007556008805460ff19169055670de0b6b3a7640000600a55600180546001600160a01b03191633179055612710600681905560095560408051808201909152600c8082526b42494e414e434550554e4b5360a01b6020909201918252620000cd9160039162000109565b50604080518082019091526001808252602160f91b6020909201918252620000f89160049162000109565b506005805460ff19169055620001b5565b828054600181600116156101000203166002900490600052602060002090601f0160209004810192826200014157600085556200018c565b82601f106200015c57805160ff19168380011785556200018c565b828001600101855582156200018c579182015b828111156200018c5782518255916020019190600101906200016f565b506200019a9291506200019e565b5090565b5b808211156200019a57600081556001016200019f565b611c9d80620001c56000396000f3fe6080604052600436106101c25760003560e01c806370a08231116100f7578063979bc63811610095578063c0d6ce6311610064578063c0d6ce631461072d578063c44193c314610742578063f3f4370314610772578063f6eeff1e146107a5576101c2565b8063979bc63814610683578063a75a9049146106ad578063bed2af80146106e6578063bf31196f146106ee576101c2565b80638264fe98116100d15780638264fe98146106035780638b72a2ec146106205780638da5cb5b1461065957806395d89b411461066e576101c2565b806370a08231146105925780637ecedac9146105c55780638126c38a146105da576101c2565b806339c5dde61161016457806352f29a251161013e57806352f29a25146104c857806358178168146104dd5780635a3b7e42146105235780636e743fa914610538576101c2565b806339c5dde61461036a5780633ccfd60b1461049e57806351605d80146104b3576101c2565b806315d655c9116101a057806315d655c9146102d357806318160ddd146102fa57806323165b751461030f578063313ce5671461033f576101c2565b806306fdde03146101c7578063088f11f314610251578063091dbfd2146102b4575b600080fd5b3480156101d357600080fd5b506101dc6107cf565b6040805160208082528351818301528351919283929083019185019080838360005b838110156102165781810151838201526020016101fe565b50505050905090810190601f1680156102435780820380516001836020036101000a031916815260200191505b509250505060405180910390f35b34801561025d57600080fd5b5061027b6004803603602081101561027457600080fd5b503561085d565b60408051951515865260208601949094526001600160a01b03928316858501526060850191909152166080830152519081900360a00190f35b6102d1600480360360208110156102ca57600080fd5b503561089b565b005b3480156102df57600080fd5b506102e8610a43565b60408051918252519081900360200190f35b34801561030657600080fd5b506102e8610a49565b34801561031b57600080fd5b506102d16004803603604081101561033257600080fd5b5080359060200135610a4f565b34801561034b57600080fd5b50610354610da5565b6040805160ff9092168252519081900360200190f35b34801561037657600080fd5b506102d16004803603604081101561038d57600080fd5b8101906020810181356401000000008111156103a857600080fd5b8201836020820111156103ba57600080fd5b803590602001918460208302840111640100000000831117156103dc57600080fd5b919080806020026020016040519081016040528093929190818152602001838360200280828437600092019190915250929594936020810193503591505064010000000081111561042c57600080fd5b82018360208201111561043e57600080fd5b8035906020019184602083028401116401000000008311171561046057600080fd5b919080806020026020016040519081016040528093929190818152602001838360200280828437600092019190915250929550610dae945050505050565b3480156104aa57600080fd5b506102d1610e10565b3480156104bf57600080fd5b506101dc610e64565b3480156104d457600080fd5b506102e8610ebf565b3480156104e957600080fd5b506105076004803603602081101561050057600080fd5b5035610ec5565b604080516001600160a01b039092168252519081900360200190f35b34801561052f57600080fd5b506101dc610ee0565b34801561054457600080fd5b506105626004803603602081101561055b57600080fd5b5035610f38565b60408051941515855260208501939093526001600160a01b03909116838301526060830152519081900360800190f35b34801561059e57600080fd5b506102e8600480360360208110156105b557600080fd5b50356001600160a01b0316610f6f565b3480156105d157600080fd5b506102d1610f81565b3480156105e657600080fd5b506105ef610fa7565b604080519115158252519081900360200190f35b6102d16004803603602081101561061957600080fd5b5035610fb0565b34801561062c57600080fd5b506102d16004803603604081101561064357600080fd5b506001600160a01b038135169060200135611271565b34801561066557600080fd5b5061050761147d565b34801561067a57600080fd5b506101dc61148c565b34801561068f57600080fd5b506102d1600480360360208110156106a657600080fd5b50356114e7565b3480156106b957600080fd5b506102d1600480360360408110156106d057600080fd5b506001600160a01b03813516906020013561167b565b6102d161179f565b3480156106fa57600080fd5b506102d16004803603606081101561071157600080fd5b50803590602081013590604001356001600160a01b0316611945565b34801561073957600080fd5b506102e8611a51565b34801561074e57600080fd5b506102d16004803603604081101561076557600080fd5b5080359060200135611a57565b34801561077e57600080fd5b506102e86004803603602081101561079557600080fd5b50356001600160a01b0316611b5f565b3480156107b157600080fd5b506102d1600480360360208110156107c857600080fd5b5035611b71565b6003805460408051602060026001851615610100026000190190941693909304601f810184900484028201840190925281815292918301828280156108555780601f1061082a57610100808354040283529160200191610855565b820191906000526020600020905b81548152906001019060200180831161083857829003601f168201915b505050505081565b600d602052600090815260409020805460018201546002830154600384015460049094015460ff9093169391926001600160a01b0391821692911685565b61271081106108a957600080fd5b60085460ff166108b857600080fd5b6000818152600b60205260409020546001600160a01b03166108d957600080fd5b6000818152600b60205260409020546001600160a01b03163314156108fd57600080fd5b3461090757600080fd5b6000818152600e60209081526040918290208251608081018452815460ff161515815260018201549281019290925260028101546001600160a01b03169282019290925260039091015460608201819052341161096357600080fd5b6060810151156109945760608101516040808301516001600160a01b03166000908152600f60205220805490910190555b604080516080810182526001808252602080830186815233848601818152346060870181815260008b8152600e87528990209751885460ff1916901515178855935195870195909555516002860180546001600160a01b0319166001600160a01b03909216919091179055905160039094019390935583519182529251919285927f5b859394fabae0c1ba88baffe67e751ab5248d2e879028b8c8d6897b0519f56a9281900390910190a35050565b600a5481565b60065481565b6127108210610a5d57600080fd5b60085460ff16610a6c57600080fd5b6000828152600b60205260409020546001600160a01b03163314610a8f57600080fd5b6000828152600e60209081526040918290208251608081018452815460ff161515815260018201549281019290925260028101546001600160a01b0316928201929092526003909101546060820152339082816060015111610af057600080fd5b604081810180516000878152600b602090815284822080546001600160a01b0319166001600160a01b03948516179055868316808352600c825285832080546000190190558451841683529185902080546001908101909155935185519485529451949092169390927fddf252ad1be2c89b69c2b068fc378daa952ba7f163c4a11628f55a4df523b3ef92908290030190a36040518060a0016040528060001515815260200185815260200182604001516001600160a01b031681526020016000815260200160006001600160a01b0316815250600d600086815260200190815260200160002060008201518160000160006101000a81548160ff0219169083151502179055506020820151816001015560408201518160020160006101000a8154816001600160a01b0302191690836001600160a01b031602179055506060820151816003015560808201518160040160006101000a8154816001600160a01b0302191690836001600160a01b03160217905550905050600081606001519050604051806080016040528060001515815260200186815260200160006001600160a01b031681526020016000815250600e600087815260200190815260200160002060008201518160000160006101000a81548160ff0219169083151502179055506020820151816001015560408201518160020160006101000a8154816001600160a01b0302191690836001600160a01b031602179055506060820151816003015590505080600f6000856001600160a01b03166001600160a01b031681526020019081526020016000206000828254019250508190555081604001516001600160a01b0316836001600160a01b0316867f58e5d5a525e3b40bc15abaa38b5882678db1ee68befd2f60bafe3a7fd06db9e385606001516040518082815260200191505060405180910390a45050505050565b60055460ff1681565b6001546001600160a01b03163314610dc557600080fd5b815160005b81811015610e0a57610e02848281518110610de157fe5b6020026020010151848381518110610df557fe5b602002602001015161167b565b600101610dca565b50505050565b60085460ff16610e1f57600080fd5b336000818152600f6020526040808220805490839055905190929183156108fc02918491818181858888f19350505050158015610e60573d6000803e3d6000fd5b5050565b6000805460408051602060026001851615610100026000190190941693909304601f810184900484028201840190925281815292918301828280156108555780601f1061082a57610100808354040283529160200191610855565b60075481565b600b602052600090815260409020546001600160a01b031681565b6002805460408051602060018416156101000260001901909316849004601f810184900484028201840190925281815292918301828280156108555780601f1061082a57610100808354040283529160200191610855565b600e60205260009081526040902080546001820154600283015460039093015460ff9092169290916001600160a01b039091169084565b600c6020526000908152604090205481565b6001546001600160a01b03163314610f9857600080fd5b6008805460ff19166001179055565b60085460ff1681565b60085460ff16610fbf57600080fd5b6000818152600d6020908152604091829020825160a081018452815460ff161515815260018201549281019290925260028101546001600160a01b039081169383019390935260038101546060830152600401549091166080820152612710821061102957600080fd5b805161103457600080fd5b60808101516001600160a01b0316158061105b575060808101516001600160a01b03163314155b61106457600080fd5b8060600151341161107457600080fd5b6000828152600b60205260409081902054908201516001600160a01b039081169116146110a057600080fd5b6040808201516000848152600b602090815283822080546001600160a01b031916339081179091556001600160a01b038416808452600c83528584208054600019019055818452928590208054600190810190915585519081529451939490937fddf252ad1be2c89b69c2b068fc378daa952ba7f163c4a11628f55a4df523b3ef929181900390910190a361113483611b71565b6001600160a01b0381166000818152600f60209081526040918290208054349081019091558251908152915133939287927f58e5d5a525e3b40bc15abaa38b5882678db1ee68befd2f60bafe3a7fd06db9e392918290030190a46000838152600e60209081526040918290208251608081018452815460ff161515815260018201549281019290925260028101546001600160a01b031692820183905260030154606082015290331415610e0a57606090810151336000908152600f6020908152604080832080549094019093558251608081018452828152808201888152818501848152958201848152988452600e909252929091209151825460ff191690151517825551600182015590516002820180546001600160a01b0319166001600160a01b0390921691909117905592516003909301929092555050565b60085460ff1661128057600080fd5b6000818152600b60205260409020546001600160a01b031633146112a357600080fd5b61271081106112b157600080fd5b6000818152600d602052604090205460ff16156112d1576112d181611b71565b6000818152600b6020908152604080832080546001600160a01b0319166001600160a01b03871690811790915533808552600c845282852080546000190190558185529382902080546001908101909155825190815291519093927fddf252ad1be2c89b69c2b068fc378daa952ba7f163c4a11628f55a4df523b3ef928290030190a36040805182815290516001600160a01b0384169133917f05af636b70da6819000c49f85b21fa82081c632069bb626f30932034099107d89181900360200190a36000818152600e60209081526040918290208251608081018452815460ff161515815260018201549281019290925260028101546001600160a01b03908116938301849052600390910154606083015290919084161415611478576060818101516001600160a01b038581166000908152600f6020908152604080832080549095019094558351608081018552828152808201888152818601848152968201848152898552600e909352949092209151825460ff19169015151782559251600182015592516002840180546001600160a01b03191691909216179055516003909101555b505050565b6001546001600160a01b031681565b6004805460408051602060026001851615610100026000190190941693909304601f810184900484028201840190925281815292918301828280156108555780601f1061082a57610100808354040283529160200191610855565b61271081106114f557600080fd5b60085460ff1661150457600080fd5b6000818152600b60205260409020546001600160a01b031661152557600080fd5b6000818152600b60205260409020546001600160a01b031633141561154957600080fd5b6000818152600e60209081526040918290208251608081018452815460ff161515815260018201549281019290925260028101546001600160a01b03169282018390526003015460608201529033146115a157600080fd5b60608101516040805191825251339184917f6f30e1ee4d81dcc7a8a478577f65d2ed2edb120565960ac45fe7c50551c879329181900360200190a36060818101516040805160808101825260008082526020808301888152838501838152968401838152898452600e9092528483209351845460ff191690151517845551600184015594516002830180546001600160a01b0319166001600160a01b03909216919091179055935160039091015551909133916108fc84150291849190818181858888f19350505050158015610e0a573d6000803e3d6000fd5b6001546001600160a01b0316331461169257600080fd5b60085460ff16156116a257600080fd5b61271081106116b057600080fd5b6000818152600b60205260409020546001600160a01b03838116911614610e60576000818152600b60205260409020546001600160a01b03161561171f576000818152600b60209081526040808320546001600160a01b03168352600c9091529020805460001901905561172a565b600980546000190190555b6000818152600b6020908152604080832080546001600160a01b0319166001600160a01b038716908117909155808452600c83529281902080546001019055805184815290517f8a0e37b73a0d9c82e205d4d1a3ff3d0b57ce5f4d7bccf6bac03336dc101cb7ba929181900390910190a25050565b600754611fd28114806117b3575080610c23145b806117bf5750806101c7145b806117cb57508061024c145b806117d75750806104a6145b806117e35750806111a1145b806117ef57508061133c145b806117fb575080611348145b80611807575080611461145b80611813575080611e7c145b8061181f5750806121d8145b8061182b575080612464145b15611834576001015b60085460ff1661184357600080fd5b60006009541161185257600080fd5b6000818152600b60205260409020546001600160a01b03161561187457600080fd5b612710811061188257600080fd5b600a5434101561189157600080fd5b6000818152600b6020908152604080832080546001600160a01b03191633908117909155808452600c8352928190208054600101905560098054600019019055805184815290517f8a0e37b73a0d9c82e205d4d1a3ff3d0b57ce5f4d7bccf6bac03336dc101cb7ba929181900390910190a26001546040516001600160a01b03909116903480156108fc02916000818181858888f1935050505015801561193c573d6000803e3d6000fd5b50600101600755565b60085460ff1661195457600080fd5b6000838152600b60205260409020546001600160a01b0316331461197757600080fd5b612710831061198557600080fd5b6040805160a0810182526001808252602080830187815233848601908152606085018881526001600160a01b038881166080880181815260008d8152600d88528a90209851895460ff191690151517895594519688019690965591516002870180546001600160a01b03199081169285169290921790559051600387015591516004909501805490921694169390931790925582518581529251909286927f3c7b682d5da98001a9b8cbda6c647d2c63d698a4184fd1d55e2ce7b66f5d21eb92918290030190a3505050565b60095481565b60085460ff16611a6657600080fd5b6000828152600b60205260409020546001600160a01b03163314611a8957600080fd5b6127108210611a9757600080fd5b6040805160a0810182526001808252602080830186815233848601908152606085018781526000608087018181528a8252600d86528882209751885460ff191690151517885593519587019590955590516002860180546001600160a01b03199081166001600160a01b039384161790915591516003870155915160049095018054909116949091169390931790925582518481529251909285927f3c7b682d5da98001a9b8cbda6c647d2c63d698a4184fd1d55e2ce7b66f5d21eb92918290030190a35050565b600f6020526000908152604090205481565b60085460ff16611b8057600080fd5b6000818152600b60205260409020546001600160a01b03163314611ba357600080fd5b6127108110611bb157600080fd5b6040805160a08101825260008082526020808301858152338486019081526060850184815260808601858152888652600d9094528685209551865460ff191690151517865591516001860155516002850180546001600160a01b03199081166001600160a01b0393841617909155915160038601559151600490940180549091169390911692909217909155905182917fb0e0a660b4e50f26f0b7ce75c24655fc76cc66e3334a54ff410277229fa10bd491a25056fea2646970667358221220e9402a76640e8851f8fa61b4332896cade9304ff1c7f719b66638b2002f0221f64736f6c6343000706003361633339616634373933313139656534366262666633353164386362366235663233646136303232323132366164643432363865323631313939613239323162",
  "linkReferences": {},
  "deployedLinkReferences": {}
}