{
  "_format": "hh-sol-artifact-1",
  "contractName": "LinkSwapper",
  "sourceName": "contracts/LinkSwapper.sol",
  "abi": [
    {
      "inputs": [
        {
          "internalType": "address",
          "name": "_router",
          "type": "address"
        },
        {
          "internalType": "bool",
          "name": "_isTesting",
          "type": "bool"
        },
        {
          "internalType": "address",
          "name": "_link",
          "type": "address"
        }
      ],
      "stateMutability": "nonpayable",
      "type": "constructor"
    },
    {
      "inputs": [],
      "name": "deployer",
      "outputs": [
        {
          "internalType": "address",
          "name": "",
          "type": "address"
        }
      ],
      "stateMutability": "view",
      "type": "function"
    },
    {
      "inputs": [
        {
          "internalType": "uint256",
          "name": "_inputWBNB",
          "type": "uint256"
        }
      ],
      "name": "getLinkAmountOut",
      "outputs": [
        {
          "internalType": "uint256",
          "name": "",
          "type": "uint256"
        },
        {
          "internalType": "uint256",
          "name": "",
          "type": "uint256"
        }
      ],
      "stateMutability": "view",
      "type": "function"
    },
    {
      "inputs": [
        {
          "internalType": "address",
          "name": "factory",
          "type": "address"
        }
      ],
      "name": "getPairAddress",
      "outputs": [
        {
          "internalType": "address",
          "name": "pair",
          "type": "address"
        }
      ],
      "stateMutability": "view",
      "type": "function"
    },
    {
      "inputs": [
        {
          "internalType": "uint256",
          "name": "_linkAmount",
          "type": "uint256"
        }
      ],
      "name": "getWBNBAmountIn",
      "outputs": [
        {
          "internalType": "uint256",
          "name": "",
          "type": "uint256"
        },
        {
          "internalType": "uint256",
          "name": "",
          "type": "uint256"
        }
      ],
      "stateMutability": "view",
      "type": "function"
    },
    {
      "inputs": [
        {
          "internalType": "uint256",
          "name": "_deadline",
          "type": "uint256"
        },
        {
          "internalType": "uint256",
          "name": "_linkAmount",
          "type": "uint256"
        }
      ],
      "name": "swap",
      "outputs": [
        {
          "internalType": "bool",
          "name": "",
          "type": "bool"
        }
      ],
      "stateMutability": "payable",
      "type": "function"
    },
    {
      "inputs": [
        {
          "internalType": "uint256",
          "name": "",
          "type": "uint256"
        }
      ],
      "name": "swapPath",
      "outputs": [
        {
          "internalType": "address",
          "name": "",
          "type": "address"
        }
      ],
      "stateMutability": "view",
      "type": "function"
    }
  ],
  "bytecode": "0x600280546001600160a01b03191673404460c6a5ede2d891e8297795264fde62adbb75178155608081815260e0604090815290919060a090803683375050815162000052926003925060200190620001ca565b503480156200006057600080fd5b506040516200128e3803806200128e833981810160405260608110156200008657600080fd5b50805160208083015160409384015160048054600080546001600160a01b03199081166001600160a01b03808a16919091179283905560018054831682881617905533919093161760ff60a01b1916600160a01b8615150217835587516315ab88c960e31b8152975196979496939591169363ad5c464893818401939091829003018186803b1580156200011957600080fd5b505afa1580156200012e573d6000803e3d6000fd5b505050506040513d60208110156200014557600080fd5b5051600380546000906200015557fe5b9060005260206000200160006101000a8154816001600160a01b0302191690836001600160a01b031602179055508060036001815481106200019357fe5b9060005260206000200160006101000a8154816001600160a01b0302191690836001600160a01b031602179055505050506200024b565b82805482825590600052602060002090810192821562000222579160200282015b828111156200022257825182546001600160a01b0319166001600160a01b03909116178255602090920191600190910190620001eb565b506200023092915062000234565b5090565b5b8082111562000230576000815560010162000235565b611033806200025b6000396000f3fe6080604052600436106100555760003560e01c80631dcdf7a11461005a57806324cc07661461009d57806385e694b6146100e3578063d5f3948814610116578063d96073cf1461012b578063fc5bb07f14610162575b600080fd5b34801561006657600080fd5b506100846004803603602081101561007d57600080fd5b503561018c565b6040805192835260208301919091528051918290030190f35b3480156100a957600080fd5b506100c7600480360360208110156100c057600080fd5b50356103fc565b604080516001600160a01b039092168252519081900360200190f35b3480156100ef57600080fd5b506100c76004803603602081101561010657600080fd5b50356001600160a01b0316610426565b34801561012257600080fd5b506100c761052c565b61014e6004803603604081101561014157600080fd5b508035906020013561053b565b604080519115158252519081900360200190f35b34801561016e57600080fd5b506100846004803603602081101561018557600080fd5b503561056f565b60008061022c604051806040016040528060048152602001630ae8aa8960e31b81525060008054906101000a90046001600160a01b03166001600160a01b031663ad5c46486040518163ffffffff1660e01b815260040160206040518083038186803b1580156101fb57600080fd5b505afa15801561020f573d6000803e3d6000fd5b505050506040513d602081101561022557600080fd5b50516106ad565b6040805180820190915260048152634c494e4b60e01b602082015260015461025d91906001600160a01b03166106ad565b600080546040805163d06ca61f60e01b8152600481018781526024820192835260038054604484018190526001600160a01b039095169463d06ca61f948a949293929091606490910190849080156102de57602002820191906000526020600020905b81546001600160a01b031681526001909101906020018083116102c0575b5050935050505060006040518083038186803b1580156102fd57600080fd5b505afa158015610311573d6000803e3d6000fd5b505050506040513d6000823e601f3d908101601f19168201604052602081101561033a57600080fd5b810190808051604051939291908464010000000082111561035a57600080fd5b90830190602082018581111561036f57600080fd5b825186602082028301116401000000008211171561038c57600080fd5b82525081516020918201928201910280838360005b838110156103b95781810151838201526020016103a1565b505050509050016040525050509050806000815181106103d557fe5b6020026020010151816001815181106103ea57fe5b60200260200101519250925050915091565b6003818154811061040c57600080fd5b6000918252602090912001546001600160a01b0316905081565b600080600061047d600360008154811061043c57fe5b600091825260209091200154600380546001600160a01b0390921691600190811061046357fe5b6000918252602090912001546001600160a01b0316610768565b604080516bffffffffffffffffffffffff19606094851b811660208084019190915293851b81166034830152825160288184030181526048830184528051908501206001600160f81b031960688401529890941b9093166069840152607d8301969096527fd0d4c4cd0848c93cb4fd1f498d7013ee6bfb25783ea21593d5834f5d250ece66609d808401919091528651808403909101815260bd90920190955280519401939093209392505050565b6004546001600160a01b031681565b600454600090600160a01b900460ff1661055e576105598383610846565b610568565b6105688383610cd8565b9392505050565b6000806105de604051806040016040528060048152602001630ae8aa8960e31b81525060008054906101000a90046001600160a01b03166001600160a01b031663ad5c46486040518163ffffffff1660e01b815260040160206040518083038186803b1580156101fb57600080fd5b6040805180820190915260048152634c494e4b60e01b602082015260015461060f91906001600160a01b03166106ad565b60008054604080516307c0329d60e21b8152600481018781526024820192835260038054604484018190526001600160a01b0390951694631f00ca74948a949293929091606490910190849080156102de576020028201919060005260206000209081546001600160a01b031681526001909101906020018083116102c0575050935050505060006040518083038186803b1580156102fd57600080fd5b61076482826040516024018080602001836001600160a01b03168152602001828103825284818151815260200191508051906020019080838360005b838110156107015781810151838201526020016106e9565b50505050905090810190601f16801561072e5780820380516001836020036101000a031916815260200191505b5060408051601f198184030181529190526020810180516001600160e01b031663319af33360e01b1790529350610ef892505050565b5050565b600080826001600160a01b0316846001600160a01b031614156107bc5760405162461bcd60e51b8152600401808060200182810382526023815260200180610fdb6023913960400191505060405180910390fd5b826001600160a01b0316846001600160a01b0316106107dc5782846107df565b83835b90925090506001600160a01b03821661083f576040805162461bcd60e51b815260206004820152601c60248201527f50616e63616b654c6962726172793a205a45524f5f4144445245535300000000604482015290519081900360640190fd5b9250929050565b6040805180820190915260078152661350525393915560ca1b60208201526000906108829061087d34670de0b6b3a7640000610f19565b610f2c565b60008054906101000a90046001600160a01b03166001600160a01b031663fb3bdb413484600330886040518663ffffffff1660e01b81526004018085815260200180602001846001600160a01b03168152602001838152602001828103825285818154815260200191508054801561092357602002820191906000526020600020905b81546001600160a01b03168152600190910190602001808311610905575b5050955050505050506000604051808303818588803b15801561094557600080fd5b505af1158015610959573d6000803e3d6000fd5b50505050506040513d6000823e601f3d908101601f19168201604052602081101561098357600080fd5b81019080805160405193929190846401000000008211156109a357600080fd5b9083019060208201858111156109b857600080fd5b82518660208202830111640100000000821117156109d557600080fd5b82525081516020918201928201910280838360005b83811015610a025781810151838201526020016109ea565b5050505091909101604081815260015463095ea7b360e01b8352731fcc3b22955e76ca48bf025f1a6993685975bb9e6004840152602483018a905290516001600160a01b03909116965063095ea7b395506044808301955060209450909250908290030181600087803b158015610a7857600080fd5b505af1158015610a8c573d6000803e3d6000fd5b505050506040513d6020811015610aa257600080fd5b505060015460025460408051632b7f092360e01b8152600481018690526001600160a01b03938416602482015292909116604483015251731fcc3b22955e76ca48bf025f1a6993685975bb9e91632b7f092391606480830192600092919082900301818387803b158015610b1557600080fd5b505af1158015610b29573d6000803e3d6000fd5b5050604080518082018252600d81526c574c494e4b2042616c616e636560981b60208083019190915260025483516370a0823160e01b81523060048201529351610bcd96509294506001600160a01b0316926370a082319260248083019392829003018186803b158015610b9c57600080fd5b505afa158015610bb0573d6000803e3d6000fd5b505050506040513d6020811015610bc657600080fd5b5051610f2c565b60025460048054604080516370a0823160e01b81523093810193909352516001600160a01b039384169363a9059cbb9392169184916370a0823191602480820192602092909190829003018186803b158015610c2857600080fd5b505afa158015610c3c573d6000803e3d6000fd5b505050506040513d6020811015610c5257600080fd5b5051604080516001600160e01b031960e086901b1681526001600160a01b03909316600484015260248301919091525160448083019260209291908290030181600087803b158015610ca357600080fd5b505af1158015610cb7573d6000803e3d6000fd5b505050506040513d6020811015610ccd57600080fd5b506001949350505050565b60408051808201909152600781526654455354494e4760c81b6020820152600090610d0f9061087d34670de0b6b3a7640000610f19565b60008054906101000a90046001600160a01b03166001600160a01b031663fb3bdb413484600330886040518663ffffffff1660e01b81526004018085815260200180602001846001600160a01b031681526020018381526020018281038252858181548152602001915080548015610db057602002820191906000526020600020905b81546001600160a01b03168152600190910190602001808311610d92575b5050955050505050506000604051808303818588803b158015610dd257600080fd5b505af1158015610de6573d6000803e3d6000fd5b50505050506040513d6000823e601f3d908101601f191682016040526020811015610e1057600080fd5b8101908080516040519392919084640100000000821115610e3057600080fd5b908301906020820185811115610e4557600080fd5b8251866020820283011164010000000082111715610e6257600080fd5b82525081516020918201928201910280838360005b83811015610e8f578181015183820152602001610e77565b505050509190910160408181526001546004805463a9059cbb60e01b85526001600160a01b0390811691850191909152602484018b905291519116965063a9059cbb95506044808301955060209450909250908290030181600087803b158015610ca357600080fd5b80516a636f6e736f6c652e6c6f67602083016000808483855afa5050505050565b6000818381610f2457fe5b049392505050565b61076482826040516024018080602001838152602001828103825284818151815260200191508051906020019080838360005b83811015610f77578181015183820152602001610f5f565b50505050905090810190601f168015610fa45780820380516001836020036101000a031916815260200191505b5060408051601f198184030181529190526020810180516001600160e01b03166309710a9d60e41b1790529350610ef89250505056fe50616e63616b654c6962726172793a204944454e544943414c5f414444524553534553a26469706673582212201e70a95db26d15d2e2ff9b2cd405adfee85f19530e9f62aa640d0ba91ce8533564736f6c63430007060033",
  "linkReferences": {},
  "deployedLinkReferences": {}
}