{
  "_format": "hh-sol-artifact-1",
  "contractName": "Beebits",
  "sourceName": "contracts/Beebits.sol",
  "abi": [
    {
      "inputs": [
        {
          "internalType": "address",
          "name": "_bunks",
          "type": "address"
        },
        {
          "internalType": "address payable",
          "name": "_beneficiary",
          "type": "address"
        }
      ],
      "stateMutability": "nonpayable",
      "type": "constructor"
    },
    {
      "anonymous": false,
      "inputs": [
        {
          "indexed": true,
          "internalType": "address",
          "name": "owner",
          "type": "address"
        },
        {
          "indexed": true,
          "internalType": "address",
          "name": "approved",
          "type": "address"
        },
        {
          "indexed": true,
          "internalType": "uint256",
          "name": "tokenId",
          "type": "uint256"
        }
      ],
      "name": "Approval",
      "type": "event"
    },
    {
      "anonymous": false,
      "inputs": [
        {
          "indexed": true,
          "internalType": "address",
          "name": "owner",
          "type": "address"
        },
        {
          "indexed": true,
          "internalType": "address",
          "name": "operator",
          "type": "address"
        },
        {
          "indexed": false,
          "internalType": "bool",
          "name": "approved",
          "type": "bool"
        }
      ],
      "name": "ApprovalForAll",
      "type": "event"
    },
    {
      "anonymous": false,
      "inputs": [
        {
          "indexed": false,
          "internalType": "uint256",
          "name": "tokenId",
          "type": "uint256"
        },
        {
          "indexed": false,
          "internalType": "uint256",
          "name": "askingPrice",
          "type": "uint256"
        },
        {
          "indexed": false,
          "internalType": "address",
          "name": "buyerAddress",
          "type": "address"
        }
      ],
      "name": "BeebitListed",
      "type": "event"
    },
    {
      "anonymous": false,
      "inputs": [],
      "name": "CommunityGrantEnds",
      "type": "event"
    },
    {
      "anonymous": false,
      "inputs": [
        {
          "indexed": true,
          "internalType": "address",
          "name": "account",
          "type": "address"
        },
        {
          "indexed": false,
          "internalType": "uint256",
          "name": "amount",
          "type": "uint256"
        }
      ],
      "name": "Deposit",
      "type": "event"
    },
    {
      "anonymous": false,
      "inputs": [
        {
          "indexed": true,
          "internalType": "uint256",
          "name": "index",
          "type": "uint256"
        },
        {
          "indexed": true,
          "internalType": "address",
          "name": "minter",
          "type": "address"
        },
        {
          "indexed": false,
          "internalType": "uint256",
          "name": "createdVia",
          "type": "uint256"
        }
      ],
      "name": "Mint",
      "type": "event"
    },
    {
      "anonymous": false,
      "inputs": [
        {
          "indexed": false,
          "internalType": "bytes32",
          "name": "hash",
          "type": "bytes32"
        }
      ],
      "name": "OfferCancelled",
      "type": "event"
    },
    {
      "anonymous": false,
      "inputs": [],
      "name": "SaleBegins",
      "type": "event"
    },
    {
      "anonymous": false,
      "inputs": [
        {
          "indexed": true,
          "internalType": "bytes32",
          "name": "hash",
          "type": "bytes32"
        },
        {
          "indexed": true,
          "internalType": "address",
          "name": "maker",
          "type": "address"
        },
        {
          "indexed": false,
          "internalType": "address",
          "name": "taker",
          "type": "address"
        },
        {
          "indexed": false,
          "internalType": "uint256",
          "name": "makerWei",
          "type": "uint256"
        },
        {
          "indexed": false,
          "internalType": "uint256[]",
          "name": "makerIds",
          "type": "uint256[]"
        },
        {
          "indexed": false,
          "internalType": "uint256",
          "name": "takerWei",
          "type": "uint256"
        },
        {
          "indexed": false,
          "internalType": "uint256[]",
          "name": "takerIds",
          "type": "uint256[]"
        }
      ],
      "name": "Trade",
      "type": "event"
    },
    {
      "anonymous": false,
      "inputs": [
        {
          "indexed": true,
          "internalType": "address",
          "name": "from",
          "type": "address"
        },
        {
          "indexed": true,
          "internalType": "address",
          "name": "to",
          "type": "address"
        },
        {
          "indexed": true,
          "internalType": "uint256",
          "name": "tokenId",
          "type": "uint256"
        }
      ],
      "name": "Transfer",
      "type": "event"
    },
    {
      "anonymous": false,
      "inputs": [
        {
          "indexed": true,
          "internalType": "address",
          "name": "account",
          "type": "address"
        },
        {
          "indexed": false,
          "internalType": "uint256",
          "name": "amount",
          "type": "uint256"
        }
      ],
      "name": "Withdraw",
      "type": "event"
    },
    {
      "inputs": [],
      "name": "SALE_LIMIT",
      "outputs": [
        {
          "internalType": "uint256",
          "name": "",
          "type": "uint256"
        }
      ],
      "stateMutability": "view",
      "type": "function"
    },
    {
      "inputs": [],
      "name": "TOKEN_LIMIT",
      "outputs": [
        {
          "internalType": "uint256",
          "name": "",
          "type": "uint256"
        }
      ],
      "stateMutability": "view",
      "type": "function"
    },
    {
      "inputs": [
        {
          "internalType": "address",
          "name": "maker",
          "type": "address"
        },
        {
          "internalType": "address",
          "name": "taker",
          "type": "address"
        },
        {
          "internalType": "uint256",
          "name": "makerWei",
          "type": "uint256"
        },
        {
          "internalType": "uint256[]",
          "name": "makerIds",
          "type": "uint256[]"
        },
        {
          "internalType": "uint256",
          "name": "takerWei",
          "type": "uint256"
        },
        {
          "internalType": "uint256[]",
          "name": "takerIds",
          "type": "uint256[]"
        },
        {
          "internalType": "uint256",
          "name": "expiry",
          "type": "uint256"
        },
        {
          "internalType": "uint256",
          "name": "salt",
          "type": "uint256"
        },
        {
          "internalType": "bytes",
          "name": "signature",
          "type": "bytes"
        }
      ],
      "name": "acceptTrade",
      "outputs": [],
      "stateMutability": "payable",
      "type": "function"
    },
    {
      "inputs": [
        {
          "internalType": "address",
          "name": "_approved",
          "type": "address"
        },
        {
          "internalType": "uint256",
          "name": "_tokenId",
          "type": "uint256"
        }
      ],
      "name": "approve",
      "outputs": [],
      "stateMutability": "nonpayable",
      "type": "function"
    },
    {
      "inputs": [
        {
          "internalType": "address",
          "name": "_owner",
          "type": "address"
        }
      ],
      "name": "balanceOf",
      "outputs": [
        {
          "internalType": "uint256",
          "name": "",
          "type": "uint256"
        }
      ],
      "stateMutability": "view",
      "type": "function"
    },
    {
      "inputs": [
        {
          "internalType": "address",
          "name": "maker",
          "type": "address"
        },
        {
          "internalType": "address",
          "name": "taker",
          "type": "address"
        },
        {
          "internalType": "uint256",
          "name": "makerWei",
          "type": "uint256"
        },
        {
          "internalType": "uint256[]",
          "name": "makerIds",
          "type": "uint256[]"
        },
        {
          "internalType": "uint256",
          "name": "takerWei",
          "type": "uint256"
        },
        {
          "internalType": "uint256[]",
          "name": "takerIds",
          "type": "uint256[]"
        },
        {
          "internalType": "uint256",
          "name": "expiry",
          "type": "uint256"
        },
        {
          "internalType": "uint256",
          "name": "salt",
          "type": "uint256"
        }
      ],
      "name": "cancelOffer",
      "outputs": [],
      "stateMutability": "nonpayable",
      "type": "function"
    },
    {
      "inputs": [
        {
          "internalType": "bytes32",
          "name": "",
          "type": "bytes32"
        }
      ],
      "name": "cancelledOffers",
      "outputs": [
        {
          "internalType": "bool",
          "name": "",
          "type": "bool"
        }
      ],
      "stateMutability": "view",
      "type": "function"
    },
    {
      "inputs": [
        {
          "internalType": "uint256",
          "name": "_newSaleCount",
          "type": "uint256"
        }
      ],
      "name": "changeSaleCount",
      "outputs": [],
      "stateMutability": "nonpayable",
      "type": "function"
    },
    {
      "inputs": [],
      "name": "communityGrant",
      "outputs": [
        {
          "internalType": "bool",
          "name": "",
          "type": "bool"
        }
      ],
      "stateMutability": "view",
      "type": "function"
    },
    {
      "inputs": [],
      "name": "contentHash",
      "outputs": [
        {
          "internalType": "string",
          "name": "",
          "type": "string"
        }
      ],
      "stateMutability": "view",
      "type": "function"
    },
    {
      "inputs": [],
      "name": "contractSealed",
      "outputs": [
        {
          "internalType": "bool",
          "name": "",
          "type": "bool"
        }
      ],
      "stateMutability": "view",
      "type": "function"
    },
    {
      "inputs": [
        {
          "internalType": "uint256",
          "name": "",
          "type": "uint256"
        }
      ],
      "name": "creatorNftMints",
      "outputs": [
        {
          "internalType": "uint256",
          "name": "",
          "type": "uint256"
        }
      ],
      "stateMutability": "view",
      "type": "function"
    },
    {
      "inputs": [],
      "name": "deposit",
      "outputs": [],
      "stateMutability": "payable",
      "type": "function"
    },
    {
      "inputs": [
        {
          "internalType": "uint256",
          "name": "quantity",
          "type": "uint256"
        },
        {
          "internalType": "address",
          "name": "recipient",
          "type": "address"
        }
      ],
      "name": "devMint",
      "outputs": [],
      "stateMutability": "nonpayable",
      "type": "function"
    },
    {
      "inputs": [],
      "name": "endCommunityGrant",
      "outputs": [],
      "stateMutability": "nonpayable",
      "type": "function"
    },
    {
      "inputs": [
        {
          "internalType": "address",
          "name": "",
          "type": "address"
        }
      ],
      "name": "ethBalance",
      "outputs": [
        {
          "internalType": "uint256",
          "name": "",
          "type": "uint256"
        }
      ],
      "stateMutability": "view",
      "type": "function"
    },
    {
      "inputs": [
        {
          "internalType": "uint256",
          "name": "_tokenId",
          "type": "uint256"
        }
      ],
      "name": "getApproved",
      "outputs": [
        {
          "internalType": "address",
          "name": "",
          "type": "address"
        }
      ],
      "stateMutability": "view",
      "type": "function"
    },
    {
      "inputs": [],
      "name": "getPrice",
      "outputs": [
        {
          "internalType": "uint256",
          "name": "",
          "type": "uint256"
        }
      ],
      "stateMutability": "view",
      "type": "function"
    },
    {
      "inputs": [
        {
          "internalType": "address",
          "name": "maker",
          "type": "address"
        },
        {
          "internalType": "address",
          "name": "taker",
          "type": "address"
        },
        {
          "internalType": "uint256",
          "name": "makerWei",
          "type": "uint256"
        },
        {
          "internalType": "uint256[]",
          "name": "makerIds",
          "type": "uint256[]"
        },
        {
          "internalType": "uint256",
          "name": "takerWei",
          "type": "uint256"
        },
        {
          "internalType": "uint256[]",
          "name": "takerIds",
          "type": "uint256[]"
        },
        {
          "internalType": "uint256",
          "name": "expiry",
          "type": "uint256"
        },
        {
          "internalType": "uint256",
          "name": "salt",
          "type": "uint256"
        }
      ],
      "name": "hashToSign",
      "outputs": [
        {
          "internalType": "bytes32",
          "name": "",
          "type": "bytes32"
        }
      ],
      "stateMutability": "pure",
      "type": "function"
    },
    {
      "inputs": [
        {
          "internalType": "address",
          "name": "_owner",
          "type": "address"
        },
        {
          "internalType": "address",
          "name": "_operator",
          "type": "address"
        }
      ],
      "name": "isApprovedForAll",
      "outputs": [
        {
          "internalType": "bool",
          "name": "",
          "type": "bool"
        }
      ],
      "stateMutability": "view",
      "type": "function"
    },
    {
      "inputs": [
        {
          "internalType": "uint256",
          "name": "_askerTokenId",
          "type": "uint256"
        },
        {
          "internalType": "uint256",
          "name": "_askerMinPrice",
          "type": "uint256"
        }
      ],
      "name": "listBeebit",
      "outputs": [
        {
          "internalType": "bool",
          "name": "",
          "type": "bool"
        }
      ],
      "stateMutability": "nonpayable",
      "type": "function"
    },
    {
      "inputs": [],
      "name": "marketPaused",
      "outputs": [
        {
          "internalType": "bool",
          "name": "",
          "type": "bool"
        }
      ],
      "stateMutability": "view",
      "type": "function"
    },
    {
      "inputs": [],
      "name": "mint",
      "outputs": [
        {
          "internalType": "uint256",
          "name": "",
          "type": "uint256"
        }
      ],
      "stateMutability": "payable",
      "type": "function"
    },
    {
      "inputs": [
        {
          "internalType": "uint256",
          "name": "_createVia",
          "type": "uint256"
        }
      ],
      "name": "mintWithBunk",
      "outputs": [
        {
          "internalType": "uint256",
          "name": "",
          "type": "uint256"
        }
      ],
      "stateMutability": "nonpayable",
      "type": "function"
    },
    {
      "inputs": [],
      "name": "mintsRemaining",
      "outputs": [
        {
          "internalType": "uint256",
          "name": "",
          "type": "uint256"
        }
      ],
      "stateMutability": "view",
      "type": "function"
    },
    {
      "inputs": [],
      "name": "name",
      "outputs": [
        {
          "internalType": "string",
          "name": "_name",
          "type": "string"
        }
      ],
      "stateMutability": "view",
      "type": "function"
    },
    {
      "inputs": [
        {
          "internalType": "uint256",
          "name": "_tokenId",
          "type": "uint256"
        }
      ],
      "name": "ownerOf",
      "outputs": [
        {
          "internalType": "address",
          "name": "_owner",
          "type": "address"
        }
      ],
      "stateMutability": "view",
      "type": "function"
    },
    {
      "inputs": [
        {
          "internalType": "address",
          "name": "",
          "type": "address"
        },
        {
          "internalType": "uint256",
          "name": "",
          "type": "uint256"
        }
      ],
      "name": "ownerToIds",
      "outputs": [
        {
          "internalType": "uint256",
          "name": "",
          "type": "uint256"
        }
      ],
      "stateMutability": "view",
      "type": "function"
    },
    {
      "inputs": [
        {
          "internalType": "bool",
          "name": "_paused",
          "type": "bool"
        }
      ],
      "name": "pauseMarket",
      "outputs": [],
      "stateMutability": "nonpayable",
      "type": "function"
    },
    {
      "inputs": [],
      "name": "publicSale",
      "outputs": [
        {
          "internalType": "bool",
          "name": "",
          "type": "bool"
        }
      ],
      "stateMutability": "view",
      "type": "function"
    },
    {
      "inputs": [
        {
          "internalType": "address",
          "name": "_from",
          "type": "address"
        },
        {
          "internalType": "address",
          "name": "_to",
          "type": "address"
        },
        {
          "internalType": "uint256",
          "name": "_tokenId",
          "type": "uint256"
        }
      ],
      "name": "safeTransferFrom",
      "outputs": [],
      "stateMutability": "nonpayable",
      "type": "function"
    },
    {
      "inputs": [
        {
          "internalType": "address",
          "name": "_from",
          "type": "address"
        },
        {
          "internalType": "address",
          "name": "_to",
          "type": "address"
        },
        {
          "internalType": "uint256",
          "name": "_tokenId",
          "type": "uint256"
        },
        {
          "internalType": "bytes",
          "name": "_data",
          "type": "bytes"
        }
      ],
      "name": "safeTransferFrom",
      "outputs": [],
      "stateMutability": "nonpayable",
      "type": "function"
    },
    {
      "inputs": [],
      "name": "saleDuration",
      "outputs": [
        {
          "internalType": "uint256",
          "name": "",
          "type": "uint256"
        }
      ],
      "stateMutability": "view",
      "type": "function"
    },
    {
      "inputs": [],
      "name": "saleStartTime",
      "outputs": [
        {
          "internalType": "uint256",
          "name": "",
          "type": "uint256"
        }
      ],
      "stateMutability": "view",
      "type": "function"
    },
    {
      "inputs": [],
      "name": "sealContract",
      "outputs": [],
      "stateMutability": "nonpayable",
      "type": "function"
    },
    {
      "inputs": [
        {
          "internalType": "address",
          "name": "_operator",
          "type": "address"
        },
        {
          "internalType": "bool",
          "name": "_approved",
          "type": "bool"
        }
      ],
      "name": "setApprovalForAll",
      "outputs": [],
      "stateMutability": "nonpayable",
      "type": "function"
    },
    {
      "inputs": [
        {
          "internalType": "uint256",
          "name": "_price",
          "type": "uint256"
        },
        {
          "internalType": "uint256",
          "name": "_saleDuration",
          "type": "uint256"
        }
      ],
      "name": "startSale",
      "outputs": [],
      "stateMutability": "nonpayable",
      "type": "function"
    },
    {
      "inputs": [
        {
          "internalType": "bytes4",
          "name": "_interfaceID",
          "type": "bytes4"
        }
      ],
      "name": "supportsInterface",
      "outputs": [
        {
          "internalType": "bool",
          "name": "",
          "type": "bool"
        }
      ],
      "stateMutability": "view",
      "type": "function"
    },
    {
      "inputs": [],
      "name": "symbol",
      "outputs": [
        {
          "internalType": "string",
          "name": "_symbol",
          "type": "string"
        }
      ],
      "stateMutability": "view",
      "type": "function"
    },
    {
      "inputs": [
        {
          "internalType": "uint256",
          "name": "index",
          "type": "uint256"
        }
      ],
      "name": "tokenByIndex",
      "outputs": [
        {
          "internalType": "uint256",
          "name": "",
          "type": "uint256"
        }
      ],
      "stateMutability": "pure",
      "type": "function"
    },
    {
      "inputs": [
        {
          "internalType": "address",
          "name": "_owner",
          "type": "address"
        },
        {
          "internalType": "uint256",
          "name": "_index",
          "type": "uint256"
        }
      ],
      "name": "tokenOfOwnerByIndex",
      "outputs": [
        {
          "internalType": "uint256",
          "name": "",
          "type": "uint256"
        }
      ],
      "stateMutability": "view",
      "type": "function"
    },
    {
      "inputs": [
        {
          "internalType": "uint256",
          "name": "_tokenId",
          "type": "uint256"
        }
      ],
      "name": "tokenURI",
      "outputs": [
        {
          "internalType": "string",
          "name": "",
          "type": "string"
        }
      ],
      "stateMutability": "view",
      "type": "function"
    },
    {
      "inputs": [],
      "name": "totalSupply",
      "outputs": [
        {
          "internalType": "uint256",
          "name": "",
          "type": "uint256"
        }
      ],
      "stateMutability": "view",
      "type": "function"
    },
    {
      "inputs": [
        {
          "internalType": "address",
          "name": "maker",
          "type": "address"
        },
        {
          "internalType": "address",
          "name": "taker",
          "type": "address"
        },
        {
          "internalType": "uint256",
          "name": "makerWei",
          "type": "uint256"
        },
        {
          "internalType": "uint256[]",
          "name": "makerIds",
          "type": "uint256[]"
        },
        {
          "internalType": "uint256",
          "name": "takerWei",
          "type": "uint256"
        },
        {
          "internalType": "uint256[]",
          "name": "takerIds",
          "type": "uint256[]"
        },
        {
          "internalType": "uint256",
          "name": "expiry",
          "type": "uint256"
        },
        {
          "internalType": "uint256",
          "name": "salt",
          "type": "uint256"
        },
        {
          "internalType": "bytes",
          "name": "signature",
          "type": "bytes"
        }
      ],
      "name": "tradeValid",
      "outputs": [
        {
          "internalType": "bool",
          "name": "",
          "type": "bool"
        }
      ],
      "stateMutability": "view",
      "type": "function"
    },
    {
      "inputs": [
        {
          "internalType": "address",
          "name": "_from",
          "type": "address"
        },
        {
          "internalType": "address",
          "name": "_to",
          "type": "address"
        },
        {
          "internalType": "uint256",
          "name": "_tokenId",
          "type": "uint256"
        }
      ],
      "name": "transferFrom",
      "outputs": [],
      "stateMutability": "nonpayable",
      "type": "function"
    },
    {
      "inputs": [
        {
          "internalType": "uint256",
          "name": "amount",
          "type": "uint256"
        }
      ],
      "name": "withdraw",
      "outputs": [],
      "stateMutability": "nonpayable",
      "type": "function"
    }
  ],
  "bytecode": "0x60e0604052602e608081815290620042b260a03980516200002991600091602090910190620001fa565b50612710600155604080518082019091526007808252664265656269747360c81b60209092019182526200006091600991620001fa565b5060408051808201909152600380825262e29a8760e81b60209092019182526200008d91600a91620001fa565b506000600b819055600c819055600f805460ff60a81b1960ff60a01b19909116600160a01b17169055601355614e39805460ff19169055348015620000d157600080fd5b50604051620042e0380380620042e083398181016040526040811015620000f757600080fd5b50805160209182015160029092527f71203db6a8b906f8e7c7701ea536708e3d7c6018d3ad50e5680c3241edacce178054600160ff1991821681179092557fe93570590271d95518ca425fa83dfa75d04081fc79a4d9a58f39c8df65a8e7a180548216831790557fdea2b207876963907afe1816d4888d650521cd53e74f3055eeb250c96c41fdc88054821683179055635b5e139f60e01b6000527fe7f4f15f8a9f2f6fc23737b039e4cbf51e96102d2c02d512a4356c0910a430f580549091169091179055600e8054336001600160a01b031991821617909155600d805482166001600160a01b03938416179055600f805490911691909216179055620002a6565b828054600181600116156101000203166002900490600052602060002090601f0160209004810192826200023257600085556200027d565b82601f106200024d57805160ff19168380011785556200027d565b828001600101855582156200027d579182015b828111156200027d57825182559160200191906001019062000260565b506200028b9291506200028f565b5090565b5b808211156200028b576000815560010162000290565b613ffc80620002b66000396000f3fe60806040526004361061027d5760003560e01c80635ec390d81161014f578063b88d4fde116100c1578063d8f3790f1161007a578063d8f3790f14610dd4578063e0ca1f6714610e07578063e985e9c514610e37578063f4f3122e14610e72578063f592934c14610ea2578063feb3d3d6146110005761027d565b8063b88d4fde14610ade578063b9f7e21814610b79578063c87b56dd14610ba3578063d0e30db014610bcd578063d357b01e14610bd5578063d3d6c76714610bea5761027d565b80638a84fe00116101135780638a84fe00146108dc57806395d89b4114610a3a57806398d5fdca14610a4f5780639f7bf76214610a64578063a22cb46514610a8e578063b650163714610ac95761027d565b80635ec390d8146108295780636352211e14610855578063646c2e331461087f57806368bd580e1461089457806370a08231146108a95761027d565b806323b872dd116101f35780633711d9fb116101ac5780633711d9fb146107535780633a283bd21461076857806342842e0e1461077d57806344c66be7146107c0578063475e41de146107d55780634f6ccce7146107ff5761027d565b806323b872dd146106355780632d1a12f6146106785780632e1a7d4d146106b15780632f745c59146106db5780632fa13dd11461071457806333bc1c5c1461073e5761027d565b8063095ea7b311610245578063095ea7b3146103d65780630faadcf6146104115780631249c58b146105ee57806318160ddd146105f65780631cbaee2d1461060b578063212e8f67146106205761027d565b806301ffc9a714610282578063031bd4c4146102ca5780630614a6ba146102f157806306fdde0314610306578063081812fc14610390575b600080fd5b34801561028e57600080fd5b506102b6600480360360208110156102a557600080fd5b50356001600160e01b031916611039565b604080519115158252519081900360200190f35b3480156102d657600080fd5b506102df61105c565b60408051918252519081900360200190f35b3480156102fd57600080fd5b506102b6611062565b34801561031257600080fd5b5061031b611072565b6040805160208082528351818301528351919283929083019185019080838360005b8381101561035557818101518382015260200161033d565b50505050905090810190601f1680156103825780820380516001836020036101000a031916815260200191505b509250505060405180910390f35b34801561039c57600080fd5b506103ba600480360360208110156103b357600080fd5b5035611108565b604080516001600160a01b039092168252519081900360200190f35b3480156103e257600080fd5b5061040f600480360360408110156103f957600080fd5b506001600160a01b038135169060200135611181565b005b61040f600480360361012081101561042857600080fd5b6001600160a01b03823581169260208101359091169160408201359190810190608081016060820135600160201b81111561046257600080fd5b82018360208201111561047457600080fd5b803590602001918460208302840111600160201b8311171561049557600080fd5b91908080602002602001604051908101604052809392919081815260200183836020028082843760009201919091525092958435959094909350604081019250602001359050600160201b8111156104ec57600080fd5b8201836020820111156104fe57600080fd5b803590602001918460208302840111600160201b8311171561051f57600080fd5b9190808060200260200160405190810160405280939291908181526020018383602002808284376000920191909152509295843595602086013595919450925060608101915060400135600160201b81111561057a57600080fd5b82018360208201111561058c57600080fd5b803590602001918460018302840111600160201b831117156105ad57600080fd5b91908080601f0160208091040260200160405190810160405280939291908181526020018383808284376000920191909152509295506112f3945050505050565b6102df611831565b34801561060257600080fd5b506102df611a3b565b34801561061757600080fd5b506102df611a42565b34801561062c57600080fd5b506102df611a48565b34801561064157600080fd5b5061040f6004803603606081101561065857600080fd5b506001600160a01b03813581169160208101359091169060400135611a4e565b34801561068457600080fd5b5061040f6004803603604081101561069b57600080fd5b50803590602001356001600160a01b0316611c24565b3480156106bd57600080fd5b5061040f600480360360208110156106d457600080fd5b5035611c98565b3480156106e757600080fd5b506102df600480360360408110156106fe57600080fd5b506001600160a01b038135169060200135611e5e565b34801561072057600080fd5b506102df6004803603602081101561073757600080fd5b5035611eba565b34801561074a57600080fd5b506102b66120fd565b34801561075f57600080fd5b506102df61210d565b34801561077457600080fd5b506102b6612113565b34801561078957600080fd5b5061040f600480360360608110156107a057600080fd5b506001600160a01b0381358116916020810135909116906040013561211d565b3480156107cc57600080fd5b506102df612138565b3480156107e157600080fd5b5061040f600480360360208110156107f857600080fd5b5035612156565b34801561080b57600080fd5b506102df6004803603602081101561082257600080fd5b50356121ab565b34801561083557600080fd5b5061040f6004803603602081101561084c57600080fd5b503515156121c2565b34801561086157600080fd5b506103ba6004803603602081101561087857600080fd5b5035612277565b34801561088b57600080fd5b5061031b6122b4565b3480156108a057600080fd5b5061040f612342565b3480156108b557600080fd5b506102df600480360360208110156108cc57600080fd5b50356001600160a01b03166123a4565b3480156108e857600080fd5b5061040f600480360361010081101561090057600080fd5b6001600160a01b03823581169260208101359091169160408201359190810190608081016060820135600160201b81111561093a57600080fd5b82018360208201111561094c57600080fd5b803590602001918460208302840111600160201b8311171561096d57600080fd5b91908080602002602001604051908101604052809392919081815260200183836020028082843760009201919091525092958435959094909350604081019250602001359050600160201b8111156109c457600080fd5b8201836020820111156109d657600080fd5b803590602001918460208302840111600160201b831117156109f757600080fd5b91908080602002602001604051908101604052809392919081815260200183836020028082843760009201919091525092955050823593505050602001356123c2565b348015610a4657600080fd5b5061031b6124c1565b348015610a5b57600080fd5b506102df612522565b348015610a7057600080fd5b506102b660048036036020811015610a8757600080fd5b50356125d0565b348015610a9a57600080fd5b5061040f60048036036040811015610ab157600080fd5b506001600160a01b03813516906020013515156125e6565b348015610ad557600080fd5b506102b6612654565b348015610aea57600080fd5b5061040f60048036036080811015610b0157600080fd5b6001600160a01b03823581169260208101359091169160408201359190810190608081016060820135600160201b811115610b3b57600080fd5b820183602082011115610b4d57600080fd5b803590602001918460018302840111600160201b83111715610b6e57600080fd5b509092509050612663565b348015610b8557600080fd5b506102df60048036036020811015610b9c57600080fd5b50356126ac565b348015610baf57600080fd5b5061031b60048036036020811015610bc657600080fd5b50356126be565b61040f6127bc565b348015610be157600080fd5b5061040f612823565b348015610bf657600080fd5b506102b66004803603610120811015610c0e57600080fd5b6001600160a01b03823581169260208101359091169160408201359190810190608081016060820135600160201b811115610c4857600080fd5b820183602082011115610c5a57600080fd5b803590602001918460208302840111600160201b83111715610c7b57600080fd5b91908080602002602001604051908101604052809392919081815260200183836020028082843760009201919091525092958435959094909350604081019250602001359050600160201b811115610cd257600080fd5b820183602082011115610ce457600080fd5b803590602001918460208302840111600160201b83111715610d0557600080fd5b9190808060200260200160405190810160405280939291908181526020018383602002808284376000920191909152509295843595602086013595919450925060608101915060400135600160201b811115610d6057600080fd5b820183602082011115610d7257600080fd5b803590602001918460018302840111600160201b83111715610d9357600080fd5b91908080601f0160208091040260200160405190810160405280939291908181526020018383808284376000920191909152509295506128c1945050505050565b348015610de057600080fd5b506102df60048036036020811015610df757600080fd5b50356001600160a01b0316612cdd565b348015610e1357600080fd5b506102b660048036036040811015610e2a57600080fd5b5080359060200135612cf0565b348015610e4357600080fd5b506102b660048036036040811015610e5a57600080fd5b506001600160a01b0381358116916020013516612f04565b348015610e7e57600080fd5b5061040f60048036036040811015610e9557600080fd5b5080359060200135612f32565b348015610eae57600080fd5b506102df6004803603610100811015610ec657600080fd5b6001600160a01b03823581169260208101359091169160408201359190810190608081016060820135600160201b811115610f0057600080fd5b820183602082011115610f1257600080fd5b803590602001918460208302840111600160201b83111715610f3357600080fd5b91908080602002602001604051908101604052809392919081815260200183836020028082843760009201919091525092958435959094909350604081019250602001359050600160201b811115610f8a57600080fd5b820183602082011115610f9c57600080fd5b803590602001918460208302840111600160201b83111715610fbd57600080fd5b9190808060200260200160405190810160405280939291908181526020018383602002808284376000920191909152509295505082359350505060200135612fe7565b34801561100c57600080fd5b506102df6004803603604081101561102357600080fd5b506001600160a01b03813516906020013561304f565b6001600160e01b0319811660009081526002602052604090205460ff165b919050565b614e2081565b600f54600160a01b900460ff1681565b60098054604080516020601f60026000196101006001881615020190951694909404938401819004810282018101909252828152606093909290918301828280156110fe5780601f106110d3576101008083540402835291602001916110fe565b820191906000526020600020905b8154815290600101906020018083116110e157829003601f168201915b5050505050905090565b60008181526003602052604081205482906001600160a01b0316611164576040805162461bcd60e51b815260206004820152600e60248201526d24b73b30b634b2103a37b5b2b71760911b604482015290519081900360640190fd5b50506000908152600560205260409020546001600160a01b031690565b60008181526003602052604090205481906001600160a01b0316338114806111cc57506001600160a01b038116600090815260066020908152604080832033845290915290205460ff165b61120f576040805162461bcd60e51b815260206004820152600f60248201526e21b0b73737ba1037b832b930ba329760891b604482015290519081900360640190fd5b60008381526003602052604090205483906001600160a01b031661126b576040805162461bcd60e51b815260206004820152600e60248201526d24b73b30b634b2103a37b5b2b71760911b604482015290519081900360640190fd5b6000848152600360205260409020546001600160a01b0390811690861681141561129457600080fd5b60008581526005602052604080822080546001600160a01b0319166001600160a01b038a811691821790925591518893918516917f8c5be1e5ebec7d5bd14f71427d1e84f3dd0314c0f7b2291e5b200ac8c7c3b92591a4505050505050565b614e395460ff161561133a576040805162461bcd60e51b815260206004820152601c6024820152600080516020613d9e833981519152604482015290519081900360640190fd5b614e39805460ff19166001179055614e345460ff16156113a1576040805162461bcd60e51b815260206004820152601a60248201527f426565626974733a206d61726b6574206973207061757365642e000000000000604482015290519081900360640190fd5b336001600160a01b038a1614156113e95760405162461bcd60e51b8152600401808060200182810382526025815260200180613fa26025913960400191505060405180910390fd5b60006040518061010001604052808b6001600160a01b031681526020018a6001600160a01b0316815260200189815260200188815260200187815260200186815260200185815260200184815250905060003411156114a857336000908152614e35602052604090205461145d9034613080565b336000818152614e356020908152604091829020939093558051348152905191927fe1fffcc4923d04b559f4d29a8bfc6cda04eb5b0d3c460751c2402c5c5cc9109c92918290030190a25b60208101516001600160a01b031615806114ce575060208101516001600160a01b031633145b6115095760405162461bcd60e51b8152600401808060200182810382526029815260200180613ea66029913960400191505060405180910390fd5b61151a8a8a8a8a8a8a8a8a8a6128c1565b61156b576040805162461bcd60e51b815260206004820152601960248201527f426565626974733a207472616465206e6f742076616c69642e00000000000000604482015290519081900360640190fd5b6080810151336000908152614e35602052604090205410156115be5760405162461bcd60e51b815260040180806020018281038252602d815260200180613e4b602d913960400191505060405180910390fd5b60408082015182516001600160a01b03166000908152614e3560205291909120546115e891613090565b81516001600160a01b03166000908152614e35602052604080822092909255818301513382529190205461161b91613080565b336000908152614e3560205260409020819055608082015161163d9190613090565b336000908152614e35602052604080822092909255608083015183516001600160a01b031682529190205461167191613080565b81516001600160a01b03166000908152614e3560205260408120919091555b87518110156116be576116b6338983815181106116a957fe5b60200260200101516130a5565b600101611690565b5060005b85518110156116e3576116db8b8783815181106116a957fe5b6001016116c2565b5060006116ef82613120565b90506001614e36600083815260200190815260200160002060006101000a81548160ff02191690831515021790555081600001516001600160a01b0316817f753d4db383bcac616c2e2651156bc71c1ec81c0d5509071a85e3f565568765a3338560400151866060015187608001518860a0015160405180866001600160a01b031681526020018581526020018060200184815260200180602001838103835286818151815260200191508051906020019060200280838360005b838110156117c25781810151838201526020016117aa565b50505050905001838103825284818151815260200191508051906020019060200280838360005b838110156118015781810151838201526020016117e9565b5050505090500197505050505050505060405180910390a35050614e39805460ff19169055505050505050505050565b614e395460009060ff161561187b576040805162461bcd60e51b815260206004820152601c6024820152600080516020613d9e833981519152604482015290519081900360640190fd5b614e39805460ff19166001179055600f54600160a81b900460ff166118db576040805162461bcd60e51b815260206004820152601160248201527029b0b632903737ba1039ba30b93a32b21760791b604482015290519081900360640190fd5b614e345460ff16156118ec57600080fd5b600154600c541061193a576040805162461bcd60e51b815260206004820152601360248201527229b0b632903634b6b4ba103932b0b1b432b21760691b604482015290519081900360640190fd5b6000611944612522565b90508034101561199b576040805162461bcd60e51b815260206004820152601f60248201527f496e73756666696369656e742066756e647320746f2070757263686173652e00604482015290519081900360640190fd5b803411156119db57336108fc6119b13484613090565b6040518115909202916000818181858888f193505050501580156119d9573d6000803e3d6000fd5b505b600f546040516001600160a01b039091169082156108fc029083906000818181858888f19350505050158015611a15573d6000803e3d6000fd5b50600c80546001019055611a2a33600061325a565b915050614e39805460ff1916905590565b600b545b90565b60115481565b60015481565b60008181526003602052604090205481906001600160a01b031633811480611a8c57506000828152600560205260409020546001600160a01b031633145b80611aba57506001600160a01b038116600090815260066020908152604080832033845290915290205460ff165b611afe576040805162461bcd60e51b815260206004820152601060248201526f21b0b73737ba103a3930b739b332b91760811b604482015290519081900360640190fd5b60008381526003602052604090205483906001600160a01b0316611b5a576040805162461bcd60e51b815260206004820152600e60248201526d24b73b30b634b2103a37b5b2b71760911b604482015290519081900360640190fd5b6000848152600360205260409020546001600160a01b039081169087168114611bc0576040805162461bcd60e51b81526020600482015260136024820152722bb937b73390333937b69030b2323932b9b99760691b604482015290519081900360640190fd5b6001600160a01b038616611c11576040805162461bcd60e51b815260206004820152601360248201527221b0b73737ba1039b2b732103a3790183c181760691b604482015290519081900360640190fd5b611c1b86866130a5565b50505050505050565b600e546001600160a01b03163314611c74576040805162461bcd60e51b815260206004820152600e60248201526d27b7363c903232b83637bcb2b91760911b604482015290519081900360640190fd5b60005b82811015611c9357611c8a82600061325a565b50600101611c77565b505050565b614e395460ff1615611cdf576040805162461bcd60e51b815260206004820152601c6024820152600080516020613d9e833981519152604482015290519081900360640190fd5b614e39805460ff19166001179055336000908152614e356020526040902054811115611d52576040805162461bcd60e51b815260206004820152601b60248201527f426565626974733a20696e73756666696369656e742066756e64730000000000604482015290519081900360640190fd5b336000908152614e356020526040902054611d6d9082613090565b336000818152614e35602052604080822093909355915183908381818185875af1925050503d8060008114611dbe576040519150601f19603f3d011682016040523d82523d6000602084013e611dc3565b606091505b5050905080611e19576040805162461bcd60e51b815260206004820152601b60248201527f426565626974733a207472616e73616374696f6e206661696c65640000000000604482015290519081900360640190fd5b60408051838152905133917f884edad9ce6fa2440d8a54cc123490eb96d2768479d49ff9c7366125a9424364919081900360200190a25050614e39805460ff19169055565b6001600160a01b0382166000908152600760205260408120548210611e8257600080fd5b6001600160a01b0383166000908152600760205260409020805483908110611ea657fe5b906000526020600020015490505b92915050565b614e395460009060ff1615611f04576040805162461bcd60e51b815260206004820152601c6024820152600080516020613d9e833981519152604482015290519081900360640190fd5b614e39805460ff19166001179055600f54600160a01b900460ff16611f2857600080fd5b614e345460ff1615611f3957600080fd5b600082118015611f4b57506127108211155b611f9c576040805162461bcd60e51b815260206004820152601c60248201527f426565626974733a20696e76616c69642062756e6b20696e6465782e00000000604482015290519081900360640190fd5b60008281526004602052604090205415611fe75760405162461bcd60e51b8152600401808060200182810382526026815260200180613f536026913960400191505060405180910390fd5b6000611ff4836001613090565b600d5460408051630b02f02d60e31b815260048101849052905192935033926001600160a01b0390921691635817816891602480820192602092909190829003018186803b15801561204557600080fd5b505afa158015612059573d6000803e3d6000fd5b505050506040513d602081101561206f57600080fd5b50516001600160a01b0316146120cc576040805162461bcd60e51b815260206004820152601b60248201527f4e6f7420746865206f776e6572206f6620746869732070756e6b2e0000000000604482015290519081900360640190fd5b6000838152600460205260409020805460010190556120eb338461325a565b614e39805460ff191690559392505050565b600f54600160a81b900460ff1681565b60125481565b614e345460ff1681565b611c938383836040518060200160405280600081525061339a565b6000612151600c5460015461309090919063ffffffff16565b905090565b600e546001600160a01b031633146121a6576040805162461bcd60e51b815260206004820152600e60248201526d27b7363c903232b83637bcb2b91760911b604482015290519081900360640190fd5b600155565b6000614e2082106121bb57600080fd5b5060010190565b600e546001600160a01b03163314612212576040805162461bcd60e51b815260206004820152600e60248201526d27b7363c903232b83637bcb2b91760911b604482015290519081900360640190fd5b614e3454610100900460ff1615612263576040805162461bcd60e51b815260206004820152601060248201526f21b7b73a3930b1ba1039b2b0b632b21760811b604482015290519081900360640190fd5b614e34805460ff1916911515919091179055565b6000818152600360205260408120546001600160a01b031661229857600080fd5b506000908152600360205260409020546001600160a01b031690565b6000805460408051602060026001851615610100026000190190941693909304601f8101849004840282018401909252818152929183018282801561233a5780601f1061230f5761010080835404028352916020019161233a565b820191906000526020600020905b81548152906001019060200180831161231d57829003601f168201915b505050505081565b600e546001600160a01b03163314612392576040805162461bcd60e51b815260206004820152600e60248201526d27b7363c903232b83637bcb2b91760911b604482015290519081900360640190fd5b614e34805461ff001916610100179055565b60006001600160a01b0382166123b957600080fd5b611eb48261365f565b6001600160a01b03881633146124095760405162461bcd60e51b815260040180806020018281038252602e815260200180613e78602e913960400191505060405180910390fd5b60006040518061010001604052808a6001600160a01b03168152602001896001600160a01b03168152602001888152602001878152602001868152602001858152602001848152602001838152509050600061246482613120565b6000818152614e366020908152604091829020805460ff19166001179055815183815291519293507f3f9cb69d022b6ec319f86f2df848bcce01f2fc51c9f86396779a8081cf6ca2ea92918290030190a150505050505050505050565b600a8054604080516020601f60026000196101006001881615020190951694909404938401819004810282018101909252828152606093909290918301828280156110fe5780601f106110d3576101008083540402835291602001916110fe565b600f54600090600160a81b900460ff16612577576040805162461bcd60e51b815260206004820152601160248201527029b0b632903737ba1039ba30b93a32b21760791b604482015290519081900360640190fd5b600061258e6011544261309090919063ffffffff16565b905060125481106125a3576000915050611a3f565b6012546010546125c891906125c2906125bc8386613090565b9061367a565b906136a2565b915050611a3f565b614e366020526000908152604090205460ff1681565b3360008181526006602090815260408083206001600160a01b03871680855290835292819020805460ff1916861515908117909155815190815290519293927f17307eab39ab6107e8899845ad3d59bd9653f200f220920489ca2b5937696c31929181900390910190a35050565b614e3454610100900460ff1681565b6126a585858585858080601f01602080910402602001604051908101604052809392919081815260200183838082843760009201919091525061339a92505050565b5050505050565b60046020526000908152604090205481565b60008181526003602052604090205460609082906001600160a01b031661271d576040805162461bcd60e51b815260206004820152600e60248201526d24b73b30b634b2103a37b5b2b71760911b604482015290519081900360640190fd5b612726836136b5565b60405160200180807f68747470733a2f2f626565626974732e78797a2f626565626974732f00000000815250601c0182805190602001908083835b602083106127805780518252601f199092019160209182019101612761565b6001836020036101000a038019825116818451168082178552505050505050905001915050604051602081830303815290604052915050919050565b336000908152614e3560205260409020546127d79034613080565b336000818152614e356020908152604091829020939093558051348152905191927fe1fffcc4923d04b559f4d29a8bfc6cda04eb5b0d3c460751c2402c5c5cc9109c92918290030190a2565b600e546001600160a01b03163314612873576040805162461bcd60e51b815260206004820152600e60248201526d27b7363c903232b83637bcb2b91760911b604482015290519081900360640190fd5b600f54600160a01b900460ff1661288957600080fd5b600f805460ff60a01b191690556040517f5f00e567de9d29d9d36405c34b1164390da767fb97a1fb7d6bf3680ff90a3b2690600090a1565b6000806040518061010001604052808c6001600160a01b031681526020018b6001600160a01b031681526020018a8152602001898152602001888152602001878152602001868152602001858152509050600061291d82613120565b6000818152614e36602052604090205490915060ff161561296f5760405162461bcd60e51b8152600401808060200182810382526023815260200180613dee6023913960400191505060405180910390fd5b600061297a83613790565b905061298b836000015182876137f0565b6129dc576040805162461bcd60e51b815260206004820152601d60248201527f426565626974733a207369676e6174757265206e6f742076616c69642e000000604482015290519081900360640190fd5b8260c001514210612a34576040805162461bcd60e51b815260206004820152601d60248201527f426565626974733a207472616465206f6666657220657870697265642e000000604482015290519081900360640190fd5b8a1580612a3f575088155b612a7a5760405162461bcd60e51b8152600401808060200182810382526029815260200180613f796029913960400191505060405180910390fd5b60008a511180612a8b575060008851115b612adc576040805162461bcd60e51b815260206004820152601b60248201527f4f6e652073696465206d757374206f6666657220746f6b656e732e0000000000604482015290519081900360640190fd5b60408084015184516001600160a01b03166000908152614e3560205291909120541015612b3a5760405162461bcd60e51b8152600401808060200182810382526030815260200180613dbe6030913960400191505060405180910390fd5b60005b836060015151811015612bd45783600001516001600160a01b03166003600086606001518481518110612b6c57fe5b6020908102919091018101518252810191909152604001600020546001600160a01b031614612bcc5760405162461bcd60e51b815260040180806020018281038252603a815260200180613e11603a913960400191505060405180910390fd5b600101612b3d565b5060208301516001600160a01b0316612c2e5760a08301515115612c295760405162461bcd60e51b815260040180806020018281038252604a815260200180613f09604a913960600191505060405180910390fd5b612cca565b60005b8360a0015151811015612cc85783602001516001600160a01b0316600360008660a001518481518110612c6057fe5b6020908102919091018101518252810191909152604001600020546001600160a01b031614612cc05760405162461bcd60e51b815260040180806020018281038252603a815260200180613ecf603a913960400191505060405180910390fd5b600101612c31565b505b5060019c9b505050505050505050505050565b614e356020526000908152604090205481565b600082815260046020526040812054612d50576040805162461bcd60e51b815260206004820152601d60248201527f426565626974733a20746f6b656e206e6f74206d696e74656420796574000000604482015290519081900360640190fd5b6000838152600360205260409020546001600160a01b03163314612dbb576040805162461bcd60e51b815260206004820181905260248201527f426565626974733a2063616c6c6572206e6f7420626565626974206f776e6572604482015290519081900360640190fd5b612e356040518060400160405280601a81526020017f426565626974206c697374656420666f7220746f6b656e20696400000000000081525084604051806040016040528060078152602001663337b91021272160c91b815250612e30670de0b6b3a7640000876136a290919063ffffffff16565b6138d4565b604080516080810182526001808252336020808401918252838501878152600060608087018281528b8352614e37855288832097518854965160ff1990971690151517610100600160a81b0319166101006001600160a01b03978816021788559251958701959095559051600290950180546001600160a01b031916959093169490941790915583518781529081018690528084019290925291517ff571c65afd7c58efee1f8029cb279f89e7ce60da562fd28a61fc3fd8c7eb5b30929181900390910190a150600192915050565b6001600160a01b03918216600090815260066020908152604080832093909416825291909152205460ff1690565b600e546001600160a01b03163314612f82576040805162461bcd60e51b815260206004820152600e60248201526d27b7363c903232b83637bcb2b91760911b604482015290519081900360640190fd5b600f54600160a81b900460ff1615612f9957600080fd5b6010829055601281905542601155600f805460ff60a81b1916600160a81b1790556040517f771cfe172460b7d64cc46cca57a1e1f40f52b47cf1d16fe30c78a2935b3dd58090600090a15050565b6000806040518061010001604052808b6001600160a01b031681526020018a6001600160a01b0316815260200189815260200188815260200187815260200186815260200185815260200184815250905061304181613120565b9a9950505050505050505050565b6007602052816000526040600020818154811061306b57600080fd5b90600052602060002001600091509150505481565b81810182811015611eb457600080fd5b60008282111561309f57600080fd5b50900390565b6000818152600360205260409020546001600160a01b03166130c6826139f7565b6130d08183613a34565b6130da8383613ba6565b81836001600160a01b0316826001600160a01b03167fddf252ad1be2c89b69c2b068fc378daa952ba7f163c4a11628f55a4df523b3ef60405160405180910390a4505050565b6000816000015182602001518360400151846060015160405160200180828051906020019060200280838360005b8381101561316657818101518382015260200161314e565b505050509050019150506040516020818303038152906040528051906020012085608001518660a0015160405160200180828051906020019060200280838360005b838110156131c05781810151838201526020016131a8565b50505050905001915050604051602081830303815290604052805190602001208760c001518860e0015160405160200180896001600160a01b03168152602001886001600160a01b0316815260200187815260200186815260200185815260200184815260200183815260200182815260200198505050505050505050604051602081830303815290604052805190602001209050919050565b60006001600160a01b0383166132ad576040805162461bcd60e51b815260206004820152601360248201527221b0b73737ba1036b4b73a103a3790183c181760691b604482015290519081900360640190fd5b614e20600b54106132fc576040805162461bcd60e51b81526020600482015260146024820152732a37b5b2b7103634b6b4ba103932b0b1b432b21760611b604482015290519081900360640190fd5b6000613306613c7a565b600b80546001019055905061331b8482613ba6565b6040805184815290516001600160a01b0386169183917f4e3883c75cc9c752bb1db2e406a822e4a75067ae77ad9a0a4d179f2709b9e1f69181900360200190a360405181906001600160a01b038616906000907fddf252ad1be2c89b69c2b068fc378daa952ba7f163c4a11628f55a4df523b3ef908290a49392505050565b60008281526003602052604090205482906001600160a01b0316338114806133d857506000828152600560205260409020546001600160a01b031633145b8061340657506001600160a01b038116600090815260066020908152604080832033845290915290205460ff165b61344a576040805162461bcd60e51b815260206004820152601060248201526f21b0b73737ba103a3930b739b332b91760811b604482015290519081900360640190fd5b60008481526003602052604090205484906001600160a01b03166134a6576040805162461bcd60e51b815260206004820152600e60248201526d24b73b30b634b2103a37b5b2b71760911b604482015290519081900360640190fd5b6000858152600360205260409020546001600160a01b039081169088168114613509576040805162461bcd60e51b815260206004820152601060248201526f24b731b7b93932b1ba1037bbb732b91760811b604482015290519081900360640190fd5b6001600160a01b03871661351c57600080fd5b61352687876130a5565b61352f87613d76565b15613655576000876001600160a01b031663150b7a02338b8a8a6040518563ffffffff1660e01b815260040180856001600160a01b03168152602001846001600160a01b0316815260200183815260200180602001828103825283818151815260200191508051906020019080838360005b838110156135b95781810151838201526020016135a1565b50505050905090810190601f1680156135e65780820380516001836020036101000a031916815260200191505b5095505050505050602060405180830381600087803b15801561360857600080fd5b505af115801561361c573d6000803e3d6000fd5b505050506040513d602081101561363257600080fd5b505190506001600160e01b03198116630a85bd0160e11b1461365357600080fd5b505b5050505050505050565b6001600160a01b031660009081526007602052604090205490565b60008261368957506000611eb4565b508181028183828161369757fe5b0414611eb457600080fd5b60008183816136ad57fe5b049392505050565b6060816136da57506040805180820190915260018152600360fc1b6020820152611057565b8160005b81156136f257600101600a820491506136de565b60008167ffffffffffffffff8111801561370b57600080fd5b506040519080825280601f01601f191660200182016040528015613736576020820181803683370190505b50859350905060001982015b831561378757600a840660300160f81b8282806001900393508151811061376557fe5b60200101906001600160f81b031916908160001a905350600a84049350613742565b50949350505050565b600061379b82613120565b60405160200180807f19457468657265756d205369676e6564204d6573736167653a0a333200000000815250601c01828152602001915050604051602081830303815290604052805190602001209050919050565b60006001600160a01b03841661380557600080fd5b815160411461381357600080fd5b60208201516040830151606084015160001a601b81101561383257601b015b8060ff16601b148061384757508060ff16601c145b61385057600080fd5b60018682858560405160008152602001604052604051808581526020018460ff1681526020018381526020018281526020019450505050506020604051602081039080840390855afa1580156138aa573d6000803e3d6000fd5b505050602060405103516001600160a01b0316876001600160a01b03161493505050509392505050565b6139f184848484604051602401808060200185815260200180602001848152602001838103835287818151815260200191508051906020019080838360005b8381101561392b578181015183820152602001613913565b50505050905090810190601f1680156139585780820380516001836020036101000a031916815260200191505b50838103825285518152855160209182019187019080838360005b8381101561398b578181015183820152602001613973565b50505050905090810190601f1680156139b85780820380516001836020036101000a031916815260200191505b5060408051601f198184030181529190526020810180516001600160e01b031663a0c4b22560e01b1790529650613d7c95505050505050565b50505050565b6000818152600560205260409020546001600160a01b031615613a3157600081815260056020526040902080546001600160a01b03191690555b50565b6000818152600360205260409020546001600160a01b03838116911614613a95576040805162461bcd60e51b815260206004820152601060248201526f24b731b7b93932b1ba1037bbb732b91760811b604482015290519081900360640190fd5b600081815260036020908152604080832080546001600160a01b031916905560088252808320546001600160a01b03861684526007909252822054909190613ade906001613090565b9050818114613b69576001600160a01b0384166000908152600760205260408120805483908110613b0b57fe5b906000526020600020015490508060076000876001600160a01b03166001600160a01b031681526020019081526020016000208481548110613b4957fe5b600091825260208083209091019290925591825260089052604090208290555b6001600160a01b0384166000908152600760205260409020805480613b8a57fe5b6001900381819060005260206000200160009055905550505050565b6000818152600360205260409020546001600160a01b031615613c10576040805162461bcd60e51b815260206004820152601a60248201527f43616e6e6f74206164642c20616c7265616479206f776e65642e000000000000604482015290519081900360640190fd5b600081815260036020908152604080832080546001600160a01b0319166001600160a01b038716908117909155808452600783529083208054600181810183558286529385200185905592529054613c6791613090565b6000918252600860205260409091205550565b600b54601354604080516020808201939093523360601b81830152446054820152426074808301919091528251808303909101815260949091019091528051910120600091614e2003908290829081613ccf57fe5b0690506000601482614e208110613ce257fe5b015415613d0057601482614e208110613cf757fe5b01549050613d03565b50805b601460018403614e208110613d1457fe5b0154613d335760018303601483614e208110613d2c57fe5b0155613d57565b601460018403614e208110613d4457fe5b0154601483614e208110613d5457fe5b01555b601380546001908101909155613d6e908290613080565b935050505090565b3b151590565b80516a636f6e736f6c652e6c6f67602083016000808483855afa505050505056fe426565626974733a207265656e7472616e637920646574656374656400000000426565626974733a206d616b657220646f6573206e6f7420686176652073756666696369656e742062616c616e63652e426565626974733a207472616465206f66666572207761732063616e63656c6c65642e426565626974733a206174206c65617374206f6e65206d616b657220746f6b656e20646f65736e27742062656c6f6e6720746f206d616b65722e426565626974733a20696e73756666696369656e742066756e647320746f20657865637574652074726164652e426565626974733a206f6e6c7920746865206d616b65722063616e2063616e63656c2074686973206f666665722e426565626974733a206e6f742074686520726563697069656e74206f662074686973206f666665722e426565626974733a206174206c65617374206f6e652074616b657220746f6b656e20646f65736e27742062656c6f6e6720746f2074616b65722e426565626974733a206966207472616465206973206f66666572656420746f20616e79626f64792c2063616e6e6f74207370656369667920746f6b656e732066726f6d2074616b65722e426565626974733a20616c7265616479206d696e746564207769746820746869732062756e6b426565626974733a206f6e6c79206f6e652073696465206f66207472616465206d757374207061792e426565626974733a2063616e277420616363657074206f6e6573206f776e2074726164652ea2646970667358221220064d9180157825ec82136fb4960ad487f0212c17f7cf9e07b88a6a99faff9c4c64736f6c63430007060033516d66585967665831714e667a51364e5279466e75706e695a7573617346504d6569576e356161446e783759586f",
  "linkReferences": {},
  "deployedLinkReferences": {}
}