{
  "_format": "hh-sol-artifact-1",
  "contractName": "Beebits",
  "sourceName": "contracts/Beebits.sol",
  "abi": [
    {
      "inputs": [
        {
          "internalType": "address",
          "name": "_bunks",
          "type": "address"
        },
        {
          "internalType": "address payable",
          "name": "_beneficiary",
          "type": "address"
        }
      ],
      "stateMutability": "nonpayable",
      "type": "constructor"
    },
    {
      "anonymous": false,
      "inputs": [
        {
          "indexed": true,
          "internalType": "address",
          "name": "owner",
          "type": "address"
        },
        {
          "indexed": true,
          "internalType": "address",
          "name": "approved",
          "type": "address"
        },
        {
          "indexed": true,
          "internalType": "uint256",
          "name": "tokenId",
          "type": "uint256"
        }
      ],
      "name": "Approval",
      "type": "event"
    },
    {
      "anonymous": false,
      "inputs": [
        {
          "indexed": true,
          "internalType": "address",
          "name": "owner",
          "type": "address"
        },
        {
          "indexed": true,
          "internalType": "address",
          "name": "operator",
          "type": "address"
        },
        {
          "indexed": false,
          "internalType": "bool",
          "name": "approved",
          "type": "bool"
        }
      ],
      "name": "ApprovalForAll",
      "type": "event"
    },
    {
      "anonymous": false,
      "inputs": [],
      "name": "CommunityGrantEnds",
      "type": "event"
    },
    {
      "anonymous": false,
      "inputs": [
        {
          "indexed": true,
          "internalType": "address",
          "name": "account",
          "type": "address"
        },
        {
          "indexed": false,
          "internalType": "uint256",
          "name": "amount",
          "type": "uint256"
        }
      ],
      "name": "Deposit",
      "type": "event"
    },
    {
      "anonymous": false,
      "inputs": [
        {
          "indexed": true,
          "internalType": "uint256",
          "name": "index",
          "type": "uint256"
        },
        {
          "indexed": true,
          "internalType": "address",
          "name": "minter",
          "type": "address"
        },
        {
          "indexed": false,
          "internalType": "uint256",
          "name": "createdVia",
          "type": "uint256"
        }
      ],
      "name": "Mint",
      "type": "event"
    },
    {
      "anonymous": false,
      "inputs": [
        {
          "indexed": false,
          "internalType": "bytes32",
          "name": "hash",
          "type": "bytes32"
        }
      ],
      "name": "OfferCancelled",
      "type": "event"
    },
    {
      "anonymous": false,
      "inputs": [],
      "name": "SaleBegins",
      "type": "event"
    },
    {
      "anonymous": false,
      "inputs": [
        {
          "indexed": true,
          "internalType": "bytes32",
          "name": "hash",
          "type": "bytes32"
        },
        {
          "indexed": true,
          "internalType": "address",
          "name": "maker",
          "type": "address"
        },
        {
          "indexed": false,
          "internalType": "address",
          "name": "taker",
          "type": "address"
        },
        {
          "indexed": false,
          "internalType": "uint256",
          "name": "makerWei",
          "type": "uint256"
        },
        {
          "indexed": false,
          "internalType": "uint256[]",
          "name": "makerIds",
          "type": "uint256[]"
        },
        {
          "indexed": false,
          "internalType": "uint256",
          "name": "takerWei",
          "type": "uint256"
        },
        {
          "indexed": false,
          "internalType": "uint256[]",
          "name": "takerIds",
          "type": "uint256[]"
        }
      ],
      "name": "Trade",
      "type": "event"
    },
    {
      "anonymous": false,
      "inputs": [
        {
          "indexed": true,
          "internalType": "address",
          "name": "from",
          "type": "address"
        },
        {
          "indexed": true,
          "internalType": "address",
          "name": "to",
          "type": "address"
        },
        {
          "indexed": true,
          "internalType": "uint256",
          "name": "tokenId",
          "type": "uint256"
        }
      ],
      "name": "Transfer",
      "type": "event"
    },
    {
      "anonymous": false,
      "inputs": [
        {
          "indexed": true,
          "internalType": "address",
          "name": "account",
          "type": "address"
        },
        {
          "indexed": false,
          "internalType": "uint256",
          "name": "amount",
          "type": "uint256"
        }
      ],
      "name": "Withdraw",
      "type": "event"
    },
    {
      "inputs": [],
      "name": "SALE_LIMIT",
      "outputs": [
        {
          "internalType": "uint256",
          "name": "",
          "type": "uint256"
        }
      ],
      "stateMutability": "view",
      "type": "function"
    },
    {
      "inputs": [],
      "name": "TOKEN_LIMIT",
      "outputs": [
        {
          "internalType": "uint256",
          "name": "",
          "type": "uint256"
        }
      ],
      "stateMutability": "view",
      "type": "function"
    },
    {
      "inputs": [
        {
          "internalType": "address",
          "name": "maker",
          "type": "address"
        },
        {
          "internalType": "address",
          "name": "taker",
          "type": "address"
        },
        {
          "internalType": "uint256",
          "name": "makerWei",
          "type": "uint256"
        },
        {
          "internalType": "uint256[]",
          "name": "makerIds",
          "type": "uint256[]"
        },
        {
          "internalType": "uint256",
          "name": "takerWei",
          "type": "uint256"
        },
        {
          "internalType": "uint256[]",
          "name": "takerIds",
          "type": "uint256[]"
        },
        {
          "internalType": "uint256",
          "name": "expiry",
          "type": "uint256"
        },
        {
          "internalType": "uint256",
          "name": "salt",
          "type": "uint256"
        },
        {
          "internalType": "bytes",
          "name": "signature",
          "type": "bytes"
        }
      ],
      "name": "acceptTrade",
      "outputs": [],
      "stateMutability": "payable",
      "type": "function"
    },
    {
      "inputs": [
        {
          "internalType": "address",
          "name": "_approved",
          "type": "address"
        },
        {
          "internalType": "uint256",
          "name": "_tokenId",
          "type": "uint256"
        }
      ],
      "name": "approve",
      "outputs": [],
      "stateMutability": "nonpayable",
      "type": "function"
    },
    {
      "inputs": [
        {
          "internalType": "address",
          "name": "_owner",
          "type": "address"
        }
      ],
      "name": "balanceOf",
      "outputs": [
        {
          "internalType": "uint256",
          "name": "",
          "type": "uint256"
        }
      ],
      "stateMutability": "view",
      "type": "function"
    },
    {
      "inputs": [
        {
          "internalType": "address",
          "name": "maker",
          "type": "address"
        },
        {
          "internalType": "address",
          "name": "taker",
          "type": "address"
        },
        {
          "internalType": "uint256",
          "name": "makerWei",
          "type": "uint256"
        },
        {
          "internalType": "uint256[]",
          "name": "makerIds",
          "type": "uint256[]"
        },
        {
          "internalType": "uint256",
          "name": "takerWei",
          "type": "uint256"
        },
        {
          "internalType": "uint256[]",
          "name": "takerIds",
          "type": "uint256[]"
        },
        {
          "internalType": "uint256",
          "name": "expiry",
          "type": "uint256"
        },
        {
          "internalType": "uint256",
          "name": "salt",
          "type": "uint256"
        }
      ],
      "name": "cancelOffer",
      "outputs": [],
      "stateMutability": "nonpayable",
      "type": "function"
    },
    {
      "inputs": [
        {
          "internalType": "bytes32",
          "name": "",
          "type": "bytes32"
        }
      ],
      "name": "cancelledOffers",
      "outputs": [
        {
          "internalType": "bool",
          "name": "",
          "type": "bool"
        }
      ],
      "stateMutability": "view",
      "type": "function"
    },
    {
      "inputs": [],
      "name": "communityGrant",
      "outputs": [
        {
          "internalType": "bool",
          "name": "",
          "type": "bool"
        }
      ],
      "stateMutability": "view",
      "type": "function"
    },
    {
      "inputs": [],
      "name": "contentHash",
      "outputs": [
        {
          "internalType": "string",
          "name": "",
          "type": "string"
        }
      ],
      "stateMutability": "view",
      "type": "function"
    },
    {
      "inputs": [],
      "name": "contractSealed",
      "outputs": [
        {
          "internalType": "bool",
          "name": "",
          "type": "bool"
        }
      ],
      "stateMutability": "view",
      "type": "function"
    },
    {
      "inputs": [
        {
          "internalType": "uint256",
          "name": "",
          "type": "uint256"
        }
      ],
      "name": "creatorNftMints",
      "outputs": [
        {
          "internalType": "uint256",
          "name": "",
          "type": "uint256"
        }
      ],
      "stateMutability": "view",
      "type": "function"
    },
    {
      "inputs": [],
      "name": "deposit",
      "outputs": [],
      "stateMutability": "payable",
      "type": "function"
    },
    {
      "inputs": [
        {
          "internalType": "uint256",
          "name": "quantity",
          "type": "uint256"
        },
        {
          "internalType": "address",
          "name": "recipient",
          "type": "address"
        }
      ],
      "name": "devMint",
      "outputs": [],
      "stateMutability": "nonpayable",
      "type": "function"
    },
    {
      "inputs": [],
      "name": "endCommunityGrant",
      "outputs": [],
      "stateMutability": "nonpayable",
      "type": "function"
    },
    {
      "inputs": [
        {
          "internalType": "address",
          "name": "",
          "type": "address"
        }
      ],
      "name": "ethBalance",
      "outputs": [
        {
          "internalType": "uint256",
          "name": "",
          "type": "uint256"
        }
      ],
      "stateMutability": "view",
      "type": "function"
    },
    {
      "inputs": [
        {
          "internalType": "uint256",
          "name": "_tokenId",
          "type": "uint256"
        }
      ],
      "name": "getApproved",
      "outputs": [
        {
          "internalType": "address",
          "name": "",
          "type": "address"
        }
      ],
      "stateMutability": "view",
      "type": "function"
    },
    {
      "inputs": [],
      "name": "getPrice",
      "outputs": [
        {
          "internalType": "uint256",
          "name": "",
          "type": "uint256"
        }
      ],
      "stateMutability": "view",
      "type": "function"
    },
    {
      "inputs": [
        {
          "internalType": "address",
          "name": "maker",
          "type": "address"
        },
        {
          "internalType": "address",
          "name": "taker",
          "type": "address"
        },
        {
          "internalType": "uint256",
          "name": "makerWei",
          "type": "uint256"
        },
        {
          "internalType": "uint256[]",
          "name": "makerIds",
          "type": "uint256[]"
        },
        {
          "internalType": "uint256",
          "name": "takerWei",
          "type": "uint256"
        },
        {
          "internalType": "uint256[]",
          "name": "takerIds",
          "type": "uint256[]"
        },
        {
          "internalType": "uint256",
          "name": "expiry",
          "type": "uint256"
        },
        {
          "internalType": "uint256",
          "name": "salt",
          "type": "uint256"
        }
      ],
      "name": "hashToSign",
      "outputs": [
        {
          "internalType": "bytes32",
          "name": "",
          "type": "bytes32"
        }
      ],
      "stateMutability": "pure",
      "type": "function"
    },
    {
      "inputs": [
        {
          "internalType": "address",
          "name": "_owner",
          "type": "address"
        },
        {
          "internalType": "address",
          "name": "_operator",
          "type": "address"
        }
      ],
      "name": "isApprovedForAll",
      "outputs": [
        {
          "internalType": "bool",
          "name": "",
          "type": "bool"
        }
      ],
      "stateMutability": "view",
      "type": "function"
    },
    {
      "inputs": [],
      "name": "marketPaused",
      "outputs": [
        {
          "internalType": "bool",
          "name": "",
          "type": "bool"
        }
      ],
      "stateMutability": "view",
      "type": "function"
    },
    {
      "inputs": [],
      "name": "mint",
      "outputs": [
        {
          "internalType": "uint256",
          "name": "",
          "type": "uint256"
        }
      ],
      "stateMutability": "payable",
      "type": "function"
    },
    {
      "inputs": [
        {
          "internalType": "uint256",
          "name": "_createVia",
          "type": "uint256"
        }
      ],
      "name": "mintWithBunk",
      "outputs": [
        {
          "internalType": "uint256",
          "name": "",
          "type": "uint256"
        }
      ],
      "stateMutability": "nonpayable",
      "type": "function"
    },
    {
      "inputs": [],
      "name": "mintsRemaining",
      "outputs": [
        {
          "internalType": "uint256",
          "name": "",
          "type": "uint256"
        }
      ],
      "stateMutability": "view",
      "type": "function"
    },
    {
      "inputs": [],
      "name": "name",
      "outputs": [
        {
          "internalType": "string",
          "name": "_name",
          "type": "string"
        }
      ],
      "stateMutability": "view",
      "type": "function"
    },
    {
      "inputs": [
        {
          "internalType": "uint256",
          "name": "_tokenId",
          "type": "uint256"
        }
      ],
      "name": "ownerOf",
      "outputs": [
        {
          "internalType": "address",
          "name": "_owner",
          "type": "address"
        }
      ],
      "stateMutability": "view",
      "type": "function"
    },
    {
      "inputs": [
        {
          "internalType": "address",
          "name": "",
          "type": "address"
        },
        {
          "internalType": "uint256",
          "name": "",
          "type": "uint256"
        }
      ],
      "name": "ownerToIds",
      "outputs": [
        {
          "internalType": "uint256",
          "name": "",
          "type": "uint256"
        }
      ],
      "stateMutability": "view",
      "type": "function"
    },
    {
      "inputs": [
        {
          "internalType": "bool",
          "name": "_paused",
          "type": "bool"
        }
      ],
      "name": "pauseMarket",
      "outputs": [],
      "stateMutability": "nonpayable",
      "type": "function"
    },
    {
      "inputs": [],
      "name": "publicSale",
      "outputs": [
        {
          "internalType": "bool",
          "name": "",
          "type": "bool"
        }
      ],
      "stateMutability": "view",
      "type": "function"
    },
    {
      "inputs": [
        {
          "internalType": "address",
          "name": "_from",
          "type": "address"
        },
        {
          "internalType": "address",
          "name": "_to",
          "type": "address"
        },
        {
          "internalType": "uint256",
          "name": "_tokenId",
          "type": "uint256"
        }
      ],
      "name": "safeTransferFrom",
      "outputs": [],
      "stateMutability": "nonpayable",
      "type": "function"
    },
    {
      "inputs": [
        {
          "internalType": "address",
          "name": "_from",
          "type": "address"
        },
        {
          "internalType": "address",
          "name": "_to",
          "type": "address"
        },
        {
          "internalType": "uint256",
          "name": "_tokenId",
          "type": "uint256"
        },
        {
          "internalType": "bytes",
          "name": "_data",
          "type": "bytes"
        }
      ],
      "name": "safeTransferFrom",
      "outputs": [],
      "stateMutability": "nonpayable",
      "type": "function"
    },
    {
      "inputs": [],
      "name": "saleDuration",
      "outputs": [
        {
          "internalType": "uint256",
          "name": "",
          "type": "uint256"
        }
      ],
      "stateMutability": "view",
      "type": "function"
    },
    {
      "inputs": [],
      "name": "saleStartTime",
      "outputs": [
        {
          "internalType": "uint256",
          "name": "",
          "type": "uint256"
        }
      ],
      "stateMutability": "view",
      "type": "function"
    },
    {
      "inputs": [],
      "name": "sealContract",
      "outputs": [],
      "stateMutability": "nonpayable",
      "type": "function"
    },
    {
      "inputs": [
        {
          "internalType": "address",
          "name": "_operator",
          "type": "address"
        },
        {
          "internalType": "bool",
          "name": "_approved",
          "type": "bool"
        }
      ],
      "name": "setApprovalForAll",
      "outputs": [],
      "stateMutability": "nonpayable",
      "type": "function"
    },
    {
      "inputs": [
        {
          "internalType": "uint256",
          "name": "_price",
          "type": "uint256"
        },
        {
          "internalType": "uint256",
          "name": "_saleDuration",
          "type": "uint256"
        }
      ],
      "name": "startSale",
      "outputs": [],
      "stateMutability": "nonpayable",
      "type": "function"
    },
    {
      "inputs": [
        {
          "internalType": "bytes4",
          "name": "_interfaceID",
          "type": "bytes4"
        }
      ],
      "name": "supportsInterface",
      "outputs": [
        {
          "internalType": "bool",
          "name": "",
          "type": "bool"
        }
      ],
      "stateMutability": "view",
      "type": "function"
    },
    {
      "inputs": [],
      "name": "symbol",
      "outputs": [
        {
          "internalType": "string",
          "name": "_symbol",
          "type": "string"
        }
      ],
      "stateMutability": "view",
      "type": "function"
    },
    {
      "inputs": [
        {
          "internalType": "uint256",
          "name": "index",
          "type": "uint256"
        }
      ],
      "name": "tokenByIndex",
      "outputs": [
        {
          "internalType": "uint256",
          "name": "",
          "type": "uint256"
        }
      ],
      "stateMutability": "pure",
      "type": "function"
    },
    {
      "inputs": [
        {
          "internalType": "address",
          "name": "_owner",
          "type": "address"
        },
        {
          "internalType": "uint256",
          "name": "_index",
          "type": "uint256"
        }
      ],
      "name": "tokenOfOwnerByIndex",
      "outputs": [
        {
          "internalType": "uint256",
          "name": "",
          "type": "uint256"
        }
      ],
      "stateMutability": "view",
      "type": "function"
    },
    {
      "inputs": [
        {
          "internalType": "uint256",
          "name": "_tokenId",
          "type": "uint256"
        }
      ],
      "name": "tokenURI",
      "outputs": [
        {
          "internalType": "string",
          "name": "",
          "type": "string"
        }
      ],
      "stateMutability": "view",
      "type": "function"
    },
    {
      "inputs": [],
      "name": "totalSupply",
      "outputs": [
        {
          "internalType": "uint256",
          "name": "",
          "type": "uint256"
        }
      ],
      "stateMutability": "view",
      "type": "function"
    },
    {
      "inputs": [
        {
          "internalType": "address",
          "name": "maker",
          "type": "address"
        },
        {
          "internalType": "address",
          "name": "taker",
          "type": "address"
        },
        {
          "internalType": "uint256",
          "name": "makerWei",
          "type": "uint256"
        },
        {
          "internalType": "uint256[]",
          "name": "makerIds",
          "type": "uint256[]"
        },
        {
          "internalType": "uint256",
          "name": "takerWei",
          "type": "uint256"
        },
        {
          "internalType": "uint256[]",
          "name": "takerIds",
          "type": "uint256[]"
        },
        {
          "internalType": "uint256",
          "name": "expiry",
          "type": "uint256"
        },
        {
          "internalType": "uint256",
          "name": "salt",
          "type": "uint256"
        },
        {
          "internalType": "bytes",
          "name": "signature",
          "type": "bytes"
        }
      ],
      "name": "tradeValid",
      "outputs": [
        {
          "internalType": "bool",
          "name": "",
          "type": "bool"
        }
      ],
      "stateMutability": "view",
      "type": "function"
    },
    {
      "inputs": [
        {
          "internalType": "address",
          "name": "_from",
          "type": "address"
        },
        {
          "internalType": "address",
          "name": "_to",
          "type": "address"
        },
        {
          "internalType": "uint256",
          "name": "_tokenId",
          "type": "uint256"
        }
      ],
      "name": "transferFrom",
      "outputs": [],
      "stateMutability": "nonpayable",
      "type": "function"
    },
    {
      "inputs": [
        {
          "internalType": "uint256",
          "name": "amount",
          "type": "uint256"
        }
      ],
      "name": "withdraw",
      "outputs": [],
      "stateMutability": "nonpayable",
      "type": "function"
    }
  ],
  "bytecode": "0x60e0604052602e60808181529062003e8f60a03980516200002991600091602090910190620001f4565b50604080518082019091526007808252664265656269747360c81b60209092019182526200005a91600891620001f4565b5060408051808201909152600380825262e29a8760e81b60209092019182526200008791600991620001f4565b506000600a819055600b819055600e805460ff60a81b1960ff60a01b19909116600160a01b17169055601255614e36805460ff19169055348015620000cb57600080fd5b5060405162003ebd38038062003ebd83398181016040526040811015620000f157600080fd5b5080516020918201516001928390527fb45820386466a8e01597d6e1efaf8f11ba4467972de5ca6c1f8aa3544ac2888e805460ff1990811685179091557fb8349d7b7b0b2b924bf96f90971cda8c7ac1ea4cde292a182bd2a203eef6c5d080548216851790557f0e20bd7b4297895bdd985faac9360f413d46658b4c96e853899576249f1474ab8054821685179055635b5e139f60e01b6000527fce9309d5fe1c6050fdfde39d28ca0616e34393306d1cba1a247c40f9ef5c5d098054909116909317909255600d80546001600160a01b03199081163317909155600c80546001600160a01b03938416908316179055600e8054929093169116179055620002a0565b828054600181600116156101000203166002900490600052602060002090601f0160209004810192826200022c576000855562000277565b82601f106200024757805160ff191683800117855562000277565b8280016001018555821562000277579182015b82811115620002775782518255916020019190600101906200025a565b506200028592915062000289565b5090565b5b808211156200028557600081556001016200028a565b613bdf80620002b06000396000f3fe6080604052600436106102675760003560e01c80635ec390d811610144578063b88d4fde116100b6578063d3d6c7671161007a578063d3d6c76714610baa578063d8f3790f14610d94578063e985e9c514610dc7578063f4f3122e14610e02578063f592934c14610e32578063feb3d3d614610f9057610267565b8063b88d4fde14610a9e578063b9f7e21814610b39578063c87b56dd14610b63578063d0e30db014610b8d578063d357b01e14610b9557610267565b80638a84fe00116101085780638a84fe001461089c57806395d89b41146109fa57806398d5fdca14610a0f5780639f7bf76214610a24578063a22cb46514610a4e578063b650163714610a8957610267565b80635ec390d8146107e95780636352211e14610815578063646c2e331461083f57806368bd580e1461085457806370a082311461086957610267565b806323b872dd116101dd57806333bc1c5c116101a157806333bc1c5c146107285780633711d9fb1461073d5780633a283bd21461075257806342842e0e1461076757806344c66be7146107aa5780634f6ccce7146107bf57610267565b806323b872dd1461061f5780632d1a12f6146106625780632e1a7d4d1461069b5780632f745c59146106c55780632fa13dd1146106fe57610267565b8063095ea7b31161022f578063095ea7b3146103c05780630faadcf6146103fb5780631249c58b146105d857806318160ddd146105e05780631cbaee2d146105f5578063212e8f671461060a57610267565b806301ffc9a71461026c578063031bd4c4146102b45780630614a6ba146102db57806306fdde03146102f0578063081812fc1461037a575b600080fd5b34801561027857600080fd5b506102a06004803603602081101561028f57600080fd5b50356001600160e01b031916610fc9565b604080519115158252519081900360200190f35b3480156102c057600080fd5b506102c9610fec565b60408051918252519081900360200190f35b3480156102e757600080fd5b506102a0610ff2565b3480156102fc57600080fd5b50610305611002565b6040805160208082528351818301528351919283929083019185019080838360005b8381101561033f578181015183820152602001610327565b50505050905090810190601f16801561036c5780820380516001836020036101000a031916815260200191505b509250505060405180910390f35b34801561038657600080fd5b506103a46004803603602081101561039d57600080fd5b5035611098565b604080516001600160a01b039092168252519081900360200190f35b3480156103cc57600080fd5b506103f9600480360360408110156103e357600080fd5b506001600160a01b038135169060200135611111565b005b6103f9600480360361012081101561041257600080fd5b6001600160a01b03823581169260208101359091169160408201359190810190608081016060820135600160201b81111561044c57600080fd5b82018360208201111561045e57600080fd5b803590602001918460208302840111600160201b8311171561047f57600080fd5b91908080602002602001604051908101604052809392919081815260200183836020028082843760009201919091525092958435959094909350604081019250602001359050600160201b8111156104d657600080fd5b8201836020820111156104e857600080fd5b803590602001918460208302840111600160201b8311171561050957600080fd5b9190808060200260200160405190810160405280939291908181526020018383602002808284376000920191909152509295843595602086013595919450925060608101915060400135600160201b81111561056457600080fd5b82018360208201111561057657600080fd5b803590602001918460018302840111600160201b8311171561059757600080fd5b91908080601f016020809104026020016040519081016040528093929190818152602001838380828437600092019190915250929550611283945050505050565b6102c96117c1565b3480156105ec57600080fd5b506102c96119cb565b34801561060157600080fd5b506102c96119d2565b34801561061657600080fd5b506102c96119d8565b34801561062b57600080fd5b506103f96004803603606081101561064257600080fd5b506001600160a01b038135811691602081013590911690604001356119de565b34801561066e57600080fd5b506103f96004803603604081101561068557600080fd5b50803590602001356001600160a01b0316611bb4565b3480156106a757600080fd5b506103f9600480360360208110156106be57600080fd5b5035611c28565b3480156106d157600080fd5b506102c9600480360360408110156106e857600080fd5b506001600160a01b038135169060200135611dee565b34801561070a57600080fd5b506102c96004803603602081101561072157600080fd5b5035611e4a565b34801561073457600080fd5b506102a061208d565b34801561074957600080fd5b506102c961209d565b34801561075e57600080fd5b506102a06120a3565b34801561077357600080fd5b506103f96004803603606081101561078a57600080fd5b506001600160a01b038135811691602081013590911690604001356120ad565b3480156107b657600080fd5b506102c96120c8565b3480156107cb57600080fd5b506102c9600480360360208110156107e257600080fd5b50356120e6565b3480156107f557600080fd5b506103f96004803603602081101561080c57600080fd5b503515156120fd565b34801561082157600080fd5b506103a46004803603602081101561083857600080fd5b50356121b2565b34801561084b57600080fd5b506103056121ef565b34801561086057600080fd5b506103f961227d565b34801561087557600080fd5b506102c96004803603602081101561088c57600080fd5b50356001600160a01b03166122df565b3480156108a857600080fd5b506103f960048036036101008110156108c057600080fd5b6001600160a01b03823581169260208101359091169160408201359190810190608081016060820135600160201b8111156108fa57600080fd5b82018360208201111561090c57600080fd5b803590602001918460208302840111600160201b8311171561092d57600080fd5b91908080602002602001604051908101604052809392919081815260200183836020028082843760009201919091525092958435959094909350604081019250602001359050600160201b81111561098457600080fd5b82018360208201111561099657600080fd5b803590602001918460208302840111600160201b831117156109b757600080fd5b91908080602002602001604051908101604052809392919081815260200183836020028082843760009201919091525092955050823593505050602001356122fd565b348015610a0657600080fd5b506103056123fc565b348015610a1b57600080fd5b506102c961245d565b348015610a3057600080fd5b506102a060048036036020811015610a4757600080fd5b503561250b565b348015610a5a57600080fd5b506103f960048036036040811015610a7157600080fd5b506001600160a01b0381351690602001351515612521565b348015610a9557600080fd5b506102a061258f565b348015610aaa57600080fd5b506103f960048036036080811015610ac157600080fd5b6001600160a01b03823581169260208101359091169160408201359190810190608081016060820135600160201b811115610afb57600080fd5b820183602082011115610b0d57600080fd5b803590602001918460018302840111600160201b83111715610b2e57600080fd5b50909250905061259e565b348015610b4557600080fd5b506102c960048036036020811015610b5c57600080fd5b50356125e7565b348015610b6f57600080fd5b5061030560048036036020811015610b8657600080fd5b50356125f9565b6103f96126f7565b348015610ba157600080fd5b506103f961275e565b348015610bb657600080fd5b506102a06004803603610120811015610bce57600080fd5b6001600160a01b03823581169260208101359091169160408201359190810190608081016060820135600160201b811115610c0857600080fd5b820183602082011115610c1a57600080fd5b803590602001918460208302840111600160201b83111715610c3b57600080fd5b91908080602002602001604051908101604052809392919081815260200183836020028082843760009201919091525092958435959094909350604081019250602001359050600160201b811115610c9257600080fd5b820183602082011115610ca457600080fd5b803590602001918460208302840111600160201b83111715610cc557600080fd5b9190808060200260200160405190810160405280939291908181526020018383602002808284376000920191909152509295843595602086013595919450925060608101915060400135600160201b811115610d2057600080fd5b820183602082011115610d3257600080fd5b803590602001918460018302840111600160201b83111715610d5357600080fd5b91908080601f0160208091040260200160405190810160405280939291908181526020018383808284376000920191909152509295506127fc945050505050565b348015610da057600080fd5b506102c960048036036020811015610db757600080fd5b50356001600160a01b0316612c18565b348015610dd357600080fd5b506102a060048036036040811015610dea57600080fd5b506001600160a01b0381358116916020013516612c2b565b348015610e0e57600080fd5b506103f960048036036040811015610e2557600080fd5b5080359060200135612c59565b348015610e3e57600080fd5b506102c96004803603610100811015610e5657600080fd5b6001600160a01b03823581169260208101359091169160408201359190810190608081016060820135600160201b811115610e9057600080fd5b820183602082011115610ea257600080fd5b803590602001918460208302840111600160201b83111715610ec357600080fd5b91908080602002602001604051908101604052809392919081815260200183836020028082843760009201919091525092958435959094909350604081019250602001359050600160201b811115610f1a57600080fd5b820183602082011115610f2c57600080fd5b803590602001918460208302840111600160201b83111715610f4d57600080fd5b9190808060200260200160405190810160405280939291908181526020018383602002808284376000920191909152509295505082359350505060200135612d0e565b348015610f9c57600080fd5b506102c960048036036040811015610fb357600080fd5b506001600160a01b038135169060200135612d76565b6001600160e01b0319811660009081526001602052604090205460ff165b919050565b614e2081565b600e54600160a01b900460ff1681565b60088054604080516020601f600260001961010060018816150201909516949094049384018190048102820181019092528281526060939092909183018282801561108e5780601f106110635761010080835404028352916020019161108e565b820191906000526020600020905b81548152906001019060200180831161107157829003601f168201915b5050505050905090565b60008181526002602052604081205482906001600160a01b03166110f4576040805162461bcd60e51b815260206004820152600e60248201526d24b73b30b634b2103a37b5b2b71760911b604482015290519081900360640190fd5b50506000908152600460205260409020546001600160a01b031690565b60008181526002602052604090205481906001600160a01b03163381148061115c57506001600160a01b038116600090815260056020908152604080832033845290915290205460ff165b61119f576040805162461bcd60e51b815260206004820152600f60248201526e21b0b73737ba1037b832b930ba329760891b604482015290519081900360640190fd5b60008381526002602052604090205483906001600160a01b03166111fb576040805162461bcd60e51b815260206004820152600e60248201526d24b73b30b634b2103a37b5b2b71760911b604482015290519081900360640190fd5b6000848152600260205260409020546001600160a01b0390811690861681141561122457600080fd5b60008581526004602052604080822080546001600160a01b0319166001600160a01b038a811691821790925591518893918516917f8c5be1e5ebec7d5bd14f71427d1e84f3dd0314c0f7b2291e5b200ac8c7c3b92591a4505050505050565b614e365460ff16156112ca576040805162461bcd60e51b815260206004820152601c6024820152600080516020613981833981519152604482015290519081900360640190fd5b614e36805460ff19166001179055614e335460ff1615611331576040805162461bcd60e51b815260206004820152601a60248201527f426565626974733a206d61726b6574206973207061757365642e000000000000604482015290519081900360640190fd5b336001600160a01b038a1614156113795760405162461bcd60e51b8152600401808060200182810382526025815260200180613b856025913960400191505060405180910390fd5b60006040518061010001604052808b6001600160a01b031681526020018a6001600160a01b03168152602001898152602001888152602001878152602001868152602001858152602001848152509050600034111561143857336000908152614e3460205260409020546113ed9034612da7565b336000818152614e346020908152604091829020939093558051348152905191927fe1fffcc4923d04b559f4d29a8bfc6cda04eb5b0d3c460751c2402c5c5cc9109c92918290030190a25b60208101516001600160a01b0316158061145e575060208101516001600160a01b031633145b6114995760405162461bcd60e51b8152600401808060200182810382526029815260200180613a896029913960400191505060405180910390fd5b6114aa8a8a8a8a8a8a8a8a8a6127fc565b6114fb576040805162461bcd60e51b815260206004820152601960248201527f426565626974733a207472616465206e6f742076616c69642e00000000000000604482015290519081900360640190fd5b6080810151336000908152614e346020526040902054101561154e5760405162461bcd60e51b815260040180806020018281038252602d815260200180613a2e602d913960400191505060405180910390fd5b60408082015182516001600160a01b03166000908152614e34602052919091205461157891612db7565b81516001600160a01b03166000908152614e3460205260408082209290925581830151338252919020546115ab91612da7565b336000908152614e346020526040902081905560808201516115cd9190612db7565b336000908152614e34602052604080822092909255608083015183516001600160a01b031682529190205461160191612da7565b81516001600160a01b03166000908152614e3460205260408120919091555b875181101561164e576116463389838151811061163957fe5b6020026020010151612dcc565b600101611620565b5060005b85518110156116735761166b8b87838151811061163957fe5b600101611652565b50600061167f82612e47565b90506001614e35600083815260200190815260200160002060006101000a81548160ff02191690831515021790555081600001516001600160a01b0316817f753d4db383bcac616c2e2651156bc71c1ec81c0d5509071a85e3f565568765a3338560400151866060015187608001518860a0015160405180866001600160a01b031681526020018581526020018060200184815260200180602001838103835286818151815260200191508051906020019060200280838360005b8381101561175257818101518382015260200161173a565b50505050905001838103825284818151815260200191508051906020019060200280838360005b83811015611791578181015183820152602001611779565b5050505090500197505050505050505060405180910390a35050614e36805460ff19169055505050505050505050565b614e365460009060ff161561180b576040805162461bcd60e51b815260206004820152601c6024820152600080516020613981833981519152604482015290519081900360640190fd5b614e36805460ff19166001179055600e54600160a81b900460ff1661186b576040805162461bcd60e51b815260206004820152601160248201527029b0b632903737ba1039ba30b93a32b21760791b604482015290519081900360640190fd5b614e335460ff161561187c57600080fd5b612328600b54106118ca576040805162461bcd60e51b815260206004820152601360248201527229b0b632903634b6b4ba103932b0b1b432b21760691b604482015290519081900360640190fd5b60006118d461245d565b90508034101561192b576040805162461bcd60e51b815260206004820152601f60248201527f496e73756666696369656e742066756e647320746f2070757263686173652e00604482015290519081900360640190fd5b8034111561196b57336108fc6119413484612db7565b6040518115909202916000818181858888f19350505050158015611969573d6000803e3d6000fd5b505b600e546040516001600160a01b039091169082156108fc029083906000818181858888f193505050501580156119a5573d6000803e3d6000fd5b50600b805460010190556119ba336000612f81565b915050614e36805460ff1916905590565b600a545b90565b60105481565b61232881565b60008181526002602052604090205481906001600160a01b031633811480611a1c57506000828152600460205260409020546001600160a01b031633145b80611a4a57506001600160a01b038116600090815260056020908152604080832033845290915290205460ff165b611a8e576040805162461bcd60e51b815260206004820152601060248201526f21b0b73737ba103a3930b739b332b91760811b604482015290519081900360640190fd5b60008381526002602052604090205483906001600160a01b0316611aea576040805162461bcd60e51b815260206004820152600e60248201526d24b73b30b634b2103a37b5b2b71760911b604482015290519081900360640190fd5b6000848152600260205260409020546001600160a01b039081169087168114611b50576040805162461bcd60e51b81526020600482015260136024820152722bb937b73390333937b69030b2323932b9b99760691b604482015290519081900360640190fd5b6001600160a01b038616611ba1576040805162461bcd60e51b815260206004820152601360248201527221b0b73737ba1039b2b732103a3790183c181760691b604482015290519081900360640190fd5b611bab8686612dcc565b50505050505050565b600d546001600160a01b03163314611c04576040805162461bcd60e51b815260206004820152600e60248201526d27b7363c903232b83637bcb2b91760911b604482015290519081900360640190fd5b60005b82811015611c2357611c1a826000612f81565b50600101611c07565b505050565b614e365460ff1615611c6f576040805162461bcd60e51b815260206004820152601c6024820152600080516020613981833981519152604482015290519081900360640190fd5b614e36805460ff19166001179055336000908152614e346020526040902054811115611ce2576040805162461bcd60e51b815260206004820152601b60248201527f426565626974733a20696e73756666696369656e742066756e64730000000000604482015290519081900360640190fd5b336000908152614e346020526040902054611cfd9082612db7565b336000818152614e34602052604080822093909355915183908381818185875af1925050503d8060008114611d4e576040519150601f19603f3d011682016040523d82523d6000602084013e611d53565b606091505b5050905080611da9576040805162461bcd60e51b815260206004820152601b60248201527f426565626974733a207472616e73616374696f6e206661696c65640000000000604482015290519081900360640190fd5b60408051838152905133917f884edad9ce6fa2440d8a54cc123490eb96d2768479d49ff9c7366125a9424364919081900360200190a25050614e36805460ff19169055565b6001600160a01b0382166000908152600660205260408120548210611e1257600080fd5b6001600160a01b0383166000908152600660205260409020805483908110611e3657fe5b906000526020600020015490505b92915050565b614e365460009060ff1615611e94576040805162461bcd60e51b815260206004820152601c6024820152600080516020613981833981519152604482015290519081900360640190fd5b614e36805460ff19166001179055600e54600160a01b900460ff16611eb857600080fd5b614e335460ff1615611ec957600080fd5b600082118015611edb57506127108211155b611f2c576040805162461bcd60e51b815260206004820152601c60248201527f426565626974733a20696e76616c69642062756e6b20696e6465782e00000000604482015290519081900360640190fd5b60008281526003602052604090205415611f775760405162461bcd60e51b8152600401808060200182810382526026815260200180613b366026913960400191505060405180910390fd5b6000611f84836001612db7565b600c5460408051630b02f02d60e31b815260048101849052905192935033926001600160a01b0390921691635817816891602480820192602092909190829003018186803b158015611fd557600080fd5b505afa158015611fe9573d6000803e3d6000fd5b505050506040513d6020811015611fff57600080fd5b50516001600160a01b03161461205c576040805162461bcd60e51b815260206004820152601b60248201527f4e6f7420746865206f776e6572206f6620746869732070756e6b2e0000000000604482015290519081900360640190fd5b60008381526003602052604090208054600101905561207b3384612f81565b614e36805460ff191690559392505050565b600e54600160a81b900460ff1681565b60115481565b614e335460ff1681565b611c23838383604051806020016040528060008152506130c1565b60006120e1600b54612328612db790919063ffffffff16565b905090565b6000614e2082106120f657600080fd5b5060010190565b600d546001600160a01b0316331461214d576040805162461bcd60e51b815260206004820152600e60248201526d27b7363c903232b83637bcb2b91760911b604482015290519081900360640190fd5b614e3354610100900460ff161561219e576040805162461bcd60e51b815260206004820152601060248201526f21b7b73a3930b1ba1039b2b0b632b21760811b604482015290519081900360640190fd5b614e33805460ff1916911515919091179055565b6000818152600260205260408120546001600160a01b03166121d357600080fd5b506000908152600260205260409020546001600160a01b031690565b6000805460408051602060026001851615610100026000190190941693909304601f810184900484028201840190925281815292918301828280156122755780601f1061224a57610100808354040283529160200191612275565b820191906000526020600020905b81548152906001019060200180831161225857829003601f168201915b505050505081565b600d546001600160a01b031633146122cd576040805162461bcd60e51b815260206004820152600e60248201526d27b7363c903232b83637bcb2b91760911b604482015290519081900360640190fd5b614e33805461ff001916610100179055565b60006001600160a01b0382166122f457600080fd5b611e4482613386565b6001600160a01b03881633146123445760405162461bcd60e51b815260040180806020018281038252602e815260200180613a5b602e913960400191505060405180910390fd5b60006040518061010001604052808a6001600160a01b03168152602001896001600160a01b03168152602001888152602001878152602001868152602001858152602001848152602001838152509050600061239f82612e47565b6000818152614e356020908152604091829020805460ff19166001179055815183815291519293507f3f9cb69d022b6ec319f86f2df848bcce01f2fc51c9f86396779a8081cf6ca2ea92918290030190a150505050505050505050565b60098054604080516020601f600260001961010060018816150201909516949094049384018190048102820181019092528281526060939092909183018282801561108e5780601f106110635761010080835404028352916020019161108e565b600e54600090600160a81b900460ff166124b2576040805162461bcd60e51b815260206004820152601160248201527029b0b632903737ba1039ba30b93a32b21760791b604482015290519081900360640190fd5b60006124c960105442612db790919063ffffffff16565b905060115481106124de5760009150506119cf565b601154600f5461250391906124fd906124f78386612db7565b906133a1565b906133c9565b9150506119cf565b614e356020526000908152604090205460ff1681565b3360008181526005602090815260408083206001600160a01b03871680855290835292819020805460ff1916861515908117909155815190815290519293927f17307eab39ab6107e8899845ad3d59bd9653f200f220920489ca2b5937696c31929181900390910190a35050565b614e3354610100900460ff1681565b6125e085858585858080601f0160208091040260200160405190810160405280939291908181526020018383808284376000920191909152506130c192505050565b5050505050565b60036020526000908152604090205481565b60008181526002602052604090205460609082906001600160a01b0316612658576040805162461bcd60e51b815260206004820152600e60248201526d24b73b30b634b2103a37b5b2b71760911b604482015290519081900360640190fd5b612661836133dc565b60405160200180807f68747470733a2f2f626565626974732e78797a2f626565626974732f00000000815250601c0182805190602001908083835b602083106126bb5780518252601f19909201916020918201910161269c565b6001836020036101000a038019825116818451168082178552505050505050905001915050604051602081830303815290604052915050919050565b336000908152614e3460205260409020546127129034612da7565b336000818152614e346020908152604091829020939093558051348152905191927fe1fffcc4923d04b559f4d29a8bfc6cda04eb5b0d3c460751c2402c5c5cc9109c92918290030190a2565b600d546001600160a01b031633146127ae576040805162461bcd60e51b815260206004820152600e60248201526d27b7363c903232b83637bcb2b91760911b604482015290519081900360640190fd5b600e54600160a01b900460ff166127c457600080fd5b600e805460ff60a01b191690556040517f5f00e567de9d29d9d36405c34b1164390da767fb97a1fb7d6bf3680ff90a3b2690600090a1565b6000806040518061010001604052808c6001600160a01b031681526020018b6001600160a01b031681526020018a8152602001898152602001888152602001878152602001868152602001858152509050600061285882612e47565b6000818152614e35602052604090205490915060ff16156128aa5760405162461bcd60e51b81526004018080602001828103825260238152602001806139d16023913960400191505060405180910390fd5b60006128b5836134b7565b90506128c683600001518287613517565b612917576040805162461bcd60e51b815260206004820152601d60248201527f426565626974733a207369676e6174757265206e6f742076616c69642e000000604482015290519081900360640190fd5b8260c00151421061296f576040805162461bcd60e51b815260206004820152601d60248201527f426565626974733a207472616465206f6666657220657870697265642e000000604482015290519081900360640190fd5b8a158061297a575088155b6129b55760405162461bcd60e51b8152600401808060200182810382526029815260200180613b5c6029913960400191505060405180910390fd5b60008a5111806129c6575060008851115b612a17576040805162461bcd60e51b815260206004820152601b60248201527f4f6e652073696465206d757374206f6666657220746f6b656e732e0000000000604482015290519081900360640190fd5b60408084015184516001600160a01b03166000908152614e3460205291909120541015612a755760405162461bcd60e51b81526004018080602001828103825260308152602001806139a16030913960400191505060405180910390fd5b60005b836060015151811015612b0f5783600001516001600160a01b03166002600086606001518481518110612aa757fe5b6020908102919091018101518252810191909152604001600020546001600160a01b031614612b075760405162461bcd60e51b815260040180806020018281038252603a8152602001806139f4603a913960400191505060405180910390fd5b600101612a78565b5060208301516001600160a01b0316612b695760a08301515115612b645760405162461bcd60e51b815260040180806020018281038252604a815260200180613aec604a913960600191505060405180910390fd5b612c05565b60005b8360a0015151811015612c035783602001516001600160a01b0316600260008660a001518481518110612b9b57fe5b6020908102919091018101518252810191909152604001600020546001600160a01b031614612bfb5760405162461bcd60e51b815260040180806020018281038252603a815260200180613ab2603a913960400191505060405180910390fd5b600101612b6c565b505b5060019c9b505050505050505050505050565b614e346020526000908152604090205481565b6001600160a01b03918216600090815260056020908152604080832093909416825291909152205460ff1690565b600d546001600160a01b03163314612ca9576040805162461bcd60e51b815260206004820152600e60248201526d27b7363c903232b83637bcb2b91760911b604482015290519081900360640190fd5b600e54600160a81b900460ff1615612cc057600080fd5b600f829055601181905542601055600e805460ff60a81b1916600160a81b1790556040517f771cfe172460b7d64cc46cca57a1e1f40f52b47cf1d16fe30c78a2935b3dd58090600090a15050565b6000806040518061010001604052808b6001600160a01b031681526020018a6001600160a01b03168152602001898152602001888152602001878152602001868152602001858152602001848152509050612d6881612e47565b9a9950505050505050505050565b60066020528160005260406000208181548110612d9257600080fd5b90600052602060002001600091509150505481565b81810182811015611e4457600080fd5b600082821115612dc657600080fd5b50900390565b6000818152600260205260409020546001600160a01b0316612ded826135fb565b612df78183613638565b612e0183836137aa565b81836001600160a01b0316826001600160a01b03167fddf252ad1be2c89b69c2b068fc378daa952ba7f163c4a11628f55a4df523b3ef60405160405180910390a4505050565b6000816000015182602001518360400151846060015160405160200180828051906020019060200280838360005b83811015612e8d578181015183820152602001612e75565b505050509050019150506040516020818303038152906040528051906020012085608001518660a0015160405160200180828051906020019060200280838360005b83811015612ee7578181015183820152602001612ecf565b50505050905001915050604051602081830303815290604052805190602001208760c001518860e0015160405160200180896001600160a01b03168152602001886001600160a01b0316815260200187815260200186815260200185815260200184815260200183815260200182815260200198505050505050505050604051602081830303815290604052805190602001209050919050565b60006001600160a01b038316612fd4576040805162461bcd60e51b815260206004820152601360248201527221b0b73737ba1036b4b73a103a3790183c181760691b604482015290519081900360640190fd5b614e20600a5410613023576040805162461bcd60e51b81526020600482015260146024820152732a37b5b2b7103634b6b4ba103932b0b1b432b21760611b604482015290519081900360640190fd5b600061302d61387e565b600a80546001019055905061304284826137aa565b6040805184815290516001600160a01b0386169183917f4e3883c75cc9c752bb1db2e406a822e4a75067ae77ad9a0a4d179f2709b9e1f69181900360200190a360405181906001600160a01b038616906000907fddf252ad1be2c89b69c2b068fc378daa952ba7f163c4a11628f55a4df523b3ef908290a49392505050565b60008281526002602052604090205482906001600160a01b0316338114806130ff57506000828152600460205260409020546001600160a01b031633145b8061312d57506001600160a01b038116600090815260056020908152604080832033845290915290205460ff165b613171576040805162461bcd60e51b815260206004820152601060248201526f21b0b73737ba103a3930b739b332b91760811b604482015290519081900360640190fd5b60008481526002602052604090205484906001600160a01b03166131cd576040805162461bcd60e51b815260206004820152600e60248201526d24b73b30b634b2103a37b5b2b71760911b604482015290519081900360640190fd5b6000858152600260205260409020546001600160a01b039081169088168114613230576040805162461bcd60e51b815260206004820152601060248201526f24b731b7b93932b1ba1037bbb732b91760811b604482015290519081900360640190fd5b6001600160a01b03871661324357600080fd5b61324d8787612dcc565b6132568761397a565b1561337c576000876001600160a01b031663150b7a02338b8a8a6040518563ffffffff1660e01b815260040180856001600160a01b03168152602001846001600160a01b0316815260200183815260200180602001828103825283818151815260200191508051906020019080838360005b838110156132e05781810151838201526020016132c8565b50505050905090810190601f16801561330d5780820380516001836020036101000a031916815260200191505b5095505050505050602060405180830381600087803b15801561332f57600080fd5b505af1158015613343573d6000803e3d6000fd5b505050506040513d602081101561335957600080fd5b505190506001600160e01b03198116630a85bd0160e11b1461337a57600080fd5b505b5050505050505050565b6001600160a01b031660009081526006602052604090205490565b6000826133b057506000611e44565b50818102818382816133be57fe5b0414611e4457600080fd5b60008183816133d457fe5b049392505050565b60608161340157506040805180820190915260018152600360fc1b6020820152610fe7565b8160005b811561341957600101600a82049150613405565b60008167ffffffffffffffff8111801561343257600080fd5b506040519080825280601f01601f19166020018201604052801561345d576020820181803683370190505b50859350905060001982015b83156134ae57600a840660300160f81b8282806001900393508151811061348c57fe5b60200101906001600160f81b031916908160001a905350600a84049350613469565b50949350505050565b60006134c282612e47565b60405160200180807f19457468657265756d205369676e6564204d6573736167653a0a333200000000815250601c01828152602001915050604051602081830303815290604052805190602001209050919050565b60006001600160a01b03841661352c57600080fd5b815160411461353a57600080fd5b60208201516040830151606084015160001a601b81101561355957601b015b8060ff16601b148061356e57508060ff16601c145b61357757600080fd5b60018682858560405160008152602001604052604051808581526020018460ff1681526020018381526020018281526020019450505050506020604051602081039080840390855afa1580156135d1573d6000803e3d6000fd5b505050602060405103516001600160a01b0316876001600160a01b03161493505050509392505050565b6000818152600460205260409020546001600160a01b03161561363557600081815260046020526040902080546001600160a01b03191690555b50565b6000818152600260205260409020546001600160a01b03838116911614613699576040805162461bcd60e51b815260206004820152601060248201526f24b731b7b93932b1ba1037bbb732b91760811b604482015290519081900360640190fd5b600081815260026020908152604080832080546001600160a01b031916905560078252808320546001600160a01b038616845260069092528220549091906136e2906001612db7565b905081811461376d576001600160a01b038416600090815260066020526040812080548390811061370f57fe5b906000526020600020015490508060066000876001600160a01b03166001600160a01b03168152602001908152602001600020848154811061374d57fe5b600091825260208083209091019290925591825260079052604090208290555b6001600160a01b038416600090815260066020526040902080548061378e57fe5b6001900381819060005260206000200160009055905550505050565b6000818152600260205260409020546001600160a01b031615613814576040805162461bcd60e51b815260206004820152601a60248201527f43616e6e6f74206164642c20616c7265616479206f776e65642e000000000000604482015290519081900360640190fd5b600081815260026020908152604080832080546001600160a01b0319166001600160a01b03871690811790915580845260068352908320805460018181018355828652938520018590559252905461386b91612db7565b6000918252600760205260409091205550565b600a54601254604080516020808201939093523360601b81830152446054820152426074808301919091528251808303909101815260949091019091528051910120600091614e20039082908290816138d357fe5b0690506000601382614e2081106138e657fe5b01541561390457601382614e2081106138fb57fe5b01549050613907565b50805b601360018403614e20811061391857fe5b01546139375760018303601383614e20811061393057fe5b015561395b565b601360018403614e20811061394857fe5b0154601383614e20811061395857fe5b01555b601280546001908101909155613972908290612da7565b935050505090565b3b15159056fe426565626974733a207265656e7472616e637920646574656374656400000000426565626974733a206d616b657220646f6573206e6f7420686176652073756666696369656e742062616c616e63652e426565626974733a207472616465206f66666572207761732063616e63656c6c65642e426565626974733a206174206c65617374206f6e65206d616b657220746f6b656e20646f65736e27742062656c6f6e6720746f206d616b65722e426565626974733a20696e73756666696369656e742066756e647320746f20657865637574652074726164652e426565626974733a206f6e6c7920746865206d616b65722063616e2063616e63656c2074686973206f666665722e426565626974733a206e6f742074686520726563697069656e74206f662074686973206f666665722e426565626974733a206174206c65617374206f6e652074616b657220746f6b656e20646f65736e27742062656c6f6e6720746f2074616b65722e426565626974733a206966207472616465206973206f66666572656420746f20616e79626f64792c2063616e6e6f74207370656369667920746f6b656e732066726f6d2074616b65722e426565626974733a20616c7265616479206d696e746564207769746820746869732062756e6b426565626974733a206f6e6c79206f6e652073696465206f66207472616465206d757374207061792e426565626974733a2063616e277420616363657074206f6e6573206f776e2074726164652ea26469706673582212209a8dca5ba03634139c264cb95f2de4b507b995ee9e403814466d8a871913405d64736f6c63430007060033516d66585967665831714e667a51364e5279466e75706e695a7573617346504d6569576e356161446e783759586f",
  "linkReferences": {},
  "deployedLinkReferences": {}
}