{
  "_format": "hh-sol-artifact-1",
  "contractName": "Beebits",
  "sourceName": "contracts/Beebits.sol",
  "abi": [
    {
      "inputs": [
        {
          "internalType": "address",
          "name": "_bunks",
          "type": "address"
        },
        {
          "internalType": "address payable",
          "name": "_beneficiary",
          "type": "address"
        },
        {
          "internalType": "address payable",
          "name": "_listingCoordinator",
          "type": "address"
        },
        {
          "internalType": "address",
          "name": "_linkTokenAddress",
          "type": "address"
        },
        {
          "internalType": "address",
          "name": "_vrfCoordinator",
          "type": "address"
        },
        {
          "internalType": "bytes32",
          "name": "_keyHash",
          "type": "bytes32"
        },
        {
          "internalType": "uint256",
          "name": "_randomnessFee",
          "type": "uint256"
        }
      ],
      "stateMutability": "nonpayable",
      "type": "constructor"
    },
    {
      "anonymous": false,
      "inputs": [
        {
          "indexed": true,
          "internalType": "address",
          "name": "owner",
          "type": "address"
        },
        {
          "indexed": true,
          "internalType": "address",
          "name": "approved",
          "type": "address"
        },
        {
          "indexed": true,
          "internalType": "uint256",
          "name": "tokenId",
          "type": "uint256"
        }
      ],
      "name": "Approval",
      "type": "event"
    },
    {
      "anonymous": false,
      "inputs": [
        {
          "indexed": true,
          "internalType": "address",
          "name": "owner",
          "type": "address"
        },
        {
          "indexed": true,
          "internalType": "address",
          "name": "operator",
          "type": "address"
        },
        {
          "indexed": false,
          "internalType": "bool",
          "name": "approved",
          "type": "bool"
        }
      ],
      "name": "ApprovalForAll",
      "type": "event"
    },
    {
      "anonymous": false,
      "inputs": [
        {
          "indexed": false,
          "internalType": "uint256",
          "name": "tokenId",
          "type": "uint256"
        },
        {
          "indexed": false,
          "internalType": "uint256",
          "name": "bidValue",
          "type": "uint256"
        },
        {
          "indexed": false,
          "internalType": "address",
          "name": "bidder",
          "type": "address"
        }
      ],
      "name": "BeebitBidPlaced",
      "type": "event"
    },
    {
      "anonymous": false,
      "inputs": [
        {
          "indexed": false,
          "internalType": "uint256",
          "name": "tokenId",
          "type": "uint256"
        },
        {
          "indexed": false,
          "internalType": "uint256",
          "name": "bidValue",
          "type": "uint256"
        },
        {
          "indexed": false,
          "internalType": "address",
          "name": "bidder",
          "type": "address"
        }
      ],
      "name": "BeebitBidWithdrawn",
      "type": "event"
    },
    {
      "anonymous": false,
      "inputs": [
        {
          "indexed": false,
          "internalType": "uint256",
          "name": "tokenId",
          "type": "uint256"
        },
        {
          "indexed": false,
          "internalType": "uint256",
          "name": "price",
          "type": "uint256"
        },
        {
          "indexed": false,
          "internalType": "address",
          "name": "seller",
          "type": "address"
        },
        {
          "indexed": false,
          "internalType": "address",
          "name": "buyer",
          "type": "address"
        },
        {
          "indexed": false,
          "internalType": "bool",
          "name": "isBoughtFromBid",
          "type": "bool"
        }
      ],
      "name": "BeebitBought",
      "type": "event"
    },
    {
      "anonymous": false,
      "inputs": [
        {
          "indexed": false,
          "internalType": "uint256",
          "name": "tokenId",
          "type": "uint256"
        }
      ],
      "name": "BeebitDelisted",
      "type": "event"
    },
    {
      "anonymous": false,
      "inputs": [
        {
          "indexed": false,
          "internalType": "uint256",
          "name": "tokenId",
          "type": "uint256"
        },
        {
          "indexed": false,
          "internalType": "uint256",
          "name": "askingPrice",
          "type": "uint256"
        },
        {
          "indexed": false,
          "internalType": "address",
          "name": "seller",
          "type": "address"
        },
        {
          "indexed": false,
          "internalType": "address",
          "name": "buyerAddress",
          "type": "address"
        }
      ],
      "name": "BeebitListed",
      "type": "event"
    },
    {
      "anonymous": false,
      "inputs": [],
      "name": "CommunityGrantEnds",
      "type": "event"
    },
    {
      "anonymous": false,
      "inputs": [
        {
          "indexed": true,
          "internalType": "address",
          "name": "account",
          "type": "address"
        },
        {
          "indexed": false,
          "internalType": "uint256",
          "name": "amount",
          "type": "uint256"
        }
      ],
      "name": "Deposit",
      "type": "event"
    },
    {
      "anonymous": false,
      "inputs": [
        {
          "indexed": false,
          "internalType": "bool",
          "name": "mode",
          "type": "bool"
        }
      ],
      "name": "DevMintToggled",
      "type": "event"
    },
    {
      "anonymous": false,
      "inputs": [
        {
          "indexed": true,
          "internalType": "uint256",
          "name": "index",
          "type": "uint256"
        },
        {
          "indexed": true,
          "internalType": "address",
          "name": "minter",
          "type": "address"
        },
        {
          "indexed": false,
          "internalType": "uint256",
          "name": "createdVia",
          "type": "uint256"
        }
      ],
      "name": "Mint",
      "type": "event"
    },
    {
      "anonymous": false,
      "inputs": [
        {
          "indexed": false,
          "internalType": "bytes32",
          "name": "hash",
          "type": "bytes32"
        }
      ],
      "name": "OfferCancelled",
      "type": "event"
    },
    {
      "anonymous": false,
      "inputs": [
        {
          "indexed": true,
          "internalType": "address",
          "name": "minter",
          "type": "address"
        },
        {
          "indexed": false,
          "internalType": "bytes32",
          "name": "requestId",
          "type": "bytes32"
        }
      ],
      "name": "RequestedMint",
      "type": "event"
    },
    {
      "anonymous": false,
      "inputs": [],
      "name": "SaleBegins",
      "type": "event"
    },
    {
      "anonymous": false,
      "inputs": [
        {
          "indexed": true,
          "internalType": "bytes32",
          "name": "hash",
          "type": "bytes32"
        },
        {
          "indexed": true,
          "internalType": "address",
          "name": "maker",
          "type": "address"
        },
        {
          "indexed": false,
          "internalType": "address",
          "name": "taker",
          "type": "address"
        },
        {
          "indexed": false,
          "internalType": "uint256",
          "name": "makerWei",
          "type": "uint256"
        },
        {
          "indexed": false,
          "internalType": "uint256[]",
          "name": "makerIds",
          "type": "uint256[]"
        },
        {
          "indexed": false,
          "internalType": "uint256",
          "name": "takerWei",
          "type": "uint256"
        },
        {
          "indexed": false,
          "internalType": "uint256[]",
          "name": "takerIds",
          "type": "uint256[]"
        }
      ],
      "name": "Trade",
      "type": "event"
    },
    {
      "anonymous": false,
      "inputs": [
        {
          "indexed": true,
          "internalType": "address",
          "name": "from",
          "type": "address"
        },
        {
          "indexed": true,
          "internalType": "address",
          "name": "to",
          "type": "address"
        },
        {
          "indexed": true,
          "internalType": "uint256",
          "name": "tokenId",
          "type": "uint256"
        }
      ],
      "name": "Transfer",
      "type": "event"
    },
    {
      "anonymous": false,
      "inputs": [
        {
          "indexed": true,
          "internalType": "address",
          "name": "account",
          "type": "address"
        },
        {
          "indexed": false,
          "internalType": "uint256",
          "name": "amount",
          "type": "uint256"
        }
      ],
      "name": "Withdraw",
      "type": "event"
    },
    {
      "inputs": [],
      "name": "SALE_LIMIT",
      "outputs": [
        {
          "internalType": "uint256",
          "name": "",
          "type": "uint256"
        }
      ],
      "stateMutability": "view",
      "type": "function"
    },
    {
      "inputs": [],
      "name": "TOKEN_LIMIT",
      "outputs": [
        {
          "internalType": "uint256",
          "name": "",
          "type": "uint256"
        }
      ],
      "stateMutability": "view",
      "type": "function"
    },
    {
      "inputs": [
        {
          "internalType": "uint256",
          "name": "_tokenId",
          "type": "uint256"
        },
        {
          "internalType": "uint256",
          "name": "minPrice",
          "type": "uint256"
        }
      ],
      "name": "acceptBeebitBid",
      "outputs": [
        {
          "internalType": "bool",
          "name": "",
          "type": "bool"
        }
      ],
      "stateMutability": "nonpayable",
      "type": "function"
    },
    {
      "inputs": [
        {
          "internalType": "address",
          "name": "_approved",
          "type": "address"
        },
        {
          "internalType": "uint256",
          "name": "_tokenId",
          "type": "uint256"
        }
      ],
      "name": "approve",
      "outputs": [],
      "stateMutability": "nonpayable",
      "type": "function"
    },
    {
      "inputs": [
        {
          "internalType": "address",
          "name": "_owner",
          "type": "address"
        }
      ],
      "name": "balanceOf",
      "outputs": [
        {
          "internalType": "uint256",
          "name": "",
          "type": "uint256"
        }
      ],
      "stateMutability": "view",
      "type": "function"
    },
    {
      "inputs": [
        {
          "internalType": "uint256",
          "name": "",
          "type": "uint256"
        }
      ],
      "name": "beebitsBids",
      "outputs": [
        {
          "internalType": "bool",
          "name": "hasBid",
          "type": "bool"
        },
        {
          "internalType": "uint256",
          "name": "beebitTokenId",
          "type": "uint256"
        },
        {
          "internalType": "address",
          "name": "bidder",
          "type": "address"
        },
        {
          "internalType": "uint256",
          "name": "bidValue",
          "type": "uint256"
        }
      ],
      "stateMutability": "view",
      "type": "function"
    },
    {
      "inputs": [
        {
          "internalType": "uint256",
          "name": "",
          "type": "uint256"
        }
      ],
      "name": "beebitsListings",
      "outputs": [
        {
          "internalType": "bool",
          "name": "isForSale",
          "type": "bool"
        },
        {
          "internalType": "uint256",
          "name": "tokenId",
          "type": "uint256"
        },
        {
          "internalType": "address",
          "name": "seller",
          "type": "address"
        },
        {
          "internalType": "uint256",
          "name": "minimumValue",
          "type": "uint256"
        },
        {
          "internalType": "address",
          "name": "sellTo",
          "type": "address"
        }
      ],
      "stateMutability": "view",
      "type": "function"
    },
    {
      "inputs": [
        {
          "internalType": "uint256",
          "name": "_tokenId",
          "type": "uint256"
        }
      ],
      "name": "bidForListing",
      "outputs": [],
      "stateMutability": "payable",
      "type": "function"
    },
    {
      "inputs": [
        {
          "internalType": "address",
          "name": "",
          "type": "address"
        }
      ],
      "name": "bnbBalance",
      "outputs": [
        {
          "internalType": "uint256",
          "name": "",
          "type": "uint256"
        }
      ],
      "stateMutability": "view",
      "type": "function"
    },
    {
      "inputs": [
        {
          "internalType": "uint256",
          "name": "_tokenId",
          "type": "uint256"
        }
      ],
      "name": "buyBeebit",
      "outputs": [
        {
          "internalType": "bool",
          "name": "",
          "type": "bool"
        }
      ],
      "stateMutability": "payable",
      "type": "function"
    },
    {
      "inputs": [
        {
          "internalType": "bytes32",
          "name": "",
          "type": "bytes32"
        }
      ],
      "name": "cancelledListings",
      "outputs": [
        {
          "internalType": "bool",
          "name": "",
          "type": "bool"
        }
      ],
      "stateMutability": "view",
      "type": "function"
    },
    {
      "inputs": [
        {
          "internalType": "uint256",
          "name": "_newSaleCount",
          "type": "uint256"
        }
      ],
      "name": "changeSaleCount",
      "outputs": [],
      "stateMutability": "nonpayable",
      "type": "function"
    },
    {
      "inputs": [],
      "name": "communityGrant",
      "outputs": [
        {
          "internalType": "bool",
          "name": "",
          "type": "bool"
        }
      ],
      "stateMutability": "view",
      "type": "function"
    },
    {
      "inputs": [],
      "name": "contentHash",
      "outputs": [
        {
          "internalType": "string",
          "name": "",
          "type": "string"
        }
      ],
      "stateMutability": "view",
      "type": "function"
    },
    {
      "inputs": [],
      "name": "contractSealed",
      "outputs": [
        {
          "internalType": "bool",
          "name": "",
          "type": "bool"
        }
      ],
      "stateMutability": "view",
      "type": "function"
    },
    {
      "inputs": [
        {
          "internalType": "uint256",
          "name": "",
          "type": "uint256"
        }
      ],
      "name": "creatorNftMints",
      "outputs": [
        {
          "internalType": "uint256",
          "name": "",
          "type": "uint256"
        }
      ],
      "stateMutability": "view",
      "type": "function"
    },
    {
      "inputs": [
        {
          "internalType": "uint256",
          "name": "_tokenId",
          "type": "uint256"
        },
        {
          "internalType": "address",
          "name": "_newSeller",
          "type": "address"
        },
        {
          "internalType": "bytes32",
          "name": "_listingHash",
          "type": "bytes32"
        }
      ],
      "name": "deListBeebit",
      "outputs": [
        {
          "internalType": "bool",
          "name": "",
          "type": "bool"
        }
      ],
      "stateMutability": "nonpayable",
      "type": "function"
    },
    {
      "inputs": [],
      "name": "deposit",
      "outputs": [],
      "stateMutability": "payable",
      "type": "function"
    },
    {
      "inputs": [
        {
          "internalType": "uint256",
          "name": "_quantity",
          "type": "uint256"
        },
        {
          "internalType": "address",
          "name": "recipient",
          "type": "address"
        },
        {
          "internalType": "uint256",
          "name": "_deadline",
          "type": "uint256"
        }
      ],
      "name": "devMint",
      "outputs": [
        {
          "internalType": "bytes32",
          "name": "",
          "type": "bytes32"
        }
      ],
      "stateMutability": "payable",
      "type": "function"
    },
    {
      "inputs": [],
      "name": "endCommunityGrant",
      "outputs": [],
      "stateMutability": "nonpayable",
      "type": "function"
    },
    {
      "inputs": [
        {
          "internalType": "uint256",
          "name": "_tokenId",
          "type": "uint256"
        }
      ],
      "name": "getApproved",
      "outputs": [
        {
          "internalType": "address",
          "name": "",
          "type": "address"
        }
      ],
      "stateMutability": "view",
      "type": "function"
    },
    {
      "inputs": [
        {
          "internalType": "address",
          "name": "_owner",
          "type": "address"
        },
        {
          "internalType": "address",
          "name": "_operator",
          "type": "address"
        }
      ],
      "name": "isApprovedForAll",
      "outputs": [
        {
          "internalType": "bool",
          "name": "",
          "type": "bool"
        }
      ],
      "stateMutability": "view",
      "type": "function"
    },
    {
      "inputs": [
        {
          "internalType": "uint256",
          "name": "_askerTokenId",
          "type": "uint256"
        },
        {
          "internalType": "uint256",
          "name": "_askerMinPrice",
          "type": "uint256"
        }
      ],
      "name": "listBeebit",
      "outputs": [
        {
          "internalType": "bool",
          "name": "",
          "type": "bool"
        }
      ],
      "stateMutability": "payable",
      "type": "function"
    },
    {
      "inputs": [],
      "name": "marketPaused",
      "outputs": [
        {
          "internalType": "bool",
          "name": "",
          "type": "bool"
        }
      ],
      "stateMutability": "view",
      "type": "function"
    },
    {
      "inputs": [
        {
          "internalType": "uint256",
          "name": "_deadline",
          "type": "uint256"
        }
      ],
      "name": "mint",
      "outputs": [
        {
          "internalType": "bytes32",
          "name": "",
          "type": "bytes32"
        }
      ],
      "stateMutability": "payable",
      "type": "function"
    },
    {
      "inputs": [
        {
          "internalType": "uint256",
          "name": "_createVia",
          "type": "uint256"
        },
        {
          "internalType": "uint256",
          "name": "_deadline",
          "type": "uint256"
        }
      ],
      "name": "mintWithBunk",
      "outputs": [
        {
          "internalType": "bytes32",
          "name": "",
          "type": "bytes32"
        }
      ],
      "stateMutability": "payable",
      "type": "function"
    },
    {
      "inputs": [],
      "name": "mintsRemaining",
      "outputs": [
        {
          "internalType": "uint256",
          "name": "",
          "type": "uint256"
        }
      ],
      "stateMutability": "view",
      "type": "function"
    },
    {
      "inputs": [],
      "name": "name",
      "outputs": [
        {
          "internalType": "string",
          "name": "_name",
          "type": "string"
        }
      ],
      "stateMutability": "view",
      "type": "function"
    },
    {
      "inputs": [
        {
          "internalType": "uint256",
          "name": "_tokenId",
          "type": "uint256"
        }
      ],
      "name": "ownerOf",
      "outputs": [
        {
          "internalType": "address",
          "name": "_owner",
          "type": "address"
        }
      ],
      "stateMutability": "view",
      "type": "function"
    },
    {
      "inputs": [
        {
          "internalType": "bool",
          "name": "_paused",
          "type": "bool"
        }
      ],
      "name": "pauseMarket",
      "outputs": [],
      "stateMutability": "nonpayable",
      "type": "function"
    },
    {
      "inputs": [],
      "name": "publicSale",
      "outputs": [
        {
          "internalType": "bool",
          "name": "",
          "type": "bool"
        }
      ],
      "stateMutability": "view",
      "type": "function"
    },
    {
      "inputs": [
        {
          "internalType": "bytes32",
          "name": "requestId",
          "type": "bytes32"
        },
        {
          "internalType": "uint256",
          "name": "randomness",
          "type": "uint256"
        }
      ],
      "name": "rawFulfillRandomness",
      "outputs": [],
      "stateMutability": "nonpayable",
      "type": "function"
    },
    {
      "inputs": [
        {
          "internalType": "address",
          "name": "_from",
          "type": "address"
        },
        {
          "internalType": "address",
          "name": "_to",
          "type": "address"
        },
        {
          "internalType": "uint256",
          "name": "_tokenId",
          "type": "uint256"
        }
      ],
      "name": "safeTransferFrom",
      "outputs": [],
      "stateMutability": "nonpayable",
      "type": "function"
    },
    {
      "inputs": [
        {
          "internalType": "address",
          "name": "_from",
          "type": "address"
        },
        {
          "internalType": "address",
          "name": "_to",
          "type": "address"
        },
        {
          "internalType": "uint256",
          "name": "_tokenId",
          "type": "uint256"
        },
        {
          "internalType": "bytes",
          "name": "_data",
          "type": "bytes"
        }
      ],
      "name": "safeTransferFrom",
      "outputs": [],
      "stateMutability": "nonpayable",
      "type": "function"
    },
    {
      "inputs": [],
      "name": "saleDuration",
      "outputs": [
        {
          "internalType": "uint256",
          "name": "",
          "type": "uint256"
        }
      ],
      "stateMutability": "view",
      "type": "function"
    },
    {
      "inputs": [],
      "name": "saleStartTime",
      "outputs": [
        {
          "internalType": "uint256",
          "name": "",
          "type": "uint256"
        }
      ],
      "stateMutability": "view",
      "type": "function"
    },
    {
      "inputs": [],
      "name": "sealContract",
      "outputs": [],
      "stateMutability": "nonpayable",
      "type": "function"
    },
    {
      "inputs": [
        {
          "internalType": "address",
          "name": "_operator",
          "type": "address"
        },
        {
          "internalType": "bool",
          "name": "_approved",
          "type": "bool"
        }
      ],
      "name": "setApprovalForAll",
      "outputs": [],
      "stateMutability": "nonpayable",
      "type": "function"
    },
    {
      "inputs": [
        {
          "internalType": "address",
          "name": "_linkSwapperAddress",
          "type": "address"
        }
      ],
      "name": "setLinkSwapper",
      "outputs": [],
      "stateMutability": "nonpayable",
      "type": "function"
    },
    {
      "inputs": [
        {
          "internalType": "uint256",
          "name": "_price",
          "type": "uint256"
        },
        {
          "internalType": "uint256",
          "name": "_saleDuration",
          "type": "uint256"
        }
      ],
      "name": "startSale",
      "outputs": [],
      "stateMutability": "nonpayable",
      "type": "function"
    },
    {
      "inputs": [
        {
          "internalType": "bytes4",
          "name": "_interfaceID",
          "type": "bytes4"
        }
      ],
      "name": "supportsInterface",
      "outputs": [
        {
          "internalType": "bool",
          "name": "",
          "type": "bool"
        }
      ],
      "stateMutability": "view",
      "type": "function"
    },
    {
      "inputs": [],
      "name": "symbol",
      "outputs": [
        {
          "internalType": "string",
          "name": "_symbol",
          "type": "string"
        }
      ],
      "stateMutability": "view",
      "type": "function"
    },
    {
      "inputs": [
        {
          "internalType": "bool",
          "name": "_mode",
          "type": "bool"
        }
      ],
      "name": "toggleDevMintMode",
      "outputs": [],
      "stateMutability": "nonpayable",
      "type": "function"
    },
    {
      "inputs": [
        {
          "internalType": "uint256",
          "name": "index",
          "type": "uint256"
        }
      ],
      "name": "tokenByIndex",
      "outputs": [
        {
          "internalType": "uint256",
          "name": "",
          "type": "uint256"
        }
      ],
      "stateMutability": "pure",
      "type": "function"
    },
    {
      "inputs": [
        {
          "internalType": "address",
          "name": "_owner",
          "type": "address"
        },
        {
          "internalType": "uint256",
          "name": "_index",
          "type": "uint256"
        }
      ],
      "name": "tokenOfOwnerByIndex",
      "outputs": [
        {
          "internalType": "uint256",
          "name": "",
          "type": "uint256"
        }
      ],
      "stateMutability": "view",
      "type": "function"
    },
    {
      "inputs": [
        {
          "internalType": "uint256",
          "name": "_tokenId",
          "type": "uint256"
        }
      ],
      "name": "tokenURI",
      "outputs": [
        {
          "internalType": "string",
          "name": "",
          "type": "string"
        }
      ],
      "stateMutability": "view",
      "type": "function"
    },
    {
      "inputs": [],
      "name": "totalSupply",
      "outputs": [
        {
          "internalType": "uint256",
          "name": "",
          "type": "uint256"
        }
      ],
      "stateMutability": "view",
      "type": "function"
    },
    {
      "inputs": [
        {
          "internalType": "address",
          "name": "_from",
          "type": "address"
        },
        {
          "internalType": "address",
          "name": "_to",
          "type": "address"
        },
        {
          "internalType": "uint256",
          "name": "_tokenId",
          "type": "uint256"
        }
      ],
      "name": "transferFrom",
      "outputs": [],
      "stateMutability": "nonpayable",
      "type": "function"
    },
    {
      "inputs": [
        {
          "internalType": "uint256",
          "name": "amount",
          "type": "uint256"
        }
      ],
      "name": "withdraw",
      "outputs": [],
      "stateMutability": "nonpayable",
      "type": "function"
    },
    {
      "inputs": [
        {
          "internalType": "uint256",
          "name": "_tokenId",
          "type": "uint256"
        }
      ],
      "name": "withdrawBeebitBid",
      "outputs": [
        {
          "internalType": "bool",
          "name": "",
          "type": "bool"
        }
      ],
      "stateMutability": "nonpayable",
      "type": "function"
    }
  ],
  "bytecode": "0x610140604052602e60e081815290620056fa6101003980516200002b9160029160209091019062000248565b50612710600355604080518082019091526007808252664265656269747360c81b60209092019182526200006291600d9162000248565b5060408051808201909152600380825262e29a8760e81b60209092019182526200008f91600e9162000248565b506000600f81905560108190556011556017805461ffff60a81b1960ff60a01b19909116600160a01b17169055348015620000c957600080fd5b506040516200572838038062005728833981810160405260e0811015620000ef57600080fd5b508051602080830151604084015160608086015160808088015160a0808a015160c09a8b01516001600081815594881b6001600160601b03199081169094529590961b90911690925260049096527f9fe05126d2d9ecf60592e254dead906a4b2e492f36cca727682c38e9008c6ac1805460ff1990811684179091557f4267c0a6fd96b7a87f183ee8744f24d011423cd0e0142b3f563f183d8d9a456b80548216841790557f37d12c04da6fbc6cb50ddd5422176e58bb06358c56bda46618e6bc919ed84fa08054821684179055635b5e139f60e01b9096527e24030bcf4927897dffe721c2d8dda4bfd8910861687c42b03a463b43b04147805490961690911790945560148054336001600160a01b0319918216179091556012805482166001600160a01b039788161790556015805482169487169490941790935560168054909316949091169390931790556013559052620002f4565b828054600181600116156101000203166002900490600052602060002090601f016020900481019282620002805760008555620002cb565b82601f106200029b57805160ff1916838001178555620002cb565b82800160010185558215620002cb579182015b82811115620002cb578251825591602001919060010190620002ae565b50620002d9929150620002dd565b5090565b5b80821115620002d95760008155600101620002de565b60805160601c60a05160601c60c0516153a66200035460003980611cab5280611e485280612c0a5280612d9e52806137f752806139a652806144f952806145f852508061308c5280614f1852508061451a5280614ee952506153a66000f3fe6080604052600436106102c95760003560e01c80635b93488811610175578063a0712d68116100dc578063d0e30db011610095578063e0ca1f671161006f578063e0ca1f6714610b0e578063e985e9c514610b31578063ec613e4c14610b6c578063f4f3122e14610b9f576102c9565b8063d0e30db014610abe578063d357b01e14610ac6578063d84e4f5a14610adb576102c9565b8063a0712d6814610960578063a22cb4651461097d578063b6501637146109b8578063b88d4fde146109cd578063b9f7e21814610a6a578063c87b56dd14610a94576102c9565b80636d630b8d1161012e5780636d630b8d146107fb57806370a0823114610855578063880fa0e81461088857806394985ddd146108eb5780639549522e1461091b57806395d89b411461094b576102c9565b80635b9348881461072c5780635ec390d8146107495780635fbcf275146107755780636352211e146107a7578063646c2e33146107d157806368bd580e146107e6576102c9565b80632636f27d116102345780633a283bd2116101ed57806344c66be7116101c757806344c66be7146106a6578063456d0204146106bb578063475e41de146106d85780634f6ccce714610702576102c9565b80633a283bd21461062b5780633a6827741461064057806342842e0e14610663576102c9565b80632636f27d146105485780632e1a7d4d146105745780632f745c591461059e57806333bc1c5c146105d75780633711d9fb146105ec57806337ba76a814610601576102c9565b8063081812fc11610286578063081812fc14610445578063095ea7b31461048b57806318160ddd146104c65780631cbaee2d146104db578063212e8f67146104f057806323b872dd14610505576102c9565b806301ffc9a7146102ce57806302a7350714610316578063031bd4c41461034057806304935e51146103675780630614a6ba146103a657806306fdde03146103bb575b600080fd5b3480156102da57600080fd5b50610302600480360360208110156102f157600080fd5b50356001600160e01b031916610bcf565b604080519115158252519081900360200190f35b34801561032257600080fd5b506103026004803603602081101561033957600080fd5b5035610bf2565b34801561034c57600080fd5b50610355610c07565b60408051918252519081900360200190f35b34801561037357600080fd5b506103026004803603606081101561038a57600080fd5b508035906001600160a01b036020820135169060400135610c0d565b3480156103b257600080fd5b50610302610eae565b3480156103c757600080fd5b506103d0610ebe565b6040805160208082528351818301528351919283929083019185019080838360005b8381101561040a5781810151838201526020016103f2565b50505050905090810190601f1680156104375780820380516001836020036101000a031916815260200191505b509250505060405180910390f35b34801561045157600080fd5b5061046f6004803603602081101561046857600080fd5b5035610f54565b604080516001600160a01b039092168252519081900360200190f35b34801561049757600080fd5b506104c4600480360360408110156104ae57600080fd5b506001600160a01b038135169060200135610fcd565b005b3480156104d257600080fd5b5061035561113f565b3480156104e757600080fd5b50610355611145565b3480156104fc57600080fd5b5061035561114b565b34801561051157600080fd5b506104c46004803603606081101561052857600080fd5b506001600160a01b03813581169160208101359091169060400135611151565b34801561055457600080fd5b506104c46004803603602081101561056b57600080fd5b50351515611327565b34801561058057600080fd5b506104c46004803603602081101561059757600080fd5b50356113ca565b3480156105aa57600080fd5b50610355600480360360408110156105c157600080fd5b506001600160a01b038135169060200135611572565b3480156105e357600080fd5b506103026115cd565b3480156105f857600080fd5b506103556115dd565b34801561060d57600080fd5b506103026004803603602081101561062457600080fd5b50356115e3565b34801561063757600080fd5b50610302611999565b6103556004803603604081101561065657600080fd5b50803590602001356119a2565b34801561066f57600080fd5b506104c46004803603606081101561068657600080fd5b506001600160a01b03813581169160208101359091169060400135611f5b565b3480156106b257600080fd5b50610355611f7b565b6104c4600480360360208110156106d157600080fd5b5035611f99565b3480156106e457600080fd5b506104c4600480360360208110156106fb57600080fd5b503561233b565b34801561070e57600080fd5b506103556004803603602081101561072557600080fd5b5035612390565b6103026004803603602081101561074257600080fd5b50356123a7565b34801561075557600080fd5b506104c46004803603602081101561076c57600080fd5b503515156129c3565b6103556004803603606081101561078b57600080fd5b508035906001600160a01b036020820135169060400135612a76565b3480156107b357600080fd5b5061046f600480360360208110156107ca57600080fd5b5035612e84565b3480156107dd57600080fd5b506103d0612efc565b3480156107f257600080fd5b506104c4612f87565b34801561080757600080fd5b506108256004803603602081101561081e57600080fd5b5035612fe8565b60408051941515855260208501939093526001600160a01b03909116838301526060830152519081900360800190f35b34801561086157600080fd5b506103556004803603602081101561087857600080fd5b50356001600160a01b031661301f565b34801561089457600080fd5b506108b2600480360360208110156108ab57600080fd5b5035613043565b60408051951515865260208601949094526001600160a01b03928316858501526060850191909152166080830152519081900360a00190f35b3480156108f757600080fd5b506104c46004803603604081101561090e57600080fd5b5080359060200135613081565b34801561092757600080fd5b506103026004803603604081101561093e57600080fd5b508035906020013561310c565b34801561095757600080fd5b506103d06135ea565b6103556004803603602081101561097657600080fd5b503561364b565b34801561098957600080fd5b506104c4600480360360408110156109a057600080fd5b506001600160a01b0381351690602001351515613ac6565b3480156109c457600080fd5b50610302613b34565b3480156109d957600080fd5b506104c4600480360360808110156109f057600080fd5b6001600160a01b03823581169260208101359091169160408201359190810190608081016060820135640100000000811115610a2b57600080fd5b820183602082011115610a3d57600080fd5b80359060200191846001830284011164010000000083111715610a5f57600080fd5b509092509050613b42565b348015610a7657600080fd5b5061035560048036036020811015610a8d57600080fd5b5035613b8b565b348015610aa057600080fd5b506103d060048036036020811015610ab757600080fd5b5035613b9d565b6104c4613c9b565b348015610ad257600080fd5b506104c4613d00565b348015610ae757600080fd5b5061035560048036036020811015610afe57600080fd5b50356001600160a01b0316613d9e565b61030260048036036040811015610b2457600080fd5b5080359060200135613db0565b348015610b3d57600080fd5b5061030260048036036040811015610b5457600080fd5b506001600160a01b03813581169160200135166141c7565b348015610b7857600080fd5b506104c460048036036020811015610b8f57600080fd5b50356001600160a01b03166141f5565b348015610bab57600080fd5b506104c460048036036040811015610bc257600080fd5b5080359060200135614267565b6001600160e01b0319811660009081526004602052604090205460ff165b919050565b601f6020526000908152604090205460ff1681565b614e2081565b601b54600090849060ff1615610c5d576040805162461bcd60e51b815260206004820152601060248201526f1b585c9ad95d081a5cc81c185d5cd95960821b604482015290519081900360640190fd5b601b54610100900460ff1615610caf576040805162461bcd60e51b815260206004820152601260248201527118dbdb9d1c9858dd081a5cc81cd9585b195960721b604482015290519081900360640190fd5b614e208111158015610cc15750600081115b610d05576040805162461bcd60e51b815260206004820152601060248201526f1a5b9d985b1a59081d1bdad95b881a5960821b604482015290519081900360640190fd5b6000858152600860205260409020546001600160a01b03163314610d6a576040805162461bcd60e51b815260206004820152601760248201527631b0b63632b9103737ba103132b2b134ba1037bbb732b960491b604482015290519081900360640190fd5b6000858152601c602052604090205460ff16610dcd576040805162461bcd60e51b815260206004820152601960248201527f746f6b656e206e6f7420696e2073616c6520616c726561647900000000000000604482015290519081900360640190fd5b6040805160a081018252600080825260208083018981526001600160a01b03808a1685870190815260608601858152608087018681528d8752601c86528887209751885490151560ff19918216178955945160018981019190915592516002890180549186166001600160a01b0319928316179055915160038901555160049097018054979093169616959095179055878352601f82529184902080549092169092179055815187815291517ffc8c8fa0c3012532727758399e7eb91f21daa8ffbc505378b7e044164f5066ce9281900390910190a1506001949350505050565b601754600160a01b900460ff1681565b600d8054604080516020601f6002600019610100600188161502019095169490940493840181900481028201810190925282815260609390929091830182828015610f4a5780601f10610f1f57610100808354040283529160200191610f4a565b820191906000526020600020905b815481529060010190602001808311610f2d57829003601f168201915b5050505050905090565b60008181526008602052604081205482906001600160a01b0316610fb0576040805162461bcd60e51b815260206004820152600e60248201526d24b73b30b634b2103a37b5b2b71760911b604482015290519081900360640190fd5b50506000908152600660205260409020546001600160a01b031690565b60008181526008602052604090205481906001600160a01b03163381148061101857506001600160a01b038116600090815260076020908152604080832033845290915290205460ff165b61105b576040805162461bcd60e51b815260206004820152600f60248201526e21b0b73737ba1037b832b930ba329760891b604482015290519081900360640190fd5b60008381526008602052604090205483906001600160a01b03166110b7576040805162461bcd60e51b815260206004820152600e60248201526d24b73b30b634b2103a37b5b2b71760911b604482015290519081900360640190fd5b6000848152600860205260409020546001600160a01b039081169086168114156110e057600080fd5b60008581526006602052604080822080546001600160a01b0319166001600160a01b038a811691821790925591518893918516917f8c5be1e5ebec7d5bd14f71427d1e84f3dd0314c0f7b2291e5b200ac8c7c3b92591a4505050505050565b600f5490565b60195481565b60035481565b60008181526008602052604090205481906001600160a01b03163381148061118f57506000828152600660205260409020546001600160a01b031633145b806111bd57506001600160a01b038116600090815260076020908152604080832033845290915290205460ff165b611201576040805162461bcd60e51b815260206004820152601060248201526f21b0b73737ba103a3930b739b332b91760811b604482015290519081900360640190fd5b60008381526008602052604090205483906001600160a01b031661125d576040805162461bcd60e51b815260206004820152600e60248201526d24b73b30b634b2103a37b5b2b71760911b604482015290519081900360640190fd5b6000848152600860205260409020546001600160a01b0390811690871681146112c3576040805162461bcd60e51b81526020600482015260136024820152722bb937b73390333937b69030b2323932b9b99760691b604482015290519081900360640190fd5b6001600160a01b038616611314576040805162461bcd60e51b815260206004820152601360248201527221b0b73737ba1039b2b732103a3790183c181760691b604482015290519081900360640190fd5b61131e868661431c565b50505050505050565b6014546001600160a01b03163314611377576040805162461bcd60e51b815260206004820152600e60248201526d27b7363c903232b83637bcb2b91760911b604482015290519081900360640190fd5b60178054821515600160b01b810260ff60b01b199092169190911790915560408051918252517f557edfda0ed39485f1caf0084bd8c96b98886100f46e47226c6f93e2b9c73e309181900360200190a150565b60026000541415611410576040805162461bcd60e51b815260206004820152601f60248201526000805160206152aa833981519152604482015290519081900360640190fd5b60026000908155338152601d602052604090205481118015906114335750804710155b611479576040805162461bcd60e51b8152602060048201526012602482015271696e73756666696369656e742066756e647360701b604482015290519081900360640190fd5b336000908152601d60205260409020546114939082614397565b336000818152601d602052604080822093909355915183908381818185875af1925050503d80600081146114e3576040519150601f19603f3d011682016040523d82523d6000602084013e6114e8565b606091505b5050905080611533576040805162461bcd60e51b81526020600482015260126024820152711d1c985b9cd858dd1a5bdb8819985a5b195960721b604482015290519081900360640190fd5b60408051838152905133917f884edad9ce6fa2440d8a54cc123490eb96d2768479d49ff9c7366125a9424364919081900360200190a250506001600055565b6001600160a01b038216600090815260096020526040812054821061159657600080fd5b6001600160a01b03831660009081526009602052604090208054839081106115ba57fe5b9060005260206000200154905092915050565b601754600160a81b900460ff1681565b601a5481565b60006002600054141561162b576040805162461bcd60e51b815260206004820152601f60248201526000805160206152aa833981519152604482015290519081900360640190fd5b6002600055601b54829060ff161561167d576040805162461bcd60e51b815260206004820152601060248201526f1b585c9ad95d081a5cc81c185d5cd95960821b604482015290519081900360640190fd5b601b54610100900460ff16156116cf576040805162461bcd60e51b815260206004820152601260248201527118dbdb9d1c9858dd081a5cc81cd9585b195960721b604482015290519081900360640190fd5b614e2081111580156116e15750600081115b611725576040805162461bcd60e51b815260206004820152601060248201526f1a5b9d985b1a59081d1bdad95b881a5960821b604482015290519081900360640190fd5b6000838152600860205260409020546001600160a01b0316611785576040805162461bcd60e51b81526020600482015260146024820152733134b2103a379034b73b30b634b2103a37b5b2b760611b604482015290519081900360640190fd5b6000838152600860205260409020546001600160a01b03163314156117db5760405162461bcd60e51b81526004018080602001828103825260308152602001806152ee6030913960400191505060405180910390fd5b6000838152601e60205260409020600201546001600160a01b0316331461183d576040805162461bcd60e51b815260206004820152601160248201527031b0b63632b9103737ba103134b23232b960791b604482015290519081900360640190fd5b604080516080810182526000808252602080830187815283850183815260608501848152898552601e9093528584209451855460ff191690151517855590516001850155516002840180546001600160a01b0319166001600160a01b0390921691909117905551600390920182905591513391908381818185875af1925050503d80600081146118e9576040519150601f19603f3d011682016040523d82523d6000602084013e6118ee565b606091505b5050905080611939576040805162461bcd60e51b81526020600482015260126024820152711d1c985b9cd858dd1a5bdb8819985a5b195960721b604482015290519081900360640190fd5b6000848152601e602090815260409182902060030154825187815291820152338183015290517fa365bd5f760d7166e40cee2cee5c7f32f204acf82e237db21fce693ab1040c349181900360600190a16001925050506001600055919050565b601b5460ff1681565b6000600260005414156119ea576040805162461bcd60e51b815260206004820152601f60248201526000805160206152aa833981519152604482015290519081900360640190fd5b6002600055601754600160a01b900460ff16611a4d576040805162461bcd60e51b815260206004820152601f60248201527f636f6d6d756e697479206772616e74206e6f7420737461727465642079657400604482015290519081900360640190fd5b601b5460ff1615611a95576040805162461bcd60e51b815260206004820152600d60248201526c1b585c9ad95d081c185d5cd959609a1b604482015290519081900360640190fd5b600083118015611aa757506127108311155b611aee576040805162461bcd60e51b815260206004820152601360248201527234b73b30b634b210313ab7359034b73232bc1760691b604482015290519081900360640190fd5b336000908152600b602052604090206001015460ff1615611b52576040805162461bcd60e51b815260206004820152601960248201527870726576696f7573206d696e7420696e2070726f677265737360381b604482015290519081900360640190fd5b60008381526005602052604090205415611bb3576040805162461bcd60e51b815260206004820152601d60248201527f616c7265616479206d696e746564207769746820746869732062756e6b000000604482015290519081900360640190fd5b6000611bc0846001614397565b60125460408051630b02f02d60e31b815260048101849052905192935033926001600160a01b0390921691635817816891602480820192602092909190829003018186803b158015611c1157600080fd5b505afa158015611c25573d6000803e3d6000fd5b505050506040513d6020811015611c3b57600080fd5b50516001600160a01b031614611c98576040805162461bcd60e51b815260206004820152601b60248201527f6e6f7420746865206f776e6572206f6620746869732062756e6b2e0000000000604482015290519081900360640190fd5b6017546040805163fc5bb07f60e01b81527f0000000000000000000000000000000000000000000000000000000000000000600482015290516000926001600160a01b03169163fc5bb07f916024808301926020929190829003018186803b158015611d0357600080fd5b505afa158015611d17573d6000803e3d6000fd5b505050506040513d6020811015611d2d57600080fd5b5051905034811115611d86576040805162461bcd60e51b815260206004820152601a60248201527f696e73756666696369656e742066756e647320746f206d696e74000000000000604482015290519081900360640190fd5b80341115611e2e576000611d9a3483614397565b604051909150600090339083908381818185875af1925050503d8060008114611ddf576040519150601f19603f3d011682016040523d82523d6000602084013e611de4565b606091505b5050905080611e2b576040805162461bcd60e51b815260206004820152600e60248201526d726566756e64206661696c75726560901b604482015290519081900360640190fd5b50505b6017546040805163d96073cf60e01b8152600481018790527f0000000000000000000000000000000000000000000000000000000000000000602482015290516000926001600160a01b03169163d96073cf91859160448082019260209290919082900301818588803b158015611ea457600080fd5b505af1158015611eb8573d6000803e3d6000fd5b50505050506040513d6020811015611ecf57600080fd5b5051905080611f19576040805162461bcd60e51b81526020600482015260116024820152704c494e4b2053776170206661696c75726560781b604482015290519081900360640190fd5b600086815260056020526040902054611f339060016143f4565b600087815260056020526040902055611f4c3387614455565b60016000559695505050505050565b611f76838383604051806020016040528060008152506146ce565b505050565b6000611f9460105460035461439790919063ffffffff16565b905090565b601b54819060ff1615611fe6576040805162461bcd60e51b815260206004820152601060248201526f1b585c9ad95d081a5cc81c185d5cd95960821b604482015290519081900360640190fd5b601b54610100900460ff1615612038576040805162461bcd60e51b815260206004820152601260248201527118dbdb9d1c9858dd081a5cc81cd9585b195960721b604482015290519081900360640190fd5b614e20811115801561204a5750600081115b61208e576040805162461bcd60e51b815260206004820152601060248201526f1a5b9d985b1a59081d1bdad95b881a5960821b604482015290519081900360640190fd5b6000828152600860205260409020546001600160a01b03166120ee576040805162461bcd60e51b81526020600482015260146024820152733134b2103a379034b73b30b634b2103a37b5b2b760611b604482015290519081900360640190fd5b6000828152600860205260409020546001600160a01b031633141561215a576040805162461bcd60e51b815260206004820152601960248201527f63616e6e6f742062696420746f206f776e206c697374696e6700000000000000604482015290519081900360640190fd5b600034116121a4576040805162461bcd60e51b8152602060048201526012602482015271195b5c1d1e48189a59081c9958d95a5d995960721b604482015290519081900360640190fd5b6000828152601e60205260409020600301543411612209576040805162461bcd60e51b815260206004820152601960248201527f6269642076616c7565206e6f74206869676820656e6f75676800000000000000604482015290519081900360640190fd5b6000828152601e602052604090206003015415612282576000828152601e6020908152604080832060038101546002909101546001600160a01b03168452601d90925290912054612259916143f4565b6000838152601e60209081526040808320600201546001600160a01b03168352601d9091529020555b60408051608081018252600180825260208083018681523384860181815234606080880182815260008c8152601e88528a90209851895460ff191690151517895594519688019690965590516002870180546001600160a01b0319166001600160a01b0390921691909117905591516003909501949094558451878152918201528084019290925291517f1627396a943f27a9f2b8b73532817c5a830cfc29d541bc035af8a53e945c8b50929181900390910190a15050565b6014546001600160a01b0316331461238b576040805162461bcd60e51b815260206004820152600e60248201526d27b7363c903232b83637bcb2b91760911b604482015290519081900360640190fd5b600355565b6000614e2082106123a057600080fd5b5060010190565b6000600260005414156123ef576040805162461bcd60e51b815260206004820152601f60248201526000805160206152aa833981519152604482015290519081900360640190fd5b6002600055601b54829060ff1615612441576040805162461bcd60e51b815260206004820152601060248201526f1b585c9ad95d081a5cc81c185d5cd95960821b604482015290519081900360640190fd5b601b54610100900460ff1615612493576040805162461bcd60e51b815260206004820152601260248201527118dbdb9d1c9858dd081a5cc81cd9585b195960721b604482015290519081900360640190fd5b614e2081111580156124a55750600081115b6124e9576040805162461bcd60e51b815260206004820152601060248201526f1a5b9d985b1a59081d1bdad95b881a5960821b604482015290519081900360640190fd5b6000838152601c60209081526040808320815160a081018352815460ff161515815260018201549381019390935260028101546001600160a01b039081169284019290925260038101546060840152600401541660808201529061254d82866149d1565b60408301519091506001600160a01b03163314156125b2576040805162461bcd60e51b815260206004820152601b60248201527f63616e6e6f7420627579206f6e652773206f776e206265656269740000000000604482015290519081900360640190fd5b81516125f8576040805162461bcd60e51b815260206004820152601060248201526f1d1bdad95b881b9bdd081b1a5cdd195960821b604482015290519081900360640190fd5b6000818152601f602052604090205460ff1615612650576040805162461bcd60e51b81526020600482015260116024820152701b1a5cdd1a5b99c81b9bdd08199bdd5b99607a1b604482015290519081900360640190fd5b34156126ba57336000908152601d602052604090205461267090346143f4565b336000818152601d6020908152604091829020939093558051348152905191927fe1fffcc4923d04b559f4d29a8bfc6cda04eb5b0d3c460751c2402c5c5cc9109c92918290030190a25b60808201516001600160a01b031615806126e0575060808201516001600160a01b031633145b612720576040805162461bcd60e51b815260206004820152600c60248201526b1d5b985d5d1a1bdc9a5e995960a21b604482015290519081900360640190fd5b6060820151336000908152601d602052604090205410156127725760405162461bcd60e51b81526004018080602001828103825260248152602001806152ca6024913960400191505060405180910390fd5b6000858152600860205260409081902054908301516001600160a01b039081169116146127e6576040805162461bcd60e51b815260206004820181905260248201527f73656c6c6572206e6f206c6f6e676572206f776e6572206f6620626565626974604482015290519081900360640190fd5b6060820151336000908152601d602052604090205461280491614397565b336000908152601d6020526040808220929092556060840151848301516001600160a01b0316825291902054612839916143f4565b6040808401516001600160a01b03166000908152601d602052205561285e338661431c565b612869853383610c0d565b50606080830151604080850151815189815260208101939093526001600160a01b03168282015233928201929092526000608082015290517f76b917afa4dc7ea8a9f82936a6290ba0d5cf50bd343fdd1b424c98022b0fabe59181900360a00190a16000858152601e602052604090205460ff16801561290257506000858152601e60205260409020600201546001600160a01b031633145b156129b2576000858152601e6020908152604080832060030154338452601d90925290912054612931916143f4565b336000908152601d60209081526040808320939093558251608081018452828152808201898152818501848152606083018581528b8652601e909452949093209051815460ff19169015151781559151600183015591516002820180546001600160a01b0319166001600160a01b0390921691909117905590516003909101555b600193505050506001600055919050565b6014546001600160a01b03163314612a13576040805162461bcd60e51b815260206004820152600e60248201526d27b7363c903232b83637bcb2b91760911b604482015290519081900360640190fd5b601b54610100900460ff1615612a63576040805162461bcd60e51b815260206004820152601060248201526f21b7b73a3930b1ba1039b2b0b632b21760811b604482015290519081900360640190fd5b601b805460ff1916911515919091179055565b6014546000906001600160a01b03163314612ac9576040805162461bcd60e51b815260206004820152600e60248201526d27b7363c903232b83637bcb2b91760911b604482015290519081900360640190fd5b601754600160b01b900460ff16612b1d576040805162461bcd60e51b81526020600482015260136024820152723232bb1036b7b232903a3ab93732b21037b33360691b604482015290519081900360640190fd5b6001600160a01b0383166000908152600b602052604090206001015460ff1615612b8e576040805162461bcd60e51b815260206004820152601c60248201527f70726576696f757320646576206d696e7420696e2070726f6365737300000000604482015290519081900360640190fd5b600f54612b9e90614e2090614397565b841115612bf2576040805162461bcd60e51b815260206004820152601f60248201527f7175616e746974792065786365656473206d696e7461626c65206c696d697400604482015290519081900360640190fd5b60118490556017546040805163fc5bb07f60e01b81527f0000000000000000000000000000000000000000000000000000000000000000600482015290516000926001600160a01b03169163fc5bb07f916024808301926020929190829003018186803b158015612c6257600080fd5b505afa158015612c76573d6000803e3d6000fd5b505050506040513d6020811015612c8c57600080fd5b5051905034811115612ce5576040805162461bcd60e51b815260206004820152601a60248201527f696e73756666696369656e742066756e647320746f206d696e74000000000000604482015290519081900360640190fd5b80341115612d8457600033612cfa3484614397565b604051600081818185875af1925050503d8060008114612d36576040519150601f19603f3d011682016040523d82523d6000602084013e612d3b565b606091505b5050905080612d82576040805162461bcd60e51b815260206004820152600e60248201526d726566756e64206661696c75726560901b604482015290519081900360640190fd5b505b6017546040805163d96073cf60e01b8152600481018690527f0000000000000000000000000000000000000000000000000000000000000000602482015290516000926001600160a01b03169163d96073cf91859160448082019260209290919082900301818588803b158015612dfa57600080fd5b505af1158015612e0e573d6000803e3d6000fd5b50505050506040513d6020811015612e2557600080fd5b5051905080612e6f576040805162461bcd60e51b81526020600482015260116024820152704c494e4b2053776170206661696c75726560781b604482015290519081900360640190fd5b612e7a856000614455565b9695505050505050565b6000818152600860205260408120546001600160a01b0316612ee0576040805162461bcd60e51b815260206004820152601060248201526f1d1bdad95b881b9bdd081b5a5b9d195960821b604482015290519081900360640190fd5b506000908152600860205260409020546001600160a01b031690565b6002805460408051602060018416156101000260001901909316849004601f81018490048402820184019092528181529291830182828015612f7f5780601f10612f5457610100808354040283529160200191612f7f565b820191906000526020600020905b815481529060010190602001808311612f6257829003601f168201915b505050505081565b6014546001600160a01b03163314612fd7576040805162461bcd60e51b815260206004820152600e60248201526d27b7363c903232b83637bcb2b91760911b604482015290519081900360640190fd5b601b805461ff001916610100179055565b601e60205260009081526040902080546001820154600283015460039093015460ff9092169290916001600160a01b039091169084565b60006001600160a01b03821661303457600080fd5b61303d82614a40565b92915050565b601c602052600090815260409020805460018201546002830154600384015460049094015460ff9093169391926001600160a01b0391821692911685565b336001600160a01b037f000000000000000000000000000000000000000000000000000000000000000016146130fe576040805162461bcd60e51b815260206004820152601f60248201527f4f6e6c7920565246436f6f7264696e61746f722063616e2066756c66696c6c00604482015290519081900360640190fd5b6131088282614a5b565b5050565b600060026000541415613154576040805162461bcd60e51b815260206004820152601f60248201526000805160206152aa833981519152604482015290519081900360640190fd5b6002600055601b54839060ff16156131a6576040805162461bcd60e51b815260206004820152601060248201526f1b585c9ad95d081a5cc81c185d5cd95960821b604482015290519081900360640190fd5b601b54610100900460ff16156131f8576040805162461bcd60e51b815260206004820152601260248201527118dbdb9d1c9858dd081a5cc81cd9585b195960721b604482015290519081900360640190fd5b614e20811115801561320a5750600081115b61324e576040805162461bcd60e51b815260206004820152601060248201526f1a5b9d985b1a59081d1bdad95b881a5960821b604482015290519081900360640190fd5b6000848152600860205260409020546001600160a01b031633146132ac576040805162461bcd60e51b815260206004820152601060248201526f31b0b63632b9103737ba1037bbb732b960811b604482015290519081900360640190fd5b6000848152601e602052604090205460ff166132fd576040805162461bcd60e51b815260206004820152600b60248201526a1a5b9d985b1a5908189a5960aa1b604482015290519081900360640190fd5b6000848152601e602052604090206003015483111561334d5760405162461bcd60e51b815260040180806020018281038252603081526020018061531e6030913960400191505060405180910390fd5b6000848152601c60209081526040808320815160a081018352815460ff161515815260018201548185015260028201546001600160a01b0390811682850190815260038401546060840152600490930154811660808301528986526008909452919093205492519092821691161461340c576040805162461bcd60e51b815260206004820181905260248201527f73656c6c6572206e6f206c6f6e676572206f776e6572206f6620626565626974604482015290519081900360640190fd5b600061341882876149d1565b6000818152601f602052604090205490915060ff1615613473576040805162461bcd60e51b81526020600482015260116024820152701b1a5cdd1a5b99c81b9bdd08199bdd5b99607a1b604482015290519081900360640190fd5b6000868152601e6020908152604080832060030154338452601d9092529091205461349d916143f4565b336000908152601d6020908152604080832093909355888252601e905220600201546134d49087906001600160a01b031683610c0d565b506000868152601e60205260409020600201546134fa906001600160a01b03168761431c565b6000868152601e6020908152604091829020600381015460029091015483518a81529283019190915233828401526001600160a01b031660608201526001608082015290517f76b917afa4dc7ea8a9f82936a6290ba0d5cf50bd343fdd1b424c98022b0fabe59181900360a00190a15050604080516080810182526000808252602080830188815283850183815260608501848152998452601e9092529382209251835460ff1916901515178355925160018084019190915592516002830180546001600160a01b0319166001600160a01b03909216919091179055955160039091015593849055509192915050565b600e8054604080516020601f6002600019610100600188161502019095169490940493840181900481028201810190925282815260609390929091830182828015610f4a5780601f10610f1f57610100808354040283529160200191610f4a565b600060026000541415613693576040805162461bcd60e51b815260206004820152601f60248201526000805160206152aa833981519152604482015290519081900360640190fd5b6002600055601754600160a81b900460ff166136ea576040805162461bcd60e51b815260206004820152601160248201527039b0b632903737ba1039ba30b93a32b21760791b604482015290519081900360640190fd5b601b5460ff1615613732576040805162461bcd60e51b815260206004820152600d60248201526c1b585c9ad95d081c185d5cd959609a1b604482015290519081900360640190fd5b60035460105410613780576040805162461bcd60e51b815260206004820152601360248201527239b0b632903634b6b4ba103932b0b1b432b21760691b604482015290519081900360640190fd5b336000908152600b602052604090206001015460ff16156137e4576040805162461bcd60e51b815260206004820152601960248201527870726576696f7573206d696e7420696e2070726f677265737360381b604482015290519081900360640190fd5b6017546040805163fc5bb07f60e01b81527f0000000000000000000000000000000000000000000000000000000000000000600482015290516703782dace9d90000926000926001600160a01b039091169163fc5bb07f91602480820192602092909190829003018186803b15801561385c57600080fd5b505afa158015613870573d6000803e3d6000fd5b505050506040513d602081101561388657600080fd5b50519050600061389683836143f4565b9050803410156138ed576040805162461bcd60e51b815260206004820152601e60248201527f696e73756666696369656e742066756e647320746f2070757263686173650000604482015290519081900360640190fd5b8034111561398c576000336139023484614397565b604051600081818185875af1925050503d806000811461393e576040519150601f19603f3d011682016040523d82523d6000602084013e613943565b606091505b505090508061398a576040805162461bcd60e51b815260206004820152600e60248201526d726566756e64206661696c75726560901b604482015290519081900360640190fd5b505b6017546040805163d96073cf60e01b8152600481018890527f0000000000000000000000000000000000000000000000000000000000000000602482015290516000926001600160a01b03169163d96073cf91869160448082019260209290919082900301818588803b158015613a0257600080fd5b505af1158015613a16573d6000803e3d6000fd5b50505050506040513d6020811015613a2d57600080fd5b5051905080613a77576040805162461bcd60e51b81526020600482015260116024820152704c494e4b2053776170206661696c75726560781b604482015290519081900360640190fd5b6015546040516001600160a01b039091169085156108fc029086906000818181858888f19350505050158015613ab1573d6000803e3d6000fd5b50601080546001019055611f4c336000614455565b3360008181526007602090815260408083206001600160a01b03871680855290835292819020805460ff1916861515908117909155815190815290519293927f17307eab39ab6107e8899845ad3d59bd9653f200f220920489ca2b5937696c31929181900390910190a35050565b601b54610100900460ff1681565b613b8485858585858080601f0160208091040260200160405190810160405280939291908181526020018383808284376000920191909152506146ce92505050565b5050505050565b60056020526000908152604090205481565b60008181526008602052604090205460609082906001600160a01b0316613bfc576040805162461bcd60e51b815260206004820152600e60248201526d24b73b30b634b2103a37b5b2b71760911b604482015290519081900360640190fd5b613c0583614b20565b60405160200180807f68747470733a2f2f626565626974732e78797a2f626565626974732f00000000815250601c0182805190602001908083835b60208310613c5f5780518252601f199092019160209182019101613c40565b6001836020036101000a038019825116818451168082178552505050505050905001915050604051602081830303815290604052915050919050565b336000908152601d6020526040902054613cb590346143f4565b336000818152601d6020908152604091829020939093558051348152905191927fe1fffcc4923d04b559f4d29a8bfc6cda04eb5b0d3c460751c2402c5c5cc9109c92918290030190a2565b6014546001600160a01b03163314613d50576040805162461bcd60e51b815260206004820152600e60248201526d27b7363c903232b83637bcb2b91760911b604482015290519081900360640190fd5b601754600160a01b900460ff16613d6657600080fd5b6017805460ff60a01b191690556040517f5f00e567de9d29d9d36405c34b1164390da767fb97a1fb7d6bf3680ff90a3b2690600090a1565b601d6020526000908152604090205481565b601b54600090839060ff1615613e00576040805162461bcd60e51b815260206004820152601060248201526f1b585c9ad95d081a5cc81c185d5cd95960821b604482015290519081900360640190fd5b601b54610100900460ff1615613e52576040805162461bcd60e51b815260206004820152601260248201527118dbdb9d1c9858dd081a5cc81cd9585b195960721b604482015290519081900360640190fd5b614e208111158015613e645750600081115b613ea8576040805162461bcd60e51b815260206004820152601060248201526f1a5b9d985b1a59081d1bdad95b881a5960821b604482015290519081900360640190fd5b6000848152600860205260409020546001600160a01b03163314613f0d576040805162461bcd60e51b815260206004820152601760248201527631b0b63632b9103737ba103132b2b134ba1037bbb732b960491b604482015290519081900360640190fd5b6000848152601c602052604090205460ff1615613f69576040805162461bcd60e51b8152602060048201526015602482015274746f6b656e20616c726561647920696e2073616c6560581b604482015290519081900360640190fd5b6000613f76846064614bfb565b905080341015613fcd576040805162461bcd60e51b815260206004820152601860248201527f696e73756666696369656e74206c697374696e67206665650000000000000000604482015290519081900360640190fd5b8034111561407457600033613fe23484614397565b604051600081818185875af1925050503d806000811461401e576040519150601f19603f3d011682016040523d82523d6000602084013e614023565b606091505b5050905080614072576040805162461bcd60e51b81526020600482015260166024820152756c697374696e6720726566756e64206661696c75726560501b604482015290519081900360640190fd5b505b6016546001600160a01b03166000908152601d602052604090205461409990826143f4565b6016546001600160a01b03166000908152601d6020908152604080832093909355825160a08101845260018152908101889052339281019290925260608201869052608082018190526140ec82886149d1565b6000888152601c602090815260408083208651815490151560ff19918216178255838801516001830155828801516002830180546001600160a01b039283166001600160a01b0319918216179091556060808b015160038601556080808c015160049096018054969094169590921694909417909155868652601f8552838620805490921690915582518d81529384018c9052338484015290830193909352519293507fa7d4c2a94767040be2bbed5f65f5d0958a8677ada0a6388b8ce4e846d4e1144b929081900390910190a15060019695505050505050565b6001600160a01b03918216600090815260076020908152604080832093909416825291909152205460ff1690565b6014546001600160a01b03163314614245576040805162461bcd60e51b815260206004820152600e60248201526d27b7363c903232b83637bcb2b91760911b604482015290519081900360640190fd5b601780546001600160a01b0319166001600160a01b0392909216919091179055565b6014546001600160a01b031633146142b7576040805162461bcd60e51b815260206004820152600e60248201526d27b7363c903232b83637bcb2b91760911b604482015290519081900360640190fd5b601754600160a81b900460ff16156142ce57600080fd5b6018829055601a819055426019556017805460ff60a81b1916600160a81b1790556040517f771cfe172460b7d64cc46cca57a1e1f40f52b47cf1d16fe30c78a2935b3dd58090600090a15050565b6000818152600860205260409020546001600160a01b031661433d82614c62565b6143478183614c9f565b6143518383614e11565b81836001600160a01b0316826001600160a01b03167fddf252ad1be2c89b69c2b068fc378daa952ba7f163c4a11628f55a4df523b3ef60405160405180910390a4505050565b6000828211156143ee576040805162461bcd60e51b815260206004820152601e60248201527f536166654d6174683a207375627472616374696f6e206f766572666c6f770000604482015290519081900360640190fd5b50900390565b60008282018381101561444e576040805162461bcd60e51b815260206004820152601b60248201527f536166654d6174683a206164646974696f6e206f766572666c6f770000000000604482015290519081900360640190fd5b9392505050565b60006001600160a01b0383166144a8576040805162461bcd60e51b815260206004820152601360248201527231b0b73737ba1036b4b73a103a3790183c181760691b604482015290519081900360640190fd5b614e20600f54106144f7576040805162461bcd60e51b81526020600482015260146024820152733a37b5b2b7103634b6b4ba103932b0b1b432b21760611b604482015290519081900360640190fd5b7f00000000000000000000000000000000000000000000000000000000000000007f00000000000000000000000000000000000000000000000000000000000000006001600160a01b03166370a08231306040518263ffffffff1660e01b815260040180826001600160a01b0316815260200191505060206040518083038186803b15801561458557600080fd5b505afa158015614599573d6000803e3d6000fd5b505050506040513d60208110156145af57600080fd5b505110156145ee5760405162461bcd60e51b815260040180806020018281038252602381526020018061534e6023913960400191505060405180910390fd5b60006146216013547f0000000000000000000000000000000000000000000000000000000000000000434060001c614ee5565b60408051606081018252828152600160208083018281528385018981526001600160a01b038b166000818152600b8552878120965187559251948601805460ff19169515159590951790945551600290940193909355848352600c81529183902080546001600160a01b0319168217905582518481529251939450927f12f50b93996340c1531e9ede80a612e2ca18013db72a0d05fee30b0c0b3d7a389281900390910190a29392505050565b60008281526008602052604090205482906001600160a01b03163381148061470c57506000828152600660205260409020546001600160a01b031633145b8061473a57506001600160a01b038116600090815260076020908152604080832033845290915290205460ff165b61477e576040805162461bcd60e51b815260206004820152601060248201526f21b0b73737ba103a3930b739b332b91760811b604482015290519081900360640190fd5b60008481526008602052604090205484906001600160a01b03166147da576040805162461bcd60e51b815260206004820152600e60248201526d24b73b30b634b2103a37b5b2b71760911b604482015290519081900360640190fd5b6000858152600860205260409020546001600160a01b03908116908816811461483d576040805162461bcd60e51b815260206004820152601060248201526f34b731b7b93932b1ba1037bbb732b91760811b604482015290519081900360640190fd5b6001600160a01b03871661488e576040805162461bcd60e51b815260206004820152601360248201527273656e646572207a65726f206164647265737360681b604482015290519081900360640190fd5b614898878761431c565b6148a18761509a565b156149c7576000876001600160a01b031663150b7a02338b8a8a6040518563ffffffff1660e01b815260040180856001600160a01b03168152602001846001600160a01b0316815260200183815260200180602001828103825283818151815260200191508051906020019080838360005b8381101561492b578181015183820152602001614913565b50505050905090810190601f1680156149585780820380516001836020036101000a031916815260200191505b5095505050505050602060405180830381600087803b15801561497a57600080fd5b505af115801561498e573d6000803e3d6000fd5b505050506040513d60208110156149a457600080fd5b505190506001600160e01b03198116630a85bd0160e11b146149c557600080fd5b505b5050505050505050565b8151604080840151606080860151608090960151835194151560f81b6020808701919091526bffffffffffffffffffffffff1993831b841660218701526035860197909752901b1660558301526069808301939093528051808303909301835260899091019052805191012090565b6001600160a01b031660009081526009602052604090205490565b6000828152600c60205260409020546017546001600160a01b0390911690600160b01b900460ff168015614a9157506000601154115b15614ae85760015b6011548111614add5760408051602080820186905281830184905282518083038401815260609092019092528051910120614ad483826150a0565b50600101614a99565b506000601155614af2565b614af281836150a0565b6001600160a01b03166000908152600b6020526040812081815560018101805460ff19169055600201555050565b606081614b4557506040805180820190915260018152600360fc1b6020820152610bed565b8160005b8115614b5d57600101600a82049150614b49565b60008167ffffffffffffffff81118015614b7657600080fd5b506040519080825280601f01601f191660200182016040528015614ba1576020820181803683370190505b50859350905060001982015b8315614bf257600a840660300160f81b82828060019003935081518110614bd057fe5b60200101906001600160f81b031916908160001a905350600a84049350614bad565b50949350505050565b6000808211614c51576040805162461bcd60e51b815260206004820152601a60248201527f536166654d6174683a206469766973696f6e206279207a65726f000000000000604482015290519081900360640190fd5b818381614c5a57fe5b049392505050565b6000818152600660205260409020546001600160a01b031615614c9c57600081815260066020526040902080546001600160a01b03191690555b50565b6000818152600860205260409020546001600160a01b03838116911614614d00576040805162461bcd60e51b815260206004820152601060248201526f34b731b7b93932b1ba1037bbb732b91760811b604482015290519081900360640190fd5b600081815260086020908152604080832080546001600160a01b0319169055600a8252808320546001600160a01b03861684526009909252822054909190614d49906001614397565b9050818114614dd4576001600160a01b0384166000908152600960205260408120805483908110614d7657fe5b906000526020600020015490508060096000876001600160a01b03166001600160a01b031681526020019081526020016000208481548110614db457fe5b6000918252602080832090910192909255918252600a9052604090208290555b6001600160a01b0384166000908152600960205260409020805480614df557fe5b6001900381819060005260206000200160009055905550505050565b6000818152600860205260409020546001600160a01b031615614e7b576040805162461bcd60e51b815260206004820152601a60248201527f63616e6e6f74206164642c20616c7265616479206f776e65642e000000000000604482015290519081900360640190fd5b600081815260086020908152604080832080546001600160a01b0319166001600160a01b038716908117909155808452600983529083208054600181810183558286529385200185905592529054614ed291614397565b6000918252600a60205260409091205550565b60007f00000000000000000000000000000000000000000000000000000000000000006001600160a01b0316634000aea07f000000000000000000000000000000000000000000000000000000000000000085878660405160200180838152602001828152602001925050506040516020818303038152906040526040518463ffffffff1660e01b815260040180846001600160a01b0316815260200183815260200180602001828103825283818151815260200191508051906020019080838360005b83811015614fc1578181015183820152602001614fa9565b50505050905090810190601f168015614fee5780820380516001836020036101000a031916815260200191505b50945050505050602060405180830381600087803b15801561500f57600080fd5b505af1158015615023573d6000803e3d6000fd5b505050506040513d602081101561503957600080fd5b5050600084815260016020526040812054615059908690859030906151cf565b60008681526001602081905260409091205491925061507891906143f4565b6000868152600160205260409020556150918582615216565b95945050505050565b3b151590565b60006150b9600f54614e2061439790919063ffffffff16565b905060006150d260016150cc8585615242565b906143f4565b600f549091506150e39060016143f4565b600f556001600160a01b038416615135576040805162461bcd60e51b815260206004820152601160248201527033b7ba10183c181030b99036b4b73a32b960791b604482015290519081900360640190fd5b61513f8482614e11565b60405181906001600160a01b038616906000907fddf252ad1be2c89b69c2b068fc378daa952ba7f163c4a11628f55a4df523b3ef908290a46001600160a01b0384166000818152600b6020908152604091829020600201548251908152915184927f4e3883c75cc9c752bb1db2e406a822e4a75067ae77ad9a0a4d179f2709b9e1f692908290030190a350505050565b60408051602080820196909652808201949094526001600160a01b039290921660608401526080808401919091528151808403909101815260a09092019052805191012090565b604080516020808201949094528082019290925280518083038201815260609092019052805191012090565b6000808211615298576040805162461bcd60e51b815260206004820152601860248201527f536166654d6174683a206d6f64756c6f206279207a65726f0000000000000000604482015290519081900360640190fd5b8183816152a157fe5b06939250505056fe5265656e7472616e637947756172643a207265656e7472616e742063616c6c00696e73756666696369656e742066756e647320746f20657865637574652074726164652e6269642077697468647261772063616e6e6f7420626520646f6e65207768656e206f776e696e672061206265656269746269642076616c7565206e6f7420657175616c206f722067726561746572207468616e206c6973746564207072696365696e73756666696369656e74206c696e6b2066756e647320666f722072657175657374a2646970667358221220eddb28a106819dd06f678e00e8a6feb698fe4d2caf00d073a9bb1d8b7c5c4ea864736f6c63430007060033516d66585967665831714e667a51364e5279466e75706e695a7573617346504d6569576e356161446e783759586f",
  "linkReferences": {},
  "deployedLinkReferences": {}
}