{
  "_format": "hh-sol-artifact-1",
  "contractName": "Beebits",
  "sourceName": "contracts/Beebits.sol",
  "abi": [
    {
      "inputs": [
        {
          "internalType": "address",
          "name": "_bunks",
          "type": "address"
        },
        {
          "internalType": "address payable",
          "name": "_beneficiary",
          "type": "address"
        },
        {
          "internalType": "address",
          "name": "_linkTokenAddress",
          "type": "address"
        },
        {
          "internalType": "address",
          "name": "_vrfCoordinator",
          "type": "address"
        },
        {
          "internalType": "bytes32",
          "name": "_keyHash",
          "type": "bytes32"
        },
        {
          "internalType": "uint256",
          "name": "_randomnessFee",
          "type": "uint256"
        }
      ],
      "stateMutability": "nonpayable",
      "type": "constructor"
    },
    {
      "anonymous": false,
      "inputs": [
        {
          "indexed": true,
          "internalType": "address",
          "name": "owner",
          "type": "address"
        },
        {
          "indexed": true,
          "internalType": "address",
          "name": "approved",
          "type": "address"
        },
        {
          "indexed": true,
          "internalType": "uint256",
          "name": "tokenId",
          "type": "uint256"
        }
      ],
      "name": "Approval",
      "type": "event"
    },
    {
      "anonymous": false,
      "inputs": [
        {
          "indexed": true,
          "internalType": "address",
          "name": "owner",
          "type": "address"
        },
        {
          "indexed": true,
          "internalType": "address",
          "name": "operator",
          "type": "address"
        },
        {
          "indexed": false,
          "internalType": "bool",
          "name": "approved",
          "type": "bool"
        }
      ],
      "name": "ApprovalForAll",
      "type": "event"
    },
    {
      "anonymous": false,
      "inputs": [
        {
          "indexed": false,
          "internalType": "uint256",
          "name": "tokenId",
          "type": "uint256"
        },
        {
          "indexed": false,
          "internalType": "uint256",
          "name": "bidValue",
          "type": "uint256"
        },
        {
          "indexed": false,
          "internalType": "address",
          "name": "bidder",
          "type": "address"
        }
      ],
      "name": "BeebitBidPlaced",
      "type": "event"
    },
    {
      "anonymous": false,
      "inputs": [
        {
          "indexed": false,
          "internalType": "uint256",
          "name": "tokenId",
          "type": "uint256"
        },
        {
          "indexed": false,
          "internalType": "uint256",
          "name": "bidValue",
          "type": "uint256"
        },
        {
          "indexed": false,
          "internalType": "address",
          "name": "bidder",
          "type": "address"
        }
      ],
      "name": "BeebitBidWithdrawn",
      "type": "event"
    },
    {
      "anonymous": false,
      "inputs": [
        {
          "indexed": false,
          "internalType": "uint256",
          "name": "tokenId",
          "type": "uint256"
        },
        {
          "indexed": false,
          "internalType": "uint256",
          "name": "price",
          "type": "uint256"
        },
        {
          "indexed": false,
          "internalType": "address",
          "name": "seller",
          "type": "address"
        },
        {
          "indexed": false,
          "internalType": "address",
          "name": "buyer",
          "type": "address"
        }
      ],
      "name": "BeebitBought",
      "type": "event"
    },
    {
      "anonymous": false,
      "inputs": [
        {
          "indexed": false,
          "internalType": "uint256",
          "name": "tokenId",
          "type": "uint256"
        }
      ],
      "name": "BeebitDelisted",
      "type": "event"
    },
    {
      "anonymous": false,
      "inputs": [
        {
          "indexed": false,
          "internalType": "uint256",
          "name": "tokenId",
          "type": "uint256"
        },
        {
          "indexed": false,
          "internalType": "uint256",
          "name": "askingPrice",
          "type": "uint256"
        },
        {
          "indexed": false,
          "internalType": "address",
          "name": "buyerAddress",
          "type": "address"
        }
      ],
      "name": "BeebitListed",
      "type": "event"
    },
    {
      "anonymous": false,
      "inputs": [],
      "name": "CommunityGrantEnds",
      "type": "event"
    },
    {
      "anonymous": false,
      "inputs": [
        {
          "indexed": true,
          "internalType": "address",
          "name": "account",
          "type": "address"
        },
        {
          "indexed": false,
          "internalType": "uint256",
          "name": "amount",
          "type": "uint256"
        }
      ],
      "name": "Deposit",
      "type": "event"
    },
    {
      "anonymous": false,
      "inputs": [
        {
          "indexed": false,
          "internalType": "bool",
          "name": "mode",
          "type": "bool"
        }
      ],
      "name": "DevMintToggled",
      "type": "event"
    },
    {
      "anonymous": false,
      "inputs": [
        {
          "indexed": true,
          "internalType": "uint256",
          "name": "index",
          "type": "uint256"
        },
        {
          "indexed": true,
          "internalType": "address",
          "name": "minter",
          "type": "address"
        },
        {
          "indexed": false,
          "internalType": "uint256",
          "name": "createdVia",
          "type": "uint256"
        }
      ],
      "name": "Mint",
      "type": "event"
    },
    {
      "anonymous": false,
      "inputs": [
        {
          "indexed": false,
          "internalType": "bytes32",
          "name": "hash",
          "type": "bytes32"
        }
      ],
      "name": "OfferCancelled",
      "type": "event"
    },
    {
      "anonymous": false,
      "inputs": [
        {
          "indexed": true,
          "internalType": "address",
          "name": "minter",
          "type": "address"
        },
        {
          "indexed": false,
          "internalType": "bytes32",
          "name": "requestId",
          "type": "bytes32"
        }
      ],
      "name": "RequestedMint",
      "type": "event"
    },
    {
      "anonymous": false,
      "inputs": [],
      "name": "SaleBegins",
      "type": "event"
    },
    {
      "anonymous": false,
      "inputs": [
        {
          "indexed": true,
          "internalType": "bytes32",
          "name": "hash",
          "type": "bytes32"
        },
        {
          "indexed": true,
          "internalType": "address",
          "name": "maker",
          "type": "address"
        },
        {
          "indexed": false,
          "internalType": "address",
          "name": "taker",
          "type": "address"
        },
        {
          "indexed": false,
          "internalType": "uint256",
          "name": "makerWei",
          "type": "uint256"
        },
        {
          "indexed": false,
          "internalType": "uint256[]",
          "name": "makerIds",
          "type": "uint256[]"
        },
        {
          "indexed": false,
          "internalType": "uint256",
          "name": "takerWei",
          "type": "uint256"
        },
        {
          "indexed": false,
          "internalType": "uint256[]",
          "name": "takerIds",
          "type": "uint256[]"
        }
      ],
      "name": "Trade",
      "type": "event"
    },
    {
      "anonymous": false,
      "inputs": [
        {
          "indexed": true,
          "internalType": "address",
          "name": "from",
          "type": "address"
        },
        {
          "indexed": true,
          "internalType": "address",
          "name": "to",
          "type": "address"
        },
        {
          "indexed": true,
          "internalType": "uint256",
          "name": "tokenId",
          "type": "uint256"
        }
      ],
      "name": "Transfer",
      "type": "event"
    },
    {
      "anonymous": false,
      "inputs": [
        {
          "indexed": true,
          "internalType": "address",
          "name": "account",
          "type": "address"
        },
        {
          "indexed": false,
          "internalType": "uint256",
          "name": "amount",
          "type": "uint256"
        }
      ],
      "name": "Withdraw",
      "type": "event"
    },
    {
      "inputs": [],
      "name": "SALE_LIMIT",
      "outputs": [
        {
          "internalType": "uint256",
          "name": "",
          "type": "uint256"
        }
      ],
      "stateMutability": "view",
      "type": "function"
    },
    {
      "inputs": [],
      "name": "TOKEN_LIMIT",
      "outputs": [
        {
          "internalType": "uint256",
          "name": "",
          "type": "uint256"
        }
      ],
      "stateMutability": "view",
      "type": "function"
    },
    {
      "inputs": [
        {
          "internalType": "uint256",
          "name": "_tokenId",
          "type": "uint256"
        },
        {
          "internalType": "uint256",
          "name": "minPrice",
          "type": "uint256"
        }
      ],
      "name": "acceptBeebitBid",
      "outputs": [
        {
          "internalType": "bool",
          "name": "",
          "type": "bool"
        }
      ],
      "stateMutability": "nonpayable",
      "type": "function"
    },
    {
      "inputs": [
        {
          "internalType": "address",
          "name": "_approved",
          "type": "address"
        },
        {
          "internalType": "uint256",
          "name": "_tokenId",
          "type": "uint256"
        }
      ],
      "name": "approve",
      "outputs": [],
      "stateMutability": "nonpayable",
      "type": "function"
    },
    {
      "inputs": [
        {
          "internalType": "address",
          "name": "_owner",
          "type": "address"
        }
      ],
      "name": "balanceOf",
      "outputs": [
        {
          "internalType": "uint256",
          "name": "",
          "type": "uint256"
        }
      ],
      "stateMutability": "view",
      "type": "function"
    },
    {
      "inputs": [
        {
          "internalType": "uint256",
          "name": "",
          "type": "uint256"
        }
      ],
      "name": "beebitsBids",
      "outputs": [
        {
          "internalType": "bool",
          "name": "hasBid",
          "type": "bool"
        },
        {
          "internalType": "uint256",
          "name": "beebitTokenId",
          "type": "uint256"
        },
        {
          "internalType": "address",
          "name": "bidder",
          "type": "address"
        },
        {
          "internalType": "uint256",
          "name": "bidValue",
          "type": "uint256"
        }
      ],
      "stateMutability": "view",
      "type": "function"
    },
    {
      "inputs": [
        {
          "internalType": "uint256",
          "name": "",
          "type": "uint256"
        }
      ],
      "name": "beebitsListings",
      "outputs": [
        {
          "internalType": "bool",
          "name": "isForSale",
          "type": "bool"
        },
        {
          "internalType": "uint256",
          "name": "tokenId",
          "type": "uint256"
        },
        {
          "internalType": "address",
          "name": "seller",
          "type": "address"
        },
        {
          "internalType": "uint256",
          "name": "minimumValue",
          "type": "uint256"
        },
        {
          "internalType": "address",
          "name": "sellTo",
          "type": "address"
        }
      ],
      "stateMutability": "view",
      "type": "function"
    },
    {
      "inputs": [
        {
          "internalType": "uint256",
          "name": "_tokenId",
          "type": "uint256"
        }
      ],
      "name": "bidForListing",
      "outputs": [],
      "stateMutability": "payable",
      "type": "function"
    },
    {
      "inputs": [
        {
          "internalType": "address",
          "name": "",
          "type": "address"
        }
      ],
      "name": "bnbBalance",
      "outputs": [
        {
          "internalType": "uint256",
          "name": "",
          "type": "uint256"
        }
      ],
      "stateMutability": "view",
      "type": "function"
    },
    {
      "inputs": [
        {
          "internalType": "uint256",
          "name": "_tokenId",
          "type": "uint256"
        }
      ],
      "name": "buyBeebit",
      "outputs": [
        {
          "internalType": "bool",
          "name": "",
          "type": "bool"
        }
      ],
      "stateMutability": "payable",
      "type": "function"
    },
    {
      "inputs": [
        {
          "internalType": "bytes32",
          "name": "",
          "type": "bytes32"
        }
      ],
      "name": "cancelledListings",
      "outputs": [
        {
          "internalType": "bool",
          "name": "",
          "type": "bool"
        }
      ],
      "stateMutability": "view",
      "type": "function"
    },
    {
      "inputs": [
        {
          "internalType": "uint256",
          "name": "_newSaleCount",
          "type": "uint256"
        }
      ],
      "name": "changeSaleCount",
      "outputs": [],
      "stateMutability": "nonpayable",
      "type": "function"
    },
    {
      "inputs": [],
      "name": "communityGrant",
      "outputs": [
        {
          "internalType": "bool",
          "name": "",
          "type": "bool"
        }
      ],
      "stateMutability": "view",
      "type": "function"
    },
    {
      "inputs": [],
      "name": "contentHash",
      "outputs": [
        {
          "internalType": "string",
          "name": "",
          "type": "string"
        }
      ],
      "stateMutability": "view",
      "type": "function"
    },
    {
      "inputs": [],
      "name": "contractSealed",
      "outputs": [
        {
          "internalType": "bool",
          "name": "",
          "type": "bool"
        }
      ],
      "stateMutability": "view",
      "type": "function"
    },
    {
      "inputs": [
        {
          "internalType": "uint256",
          "name": "",
          "type": "uint256"
        }
      ],
      "name": "creatorNftMints",
      "outputs": [
        {
          "internalType": "uint256",
          "name": "",
          "type": "uint256"
        }
      ],
      "stateMutability": "view",
      "type": "function"
    },
    {
      "inputs": [
        {
          "internalType": "uint256",
          "name": "_tokenId",
          "type": "uint256"
        },
        {
          "internalType": "address",
          "name": "_newSeller",
          "type": "address"
        },
        {
          "internalType": "bytes32",
          "name": "_listingHash",
          "type": "bytes32"
        }
      ],
      "name": "deListBeebit",
      "outputs": [
        {
          "internalType": "bool",
          "name": "",
          "type": "bool"
        }
      ],
      "stateMutability": "nonpayable",
      "type": "function"
    },
    {
      "inputs": [],
      "name": "deposit",
      "outputs": [],
      "stateMutability": "payable",
      "type": "function"
    },
    {
      "inputs": [
        {
          "internalType": "uint256",
          "name": "_quantity",
          "type": "uint256"
        },
        {
          "internalType": "address",
          "name": "recipient",
          "type": "address"
        },
        {
          "internalType": "uint256",
          "name": "_deadline",
          "type": "uint256"
        }
      ],
      "name": "devMint",
      "outputs": [
        {
          "internalType": "bytes32",
          "name": "",
          "type": "bytes32"
        }
      ],
      "stateMutability": "payable",
      "type": "function"
    },
    {
      "inputs": [],
      "name": "endCommunityGrant",
      "outputs": [],
      "stateMutability": "nonpayable",
      "type": "function"
    },
    {
      "inputs": [
        {
          "internalType": "uint256",
          "name": "_tokenId",
          "type": "uint256"
        }
      ],
      "name": "getApproved",
      "outputs": [
        {
          "internalType": "address",
          "name": "",
          "type": "address"
        }
      ],
      "stateMutability": "view",
      "type": "function"
    },
    {
      "inputs": [
        {
          "internalType": "address",
          "name": "_owner",
          "type": "address"
        },
        {
          "internalType": "address",
          "name": "_operator",
          "type": "address"
        }
      ],
      "name": "isApprovedForAll",
      "outputs": [
        {
          "internalType": "bool",
          "name": "",
          "type": "bool"
        }
      ],
      "stateMutability": "view",
      "type": "function"
    },
    {
      "inputs": [
        {
          "internalType": "uint256",
          "name": "_askerTokenId",
          "type": "uint256"
        },
        {
          "internalType": "uint256",
          "name": "_askerMinPrice",
          "type": "uint256"
        }
      ],
      "name": "listBeebit",
      "outputs": [
        {
          "internalType": "bool",
          "name": "",
          "type": "bool"
        }
      ],
      "stateMutability": "nonpayable",
      "type": "function"
    },
    {
      "inputs": [],
      "name": "marketPaused",
      "outputs": [
        {
          "internalType": "bool",
          "name": "",
          "type": "bool"
        }
      ],
      "stateMutability": "view",
      "type": "function"
    },
    {
      "inputs": [
        {
          "internalType": "uint256",
          "name": "_deadline",
          "type": "uint256"
        }
      ],
      "name": "mint",
      "outputs": [
        {
          "internalType": "bytes32",
          "name": "",
          "type": "bytes32"
        }
      ],
      "stateMutability": "payable",
      "type": "function"
    },
    {
      "inputs": [
        {
          "internalType": "uint256",
          "name": "_createVia",
          "type": "uint256"
        },
        {
          "internalType": "uint256",
          "name": "_deadline",
          "type": "uint256"
        }
      ],
      "name": "mintWithBunk",
      "outputs": [
        {
          "internalType": "bytes32",
          "name": "",
          "type": "bytes32"
        }
      ],
      "stateMutability": "payable",
      "type": "function"
    },
    {
      "inputs": [],
      "name": "mintsRemaining",
      "outputs": [
        {
          "internalType": "uint256",
          "name": "",
          "type": "uint256"
        }
      ],
      "stateMutability": "view",
      "type": "function"
    },
    {
      "inputs": [],
      "name": "name",
      "outputs": [
        {
          "internalType": "string",
          "name": "_name",
          "type": "string"
        }
      ],
      "stateMutability": "view",
      "type": "function"
    },
    {
      "inputs": [
        {
          "internalType": "uint256",
          "name": "_tokenId",
          "type": "uint256"
        }
      ],
      "name": "ownerOf",
      "outputs": [
        {
          "internalType": "address",
          "name": "_owner",
          "type": "address"
        }
      ],
      "stateMutability": "view",
      "type": "function"
    },
    {
      "inputs": [
        {
          "internalType": "bool",
          "name": "_paused",
          "type": "bool"
        }
      ],
      "name": "pauseMarket",
      "outputs": [],
      "stateMutability": "nonpayable",
      "type": "function"
    },
    {
      "inputs": [],
      "name": "publicSale",
      "outputs": [
        {
          "internalType": "bool",
          "name": "",
          "type": "bool"
        }
      ],
      "stateMutability": "view",
      "type": "function"
    },
    {
      "inputs": [
        {
          "internalType": "bytes32",
          "name": "requestId",
          "type": "bytes32"
        },
        {
          "internalType": "uint256",
          "name": "randomness",
          "type": "uint256"
        }
      ],
      "name": "rawFulfillRandomness",
      "outputs": [],
      "stateMutability": "nonpayable",
      "type": "function"
    },
    {
      "inputs": [
        {
          "internalType": "address",
          "name": "_from",
          "type": "address"
        },
        {
          "internalType": "address",
          "name": "_to",
          "type": "address"
        },
        {
          "internalType": "uint256",
          "name": "_tokenId",
          "type": "uint256"
        }
      ],
      "name": "safeTransferFrom",
      "outputs": [],
      "stateMutability": "nonpayable",
      "type": "function"
    },
    {
      "inputs": [
        {
          "internalType": "address",
          "name": "_from",
          "type": "address"
        },
        {
          "internalType": "address",
          "name": "_to",
          "type": "address"
        },
        {
          "internalType": "uint256",
          "name": "_tokenId",
          "type": "uint256"
        },
        {
          "internalType": "bytes",
          "name": "_data",
          "type": "bytes"
        }
      ],
      "name": "safeTransferFrom",
      "outputs": [],
      "stateMutability": "nonpayable",
      "type": "function"
    },
    {
      "inputs": [],
      "name": "saleDuration",
      "outputs": [
        {
          "internalType": "uint256",
          "name": "",
          "type": "uint256"
        }
      ],
      "stateMutability": "view",
      "type": "function"
    },
    {
      "inputs": [],
      "name": "saleStartTime",
      "outputs": [
        {
          "internalType": "uint256",
          "name": "",
          "type": "uint256"
        }
      ],
      "stateMutability": "view",
      "type": "function"
    },
    {
      "inputs": [],
      "name": "sealContract",
      "outputs": [],
      "stateMutability": "nonpayable",
      "type": "function"
    },
    {
      "inputs": [
        {
          "internalType": "address",
          "name": "_operator",
          "type": "address"
        },
        {
          "internalType": "bool",
          "name": "_approved",
          "type": "bool"
        }
      ],
      "name": "setApprovalForAll",
      "outputs": [],
      "stateMutability": "nonpayable",
      "type": "function"
    },
    {
      "inputs": [
        {
          "internalType": "address",
          "name": "_linkSwapperAddress",
          "type": "address"
        }
      ],
      "name": "setLinkSwapper",
      "outputs": [],
      "stateMutability": "nonpayable",
      "type": "function"
    },
    {
      "inputs": [
        {
          "internalType": "uint256",
          "name": "_price",
          "type": "uint256"
        },
        {
          "internalType": "uint256",
          "name": "_saleDuration",
          "type": "uint256"
        }
      ],
      "name": "startSale",
      "outputs": [],
      "stateMutability": "nonpayable",
      "type": "function"
    },
    {
      "inputs": [
        {
          "internalType": "bytes4",
          "name": "_interfaceID",
          "type": "bytes4"
        }
      ],
      "name": "supportsInterface",
      "outputs": [
        {
          "internalType": "bool",
          "name": "",
          "type": "bool"
        }
      ],
      "stateMutability": "view",
      "type": "function"
    },
    {
      "inputs": [],
      "name": "symbol",
      "outputs": [
        {
          "internalType": "string",
          "name": "_symbol",
          "type": "string"
        }
      ],
      "stateMutability": "view",
      "type": "function"
    },
    {
      "inputs": [
        {
          "internalType": "bool",
          "name": "_mode",
          "type": "bool"
        }
      ],
      "name": "toggleDevMintMode",
      "outputs": [],
      "stateMutability": "nonpayable",
      "type": "function"
    },
    {
      "inputs": [
        {
          "internalType": "uint256",
          "name": "index",
          "type": "uint256"
        }
      ],
      "name": "tokenByIndex",
      "outputs": [
        {
          "internalType": "uint256",
          "name": "",
          "type": "uint256"
        }
      ],
      "stateMutability": "pure",
      "type": "function"
    },
    {
      "inputs": [
        {
          "internalType": "address",
          "name": "_owner",
          "type": "address"
        },
        {
          "internalType": "uint256",
          "name": "_index",
          "type": "uint256"
        }
      ],
      "name": "tokenOfOwnerByIndex",
      "outputs": [
        {
          "internalType": "uint256",
          "name": "",
          "type": "uint256"
        }
      ],
      "stateMutability": "view",
      "type": "function"
    },
    {
      "inputs": [
        {
          "internalType": "uint256",
          "name": "_tokenId",
          "type": "uint256"
        }
      ],
      "name": "tokenURI",
      "outputs": [
        {
          "internalType": "string",
          "name": "",
          "type": "string"
        }
      ],
      "stateMutability": "view",
      "type": "function"
    },
    {
      "inputs": [],
      "name": "totalSupply",
      "outputs": [
        {
          "internalType": "uint256",
          "name": "",
          "type": "uint256"
        }
      ],
      "stateMutability": "view",
      "type": "function"
    },
    {
      "inputs": [
        {
          "internalType": "address",
          "name": "_from",
          "type": "address"
        },
        {
          "internalType": "address",
          "name": "_to",
          "type": "address"
        },
        {
          "internalType": "uint256",
          "name": "_tokenId",
          "type": "uint256"
        }
      ],
      "name": "transferFrom",
      "outputs": [],
      "stateMutability": "nonpayable",
      "type": "function"
    },
    {
      "inputs": [
        {
          "internalType": "uint256",
          "name": "amount",
          "type": "uint256"
        }
      ],
      "name": "withdraw",
      "outputs": [],
      "stateMutability": "nonpayable",
      "type": "function"
    },
    {
      "inputs": [
        {
          "internalType": "uint256",
          "name": "_tokenId",
          "type": "uint256"
        }
      ],
      "name": "withdrawBeebitBid",
      "outputs": [
        {
          "internalType": "bool",
          "name": "",
          "type": "bool"
        }
      ],
      "stateMutability": "nonpayable",
      "type": "function"
    }
  ],
  "bytecode": "0x610140604052602e60e081815290620055536101003980516200002b9160029160209091019062000232565b50612710600355604080518082019091526007808252664265656269747360c81b60209092019182526200006291600d9162000232565b5060408051808201909152600380825262e29a8760e81b60209092019182526200008f91600e9162000232565b506000600f81905560108190556011556016805461ffff60a81b1960ff60a01b19909116600160a01b17169055348015620000c957600080fd5b506040516200558138038062005581833981810160405260c0811015620000ef57600080fd5b508051602080830151604084015160608086015160808088015160a098890151600160008181556001600160601b031995871b8616909b529590941b909216905260049094527f9fe05126d2d9ecf60592e254dead906a4b2e492f36cca727682c38e9008c6ac1805460ff1990811684179091557f4267c0a6fd96b7a87f183ee8744f24d011423cd0e0142b3f563f183d8d9a456b80548216841790557f37d12c04da6fbc6cb50ddd5422176e58bb06358c56bda46618e6bc919ed84fa08054821684179055635b5e139f60e01b9096527e24030bcf4927897dffe721c2d8dda4bfd8910861687c42b03a463b43b041478054909616909117909455601480546001600160a01b03199081163317909155601280546001600160a01b03958616908316179055601580549490921693169290921790915560135560c052620002de565b828054600181600116156101000203166002900490600052602060002090601f0160209004810192826200026a5760008555620002b5565b82601f106200028557805160ff1916838001178555620002b5565b82800160010185558215620002b5579182015b82811115620002b557825182559160200191906001019062000298565b50620002c3929150620002c7565b5090565b5b80821115620002c35760008155600101620002c8565b60805160601c60a05160601c60c0516152156200033e60003980611cac5280611e495280612c045280612d98528061382252806139d152806143cf52806144ce5250806130865280614d875250806143f05280614d5852506152156000f3fe6080604052600436106102c95760003560e01c80635b93488811610175578063a0712d68116100dc578063d0e30db011610095578063e0ca1f671161006f578063e0ca1f6714610b0e578063e985e9c514610b3e578063ec613e4c14610b79578063f4f3122e14610bac576102c9565b8063d0e30db014610abe578063d357b01e14610ac6578063d84e4f5a14610adb576102c9565b8063a0712d6814610960578063a22cb4651461097d578063b6501637146109b8578063b88d4fde146109cd578063b9f7e21814610a6a578063c87b56dd14610a94576102c9565b80636d630b8d1161012e5780636d630b8d146107fb57806370a0823114610855578063880fa0e81461088857806394985ddd146108eb5780639549522e1461091b57806395d89b411461094b576102c9565b80635b9348881461072c5780635ec390d8146107495780635fbcf275146107755780636352211e146107a7578063646c2e33146107d157806368bd580e146107e6576102c9565b80632636f27d116102345780633a283bd2116101ed57806344c66be7116101c757806344c66be7146106a6578063456d0204146106bb578063475e41de146106d85780634f6ccce714610702576102c9565b80633a283bd21461062b5780633a6827741461064057806342842e0e14610663576102c9565b80632636f27d146105485780632e1a7d4d146105745780632f745c591461059e57806333bc1c5c146105d75780633711d9fb146105ec57806337ba76a814610601576102c9565b8063081812fc11610286578063081812fc14610445578063095ea7b31461048b57806318160ddd146104c65780631cbaee2d146104db578063212e8f67146104f057806323b872dd14610505576102c9565b806301ffc9a7146102ce57806302a7350714610316578063031bd4c41461034057806304935e51146103675780630614a6ba146103a657806306fdde03146103bb575b600080fd5b3480156102da57600080fd5b50610302600480360360208110156102f157600080fd5b50356001600160e01b031916610bdc565b604080519115158252519081900360200190f35b34801561032257600080fd5b506103026004803603602081101561033957600080fd5b5035610bff565b34801561034c57600080fd5b50610355610c14565b60408051918252519081900360200190f35b34801561037357600080fd5b506103026004803603606081101561038a57600080fd5b508035906001600160a01b036020820135169060400135610c1a565b3480156103b257600080fd5b50610302610ebb565b3480156103c757600080fd5b506103d0610ecb565b6040805160208082528351818301528351919283929083019185019080838360005b8381101561040a5781810151838201526020016103f2565b50505050905090810190601f1680156104375780820380516001836020036101000a031916815260200191505b509250505060405180910390f35b34801561045157600080fd5b5061046f6004803603602081101561046857600080fd5b5035610f61565b604080516001600160a01b039092168252519081900360200190f35b34801561049757600080fd5b506104c4600480360360408110156104ae57600080fd5b506001600160a01b038135169060200135610fda565b005b3480156104d257600080fd5b5061035561114c565b3480156104e757600080fd5b50610355611152565b3480156104fc57600080fd5b50610355611158565b34801561051157600080fd5b506104c46004803603606081101561052857600080fd5b506001600160a01b0381358116916020810135909116906040013561115e565b34801561055457600080fd5b506104c46004803603602081101561056b57600080fd5b50351515611334565b34801561058057600080fd5b506104c46004803603602081101561059757600080fd5b50356113d7565b3480156105aa57600080fd5b50610355600480360360408110156105c157600080fd5b506001600160a01b038135169060200135611573565b3480156105e357600080fd5b506103026115ce565b3480156105f857600080fd5b506103556115de565b34801561060d57600080fd5b506103026004803603602081101561062457600080fd5b50356115e4565b34801561063757600080fd5b5061030261199a565b6103556004803603604081101561065657600080fd5b50803590602001356119a3565b34801561066f57600080fd5b506104c46004803603606081101561068657600080fd5b506001600160a01b03813581169160208101359091169060400135611f5c565b3480156106b257600080fd5b50610355611f7c565b6104c4600480360360208110156106d157600080fd5b5035611f9a565b3480156106e457600080fd5b506104c4600480360360208110156106fb57600080fd5b503561233c565b34801561070e57600080fd5b506103556004803603602081101561072557600080fd5b5035612391565b6103026004803603602081101561074257600080fd5b50356123a8565b34801561075557600080fd5b506104c46004803603602081101561076c57600080fd5b503515156129bd565b6103556004803603606081101561078b57600080fd5b508035906001600160a01b036020820135169060400135612a70565b3480156107b357600080fd5b5061046f600480360360208110156107ca57600080fd5b5035612e7e565b3480156107dd57600080fd5b506103d0612ef6565b3480156107f257600080fd5b506104c4612f81565b34801561080757600080fd5b506108256004803603602081101561081e57600080fd5b5035612fe2565b60408051941515855260208501939093526001600160a01b03909116838301526060830152519081900360800190f35b34801561086157600080fd5b506103556004803603602081101561087857600080fd5b50356001600160a01b0316613019565b34801561089457600080fd5b506108b2600480360360208110156108ab57600080fd5b503561303d565b60408051951515865260208601949094526001600160a01b03928316858501526060850191909152166080830152519081900360a00190f35b3480156108f757600080fd5b506104c46004803603604081101561090e57600080fd5b508035906020013561307b565b34801561092757600080fd5b506103026004803603604081101561093e57600080fd5b5080359060200135613106565b34801561095757600080fd5b506103d0613615565b6103556004803603602081101561097657600080fd5b5035613676565b34801561098957600080fd5b506104c4600480360360408110156109a057600080fd5b506001600160a01b0381351690602001351515613af1565b3480156109c457600080fd5b50610302613b5f565b3480156109d957600080fd5b506104c4600480360360808110156109f057600080fd5b6001600160a01b03823581169260208101359091169160408201359190810190608081016060820135640100000000811115610a2b57600080fd5b820183602082011115610a3d57600080fd5b80359060200191846001830284011164010000000083111715610a5f57600080fd5b509092509050613b6d565b348015610a7657600080fd5b5061035560048036036020811015610a8d57600080fd5b5035613bb6565b348015610aa057600080fd5b506103d060048036036020811015610ab757600080fd5b5035613bc8565b6104c4613cc6565b348015610ad257600080fd5b506104c4613d2b565b348015610ae757600080fd5b5061035560048036036020811015610afe57600080fd5b50356001600160a01b0316613dc9565b348015610b1a57600080fd5b5061030260048036036040811015610b3157600080fd5b5080359060200135613ddb565b348015610b4a57600080fd5b5061030260048036036040811015610b6157600080fd5b506001600160a01b038135811691602001351661409d565b348015610b8557600080fd5b506104c460048036036020811015610b9c57600080fd5b50356001600160a01b03166140cb565b348015610bb857600080fd5b506104c460048036036040811015610bcf57600080fd5b508035906020013561413d565b6001600160e01b0319811660009081526004602052604090205460ff165b919050565b601e6020526000908152604090205460ff1681565b614e2081565b601a54600090849060ff1615610c6a576040805162461bcd60e51b815260206004820152601060248201526f1b585c9ad95d081a5cc81c185d5cd95960821b604482015290519081900360640190fd5b601a54610100900460ff1615610cbc576040805162461bcd60e51b815260206004820152601260248201527118dbdb9d1c9858dd081a5cc81cd9585b195960721b604482015290519081900360640190fd5b614e208111158015610cce5750600081115b610d12576040805162461bcd60e51b815260206004820152601060248201526f1a5b9d985b1a59081d1bdad95b881a5960821b604482015290519081900360640190fd5b6000858152600860205260409020546001600160a01b03163314610d77576040805162461bcd60e51b815260206004820152601760248201527631b0b63632b9103737ba103132b2b134ba1037bbb732b960491b604482015290519081900360640190fd5b6000858152601b602052604090205460ff16610dda576040805162461bcd60e51b815260206004820152601960248201527f746f6b656e206e6f7420696e2073616c6520616c726561647900000000000000604482015290519081900360640190fd5b6040805160a081018252600080825260208083018981526001600160a01b03808a1685870190815260608601858152608087018681528d8752601b86528887209751885490151560ff19918216178955945160018981019190915592516002890180549186166001600160a01b0319928316179055915160038901555160049097018054979093169616959095179055878352601e82529184902080549092169092179055815187815291517ffc8c8fa0c3012532727758399e7eb91f21daa8ffbc505378b7e044164f5066ce9281900390910190a1506001949350505050565b601654600160a01b900460ff1681565b600d8054604080516020601f6002600019610100600188161502019095169490940493840181900481028201810190925282815260609390929091830182828015610f575780601f10610f2c57610100808354040283529160200191610f57565b820191906000526020600020905b815481529060010190602001808311610f3a57829003601f168201915b5050505050905090565b60008181526008602052604081205482906001600160a01b0316610fbd576040805162461bcd60e51b815260206004820152600e60248201526d24b73b30b634b2103a37b5b2b71760911b604482015290519081900360640190fd5b50506000908152600660205260409020546001600160a01b031690565b60008181526008602052604090205481906001600160a01b03163381148061102557506001600160a01b038116600090815260076020908152604080832033845290915290205460ff165b611068576040805162461bcd60e51b815260206004820152600f60248201526e21b0b73737ba1037b832b930ba329760891b604482015290519081900360640190fd5b60008381526008602052604090205483906001600160a01b03166110c4576040805162461bcd60e51b815260206004820152600e60248201526d24b73b30b634b2103a37b5b2b71760911b604482015290519081900360640190fd5b6000848152600860205260409020546001600160a01b039081169086168114156110ed57600080fd5b60008581526006602052604080822080546001600160a01b0319166001600160a01b038a811691821790925591518893918516917f8c5be1e5ebec7d5bd14f71427d1e84f3dd0314c0f7b2291e5b200ac8c7c3b92591a4505050505050565b600f5490565b60185481565b60035481565b60008181526008602052604090205481906001600160a01b03163381148061119c57506000828152600660205260409020546001600160a01b031633145b806111ca57506001600160a01b038116600090815260076020908152604080832033845290915290205460ff165b61120e576040805162461bcd60e51b815260206004820152601060248201526f21b0b73737ba103a3930b739b332b91760811b604482015290519081900360640190fd5b60008381526008602052604090205483906001600160a01b031661126a576040805162461bcd60e51b815260206004820152600e60248201526d24b73b30b634b2103a37b5b2b71760911b604482015290519081900360640190fd5b6000848152600860205260409020546001600160a01b0390811690871681146112d0576040805162461bcd60e51b81526020600482015260136024820152722bb937b73390333937b69030b2323932b9b99760691b604482015290519081900360640190fd5b6001600160a01b038616611321576040805162461bcd60e51b815260206004820152601360248201527221b0b73737ba1039b2b732103a3790183c181760691b604482015290519081900360640190fd5b61132b86866141f2565b50505050505050565b6014546001600160a01b03163314611384576040805162461bcd60e51b815260206004820152600e60248201526d27b7363c903232b83637bcb2b91760911b604482015290519081900360640190fd5b60168054821515600160b01b810260ff60b01b199092169190911790915560408051918252517f557edfda0ed39485f1caf0084bd8c96b98886100f46e47226c6f93e2b9c73e309181900360200190a150565b6002600054141561141d576040805162461bcd60e51b815260206004820152601f6024820152600080516020615119833981519152604482015290519081900360640190fd5b60026000908155338152601c602052604090205481111561147a576040805162461bcd60e51b8152602060048201526012602482015271696e73756666696369656e742066756e647360701b604482015290519081900360640190fd5b336000908152601c6020526040902054611494908261426d565b336000818152601c602052604080822093909355915183908381818185875af1925050503d80600081146114e4576040519150601f19603f3d011682016040523d82523d6000602084013e6114e9565b606091505b5050905080611534576040805162461bcd60e51b81526020600482015260126024820152711d1c985b9cd858dd1a5bdb8819985a5b195960721b604482015290519081900360640190fd5b60408051838152905133917f884edad9ce6fa2440d8a54cc123490eb96d2768479d49ff9c7366125a9424364919081900360200190a250506001600055565b6001600160a01b038216600090815260096020526040812054821061159757600080fd5b6001600160a01b03831660009081526009602052604090208054839081106115bb57fe5b9060005260206000200154905092915050565b601654600160a81b900460ff1681565b60195481565b60006002600054141561162c576040805162461bcd60e51b815260206004820152601f6024820152600080516020615119833981519152604482015290519081900360640190fd5b6002600055601a54829060ff161561167e576040805162461bcd60e51b815260206004820152601060248201526f1b585c9ad95d081a5cc81c185d5cd95960821b604482015290519081900360640190fd5b601a54610100900460ff16156116d0576040805162461bcd60e51b815260206004820152601260248201527118dbdb9d1c9858dd081a5cc81cd9585b195960721b604482015290519081900360640190fd5b614e2081111580156116e25750600081115b611726576040805162461bcd60e51b815260206004820152601060248201526f1a5b9d985b1a59081d1bdad95b881a5960821b604482015290519081900360640190fd5b6000838152600860205260409020546001600160a01b0316611786576040805162461bcd60e51b81526020600482015260146024820152733134b2103a379034b73b30b634b2103a37b5b2b760611b604482015290519081900360640190fd5b6000838152600860205260409020546001600160a01b03163314156117dc5760405162461bcd60e51b815260040180806020018281038252603081526020018061515d6030913960400191505060405180910390fd5b6000838152601d60205260409020600201546001600160a01b0316331461183e576040805162461bcd60e51b815260206004820152601160248201527031b0b63632b9103737ba103134b23232b960791b604482015290519081900360640190fd5b604080516080810182526000808252602080830187815283850183815260608501848152898552601d9093528584209451855460ff191690151517855590516001850155516002840180546001600160a01b0319166001600160a01b0390921691909117905551600390920182905591513391908381818185875af1925050503d80600081146118ea576040519150601f19603f3d011682016040523d82523d6000602084013e6118ef565b606091505b505090508061193a576040805162461bcd60e51b81526020600482015260126024820152711d1c985b9cd858dd1a5bdb8819985a5b195960721b604482015290519081900360640190fd5b6000848152601d602090815260409182902060030154825187815291820152338183015290517fa365bd5f760d7166e40cee2cee5c7f32f204acf82e237db21fce693ab1040c349181900360600190a16001925050506001600055919050565b601a5460ff1681565b6000600260005414156119eb576040805162461bcd60e51b815260206004820152601f6024820152600080516020615119833981519152604482015290519081900360640190fd5b6002600055601654600160a01b900460ff16611a4e576040805162461bcd60e51b815260206004820152601f60248201527f636f6d6d756e697479206772616e74206e6f7420737461727465642079657400604482015290519081900360640190fd5b601a5460ff1615611a96576040805162461bcd60e51b815260206004820152600d60248201526c1b585c9ad95d081c185d5cd959609a1b604482015290519081900360640190fd5b600083118015611aa857506127108311155b611aef576040805162461bcd60e51b815260206004820152601360248201527234b73b30b634b210313ab7359034b73232bc1760691b604482015290519081900360640190fd5b336000908152600b602052604090206001015460ff1615611b53576040805162461bcd60e51b815260206004820152601960248201527870726576696f7573206d696e7420696e2070726f677265737360381b604482015290519081900360640190fd5b60008381526005602052604090205415611bb4576040805162461bcd60e51b815260206004820152601d60248201527f616c7265616479206d696e746564207769746820746869732062756e6b000000604482015290519081900360640190fd5b6000611bc184600161426d565b60125460408051630b02f02d60e31b815260048101849052905192935033926001600160a01b0390921691635817816891602480820192602092909190829003018186803b158015611c1257600080fd5b505afa158015611c26573d6000803e3d6000fd5b505050506040513d6020811015611c3c57600080fd5b50516001600160a01b031614611c99576040805162461bcd60e51b815260206004820152601b60248201527f6e6f7420746865206f776e6572206f6620746869732062756e6b2e0000000000604482015290519081900360640190fd5b6016546040805163fc5bb07f60e01b81527f0000000000000000000000000000000000000000000000000000000000000000600482015290516000926001600160a01b03169163fc5bb07f916024808301926020929190829003018186803b158015611d0457600080fd5b505afa158015611d18573d6000803e3d6000fd5b505050506040513d6020811015611d2e57600080fd5b5051905034811115611d87576040805162461bcd60e51b815260206004820152601a60248201527f696e73756666696369656e742066756e647320746f206d696e74000000000000604482015290519081900360640190fd5b80341115611e2f576000611d9b348361426d565b604051909150600090339083908381818185875af1925050503d8060008114611de0576040519150601f19603f3d011682016040523d82523d6000602084013e611de5565b606091505b5050905080611e2c576040805162461bcd60e51b815260206004820152600e60248201526d726566756e64206661696c75726560901b604482015290519081900360640190fd5b50505b6016546040805163d96073cf60e01b8152600481018790527f0000000000000000000000000000000000000000000000000000000000000000602482015290516000926001600160a01b03169163d96073cf91859160448082019260209290919082900301818588803b158015611ea557600080fd5b505af1158015611eb9573d6000803e3d6000fd5b50505050506040513d6020811015611ed057600080fd5b5051905080611f1a576040805162461bcd60e51b81526020600482015260116024820152704c494e4b2053776170206661696c75726560781b604482015290519081900360640190fd5b600086815260056020526040902054611f349060016142ca565b600087815260056020526040902055611f4d338761432b565b60016000559695505050505050565b611f77838383604051806020016040528060008152506145a4565b505050565b6000611f9560105460035461426d90919063ffffffff16565b905090565b601a54819060ff1615611fe7576040805162461bcd60e51b815260206004820152601060248201526f1b585c9ad95d081a5cc81c185d5cd95960821b604482015290519081900360640190fd5b601a54610100900460ff1615612039576040805162461bcd60e51b815260206004820152601260248201527118dbdb9d1c9858dd081a5cc81cd9585b195960721b604482015290519081900360640190fd5b614e20811115801561204b5750600081115b61208f576040805162461bcd60e51b815260206004820152601060248201526f1a5b9d985b1a59081d1bdad95b881a5960821b604482015290519081900360640190fd5b6000828152600860205260409020546001600160a01b03166120ef576040805162461bcd60e51b81526020600482015260146024820152733134b2103a379034b73b30b634b2103a37b5b2b760611b604482015290519081900360640190fd5b6000828152600860205260409020546001600160a01b031633141561215b576040805162461bcd60e51b815260206004820152601960248201527f63616e6e6f742062696420746f206f776e206c697374696e6700000000000000604482015290519081900360640190fd5b600034116121a5576040805162461bcd60e51b8152602060048201526012602482015271195b5c1d1e48189a59081c9958d95a5d995960721b604482015290519081900360640190fd5b6000828152601d6020526040902060030154341161220a576040805162461bcd60e51b815260206004820152601960248201527f6269642076616c7565206e6f74206869676820656e6f75676800000000000000604482015290519081900360640190fd5b6000828152601d602052604090206003015415612283576000828152601d6020908152604080832060038101546002909101546001600160a01b03168452601c9092529091205461225a916142ca565b6000838152601d60209081526040808320600201546001600160a01b03168352601c9091529020555b60408051608081018252600180825260208083018681523384860181815234606080880182815260008c8152601d88528a90209851895460ff191690151517895594519688019690965590516002870180546001600160a01b0319166001600160a01b0390921691909117905591516003909501949094558451878152918201528084019290925291517f1627396a943f27a9f2b8b73532817c5a830cfc29d541bc035af8a53e945c8b50929181900390910190a15050565b6014546001600160a01b0316331461238c576040805162461bcd60e51b815260206004820152600e60248201526d27b7363c903232b83637bcb2b91760911b604482015290519081900360640190fd5b600355565b6000614e2082106123a157600080fd5b5060010190565b6000600260005414156123f0576040805162461bcd60e51b815260206004820152601f6024820152600080516020615119833981519152604482015290519081900360640190fd5b6002600055601a54829060ff1615612442576040805162461bcd60e51b815260206004820152601060248201526f1b585c9ad95d081a5cc81c185d5cd95960821b604482015290519081900360640190fd5b601a54610100900460ff1615612494576040805162461bcd60e51b815260206004820152601260248201527118dbdb9d1c9858dd081a5cc81cd9585b195960721b604482015290519081900360640190fd5b614e2081111580156124a65750600081115b6124ea576040805162461bcd60e51b815260206004820152601060248201526f1a5b9d985b1a59081d1bdad95b881a5960821b604482015290519081900360640190fd5b6000838152601b60209081526040808320815160a081018352815460ff161515815260018201549381019390935260028101546001600160a01b039081169284019290925260038101546060840152600401541660808201529061254e82866148a7565b60408301519091506001600160a01b03163314156125b3576040805162461bcd60e51b815260206004820152601b60248201527f63616e6e6f7420627579206f6e652773206f776e206265656269740000000000604482015290519081900360640190fd5b81516125f9576040805162461bcd60e51b815260206004820152601060248201526f1d1bdad95b881b9bdd081b1a5cdd195960821b604482015290519081900360640190fd5b6000818152601e602052604090205460ff1615612651576040805162461bcd60e51b81526020600482015260116024820152701b1a5cdd1a5b99c81b9bdd08199bdd5b99607a1b604482015290519081900360640190fd5b34156126bb57336000908152601c602052604090205461267190346142ca565b336000818152601c6020908152604091829020939093558051348152905191927fe1fffcc4923d04b559f4d29a8bfc6cda04eb5b0d3c460751c2402c5c5cc9109c92918290030190a25b60808201516001600160a01b031615806126e1575060808201516001600160a01b031633145b612721576040805162461bcd60e51b815260206004820152600c60248201526b1d5b985d5d1a1bdc9a5e995960a21b604482015290519081900360640190fd5b6060820151336000908152601c602052604090205410156127735760405162461bcd60e51b81526004018080602001828103825260248152602001806151396024913960400191505060405180910390fd5b6000858152600860205260409081902054908301516001600160a01b039081169116146127e7576040805162461bcd60e51b815260206004820181905260248201527f73656c6c6572206e6f206c6f6e676572206f776e6572206f6620626565626974604482015290519081900360640190fd5b6060820151336000908152601c60205260409020546128059161426d565b336000908152601c6020526040808220929092556060840151848301516001600160a01b031682529190205461283a916142ca565b6040808401516001600160a01b03166000908152601c602052205561285f33866141f2565b61286a853383610c1a565b50606080830151604080850151815189815260208101939093526001600160a01b031682820152339282019290925290517f16090b730e22957728c5a4dc5643ede79032d9cb7d0054843c24e30c42cc34a09181900360800190a16000858152601d602052604090205460ff1680156128fc57506000858152601d60205260409020600201546001600160a01b031633145b156129ac576000858152601d6020908152604080832060030154338452601c9092529091205461292b916142ca565b336000908152601c60209081526040808320939093558251608081018452828152808201898152818501848152606083018581528b8652601d909452949093209051815460ff19169015151781559151600183015591516002820180546001600160a01b0319166001600160a01b0390921691909117905590516003909101555b600193505050506001600055919050565b6014546001600160a01b03163314612a0d576040805162461bcd60e51b815260206004820152600e60248201526d27b7363c903232b83637bcb2b91760911b604482015290519081900360640190fd5b601a54610100900460ff1615612a5d576040805162461bcd60e51b815260206004820152601060248201526f21b7b73a3930b1ba1039b2b0b632b21760811b604482015290519081900360640190fd5b601a805460ff1916911515919091179055565b6014546000906001600160a01b03163314612ac3576040805162461bcd60e51b815260206004820152600e60248201526d27b7363c903232b83637bcb2b91760911b604482015290519081900360640190fd5b601654600160b01b900460ff16612b17576040805162461bcd60e51b81526020600482015260136024820152723232bb1036b7b232903a3ab93732b21037b33360691b604482015290519081900360640190fd5b6001600160a01b0383166000908152600b602052604090206001015460ff1615612b88576040805162461bcd60e51b815260206004820152601c60248201527f70726576696f757320646576206d696e7420696e2070726f6365737300000000604482015290519081900360640190fd5b600f54612b9890614e209061426d565b841115612bec576040805162461bcd60e51b815260206004820152601f60248201527f7175616e746974792065786365656473206d696e7461626c65206c696d697400604482015290519081900360640190fd5b60118490556016546040805163fc5bb07f60e01b81527f0000000000000000000000000000000000000000000000000000000000000000600482015290516000926001600160a01b03169163fc5bb07f916024808301926020929190829003018186803b158015612c5c57600080fd5b505afa158015612c70573d6000803e3d6000fd5b505050506040513d6020811015612c8657600080fd5b5051905034811115612cdf576040805162461bcd60e51b815260206004820152601a60248201527f696e73756666696369656e742066756e647320746f206d696e74000000000000604482015290519081900360640190fd5b80341115612d7e57600033612cf4348461426d565b604051600081818185875af1925050503d8060008114612d30576040519150601f19603f3d011682016040523d82523d6000602084013e612d35565b606091505b5050905080612d7c576040805162461bcd60e51b815260206004820152600e60248201526d726566756e64206661696c75726560901b604482015290519081900360640190fd5b505b6016546040805163d96073cf60e01b8152600481018690527f0000000000000000000000000000000000000000000000000000000000000000602482015290516000926001600160a01b03169163d96073cf91859160448082019260209290919082900301818588803b158015612df457600080fd5b505af1158015612e08573d6000803e3d6000fd5b50505050506040513d6020811015612e1f57600080fd5b5051905080612e69576040805162461bcd60e51b81526020600482015260116024820152704c494e4b2053776170206661696c75726560781b604482015290519081900360640190fd5b612e7485600061432b565b9695505050505050565b6000818152600860205260408120546001600160a01b0316612eda576040805162461bcd60e51b815260206004820152601060248201526f1d1bdad95b881b9bdd081b5a5b9d195960821b604482015290519081900360640190fd5b506000908152600860205260409020546001600160a01b031690565b6002805460408051602060018416156101000260001901909316849004601f81018490048402820184019092528181529291830182828015612f795780601f10612f4e57610100808354040283529160200191612f79565b820191906000526020600020905b815481529060010190602001808311612f5c57829003601f168201915b505050505081565b6014546001600160a01b03163314612fd1576040805162461bcd60e51b815260206004820152600e60248201526d27b7363c903232b83637bcb2b91760911b604482015290519081900360640190fd5b601a805461ff001916610100179055565b601d60205260009081526040902080546001820154600283015460039093015460ff9092169290916001600160a01b039091169084565b60006001600160a01b03821661302e57600080fd5b61303782614916565b92915050565b601b602052600090815260409020805460018201546002830154600384015460049094015460ff9093169391926001600160a01b0391821692911685565b336001600160a01b037f000000000000000000000000000000000000000000000000000000000000000016146130f8576040805162461bcd60e51b815260206004820152601f60248201527f4f6e6c7920565246436f6f7264696e61746f722063616e2066756c66696c6c00604482015290519081900360640190fd5b6131028282614931565b5050565b60006002600054141561314e576040805162461bcd60e51b815260206004820152601f6024820152600080516020615119833981519152604482015290519081900360640190fd5b6002600055601a54839060ff16156131a0576040805162461bcd60e51b815260206004820152601060248201526f1b585c9ad95d081a5cc81c185d5cd95960821b604482015290519081900360640190fd5b601a54610100900460ff16156131f2576040805162461bcd60e51b815260206004820152601260248201527118dbdb9d1c9858dd081a5cc81cd9585b195960721b604482015290519081900360640190fd5b614e2081111580156132045750600081115b613248576040805162461bcd60e51b815260206004820152601060248201526f1a5b9d985b1a59081d1bdad95b881a5960821b604482015290519081900360640190fd5b6000848152600860205260409020546001600160a01b031633146132a6576040805162461bcd60e51b815260206004820152601060248201526f31b0b63632b9103737ba1037bbb732b960811b604482015290519081900360640190fd5b6000848152601d602052604090205460ff166132f7576040805162461bcd60e51b815260206004820152600b60248201526a1a5b9d985b1a5908189a5960aa1b604482015290519081900360640190fd5b6000848152601d60205260409020600301548311156133475760405162461bcd60e51b815260040180806020018281038252603081526020018061518d6030913960400191505060405180910390fd5b6000848152601b6020908152604091829020825160a081018452815460ff16151580825260018301549382019390935260028201546001600160a01b03908116948201949094526003820154606082015260049091015490921660808301526133ea576040805162461bcd60e51b815260206004820152601060248201526f1d1bdad95b881b9bdd081b1a5cdd195960821b604482015290519081900360640190fd5b6000858152600860205260409081902054908201516001600160a01b0390811691161461345e576040805162461bcd60e51b815260206004820181905260248201527f73656c6c6572206e6f206c6f6e676572206f776e6572206f6620626565626974604482015290519081900360640190fd5b600061346a82876148a7565b6000818152601e602052604090205490915060ff16156134c5576040805162461bcd60e51b81526020600482015260116024820152701b1a5cdd1a5b99c81b9bdd08199bdd5b99607a1b604482015290519081900360640190fd5b6000868152601d6020908152604080832060030154338452601c909252909120546134ef916142ca565b336000908152601c6020908152604080832093909355888252601d905220600201546135269087906001600160a01b031683610c1a565b506000868152601d602052604090206002015461354c906001600160a01b0316876141f2565b6040805160808082018352600080835260208084018b815284860183815260608087018581528e8652601d8552948890209651875460ff191690151517875591516001870155516002860180546001600160a01b0319166001600160a01b0392831617908190559351600390960186905586518d8152928301959095523382870152919093169083015291517f16090b730e22957728c5a4dc5643ede79032d9cb7d0054843c24e30c42cc34a0929181900390910190a160019350505050600160005592915050565b600e8054604080516020601f6002600019610100600188161502019095169490940493840181900481028201810190925282815260609390929091830182828015610f575780601f10610f2c57610100808354040283529160200191610f57565b6000600260005414156136be576040805162461bcd60e51b815260206004820152601f6024820152600080516020615119833981519152604482015290519081900360640190fd5b6002600055601654600160a81b900460ff16613715576040805162461bcd60e51b815260206004820152601160248201527039b0b632903737ba1039ba30b93a32b21760791b604482015290519081900360640190fd5b601a5460ff161561375d576040805162461bcd60e51b815260206004820152600d60248201526c1b585c9ad95d081c185d5cd959609a1b604482015290519081900360640190fd5b600354601054106137ab576040805162461bcd60e51b815260206004820152601360248201527239b0b632903634b6b4ba103932b0b1b432b21760691b604482015290519081900360640190fd5b336000908152600b602052604090206001015460ff161561380f576040805162461bcd60e51b815260206004820152601960248201527870726576696f7573206d696e7420696e2070726f677265737360381b604482015290519081900360640190fd5b6016546040805163fc5bb07f60e01b81527f0000000000000000000000000000000000000000000000000000000000000000600482015290516703782dace9d90000926000926001600160a01b039091169163fc5bb07f91602480820192602092909190829003018186803b15801561388757600080fd5b505afa15801561389b573d6000803e3d6000fd5b505050506040513d60208110156138b157600080fd5b5051905060006138c183836142ca565b905080341015613918576040805162461bcd60e51b815260206004820152601e60248201527f696e73756666696369656e742066756e647320746f2070757263686173650000604482015290519081900360640190fd5b803411156139b75760003361392d348461426d565b604051600081818185875af1925050503d8060008114613969576040519150601f19603f3d011682016040523d82523d6000602084013e61396e565b606091505b50509050806139b5576040805162461bcd60e51b815260206004820152600e60248201526d726566756e64206661696c75726560901b604482015290519081900360640190fd5b505b6016546040805163d96073cf60e01b8152600481018890527f0000000000000000000000000000000000000000000000000000000000000000602482015290516000926001600160a01b03169163d96073cf91869160448082019260209290919082900301818588803b158015613a2d57600080fd5b505af1158015613a41573d6000803e3d6000fd5b50505050506040513d6020811015613a5857600080fd5b5051905080613aa2576040805162461bcd60e51b81526020600482015260116024820152704c494e4b2053776170206661696c75726560781b604482015290519081900360640190fd5b6015546040516001600160a01b039091169085156108fc029086906000818181858888f19350505050158015613adc573d6000803e3d6000fd5b50601080546001019055611f4d33600061432b565b3360008181526007602090815260408083206001600160a01b03871680855290835292819020805460ff1916861515908117909155815190815290519293927f17307eab39ab6107e8899845ad3d59bd9653f200f220920489ca2b5937696c31929181900390910190a35050565b601a54610100900460ff1681565b613baf85858585858080601f0160208091040260200160405190810160405280939291908181526020018383808284376000920191909152506145a492505050565b5050505050565b60056020526000908152604090205481565b60008181526008602052604090205460609082906001600160a01b0316613c27576040805162461bcd60e51b815260206004820152600e60248201526d24b73b30b634b2103a37b5b2b71760911b604482015290519081900360640190fd5b613c30836149f6565b60405160200180807f68747470733a2f2f626565626974732e78797a2f626565626974732f00000000815250601c0182805190602001908083835b60208310613c8a5780518252601f199092019160209182019101613c6b565b6001836020036101000a038019825116818451168082178552505050505050905001915050604051602081830303815290604052915050919050565b336000908152601c6020526040902054613ce090346142ca565b336000818152601c6020908152604091829020939093558051348152905191927fe1fffcc4923d04b559f4d29a8bfc6cda04eb5b0d3c460751c2402c5c5cc9109c92918290030190a2565b6014546001600160a01b03163314613d7b576040805162461bcd60e51b815260206004820152600e60248201526d27b7363c903232b83637bcb2b91760911b604482015290519081900360640190fd5b601654600160a01b900460ff16613d9157600080fd5b6016805460ff60a01b191690556040517f5f00e567de9d29d9d36405c34b1164390da767fb97a1fb7d6bf3680ff90a3b2690600090a1565b601c6020526000908152604090205481565b601a54600090839060ff1615613e2b576040805162461bcd60e51b815260206004820152601060248201526f1b585c9ad95d081a5cc81c185d5cd95960821b604482015290519081900360640190fd5b601a54610100900460ff1615613e7d576040805162461bcd60e51b815260206004820152601260248201527118dbdb9d1c9858dd081a5cc81cd9585b195960721b604482015290519081900360640190fd5b614e208111158015613e8f5750600081115b613ed3576040805162461bcd60e51b815260206004820152601060248201526f1a5b9d985b1a59081d1bdad95b881a5960821b604482015290519081900360640190fd5b6000848152600860205260409020546001600160a01b03163314613f38576040805162461bcd60e51b815260206004820152601760248201527631b0b63632b9103737ba103132b2b134ba1037bbb732b960491b604482015290519081900360640190fd5b6000848152601b602052604090205460ff1615613f94576040805162461bcd60e51b8152602060048201526015602482015274746f6b656e20616c726561647920696e2073616c6560581b604482015290519081900360640190fd5b6040805160a0810182526001815260208101869052339181019190915260608101849052600060808201819052613fcb82876148a7565b6000878152601b602090815260408083208651815490151560ff19918216178255838801516001830155828801516002830180546001600160a01b039283166001600160a01b0319918216179091556060808b0151600386015560808b0151600490950180549590931694909116939093179055858552601e84528285208054909116905581518b81529283018a905282820193909352519293507ff571c65afd7c58efee1f8029cb279f89e7ce60da562fd28a61fc3fd8c7eb5b30929081900390910190a150600195945050505050565b6001600160a01b03918216600090815260076020908152604080832093909416825291909152205460ff1690565b6014546001600160a01b0316331461411b576040805162461bcd60e51b815260206004820152600e60248201526d27b7363c903232b83637bcb2b91760911b604482015290519081900360640190fd5b601680546001600160a01b0319166001600160a01b0392909216919091179055565b6014546001600160a01b0316331461418d576040805162461bcd60e51b815260206004820152600e60248201526d27b7363c903232b83637bcb2b91760911b604482015290519081900360640190fd5b601654600160a81b900460ff16156141a457600080fd5b60178290556019819055426018556016805460ff60a81b1916600160a81b1790556040517f771cfe172460b7d64cc46cca57a1e1f40f52b47cf1d16fe30c78a2935b3dd58090600090a15050565b6000818152600860205260409020546001600160a01b031661421382614ad1565b61421d8183614b0e565b6142278383614c80565b81836001600160a01b0316826001600160a01b03167fddf252ad1be2c89b69c2b068fc378daa952ba7f163c4a11628f55a4df523b3ef60405160405180910390a4505050565b6000828211156142c4576040805162461bcd60e51b815260206004820152601e60248201527f536166654d6174683a207375627472616374696f6e206f766572666c6f770000604482015290519081900360640190fd5b50900390565b600082820183811015614324576040805162461bcd60e51b815260206004820152601b60248201527f536166654d6174683a206164646974696f6e206f766572666c6f770000000000604482015290519081900360640190fd5b9392505050565b60006001600160a01b03831661437e576040805162461bcd60e51b815260206004820152601360248201527231b0b73737ba1036b4b73a103a3790183c181760691b604482015290519081900360640190fd5b614e20600f54106143cd576040805162461bcd60e51b81526020600482015260146024820152733a37b5b2b7103634b6b4ba103932b0b1b432b21760611b604482015290519081900360640190fd5b7f00000000000000000000000000000000000000000000000000000000000000007f00000000000000000000000000000000000000000000000000000000000000006001600160a01b03166370a08231306040518263ffffffff1660e01b815260040180826001600160a01b0316815260200191505060206040518083038186803b15801561445b57600080fd5b505afa15801561446f573d6000803e3d6000fd5b505050506040513d602081101561448557600080fd5b505110156144c45760405162461bcd60e51b81526004018080602001828103825260238152602001806151bd6023913960400191505060405180910390fd5b60006144f76013547f0000000000000000000000000000000000000000000000000000000000000000434060001c614d54565b60408051606081018252828152600160208083018281528385018981526001600160a01b038b166000818152600b8552878120965187559251948601805460ff19169515159590951790945551600290940193909355848352600c81529183902080546001600160a01b0319168217905582518481529251939450927f12f50b93996340c1531e9ede80a612e2ca18013db72a0d05fee30b0c0b3d7a389281900390910190a29392505050565b60008281526008602052604090205482906001600160a01b0316338114806145e257506000828152600660205260409020546001600160a01b031633145b8061461057506001600160a01b038116600090815260076020908152604080832033845290915290205460ff165b614654576040805162461bcd60e51b815260206004820152601060248201526f21b0b73737ba103a3930b739b332b91760811b604482015290519081900360640190fd5b60008481526008602052604090205484906001600160a01b03166146b0576040805162461bcd60e51b815260206004820152600e60248201526d24b73b30b634b2103a37b5b2b71760911b604482015290519081900360640190fd5b6000858152600860205260409020546001600160a01b039081169088168114614713576040805162461bcd60e51b815260206004820152601060248201526f34b731b7b93932b1ba1037bbb732b91760811b604482015290519081900360640190fd5b6001600160a01b038716614764576040805162461bcd60e51b815260206004820152601360248201527273656e646572207a65726f206164647265737360681b604482015290519081900360640190fd5b61476e87876141f2565b61477787614f09565b1561489d576000876001600160a01b031663150b7a02338b8a8a6040518563ffffffff1660e01b815260040180856001600160a01b03168152602001846001600160a01b0316815260200183815260200180602001828103825283818151815260200191508051906020019080838360005b838110156148015781810151838201526020016147e9565b50505050905090810190601f16801561482e5780820380516001836020036101000a031916815260200191505b5095505050505050602060405180830381600087803b15801561485057600080fd5b505af1158015614864573d6000803e3d6000fd5b505050506040513d602081101561487a57600080fd5b505190506001600160e01b03198116630a85bd0160e11b1461489b57600080fd5b505b5050505050505050565b8151604080840151606080860151608090960151835194151560f81b6020808701919091526bffffffffffffffffffffffff1993831b841660218701526035860197909752901b1660558301526069808301939093528051808303909301835260899091019052805191012090565b6001600160a01b031660009081526009602052604090205490565b6000828152600c60205260409020546016546001600160a01b0390911690600160b01b900460ff16801561496757506000601154115b156149be5760015b60115481116149b357604080516020808201869052818301849052825180830384018152606090920190925280519101206149aa8382614f0f565b5060010161496f565b5060006011556149c8565b6149c88183614f0f565b6001600160a01b03166000908152600b6020526040812081815560018101805460ff19169055600201555050565b606081614a1b57506040805180820190915260018152600360fc1b6020820152610bfa565b8160005b8115614a3357600101600a82049150614a1f565b60008167ffffffffffffffff81118015614a4c57600080fd5b506040519080825280601f01601f191660200182016040528015614a77576020820181803683370190505b50859350905060001982015b8315614ac857600a840660300160f81b82828060019003935081518110614aa657fe5b60200101906001600160f81b031916908160001a905350600a84049350614a83565b50949350505050565b6000818152600660205260409020546001600160a01b031615614b0b57600081815260066020526040902080546001600160a01b03191690555b50565b6000818152600860205260409020546001600160a01b03838116911614614b6f576040805162461bcd60e51b815260206004820152601060248201526f34b731b7b93932b1ba1037bbb732b91760811b604482015290519081900360640190fd5b600081815260086020908152604080832080546001600160a01b0319169055600a8252808320546001600160a01b03861684526009909252822054909190614bb890600161426d565b9050818114614c43576001600160a01b0384166000908152600960205260408120805483908110614be557fe5b906000526020600020015490508060096000876001600160a01b03166001600160a01b031681526020019081526020016000208481548110614c2357fe5b6000918252602080832090910192909255918252600a9052604090208290555b6001600160a01b0384166000908152600960205260409020805480614c6457fe5b6001900381819060005260206000200160009055905550505050565b6000818152600860205260409020546001600160a01b031615614cea576040805162461bcd60e51b815260206004820152601a60248201527f63616e6e6f74206164642c20616c7265616479206f776e65642e000000000000604482015290519081900360640190fd5b600081815260086020908152604080832080546001600160a01b0319166001600160a01b038716908117909155808452600983529083208054600181810183558286529385200185905592529054614d419161426d565b6000918252600a60205260409091205550565b60007f00000000000000000000000000000000000000000000000000000000000000006001600160a01b0316634000aea07f000000000000000000000000000000000000000000000000000000000000000085878660405160200180838152602001828152602001925050506040516020818303038152906040526040518463ffffffff1660e01b815260040180846001600160a01b0316815260200183815260200180602001828103825283818151815260200191508051906020019080838360005b83811015614e30578181015183820152602001614e18565b50505050905090810190601f168015614e5d5780820380516001836020036101000a031916815260200191505b50945050505050602060405180830381600087803b158015614e7e57600080fd5b505af1158015614e92573d6000803e3d6000fd5b505050506040513d6020811015614ea857600080fd5b5050600084815260016020526040812054614ec89086908590309061503e565b600086815260016020819052604090912054919250614ee791906142ca565b600086815260016020526040902055614f008582615085565b95945050505050565b3b151590565b6000614f28600f54614e2061426d90919063ffffffff16565b90506000614f416001614f3b85856150b1565b906142ca565b600f54909150614f529060016142ca565b600f556001600160a01b038416614fa4576040805162461bcd60e51b815260206004820152601160248201527033b7ba10183c181030b99036b4b73a32b960791b604482015290519081900360640190fd5b614fae8482614c80565b60405181906001600160a01b038616906000907fddf252ad1be2c89b69c2b068fc378daa952ba7f163c4a11628f55a4df523b3ef908290a46001600160a01b0384166000818152600b6020908152604091829020600201548251908152915184927f4e3883c75cc9c752bb1db2e406a822e4a75067ae77ad9a0a4d179f2709b9e1f692908290030190a350505050565b60408051602080820196909652808201949094526001600160a01b039290921660608401526080808401919091528151808403909101815260a09092019052805191012090565b604080516020808201949094528082019290925280518083038201815260609092019052805191012090565b6000808211615107576040805162461bcd60e51b815260206004820152601860248201527f536166654d6174683a206d6f64756c6f206279207a65726f0000000000000000604482015290519081900360640190fd5b81838161511057fe5b06939250505056fe5265656e7472616e637947756172643a207265656e7472616e742063616c6c00696e73756666696369656e742066756e647320746f20657865637574652074726164652e6269642077697468647261772063616e6e6f7420626520646f6e65207768656e206f776e696e672061206265656269746269642076616c7565206e6f7420657175616c206f722067726561746572207468616e206c6973746564207072696365696e73756666696369656e74206c696e6b2066756e647320666f722072657175657374a2646970667358221220fe087d63b0206a10c7c9b9404d28a786ef4c21a713b9f32f9fc8b87747e49b6a64736f6c63430007060033516d66585967665831714e667a51364e5279466e75706e695a7573617346504d6569576e356161446e783759586f",
  "linkReferences": {},
  "deployedLinkReferences": {}
}