{
  "_format": "hh-sol-artifact-1",
  "contractName": "Beebits",
  "sourceName": "contracts/Beebits.sol",
  "abi": [
    {
      "inputs": [
        {
          "internalType": "address",
          "name": "_bunks",
          "type": "address"
        },
        {
          "internalType": "address payable",
          "name": "_beneficiary",
          "type": "address"
        }
      ],
      "stateMutability": "nonpayable",
      "type": "constructor"
    },
    {
      "anonymous": false,
      "inputs": [
        {
          "indexed": true,
          "internalType": "address",
          "name": "owner",
          "type": "address"
        },
        {
          "indexed": true,
          "internalType": "address",
          "name": "approved",
          "type": "address"
        },
        {
          "indexed": true,
          "internalType": "uint256",
          "name": "tokenId",
          "type": "uint256"
        }
      ],
      "name": "Approval",
      "type": "event"
    },
    {
      "anonymous": false,
      "inputs": [
        {
          "indexed": true,
          "internalType": "address",
          "name": "owner",
          "type": "address"
        },
        {
          "indexed": true,
          "internalType": "address",
          "name": "operator",
          "type": "address"
        },
        {
          "indexed": false,
          "internalType": "bool",
          "name": "approved",
          "type": "bool"
        }
      ],
      "name": "ApprovalForAll",
      "type": "event"
    },
    {
      "anonymous": false,
      "inputs": [
        {
          "indexed": false,
          "internalType": "uint256",
          "name": "tokenId",
          "type": "uint256"
        },
        {
          "indexed": false,
          "internalType": "uint256",
          "name": "bidValue",
          "type": "uint256"
        },
        {
          "indexed": false,
          "internalType": "address",
          "name": "bidder",
          "type": "address"
        }
      ],
      "name": "BeebitBidPlaced",
      "type": "event"
    },
    {
      "anonymous": false,
      "inputs": [
        {
          "indexed": false,
          "internalType": "uint256",
          "name": "tokenId",
          "type": "uint256"
        },
        {
          "indexed": false,
          "internalType": "uint256",
          "name": "bidValue",
          "type": "uint256"
        },
        {
          "indexed": false,
          "internalType": "address",
          "name": "bidder",
          "type": "address"
        }
      ],
      "name": "BeebitBidWithdrawn",
      "type": "event"
    },
    {
      "anonymous": false,
      "inputs": [
        {
          "indexed": false,
          "internalType": "uint256",
          "name": "tokenId",
          "type": "uint256"
        },
        {
          "indexed": false,
          "internalType": "uint256",
          "name": "price",
          "type": "uint256"
        },
        {
          "indexed": false,
          "internalType": "address",
          "name": "seller",
          "type": "address"
        },
        {
          "indexed": false,
          "internalType": "address",
          "name": "buyer",
          "type": "address"
        }
      ],
      "name": "BeebitBought",
      "type": "event"
    },
    {
      "anonymous": false,
      "inputs": [
        {
          "indexed": false,
          "internalType": "uint256",
          "name": "tokenId",
          "type": "uint256"
        }
      ],
      "name": "BeebitDelisted",
      "type": "event"
    },
    {
      "anonymous": false,
      "inputs": [
        {
          "indexed": false,
          "internalType": "uint256",
          "name": "tokenId",
          "type": "uint256"
        },
        {
          "indexed": false,
          "internalType": "uint256",
          "name": "askingPrice",
          "type": "uint256"
        },
        {
          "indexed": false,
          "internalType": "address",
          "name": "buyerAddress",
          "type": "address"
        }
      ],
      "name": "BeebitListed",
      "type": "event"
    },
    {
      "anonymous": false,
      "inputs": [],
      "name": "CommunityGrantEnds",
      "type": "event"
    },
    {
      "anonymous": false,
      "inputs": [
        {
          "indexed": true,
          "internalType": "address",
          "name": "account",
          "type": "address"
        },
        {
          "indexed": false,
          "internalType": "uint256",
          "name": "amount",
          "type": "uint256"
        }
      ],
      "name": "Deposit",
      "type": "event"
    },
    {
      "anonymous": false,
      "inputs": [
        {
          "indexed": true,
          "internalType": "uint256",
          "name": "index",
          "type": "uint256"
        },
        {
          "indexed": true,
          "internalType": "address",
          "name": "minter",
          "type": "address"
        },
        {
          "indexed": false,
          "internalType": "uint256",
          "name": "createdVia",
          "type": "uint256"
        }
      ],
      "name": "Mint",
      "type": "event"
    },
    {
      "anonymous": false,
      "inputs": [
        {
          "indexed": false,
          "internalType": "bytes32",
          "name": "hash",
          "type": "bytes32"
        }
      ],
      "name": "OfferCancelled",
      "type": "event"
    },
    {
      "anonymous": false,
      "inputs": [],
      "name": "SaleBegins",
      "type": "event"
    },
    {
      "anonymous": false,
      "inputs": [
        {
          "indexed": true,
          "internalType": "bytes32",
          "name": "hash",
          "type": "bytes32"
        },
        {
          "indexed": true,
          "internalType": "address",
          "name": "maker",
          "type": "address"
        },
        {
          "indexed": false,
          "internalType": "address",
          "name": "taker",
          "type": "address"
        },
        {
          "indexed": false,
          "internalType": "uint256",
          "name": "makerWei",
          "type": "uint256"
        },
        {
          "indexed": false,
          "internalType": "uint256[]",
          "name": "makerIds",
          "type": "uint256[]"
        },
        {
          "indexed": false,
          "internalType": "uint256",
          "name": "takerWei",
          "type": "uint256"
        },
        {
          "indexed": false,
          "internalType": "uint256[]",
          "name": "takerIds",
          "type": "uint256[]"
        }
      ],
      "name": "Trade",
      "type": "event"
    },
    {
      "anonymous": false,
      "inputs": [
        {
          "indexed": true,
          "internalType": "address",
          "name": "from",
          "type": "address"
        },
        {
          "indexed": true,
          "internalType": "address",
          "name": "to",
          "type": "address"
        },
        {
          "indexed": true,
          "internalType": "uint256",
          "name": "tokenId",
          "type": "uint256"
        }
      ],
      "name": "Transfer",
      "type": "event"
    },
    {
      "anonymous": false,
      "inputs": [
        {
          "indexed": true,
          "internalType": "address",
          "name": "account",
          "type": "address"
        },
        {
          "indexed": false,
          "internalType": "uint256",
          "name": "amount",
          "type": "uint256"
        }
      ],
      "name": "Withdraw",
      "type": "event"
    },
    {
      "inputs": [],
      "name": "SALE_LIMIT",
      "outputs": [
        {
          "internalType": "uint256",
          "name": "",
          "type": "uint256"
        }
      ],
      "stateMutability": "view",
      "type": "function"
    },
    {
      "inputs": [],
      "name": "TOKEN_LIMIT",
      "outputs": [
        {
          "internalType": "uint256",
          "name": "",
          "type": "uint256"
        }
      ],
      "stateMutability": "view",
      "type": "function"
    },
    {
      "inputs": [
        {
          "internalType": "uint256",
          "name": "_tokenId",
          "type": "uint256"
        },
        {
          "internalType": "uint256",
          "name": "minPrice",
          "type": "uint256"
        }
      ],
      "name": "acceptBeebitBid",
      "outputs": [
        {
          "internalType": "bool",
          "name": "",
          "type": "bool"
        }
      ],
      "stateMutability": "nonpayable",
      "type": "function"
    },
    {
      "inputs": [
        {
          "internalType": "address",
          "name": "maker",
          "type": "address"
        },
        {
          "internalType": "address",
          "name": "taker",
          "type": "address"
        },
        {
          "internalType": "uint256",
          "name": "makerWei",
          "type": "uint256"
        },
        {
          "internalType": "uint256[]",
          "name": "makerIds",
          "type": "uint256[]"
        },
        {
          "internalType": "uint256",
          "name": "takerWei",
          "type": "uint256"
        },
        {
          "internalType": "uint256[]",
          "name": "takerIds",
          "type": "uint256[]"
        },
        {
          "internalType": "uint256",
          "name": "expiry",
          "type": "uint256"
        },
        {
          "internalType": "uint256",
          "name": "salt",
          "type": "uint256"
        },
        {
          "internalType": "bytes",
          "name": "signature",
          "type": "bytes"
        }
      ],
      "name": "acceptTrade",
      "outputs": [],
      "stateMutability": "payable",
      "type": "function"
    },
    {
      "inputs": [
        {
          "internalType": "address",
          "name": "_approved",
          "type": "address"
        },
        {
          "internalType": "uint256",
          "name": "_tokenId",
          "type": "uint256"
        }
      ],
      "name": "approve",
      "outputs": [],
      "stateMutability": "nonpayable",
      "type": "function"
    },
    {
      "inputs": [
        {
          "internalType": "address",
          "name": "_owner",
          "type": "address"
        }
      ],
      "name": "balanceOf",
      "outputs": [
        {
          "internalType": "uint256",
          "name": "",
          "type": "uint256"
        }
      ],
      "stateMutability": "view",
      "type": "function"
    },
    {
      "inputs": [
        {
          "internalType": "uint256",
          "name": "",
          "type": "uint256"
        }
      ],
      "name": "beebitsBids",
      "outputs": [
        {
          "internalType": "bool",
          "name": "hasBid",
          "type": "bool"
        },
        {
          "internalType": "uint256",
          "name": "beebitTokenId",
          "type": "uint256"
        },
        {
          "internalType": "address",
          "name": "bidder",
          "type": "address"
        },
        {
          "internalType": "uint256",
          "name": "bidValue",
          "type": "uint256"
        }
      ],
      "stateMutability": "view",
      "type": "function"
    },
    {
      "inputs": [
        {
          "internalType": "uint256",
          "name": "",
          "type": "uint256"
        }
      ],
      "name": "beebitsListings",
      "outputs": [
        {
          "internalType": "bool",
          "name": "isForSale",
          "type": "bool"
        },
        {
          "internalType": "uint256",
          "name": "tokenId",
          "type": "uint256"
        },
        {
          "internalType": "address",
          "name": "seller",
          "type": "address"
        },
        {
          "internalType": "uint256",
          "name": "minimumValue",
          "type": "uint256"
        },
        {
          "internalType": "address",
          "name": "sellTo",
          "type": "address"
        }
      ],
      "stateMutability": "view",
      "type": "function"
    },
    {
      "inputs": [
        {
          "internalType": "uint256",
          "name": "_tokenId",
          "type": "uint256"
        }
      ],
      "name": "bidForListing",
      "outputs": [],
      "stateMutability": "payable",
      "type": "function"
    },
    {
      "inputs": [
        {
          "internalType": "address",
          "name": "",
          "type": "address"
        }
      ],
      "name": "bnbBalance",
      "outputs": [
        {
          "internalType": "uint256",
          "name": "",
          "type": "uint256"
        }
      ],
      "stateMutability": "view",
      "type": "function"
    },
    {
      "inputs": [
        {
          "internalType": "uint256",
          "name": "_tokenId",
          "type": "uint256"
        }
      ],
      "name": "buyBeebit",
      "outputs": [
        {
          "internalType": "bool",
          "name": "",
          "type": "bool"
        }
      ],
      "stateMutability": "payable",
      "type": "function"
    },
    {
      "inputs": [
        {
          "internalType": "address",
          "name": "maker",
          "type": "address"
        },
        {
          "internalType": "address",
          "name": "taker",
          "type": "address"
        },
        {
          "internalType": "uint256",
          "name": "makerWei",
          "type": "uint256"
        },
        {
          "internalType": "uint256[]",
          "name": "makerIds",
          "type": "uint256[]"
        },
        {
          "internalType": "uint256",
          "name": "takerWei",
          "type": "uint256"
        },
        {
          "internalType": "uint256[]",
          "name": "takerIds",
          "type": "uint256[]"
        },
        {
          "internalType": "uint256",
          "name": "expiry",
          "type": "uint256"
        },
        {
          "internalType": "uint256",
          "name": "salt",
          "type": "uint256"
        }
      ],
      "name": "cancelOffer",
      "outputs": [],
      "stateMutability": "nonpayable",
      "type": "function"
    },
    {
      "inputs": [
        {
          "internalType": "bytes32",
          "name": "",
          "type": "bytes32"
        }
      ],
      "name": "cancelledListings",
      "outputs": [
        {
          "internalType": "bool",
          "name": "",
          "type": "bool"
        }
      ],
      "stateMutability": "view",
      "type": "function"
    },
    {
      "inputs": [
        {
          "internalType": "bytes32",
          "name": "",
          "type": "bytes32"
        }
      ],
      "name": "cancelledOffers",
      "outputs": [
        {
          "internalType": "bool",
          "name": "",
          "type": "bool"
        }
      ],
      "stateMutability": "view",
      "type": "function"
    },
    {
      "inputs": [
        {
          "internalType": "uint256",
          "name": "_newSaleCount",
          "type": "uint256"
        }
      ],
      "name": "changeSaleCount",
      "outputs": [],
      "stateMutability": "nonpayable",
      "type": "function"
    },
    {
      "inputs": [],
      "name": "communityGrant",
      "outputs": [
        {
          "internalType": "bool",
          "name": "",
          "type": "bool"
        }
      ],
      "stateMutability": "view",
      "type": "function"
    },
    {
      "inputs": [],
      "name": "contentHash",
      "outputs": [
        {
          "internalType": "string",
          "name": "",
          "type": "string"
        }
      ],
      "stateMutability": "view",
      "type": "function"
    },
    {
      "inputs": [],
      "name": "contractSealed",
      "outputs": [
        {
          "internalType": "bool",
          "name": "",
          "type": "bool"
        }
      ],
      "stateMutability": "view",
      "type": "function"
    },
    {
      "inputs": [
        {
          "internalType": "uint256",
          "name": "",
          "type": "uint256"
        }
      ],
      "name": "creatorNftMints",
      "outputs": [
        {
          "internalType": "uint256",
          "name": "",
          "type": "uint256"
        }
      ],
      "stateMutability": "view",
      "type": "function"
    },
    {
      "inputs": [
        {
          "internalType": "uint256",
          "name": "_tokenId",
          "type": "uint256"
        },
        {
          "internalType": "address",
          "name": "_newSeller",
          "type": "address"
        },
        {
          "internalType": "bytes32",
          "name": "_listingHash",
          "type": "bytes32"
        }
      ],
      "name": "deListBeebit",
      "outputs": [
        {
          "internalType": "bool",
          "name": "",
          "type": "bool"
        }
      ],
      "stateMutability": "nonpayable",
      "type": "function"
    },
    {
      "inputs": [],
      "name": "deposit",
      "outputs": [],
      "stateMutability": "payable",
      "type": "function"
    },
    {
      "inputs": [
        {
          "internalType": "uint256",
          "name": "quantity",
          "type": "uint256"
        },
        {
          "internalType": "address",
          "name": "recipient",
          "type": "address"
        }
      ],
      "name": "devMint",
      "outputs": [],
      "stateMutability": "nonpayable",
      "type": "function"
    },
    {
      "inputs": [],
      "name": "endCommunityGrant",
      "outputs": [],
      "stateMutability": "nonpayable",
      "type": "function"
    },
    {
      "inputs": [
        {
          "internalType": "uint256",
          "name": "_tokenId",
          "type": "uint256"
        }
      ],
      "name": "getApproved",
      "outputs": [
        {
          "internalType": "address",
          "name": "",
          "type": "address"
        }
      ],
      "stateMutability": "view",
      "type": "function"
    },
    {
      "inputs": [],
      "name": "getPrice",
      "outputs": [
        {
          "internalType": "uint256",
          "name": "",
          "type": "uint256"
        }
      ],
      "stateMutability": "view",
      "type": "function"
    },
    {
      "inputs": [
        {
          "internalType": "address",
          "name": "maker",
          "type": "address"
        },
        {
          "internalType": "address",
          "name": "taker",
          "type": "address"
        },
        {
          "internalType": "uint256",
          "name": "makerWei",
          "type": "uint256"
        },
        {
          "internalType": "uint256[]",
          "name": "makerIds",
          "type": "uint256[]"
        },
        {
          "internalType": "uint256",
          "name": "takerWei",
          "type": "uint256"
        },
        {
          "internalType": "uint256[]",
          "name": "takerIds",
          "type": "uint256[]"
        },
        {
          "internalType": "uint256",
          "name": "expiry",
          "type": "uint256"
        },
        {
          "internalType": "uint256",
          "name": "salt",
          "type": "uint256"
        }
      ],
      "name": "hashToSign",
      "outputs": [
        {
          "internalType": "bytes32",
          "name": "",
          "type": "bytes32"
        }
      ],
      "stateMutability": "pure",
      "type": "function"
    },
    {
      "inputs": [
        {
          "internalType": "address",
          "name": "_owner",
          "type": "address"
        },
        {
          "internalType": "address",
          "name": "_operator",
          "type": "address"
        }
      ],
      "name": "isApprovedForAll",
      "outputs": [
        {
          "internalType": "bool",
          "name": "",
          "type": "bool"
        }
      ],
      "stateMutability": "view",
      "type": "function"
    },
    {
      "inputs": [
        {
          "internalType": "uint256",
          "name": "_askerTokenId",
          "type": "uint256"
        },
        {
          "internalType": "uint256",
          "name": "_askerMinPrice",
          "type": "uint256"
        }
      ],
      "name": "listBeebit",
      "outputs": [
        {
          "internalType": "bool",
          "name": "",
          "type": "bool"
        }
      ],
      "stateMutability": "nonpayable",
      "type": "function"
    },
    {
      "inputs": [],
      "name": "marketPaused",
      "outputs": [
        {
          "internalType": "bool",
          "name": "",
          "type": "bool"
        }
      ],
      "stateMutability": "view",
      "type": "function"
    },
    {
      "inputs": [],
      "name": "mint",
      "outputs": [
        {
          "internalType": "uint256",
          "name": "",
          "type": "uint256"
        }
      ],
      "stateMutability": "payable",
      "type": "function"
    },
    {
      "inputs": [
        {
          "internalType": "uint256",
          "name": "_createVia",
          "type": "uint256"
        }
      ],
      "name": "mintWithBunk",
      "outputs": [
        {
          "internalType": "uint256",
          "name": "",
          "type": "uint256"
        }
      ],
      "stateMutability": "nonpayable",
      "type": "function"
    },
    {
      "inputs": [],
      "name": "mintsRemaining",
      "outputs": [
        {
          "internalType": "uint256",
          "name": "",
          "type": "uint256"
        }
      ],
      "stateMutability": "view",
      "type": "function"
    },
    {
      "inputs": [],
      "name": "name",
      "outputs": [
        {
          "internalType": "string",
          "name": "_name",
          "type": "string"
        }
      ],
      "stateMutability": "view",
      "type": "function"
    },
    {
      "inputs": [
        {
          "internalType": "uint256",
          "name": "_tokenId",
          "type": "uint256"
        }
      ],
      "name": "ownerOf",
      "outputs": [
        {
          "internalType": "address",
          "name": "_owner",
          "type": "address"
        }
      ],
      "stateMutability": "view",
      "type": "function"
    },
    {
      "inputs": [
        {
          "internalType": "bool",
          "name": "_paused",
          "type": "bool"
        }
      ],
      "name": "pauseMarket",
      "outputs": [],
      "stateMutability": "nonpayable",
      "type": "function"
    },
    {
      "inputs": [],
      "name": "publicSale",
      "outputs": [
        {
          "internalType": "bool",
          "name": "",
          "type": "bool"
        }
      ],
      "stateMutability": "view",
      "type": "function"
    },
    {
      "inputs": [
        {
          "internalType": "address",
          "name": "_from",
          "type": "address"
        },
        {
          "internalType": "address",
          "name": "_to",
          "type": "address"
        },
        {
          "internalType": "uint256",
          "name": "_tokenId",
          "type": "uint256"
        }
      ],
      "name": "safeTransferFrom",
      "outputs": [],
      "stateMutability": "nonpayable",
      "type": "function"
    },
    {
      "inputs": [
        {
          "internalType": "address",
          "name": "_from",
          "type": "address"
        },
        {
          "internalType": "address",
          "name": "_to",
          "type": "address"
        },
        {
          "internalType": "uint256",
          "name": "_tokenId",
          "type": "uint256"
        },
        {
          "internalType": "bytes",
          "name": "_data",
          "type": "bytes"
        }
      ],
      "name": "safeTransferFrom",
      "outputs": [],
      "stateMutability": "nonpayable",
      "type": "function"
    },
    {
      "inputs": [],
      "name": "saleDuration",
      "outputs": [
        {
          "internalType": "uint256",
          "name": "",
          "type": "uint256"
        }
      ],
      "stateMutability": "view",
      "type": "function"
    },
    {
      "inputs": [],
      "name": "saleStartTime",
      "outputs": [
        {
          "internalType": "uint256",
          "name": "",
          "type": "uint256"
        }
      ],
      "stateMutability": "view",
      "type": "function"
    },
    {
      "inputs": [],
      "name": "sealContract",
      "outputs": [],
      "stateMutability": "nonpayable",
      "type": "function"
    },
    {
      "inputs": [
        {
          "internalType": "address",
          "name": "_operator",
          "type": "address"
        },
        {
          "internalType": "bool",
          "name": "_approved",
          "type": "bool"
        }
      ],
      "name": "setApprovalForAll",
      "outputs": [],
      "stateMutability": "nonpayable",
      "type": "function"
    },
    {
      "inputs": [
        {
          "internalType": "uint256",
          "name": "_price",
          "type": "uint256"
        },
        {
          "internalType": "uint256",
          "name": "_saleDuration",
          "type": "uint256"
        }
      ],
      "name": "startSale",
      "outputs": [],
      "stateMutability": "nonpayable",
      "type": "function"
    },
    {
      "inputs": [
        {
          "internalType": "bytes4",
          "name": "_interfaceID",
          "type": "bytes4"
        }
      ],
      "name": "supportsInterface",
      "outputs": [
        {
          "internalType": "bool",
          "name": "",
          "type": "bool"
        }
      ],
      "stateMutability": "view",
      "type": "function"
    },
    {
      "inputs": [],
      "name": "symbol",
      "outputs": [
        {
          "internalType": "string",
          "name": "_symbol",
          "type": "string"
        }
      ],
      "stateMutability": "view",
      "type": "function"
    },
    {
      "inputs": [
        {
          "internalType": "uint256",
          "name": "index",
          "type": "uint256"
        }
      ],
      "name": "tokenByIndex",
      "outputs": [
        {
          "internalType": "uint256",
          "name": "",
          "type": "uint256"
        }
      ],
      "stateMutability": "pure",
      "type": "function"
    },
    {
      "inputs": [
        {
          "internalType": "address",
          "name": "_owner",
          "type": "address"
        },
        {
          "internalType": "uint256",
          "name": "_index",
          "type": "uint256"
        }
      ],
      "name": "tokenOfOwnerByIndex",
      "outputs": [
        {
          "internalType": "uint256",
          "name": "",
          "type": "uint256"
        }
      ],
      "stateMutability": "view",
      "type": "function"
    },
    {
      "inputs": [
        {
          "internalType": "uint256",
          "name": "_tokenId",
          "type": "uint256"
        }
      ],
      "name": "tokenURI",
      "outputs": [
        {
          "internalType": "string",
          "name": "",
          "type": "string"
        }
      ],
      "stateMutability": "view",
      "type": "function"
    },
    {
      "inputs": [],
      "name": "totalSupply",
      "outputs": [
        {
          "internalType": "uint256",
          "name": "",
          "type": "uint256"
        }
      ],
      "stateMutability": "view",
      "type": "function"
    },
    {
      "inputs": [
        {
          "internalType": "address",
          "name": "maker",
          "type": "address"
        },
        {
          "internalType": "address",
          "name": "taker",
          "type": "address"
        },
        {
          "internalType": "uint256",
          "name": "makerWei",
          "type": "uint256"
        },
        {
          "internalType": "uint256[]",
          "name": "makerIds",
          "type": "uint256[]"
        },
        {
          "internalType": "uint256",
          "name": "takerWei",
          "type": "uint256"
        },
        {
          "internalType": "uint256[]",
          "name": "takerIds",
          "type": "uint256[]"
        },
        {
          "internalType": "uint256",
          "name": "expiry",
          "type": "uint256"
        },
        {
          "internalType": "uint256",
          "name": "salt",
          "type": "uint256"
        },
        {
          "internalType": "bytes",
          "name": "signature",
          "type": "bytes"
        }
      ],
      "name": "tradeValid",
      "outputs": [
        {
          "internalType": "bool",
          "name": "",
          "type": "bool"
        }
      ],
      "stateMutability": "view",
      "type": "function"
    },
    {
      "inputs": [
        {
          "internalType": "address",
          "name": "_from",
          "type": "address"
        },
        {
          "internalType": "address",
          "name": "_to",
          "type": "address"
        },
        {
          "internalType": "uint256",
          "name": "_tokenId",
          "type": "uint256"
        }
      ],
      "name": "transferFrom",
      "outputs": [],
      "stateMutability": "nonpayable",
      "type": "function"
    },
    {
      "inputs": [
        {
          "internalType": "uint256",
          "name": "amount",
          "type": "uint256"
        }
      ],
      "name": "withdraw",
      "outputs": [],
      "stateMutability": "nonpayable",
      "type": "function"
    },
    {
      "inputs": [
        {
          "internalType": "uint256",
          "name": "_tokenId",
          "type": "uint256"
        }
      ],
      "name": "withdrawBeebitBid",
      "outputs": [
        {
          "internalType": "bool",
          "name": "",
          "type": "bool"
        }
      ],
      "stateMutability": "nonpayable",
      "type": "function"
    }
  ],
  "bytecode": "0x60e0604052602e60808181529062005e0c60a03980516200002991600091602090910190620001fa565b50612710600155604080518082019091526007808252664265656269747360c81b60209092019182526200006091600991620001fa565b5060408051808201909152600380825262e29a8760e81b60209092019182526200008d91600a91620001fa565b506000600b819055600c819055600f805460ff60a81b1960ff60a01b19909116600160a01b17169055601355614e3a805460ff19169055348015620000d157600080fd5b5060405162005e3a38038062005e3a83398181016040526040811015620000f757600080fd5b50805160209182015160029092527f71203db6a8b906f8e7c7701ea536708e3d7c6018d3ad50e5680c3241edacce178054600160ff1991821681179092557fe93570590271d95518ca425fa83dfa75d04081fc79a4d9a58f39c8df65a8e7a180548216831790557fdea2b207876963907afe1816d4888d650521cd53e74f3055eeb250c96c41fdc88054821683179055635b5e139f60e01b6000527fe7f4f15f8a9f2f6fc23737b039e4cbf51e96102d2c02d512a4356c0910a430f580549091169091179055600e8054336001600160a01b031991821617909155600d805482166001600160a01b03938416179055600f805490911691909216179055620002a6565b828054600181600116156101000203166002900490600052602060002090601f0160209004810192826200023257600085556200027d565b82601f106200024d57805160ff19168380011785556200027d565b828001600101855582156200027d579182015b828111156200027d57825182559160200191906001019062000260565b506200028b9291506200028f565b5090565b5b808211156200028b576000815560010162000290565b615b5680620002b66000396000f3fe60806040526004361061031a5760003560e01c80634f6ccce7116101ab5780639f7bf762116100f7578063d357b01e11610095578063e0ca1f671161006f578063e0ca1f671461105e578063e985e9c51461108e578063f4f3122e146110c9578063f592934c146110f95761031a565b8063d357b01e14610e2c578063d3d6c76714610e41578063d84e4f5a1461102b5761031a565b8063b88d4fde116100d1578063b88d4fde14610d35578063b9f7e21814610dd0578063c87b56dd14610dfa578063d0e30db014610e245761031a565b80639f7bf76214610cbb578063a22cb46514610ce5578063b650163714610d205761031a565b80636d630b8d116101645780638a84fe001161013e5780638a84fe0014610b035780639549522e14610c6157806395d89b4114610c9157806398d5fdca14610ca65761031a565b80636d630b8d14610a1357806370a0823114610a6d578063880fa0e814610aa05761031a565b80634f6ccce71461094c5780635b934888146109765780635ec390d8146109935780636352211e146109bf578063646c2e33146109e957806368bd580e146109fe5761031a565b806323b872dd1161026a5780633711d9fb1161022357806342842e0e116101fd57806342842e0e146108ad57806344c66be7146108f0578063456d020414610905578063475e41de146109225761031a565b80633711d9fb1461085957806337ba76a81461086e5780633a283bd2146108985761031a565b806323b872dd1461073b5780632d1a12f61461077e5780632e1a7d4d146107b75780632f745c59146107e15780632fa13dd11461081a57806333bc1c5c146108445761031a565b8063081812fc116102d75780631249c58b116102b15780631249c58b146106f457806318160ddd146106fc5780631cbaee2d14610711578063212e8f67146107265761031a565b8063081812fc14610496578063095ea7b3146104dc5780630faadcf6146105175761031a565b806301ffc9a71461031f57806302a7350714610367578063031bd4c41461039157806304935e51146103b85780630614a6ba146103f757806306fdde031461040c575b600080fd5b34801561032b57600080fd5b506103536004803603602081101561034257600080fd5b50356001600160e01b031916611257565b604080519115158252519081900360200190f35b34801561037357600080fd5b506103536004803603602081101561038a57600080fd5b503561127a565b34801561039d57600080fd5b506103a6611290565b60408051918252519081900360200190f35b3480156103c457600080fd5b50610353600480360360608110156103db57600080fd5b508035906001600160a01b036020820135169060400135611296565b34801561040357600080fd5b5061035361151b565b34801561041857600080fd5b5061042161152b565b6040805160208082528351818301528351919283929083019185019080838360005b8381101561045b578181015183820152602001610443565b50505050905090810190601f1680156104885780820380516001836020036101000a031916815260200191505b509250505060405180910390f35b3480156104a257600080fd5b506104c0600480360360208110156104b957600080fd5b50356115c1565b604080516001600160a01b039092168252519081900360200190f35b3480156104e857600080fd5b50610515600480360360408110156104ff57600080fd5b506001600160a01b03813516906020013561163a565b005b610515600480360361012081101561052e57600080fd5b6001600160a01b03823581169260208101359091169160408201359190810190608081016060820135600160201b81111561056857600080fd5b82018360208201111561057a57600080fd5b803590602001918460208302840111600160201b8311171561059b57600080fd5b91908080602002602001604051908101604052809392919081815260200183836020028082843760009201919091525092958435959094909350604081019250602001359050600160201b8111156105f257600080fd5b82018360208201111561060457600080fd5b803590602001918460208302840111600160201b8311171561062557600080fd5b9190808060200260200160405190810160405280939291908181526020018383602002808284376000920191909152509295843595602086013595919450925060608101915060400135600160201b81111561068057600080fd5b82018360208201111561069257600080fd5b803590602001918460018302840111600160201b831117156106b357600080fd5b91908080601f0160208091040260200160405190810160405280939291908181526020018383808284376000920191909152509295506117ac945050505050565b6103a6611cea565b34801561070857600080fd5b506103a6611f35565b34801561071d57600080fd5b506103a6611f3c565b34801561073257600080fd5b506103a6611f42565b34801561074757600080fd5b506105156004803603606081101561075e57600080fd5b506001600160a01b03813581169160208101359091169060400135611f48565b34801561078a57600080fd5b50610515600480360360408110156107a157600080fd5b50803590602001356001600160a01b031661211e565b3480156107c357600080fd5b50610515600480360360208110156107da57600080fd5b5035612192565b3480156107ed57600080fd5b506103a66004803603604081101561080457600080fd5b506001600160a01b038135169060200135612358565b34801561082657600080fd5b506103a66004803603602081101561083d57600080fd5b50356123b4565b34801561085057600080fd5b50610353612654565b34801561086557600080fd5b506103a6612664565b34801561087a57600080fd5b506103536004803603602081101561089157600080fd5b503561266a565b3480156108a457600080fd5b50610353612a74565b3480156108b957600080fd5b50610515600480360360608110156108d057600080fd5b506001600160a01b03813581169160208101359091169060400135612a7e565b3480156108fc57600080fd5b506103a6612a99565b6105156004803603602081101561091b57600080fd5b5035612ab7565b34801561092e57600080fd5b506105156004803603602081101561094557600080fd5b5035612e4c565b34801561095857600080fd5b506103a66004803603602081101561096f57600080fd5b5035612ea1565b6103536004803603602081101561098c57600080fd5b5035612eb8565b34801561099f57600080fd5b50610515600480360360208110156109b657600080fd5b503515156134f2565b3480156109cb57600080fd5b506104c0600480360360208110156109e257600080fd5b50356135a7565b3480156109f557600080fd5b5061042161362c565b348015610a0a57600080fd5b506105156136ba565b348015610a1f57600080fd5b50610a3d60048036036020811015610a3657600080fd5b503561371c565b60408051941515855260208501939093526001600160a01b03909116838301526060830152519081900360800190f35b348015610a7957600080fd5b506103a660048036036020811015610a9057600080fd5b50356001600160a01b0316613754565b348015610aac57600080fd5b50610aca60048036036020811015610ac357600080fd5b5035613772565b60408051951515865260208601949094526001600160a01b03928316858501526060850191909152166080830152519081900360a00190f35b348015610b0f57600080fd5b506105156004803603610100811015610b2757600080fd5b6001600160a01b03823581169260208101359091169160408201359190810190608081016060820135600160201b811115610b6157600080fd5b820183602082011115610b7357600080fd5b803590602001918460208302840111600160201b83111715610b9457600080fd5b91908080602002602001604051908101604052809392919081815260200183836020028082843760009201919091525092958435959094909350604081019250602001359050600160201b811115610beb57600080fd5b820183602082011115610bfd57600080fd5b803590602001918460208302840111600160201b83111715610c1e57600080fd5b91908080602002602001604051908101604052809392919081815260200183836020028082843760009201919091525092955050823593505050602001356137b1565b348015610c6d57600080fd5b5061035360048036036040811015610c8457600080fd5b50803590602001356138b0565b348015610c9d57600080fd5b50610421613dde565b348015610cb257600080fd5b506103a6613e3f565b348015610cc757600080fd5b5061035360048036036020811015610cde57600080fd5b5035613ef9565b348015610cf157600080fd5b5061051560048036036040811015610d0857600080fd5b506001600160a01b0381351690602001351515613f0f565b348015610d2c57600080fd5b50610353613f7d565b348015610d4157600080fd5b5061051560048036036080811015610d5857600080fd5b6001600160a01b03823581169260208101359091169160408201359190810190608081016060820135600160201b811115610d9257600080fd5b820183602082011115610da457600080fd5b803590602001918460018302840111600160201b83111715610dc557600080fd5b509092509050613f8c565b348015610ddc57600080fd5b506103a660048036036020811015610df357600080fd5b5035613fd5565b348015610e0657600080fd5b5061042160048036036020811015610e1d57600080fd5b5035613fe7565b6105156140e5565b348015610e3857600080fd5b5061051561414c565b348015610e4d57600080fd5b506103536004803603610120811015610e6557600080fd5b6001600160a01b03823581169260208101359091169160408201359190810190608081016060820135600160201b811115610e9f57600080fd5b820183602082011115610eb157600080fd5b803590602001918460208302840111600160201b83111715610ed257600080fd5b91908080602002602001604051908101604052809392919081815260200183836020028082843760009201919091525092958435959094909350604081019250602001359050600160201b811115610f2957600080fd5b820183602082011115610f3b57600080fd5b803590602001918460208302840111600160201b83111715610f5c57600080fd5b9190808060200260200160405190810160405280939291908181526020018383602002808284376000920191909152509295843595602086013595919450925060608101915060400135600160201b811115610fb757600080fd5b820183602082011115610fc957600080fd5b803590602001918460018302840111600160201b83111715610fea57600080fd5b91908080601f0160208091040260200160405190810160405280939291908181526020018383808284376000920191909152509295506141ea945050505050565b34801561103757600080fd5b506103a66004803603602081101561104e57600080fd5b50356001600160a01b03166145f0565b34801561106a57600080fd5b506103536004803603604081101561108157600080fd5b5080359060200135614603565b34801561109a57600080fd5b50610353600480360360408110156110b157600080fd5b506001600160a01b03813581169160200135166148c7565b3480156110d557600080fd5b50610515600480360360408110156110ec57600080fd5b50803590602001356148f5565b34801561110557600080fd5b506103a6600480360361010081101561111d57600080fd5b6001600160a01b03823581169260208101359091169160408201359190810190608081016060820135600160201b81111561115757600080fd5b82018360208201111561116957600080fd5b803590602001918460208302840111600160201b8311171561118a57600080fd5b91908080602002602001604051908101604052809392919081815260200183836020028082843760009201919091525092958435959094909350604081019250602001359050600160201b8111156111e157600080fd5b8201836020820111156111f357600080fd5b803590602001918460208302840111600160201b8311171561121457600080fd5b91908080602002602001604051908101604052809392919081815260200183836020028082843760009201919091525092955050823593505050602001356149aa565b6001600160e01b0319811660009081526002602052604090205460ff165b919050565b614e396020526000908152604090205460ff1681565b614e2081565b614e3454600090849060ff16156112e2576040805162461bcd60e51b815260206004820152601860248201526000805160206156dc833981519152604482015290519081900360640190fd5b614e3454610100900460ff161561132e576040805162461bcd60e51b815260206004820152601a60248201526000805160206158e7833981519152604482015290519081900360640190fd5b614e2081111580156113405750600081115b61137f576040805162461bcd60e51b81526020600482015260196024820152600080516020615907833981519152604482015290519081900360640190fd5b6000858152600360205260409020546001600160a01b031633146113ea576040805162461bcd60e51b815260206004820181905260248201527f426565626974733a2063616c6c6572206e6f7420626565626974206f776e6572604482015290519081900360640190fd5b6000858152614e36602052604090205460ff166114385760405162461bcd60e51b8152600401808060200182810382526022815260200180615a7d6022913960400191505060405180910390fd5b6040805160a081018252600080825260208083018981526001600160a01b03808a1685870190815260608601858152608087018681528d8752614e3686528887209751885490151560ff19918216178955945160018981019190915592516002890180549186166001600160a01b0319928316179055915160038901555160049097018054979093169616959095179055878352614e3982529184902080549092169092179055815187815291517ffc8c8fa0c3012532727758399e7eb91f21daa8ffbc505378b7e044164f5066ce9281900390910190a1506001949350505050565b600f54600160a01b900460ff1681565b60098054604080516020601f60026000196101006001881615020190951694909404938401819004810282018101909252828152606093909290918301828280156115b75780601f1061158c576101008083540402835291602001916115b7565b820191906000526020600020905b81548152906001019060200180831161159a57829003601f168201915b5050505050905090565b60008181526003602052604081205482906001600160a01b031661161d576040805162461bcd60e51b815260206004820152600e60248201526d24b73b30b634b2103a37b5b2b71760911b604482015290519081900360640190fd5b50506000908152600560205260409020546001600160a01b031690565b60008181526003602052604090205481906001600160a01b03163381148061168557506001600160a01b038116600090815260066020908152604080832033845290915290205460ff165b6116c8576040805162461bcd60e51b815260206004820152600f60248201526e21b0b73737ba1037b832b930ba329760891b604482015290519081900360640190fd5b60008381526003602052604090205483906001600160a01b0316611724576040805162461bcd60e51b815260206004820152600e60248201526d24b73b30b634b2103a37b5b2b71760911b604482015290519081900360640190fd5b6000848152600360205260409020546001600160a01b0390811690861681141561174d57600080fd5b60008581526005602052604080822080546001600160a01b0319166001600160a01b038a811691821790925591518893918516917f8c5be1e5ebec7d5bd14f71427d1e84f3dd0314c0f7b2291e5b200ac8c7c3b92591a4505050505050565b614e3a5460ff16156117f3576040805162461bcd60e51b815260206004820152601c60248201526000805160206156fc833981519152604482015290519081900360640190fd5b614e3a805460ff19166001179055614e345460ff161561185a576040805162461bcd60e51b815260206004820152601a60248201527f426565626974733a206d61726b6574206973207061757365642e000000000000604482015290519081900360640190fd5b336001600160a01b038a1614156118a25760405162461bcd60e51b8152600401808060200182810382526025815260200180615afc6025913960400191505060405180910390fd5b60006040518061010001604052808b6001600160a01b031681526020018a6001600160a01b03168152602001898152602001888152602001878152602001868152602001858152602001848152509050600034111561196157336000908152614e3760205260409020546119169034614a12565b336000818152614e376020908152604091829020939093558051348152905191927fe1fffcc4923d04b559f4d29a8bfc6cda04eb5b0d3c460751c2402c5c5cc9109c92918290030190a25b60208101516001600160a01b03161580611987575060208101516001600160a01b031633145b6119c25760405162461bcd60e51b81526004018080602001828103825260298152602001806158be6029913960400191505060405180910390fd5b6119d38a8a8a8a8a8a8a8a8a6141ea565b611a24576040805162461bcd60e51b815260206004820152601960248201527f426565626974733a207472616465206e6f742076616c69642e00000000000000604482015290519081900360640190fd5b6080810151336000908152614e3760205260409020541015611a775760405162461bcd60e51b815260040180806020018281038252602d815260200180615863602d913960400191505060405180910390fd5b60408082015182516001600160a01b03166000908152614e376020529190912054611aa191614a22565b81516001600160a01b03166000908152614e376020526040808220929092558183015133825291902054611ad491614a12565b336000908152614e37602052604090208190556080820151611af69190614a22565b336000908152614e37602052604080822092909255608083015183516001600160a01b0316825291902054611b2a91614a12565b81516001600160a01b03166000908152614e3760205260408120919091555b8751811015611b7757611b6f33898381518110611b6257fe5b6020026020010151614a37565b600101611b49565b5060005b8551811015611b9c57611b948b878381518110611b6257fe5b600101611b7b565b506000611ba882614ab2565b90506001614e35600083815260200190815260200160002060006101000a81548160ff02191690831515021790555081600001516001600160a01b0316817f753d4db383bcac616c2e2651156bc71c1ec81c0d5509071a85e3f565568765a3338560400151866060015187608001518860a0015160405180866001600160a01b031681526020018581526020018060200184815260200180602001838103835286818151815260200191508051906020019060200280838360005b83811015611c7b578181015183820152602001611c63565b50505050905001838103825284818151815260200191508051906020019060200280838360005b83811015611cba578181015183820152602001611ca2565b5050505090500197505050505050505060405180910390a35050614e3a805460ff19169055505050505050505050565b614e3a5460009060ff1615611d34576040805162461bcd60e51b815260206004820152601c60248201526000805160206156fc833981519152604482015290519081900360640190fd5b614e3a805460ff19166001179055600f54600160a81b900460ff16611da0576040805162461bcd60e51b815260206004820152601a60248201527f426565626974733a2073616c65206e6f7420737461727465642e000000000000604482015290519081900360640190fd5b614e345460ff1615611df2576040805162461bcd60e51b8152602060048201526016602482015275109959589a5d1cce881b585c9ad95d081c185d5cd95960521b604482015290519081900360640190fd5b600154600c5410611e4a576040805162461bcd60e51b815260206004820152601c60248201527f426565626974733a2073616c65206c696d697420726561636865642e00000000604482015290519081900360640190fd5b6000611e54613e3f565b905080341015611e955760405162461bcd60e51b81526004018080602001828103825260288152602001806159d16028913960400191505060405180910390fd5b80341115611ed557336108fc611eab3484614a22565b6040518115909202916000818181858888f19350505050158015611ed3573d6000803e3d6000fd5b505b600f546040516001600160a01b039091169082156108fc029083906000818181858888f19350505050158015611f0f573d6000803e3d6000fd5b50600c80546001019055611f24336000614bec565b915050614e3a805460ff1916905590565b600b545b90565b60115481565b60015481565b60008181526003602052604090205481906001600160a01b031633811480611f8657506000828152600560205260409020546001600160a01b031633145b80611fb457506001600160a01b038116600090815260066020908152604080832033845290915290205460ff165b611ff8576040805162461bcd60e51b815260206004820152601060248201526f21b0b73737ba103a3930b739b332b91760811b604482015290519081900360640190fd5b60008381526003602052604090205483906001600160a01b0316612054576040805162461bcd60e51b815260206004820152600e60248201526d24b73b30b634b2103a37b5b2b71760911b604482015290519081900360640190fd5b6000848152600360205260409020546001600160a01b0390811690871681146120ba576040805162461bcd60e51b81526020600482015260136024820152722bb937b73390333937b69030b2323932b9b99760691b604482015290519081900360640190fd5b6001600160a01b03861661210b576040805162461bcd60e51b815260206004820152601360248201527221b0b73737ba1039b2b732103a3790183c181760691b604482015290519081900360640190fd5b6121158686614a37565b50505050505050565b600e546001600160a01b0316331461216e576040805162461bcd60e51b815260206004820152600e60248201526d27b7363c903232b83637bcb2b91760911b604482015290519081900360640190fd5b60005b8281101561218d57612184826000614bec565b50600101612171565b505050565b614e3a5460ff16156121d9576040805162461bcd60e51b815260206004820152601c60248201526000805160206156fc833981519152604482015290519081900360640190fd5b614e3a805460ff19166001179055336000908152614e37602052604090205481111561224c576040805162461bcd60e51b815260206004820152601b60248201527f426565626974733a20696e73756666696369656e742066756e64730000000000604482015290519081900360640190fd5b336000908152614e3760205260409020546122679082614a22565b336000818152614e37602052604080822093909355915183908381818185875af1925050503d80600081146122b8576040519150601f19603f3d011682016040523d82523d6000602084013e6122bd565b606091505b5050905080612313576040805162461bcd60e51b815260206004820152601b60248201527f426565626974733a207472616e73616374696f6e206661696c65640000000000604482015290519081900360640190fd5b60408051838152905133917f884edad9ce6fa2440d8a54cc123490eb96d2768479d49ff9c7366125a9424364919081900360200190a25050614e3a805460ff19169055565b6001600160a01b038216600090815260076020526040812054821061237c57600080fd5b6001600160a01b03831660009081526007602052604090208054839081106123a057fe5b906000526020600020015490505b92915050565b614e3a5460009060ff16156123fe576040805162461bcd60e51b815260206004820152601c60248201526000805160206156fc833981519152604482015290519081900360640190fd5b614e3a805460ff19166001179055600f54600160a01b900460ff166124545760405162461bcd60e51b815260040180806020018281038252602881526020018061576f6028913960400191505060405180910390fd5b614e345460ff16156124a6576040805162461bcd60e51b8152602060048201526016602482015275109959589a5d1cce881b585c9ad95d081c185d5cd95960521b604482015290519081900360640190fd5b6000821180156124b857506127108211155b612509576040805162461bcd60e51b815260206004820152601c60248201527f426565626974733a20696e76616c69642062756e6b20696e6465782e00000000604482015290519081900360640190fd5b600082815260046020526040902054156125545760405162461bcd60e51b81526004018080602001828103825260268152602001806159ab6026913960400191505060405180910390fd5b6000612561836001614a22565b600d5460408051630b02f02d60e31b815260048101849052905192935033926001600160a01b0390921691635817816891602480820192602092909190829003018186803b1580156125b257600080fd5b505afa1580156125c6573d6000803e3d6000fd5b505050506040513d60208110156125dc57600080fd5b50516001600160a01b0316146126235760405162461bcd60e51b8152600401808060200182810382526024815260200180615a9f6024913960400191505060405180910390fd5b6000838152600460205260409020805460010190556126423384614bec565b614e3a805460ff191690559392505050565b600f54600160a81b900460ff1681565b60125481565b614e3a5460009060ff16156126b4576040805162461bcd60e51b815260206004820152601c60248201526000805160206156fc833981519152604482015290519081900360640190fd5b614e3a805460ff19166001179055614e3454829060ff161561270b576040805162461bcd60e51b815260206004820152601860248201526000805160206156dc833981519152604482015290519081900360640190fd5b614e3454610100900460ff1615612757576040805162461bcd60e51b815260206004820152601a60248201526000805160206158e7833981519152604482015290519081900360640190fd5b614e2081111580156127695750600081115b6127a8576040805162461bcd60e51b81526020600482015260196024820152600080516020615907833981519152604482015290519081900360640190fd5b6000838152600360205260409020546001600160a01b0316612811576040805162461bcd60e51b815260206004820152601d60248201527f426565626974733a2062696420746f20696e76616c696420746f6b656e000000604482015290519081900360640190fd5b6000838152600360205260409020546001600160a01b03163314156128675760405162461bcd60e51b8152600401808060200182810382526039815260200180615ac36039913960400191505060405180910390fd5b6000838152614e3860209081526040918290208251608081018452815460ff161515815260018201549281019290925260028101546001600160a01b0316928201839052600301546060820152903314612908576040805162461bcd60e51b815260206004820152601a60248201527f426565626974733a2063616c6c6572206e6f7420626964646572000000000000604482015290519081900360640190fd5b604080516080810182526000808252602080830188815283850183815260608086018581528b8652614e389094528685209551865460ff191690151517865591516001860155516002850180546001600160a01b0319166001600160a01b039092169190911790559051600390930192909255908301519151909133918381818185875af1925050503d80600081146129bd576040519150601f19603f3d011682016040523d82523d6000602084013e6129c2565b606091505b5050905080612a18576040805162461bcd60e51b815260206004820152601b60248201527f426565626974733a207472616e73616374696f6e206661696c65640000000000604482015290519081900360640190fd5b6060808301516040805188815260208101929092523382820152517fa365bd5f760d7166e40cee2cee5c7f32f204acf82e237db21fce693ab1040c34929181900390910190a15050614e3a805460ff1916905550600192915050565b614e345460ff1681565b61218d83838360405180602001604052806000815250614d3f565b6000612ab2600c54600154614a2290919063ffffffff16565b905090565b614e3454819060ff1615612b00576040805162461bcd60e51b815260206004820152601860248201526000805160206156dc833981519152604482015290519081900360640190fd5b614e3454610100900460ff1615612b4c576040805162461bcd60e51b815260206004820152601a60248201526000805160206158e7833981519152604482015290519081900360640190fd5b614e208111158015612b5e5750600081115b612b9d576040805162461bcd60e51b81526020600482015260196024820152600080516020615907833981519152604482015290519081900360640190fd5b6000828152600360205260409020546001600160a01b0316612c06576040805162461bcd60e51b815260206004820152601d60248201527f426565626974733a2062696420746f20696e76616c696420746f6b656e000000604482015290519081900360640190fd5b6000828152600360205260409020546001600160a01b0316331415612c5c5760405162461bcd60e51b81526004018080602001828103825260228152602001806159f96022913960400191505060405180910390fd5b60003411612cb1576040805162461bcd60e51b815260206004820152601b60248201527f426565626974733a20656d707479206269642072656365697665640000000000604482015290519081900360640190fd5b6000828152614e3860209081526040918290208251608081018452815460ff161515815260018201549281019290925260028101546001600160a01b031692820192909252600390910154606082018190523411612d405760405162461bcd60e51b81526004018080602001828103825260228152602001806157ba6022913960400191505060405180910390fd5b606081015115612d915760608101516040808301516001600160a01b03166000908152614e376020522054612d7491614a12565b6040808301516001600160a01b03166000908152614e3760205220555b60408051608081018252600180825260208083018781523384860181815234606080880182815260008d8152614e3888528a90209851895460ff191690151517895594519688019690965590516002870180546001600160a01b0319166001600160a01b0390921691909117905591516003909501949094558451888152918201528084019290925291517f1627396a943f27a9f2b8b73532817c5a830cfc29d541bc035af8a53e945c8b50929181900390910190a1505050565b600e546001600160a01b03163314612e9c576040805162461bcd60e51b815260206004820152600e60248201526d27b7363c903232b83637bcb2b91760911b604482015290519081900360640190fd5b600155565b6000614e208210612eb157600080fd5b5060010190565b614e3a5460009060ff1615612f02576040805162461bcd60e51b815260206004820152601c60248201526000805160206156fc833981519152604482015290519081900360640190fd5b614e3a805460ff19166001179055614e3454829060ff1615612f59576040805162461bcd60e51b815260206004820152601860248201526000805160206156dc833981519152604482015290519081900360640190fd5b614e3454610100900460ff1615612fa5576040805162461bcd60e51b815260206004820152601a60248201526000805160206158e7833981519152604482015290519081900360640190fd5b614e208111158015612fb75750600081115b612ff6576040805162461bcd60e51b81526020600482015260196024820152600080516020615907833981519152604482015290519081900360640190fd5b6000838152614e3660209081526040808320815160a081018352815460ff161515815260018201549381019390935260028101546001600160a01b039081169284019290925260038101546060840152600401541660808201529061305b8286615055565b60408301519091506001600160a01b03163314156130aa5760405162461bcd60e51b81526004018080602001828103825260248152602001806158056024913960400191505060405180910390fd5b81516130f9576040805162461bcd60e51b8152602060048201526019602482015278109959589a5d1cce881d1bdad95b881b9bdd081b1a5cdd1959603a1b604482015290519081900360640190fd5b6000818152614e39602052604090205460ff161561315e576040805162461bcd60e51b815260206004820152601a60248201527f426565626974733a206c697374696e67206e6f7420666f756e64000000000000604482015290519081900360640190fd5b34156131ca57336000908152614e37602052604090205461317f9034614a12565b336000818152614e376020908152604091829020939093558051348152905191927fe1fffcc4923d04b559f4d29a8bfc6cda04eb5b0d3c460751c2402c5c5cc9109c92918290030190a25b60808201516001600160a01b031615806131f0575060808201516001600160a01b031633145b613239576040805162461bcd60e51b8152602060048201526015602482015274109959589a5d1cce881d5b985d5d1a1bdc9a5e9959605a1b604482015290519081900360640190fd5b6060820151336000908152614e376020526040902054101561328c5760405162461bcd60e51b815260040180806020018281038252602d815260200180615863602d913960400191505060405180910390fd5b6000858152600360205260409081902054908301516001600160a01b039081169116146132ea5760405162461bcd60e51b81526004018080602001828103825260298152602001806157dc6029913960400191505060405180910390fd5b6060820151336000908152614e37602052604090205461330991614a22565b336000908152614e376020526040808220929092556060840151848301516001600160a01b031682529190205461333f91614a12565b6040808401516001600160a01b03166000908152614e3760205220556133653386614a37565b613370853383611296565b50606080830151604080850151815189815260208101939093526001600160a01b031682820152339282019290925290517f16090b730e22957728c5a4dc5643ede79032d9cb7d0054843c24e30c42cc34a09181900360800190a16000858152614e3860209081526040918290208251608081018452815460ff1615801580835260018401549483019490945260028301546001600160a01b031694820194909452600390910154606082015291613434575060408101516001600160a01b031633145b156134db576060810151336000908152614e37602052604090205461345891614a12565b336000908152614e37602090815260408083209390935582516080810184528281528082018a8152818501848152606083018581528c8652614e38909452949093209051815460ff19169015151781559151600183015591516002820180546001600160a01b0319166001600160a01b0390921691909117905590516003909101555b5050614e3a805460ff191690555060019392505050565b600e546001600160a01b03163314613542576040805162461bcd60e51b815260206004820152600e60248201526d27b7363c903232b83637bcb2b91760911b604482015290519081900360640190fd5b614e3454610100900460ff1615613593576040805162461bcd60e51b815260206004820152601060248201526f21b7b73a3930b1ba1039b2b0b632b21760811b604482015290519081900360640190fd5b614e34805460ff1916911515919091179055565b6000818152600360205260408120546001600160a01b0316613610576040805162461bcd60e51b815260206004820152601960248201527f426565626974733a20746f6b656e206e6f74206d696e74656400000000000000604482015290519081900360640190fd5b506000908152600360205260409020546001600160a01b031690565b6000805460408051602060026001851615610100026000190190941693909304601f810184900484028201840190925281815292918301828280156136b25780601f10613687576101008083540402835291602001916136b2565b820191906000526020600020905b81548152906001019060200180831161369557829003601f168201915b505050505081565b600e546001600160a01b0316331461370a576040805162461bcd60e51b815260206004820152600e60248201526d27b7363c903232b83637bcb2b91760911b604482015290519081900360640190fd5b614e34805461ff001916610100179055565b614e3860205260009081526040902080546001820154600283015460039093015460ff9092169290916001600160a01b039091169084565b60006001600160a01b03821661376957600080fd5b6123ae826150ca565b614e36602052600090815260409020805460018201546002830154600384015460049094015460ff9093169391926001600160a01b0391821692911685565b6001600160a01b03881633146137f85760405162461bcd60e51b815260040180806020018281038252602e815260200180615890602e913960400191505060405180910390fd5b60006040518061010001604052808a6001600160a01b03168152602001896001600160a01b03168152602001888152602001878152602001868152602001858152602001848152602001838152509050600061385382614ab2565b6000818152614e356020908152604091829020805460ff19166001179055815183815291519293507f3f9cb69d022b6ec319f86f2df848bcce01f2fc51c9f86396779a8081cf6ca2ea92918290030190a150505050505050505050565b614e3a5460009060ff16156138fa576040805162461bcd60e51b815260206004820152601c60248201526000805160206156fc833981519152604482015290519081900360640190fd5b614e3a805460ff19166001179055614e3454839060ff1615613951576040805162461bcd60e51b815260206004820152601860248201526000805160206156dc833981519152604482015290519081900360640190fd5b614e3454610100900460ff161561399d576040805162461bcd60e51b815260206004820152601a60248201526000805160206158e7833981519152604482015290519081900360640190fd5b614e2081111580156139af5750600081115b6139ee576040805162461bcd60e51b81526020600482015260196024820152600080516020615907833981519152604482015290519081900360640190fd5b6000848152600360205260409020546001600160a01b03163314613a59576040805162461bcd60e51b815260206004820152601960248201527f426565626974733a2063616c6c6572206e6f74206f776e657200000000000000604482015290519081900360640190fd5b6000848152614e3860209081526040918290208251608081018452815460ff16151580825260018301549382019390935260028201546001600160a01b031693810193909352600301546060830152613af0576040805162461bcd60e51b8152602060048201526014602482015273109959589a5d1cce881a5b9d985b1a5908189a5960621b604482015290519081900360640190fd5b8381606001511015613b335760405162461bcd60e51b8152600401808060200182810382526039815260200180615a1b6039913960400191505060405180910390fd5b6000858152614e366020908152604091829020825160a081018452815460ff16151580825260018301549382019390935260028201546001600160a01b0390811694820194909452600382015460608201526004909101549092166080830152613be0576040805162461bcd60e51b8152602060048201526019602482015278109959589a5d1cce881d1bdad95b881b9bdd081b1a5cdd1959603a1b604482015290519081900360640190fd5b6000868152600360205260409081902054908201516001600160a01b03908116911614613c3e5760405162461bcd60e51b81526004018080602001828103825260298152602001806157dc6029913960400191505060405180910390fd5b6000613c4a8288615055565b6000818152614e39602052604090205490915060ff1615613cb2576040805162461bcd60e51b815260206004820152601a60248201527f426565626974733a206c697374696e67206e6f7420666f756e64000000000000604482015290519081900360640190fd5b6060830151336000908152614e376020526040902054613cd191614a12565b336000908152614e3760205260409081902091909155830151613cf690889083611296565b50613d05836040015188614a37565b6040805160808082018352600080835260208084018c815284860183815260608087018581528f8652614e388552948890209651875460ff191690151517875591516001870155516002860180546001600160a01b0319166001600160a01b039283161790559251600390950194909455878401518886015186518e81529283019190915233828701529091169281019290925291517f16090b730e22957728c5a4dc5643ede79032d9cb7d0054843c24e30c42cc34a0929181900390910190a15050614e3a805460ff19169055506001949350505050565b600a8054604080516020601f60026000196101006001881615020190951694909404938401819004810282018101909252828152606093909290918301828280156115b75780601f1061158c576101008083540402835291602001916115b7565b600f54600090600160a81b900460ff16613ea0576040805162461bcd60e51b815260206004820152601a60248201527f426565626974733a2053616c65206e6f7420737461727465642e000000000000604482015290519081900360640190fd5b6000613eb760115442614a2290919063ffffffff16565b90506012548110613ecc576000915050611f39565b601254601054613ef19190613eeb90613ee58386614a22565b906150e5565b9061510d565b915050611f39565b614e356020526000908152604090205460ff1681565b3360008181526006602090815260408083206001600160a01b03871680855290835292819020805460ff1916861515908117909155815190815290519293927f17307eab39ab6107e8899845ad3d59bd9653f200f220920489ca2b5937696c31929181900390910190a35050565b614e3454610100900460ff1681565b613fce85858585858080601f016020809104026020016040519081016040528093929190818152602001838380828437600092019190915250614d3f92505050565b5050505050565b60046020526000908152604090205481565b60008181526003602052604090205460609082906001600160a01b0316614046576040805162461bcd60e51b815260206004820152600e60248201526d24b73b30b634b2103a37b5b2b71760911b604482015290519081900360640190fd5b61404f83615120565b60405160200180807f68747470733a2f2f626565626974732e78797a2f626565626974732f00000000815250601c0182805190602001908083835b602083106140a95780518252601f19909201916020918201910161408a565b6001836020036101000a038019825116818451168082178552505050505050905001915050604051602081830303815290604052915050919050565b336000908152614e3760205260409020546141009034614a12565b336000818152614e376020908152604091829020939093558051348152905191927fe1fffcc4923d04b559f4d29a8bfc6cda04eb5b0d3c460751c2402c5c5cc9109c92918290030190a2565b600e546001600160a01b0316331461419c576040805162461bcd60e51b815260206004820152600e60248201526d27b7363c903232b83637bcb2b91760911b604482015290519081900360640190fd5b600f54600160a01b900460ff166141b257600080fd5b600f805460ff60a01b191690556040517f5f00e567de9d29d9d36405c34b1164390da767fb97a1fb7d6bf3680ff90a3b2690600090a1565b6000806040518061010001604052808c6001600160a01b031681526020018b6001600160a01b031681526020018a8152602001898152602001888152602001878152602001868152602001858152509050600061424682614ab2565b6000818152614e35602052604090205490915060ff16156142985760405162461bcd60e51b81526004018080602001828103825260238152602001806157976023913960400191505060405180910390fd5b60006142a3836151fb565b90506142b48360000151828761525b565b614305576040805162461bcd60e51b815260206004820152601d60248201527f426565626974733a207369676e6174757265206e6f742076616c69642e000000604482015290519081900360640190fd5b8260c00151421061435d576040805162461bcd60e51b815260206004820152601d60248201527f426565626974733a207472616465206f6666657220657870697265642e000000604482015290519081900360640190fd5b8a1580614368575088155b6143a35760405162461bcd60e51b8152600401808060200182810382526029815260200180615a546029913960400191505060405180910390fd5b60008a5111806143b4575060008851115b6143ef5760405162461bcd60e51b81526004018080602001828103825260248152602001806156b86024913960400191505060405180910390fd5b60408084015184516001600160a01b03166000908152614e376020529190912054101561444d5760405162461bcd60e51b815260040180806020018281038252603081526020018061573f6030913960400191505060405180910390fd5b60005b8360600151518110156144e75783600001516001600160a01b0316600360008660600151848151811061447f57fe5b6020908102919091018101518252810191909152604001600020546001600160a01b0316146144df5760405162461bcd60e51b815260040180806020018281038252603a815260200180615829603a913960400191505060405180910390fd5b600101614450565b5060208301516001600160a01b03166145415760a0830151511561453c5760405162461bcd60e51b815260040180806020018281038252604a815260200180615961604a913960600191505060405180910390fd5b6145dd565b60005b8360a00151518110156145db5783602001516001600160a01b0316600360008660a00151848151811061457357fe5b6020908102919091018101518252810191909152604001600020546001600160a01b0316146145d35760405162461bcd60e51b815260040180806020018281038252603a815260200180615927603a913960400191505060405180910390fd5b600101614544565b505b5060019c9b505050505050505050505050565b614e376020526000908152604090205481565b614e3454600090839060ff161561464f576040805162461bcd60e51b815260206004820152601860248201526000805160206156dc833981519152604482015290519081900360640190fd5b614e3454610100900460ff161561469b576040805162461bcd60e51b815260206004820152601a60248201526000805160206158e7833981519152604482015290519081900360640190fd5b614e2081111580156146ad5750600081115b6146ec576040805162461bcd60e51b81526020600482015260196024820152600080516020615907833981519152604482015290519081900360640190fd5b6000848152600360205260409020546001600160a01b03163314614757576040805162461bcd60e51b815260206004820181905260248201527f426565626974733a2063616c6c6572206e6f7420626565626974206f776e6572604482015290519081900360640190fd5b6000848152614e36602052604090205460ff16156147bc576040805162461bcd60e51b815260206004820152601e60248201527f426565626974733a20746f6b656e20616c726561647920696e2073616c650000604482015290519081900360640190fd5b6040805160a08101825260018152602081018690523391810191909152606081018490526000608082018190526147f38287615055565b6000878152614e36602090815260408083208651815490151560ff19918216178255838801516001830155828801516002830180546001600160a01b039283166001600160a01b0319918216179091556060808b0151600386015560808b0151600490950180549590931694909116939093179055858552614e3984528285208054909116905581518b81529283018a905282820193909352519293507ff571c65afd7c58efee1f8029cb279f89e7ce60da562fd28a61fc3fd8c7eb5b30929081900390910190a150600195945050505050565b6001600160a01b03918216600090815260066020908152604080832093909416825291909152205460ff1690565b600e546001600160a01b03163314614945576040805162461bcd60e51b815260206004820152600e60248201526d27b7363c903232b83637bcb2b91760911b604482015290519081900360640190fd5b600f54600160a81b900460ff161561495c57600080fd5b6010829055601281905542601155600f805460ff60a81b1916600160a81b1790556040517f771cfe172460b7d64cc46cca57a1e1f40f52b47cf1d16fe30c78a2935b3dd58090600090a15050565b6000806040518061010001604052808b6001600160a01b031681526020018a6001600160a01b03168152602001898152602001888152602001878152602001868152602001858152602001848152509050614a0481614ab2565b9a9950505050505050505050565b818101828110156123ae57600080fd5b600082821115614a3157600080fd5b50900390565b6000818152600360205260409020546001600160a01b0316614a588261533f565b614a62818361537c565b614a6c83836154f7565b81836001600160a01b0316826001600160a01b03167fddf252ad1be2c89b69c2b068fc378daa952ba7f163c4a11628f55a4df523b3ef60405160405180910390a4505050565b6000816000015182602001518360400151846060015160405160200180828051906020019060200280838360005b83811015614af8578181015183820152602001614ae0565b505050509050019150506040516020818303038152906040528051906020012085608001518660a0015160405160200180828051906020019060200280838360005b83811015614b52578181015183820152602001614b3a565b50505050905001915050604051602081830303815290604052805190602001208760c001518860e0015160405160200180896001600160a01b03168152602001886001600160a01b0316815260200187815260200186815260200185815260200184815260200183815260200182815260200198505050505050505050604051602081830303815290604052805190602001209050919050565b60006001600160a01b038316614c49576040805162461bcd60e51b815260206004820152601c60248201527f426565626974733a2063616e6e6f74206d696e7420746f203078302e00000000604482015290519081900360640190fd5b614e20600b5410614ca1576040805162461bcd60e51b815260206004820152601d60248201527f426565626974733a20746f6b656e206c696d697420726561636865642e000000604482015290519081900360640190fd5b6000614cab6155b5565b600b805460010190559050614cc084826154f7565b6040805184815290516001600160a01b0386169183917f4e3883c75cc9c752bb1db2e406a822e4a75067ae77ad9a0a4d179f2709b9e1f69181900360200190a360405181906001600160a01b038616906000907fddf252ad1be2c89b69c2b068fc378daa952ba7f163c4a11628f55a4df523b3ef908290a49392505050565b60008281526003602052604090205482906001600160a01b031633811480614d7d57506000828152600560205260409020546001600160a01b031633145b80614dab57506001600160a01b038116600090815260066020908152604080832033845290915290205460ff165b614def576040805162461bcd60e51b815260206004820152601060248201526f21b0b73737ba103a3930b739b332b91760811b604482015290519081900360640190fd5b60008481526003602052604090205484906001600160a01b0316614e4b576040805162461bcd60e51b815260206004820152600e60248201526d24b73b30b634b2103a37b5b2b71760911b604482015290519081900360640190fd5b6000858152600360205260409020546001600160a01b039081169088168114614eb7576040805162461bcd60e51b81526020600482015260196024820152782132b2b134ba399d1034b731b7b93932b1ba1037bbb732b91760391b604482015290519081900360640190fd5b6001600160a01b038716614f12576040805162461bcd60e51b815260206004820152601c60248201527f426565626974733a2073656e646572207a65726f206164647265737300000000604482015290519081900360640190fd5b614f1c8787614a37565b614f25876156b1565b1561504b576000876001600160a01b031663150b7a02338b8a8a6040518563ffffffff1660e01b815260040180856001600160a01b03168152602001846001600160a01b0316815260200183815260200180602001828103825283818151815260200191508051906020019080838360005b83811015614faf578181015183820152602001614f97565b50505050905090810190601f168015614fdc5780820380516001836020036101000a031916815260200191505b5095505050505050602060405180830381600087803b158015614ffe57600080fd5b505af1158015615012573d6000803e3d6000fd5b505050506040513d602081101561502857600080fd5b505190506001600160e01b03198116630a85bd0160e11b1461504957600080fd5b505b5050505050505050565b6000826000015183604001518460600151856080015185604051602001808615158152602001856001600160a01b03168152602001848152602001836001600160a01b031681526020018281526020019550505050505060405160208183030381529060405280519060200120905092915050565b6001600160a01b031660009081526007602052604090205490565b6000826150f4575060006123ae565b508181028183828161510257fe5b04146123ae57600080fd5b600081838161511857fe5b049392505050565b60608161514557506040805180820190915260018152600360fc1b6020820152611275565b8160005b811561515d57600101600a82049150615149565b60008167ffffffffffffffff8111801561517657600080fd5b506040519080825280601f01601f1916602001820160405280156151a1576020820181803683370190505b50859350905060001982015b83156151f257600a840660300160f81b828280600190039350815181106151d057fe5b60200101906001600160f81b031916908160001a905350600a840493506151ad565b50949350505050565b600061520682614ab2565b60405160200180807f19457468657265756d205369676e6564204d6573736167653a0a333200000000815250601c01828152602001915050604051602081830303815290604052805190602001209050919050565b60006001600160a01b03841661527057600080fd5b815160411461527e57600080fd5b60208201516040830151606084015160001a601b81101561529d57601b015b8060ff16601b14806152b257508060ff16601c145b6152bb57600080fd5b60018682858560405160008152602001604052604051808581526020018460ff1681526020018381526020018281526020019450505050506020604051602081039080840390855afa158015615315573d6000803e3d6000fd5b505050602060405103516001600160a01b0316876001600160a01b03161493505050509392505050565b6000818152600560205260409020546001600160a01b03161561537957600081815260056020526040902080546001600160a01b03191690555b50565b6000818152600360205260409020546001600160a01b038381169116146153e6576040805162461bcd60e51b81526020600482015260196024820152782132b2b134ba399d1034b731b7b93932b1ba1037bbb732b91760391b604482015290519081900360640190fd5b600081815260036020908152604080832080546001600160a01b031916905560088252808320546001600160a01b0386168452600790925282205490919061542f906001614a22565b90508181146154ba576001600160a01b038416600090815260076020526040812080548390811061545c57fe5b906000526020600020015490508060076000876001600160a01b03166001600160a01b03168152602001908152602001600020848154811061549a57fe5b600091825260208083209091019290925591825260089052604090208290555b6001600160a01b03841660009081526007602052604090208054806154db57fe5b6001900381819060005260206000200160009055905550505050565b6000818152600360205260409020546001600160a01b03161561554b5760405162461bcd60e51b815260040180806020018281038252602381526020018061571c6023913960400191505060405180910390fd5b600081815260036020908152604080832080546001600160a01b0319166001600160a01b0387169081179091558084526007835290832080546001818101835582865293852001859055925290546155a291614a22565b6000918252600860205260409091205550565b600b54601354604080516020808201939093523360601b81830152446054820152426074808301919091528251808303909101815260949091019091528051910120600091614e200390829082908161560a57fe5b0690506000601482614e20811061561d57fe5b01541561563b57601482614e20811061563257fe5b0154905061563e565b50805b601460018403614e20811061564f57fe5b015461566e5760018303601483614e20811061566757fe5b0155615692565b601460018403614e20811061567f57fe5b0154601483614e20811061568f57fe5b01555b6013805460019081019091556156a9908290614a12565b935050505090565b3b15159056fe426565626974733a206f6e652073696465206d757374206f6666657220746f6b656e732e4265656269743a206d61726b6574206973207061757365640000000000000000426565626974733a207265656e7472616e637920646574656374656400000000426565626974733a2063616e6e6f74206164642c20616c7265616479206f776e65642e426565626974733a206d616b657220646f6573206e6f7420686176652073756666696369656e742062616c616e63652e426565626974733a20636f6d6d756e697479206772616e74206e6f74207374617274656420796574426565626974733a207472616465206f66666572207761732063616e63656c6c65642e426565626974733a206269642076616c7565206e6f74206869676820656e6f756768426565626974733a2073656c6c6572206e6f206c6f6e676572206f776e6572206f6620626565626974426565626974733a2063616e6e6f7420627579206f6e652773206f776e20626565626974426565626974733a206174206c65617374206f6e65206d616b657220746f6b656e20646f65736e27742062656c6f6e6720746f206d616b65722e426565626974733a20696e73756666696369656e742066756e647320746f20657865637574652074726164652e426565626974733a206f6e6c7920746865206d616b65722063616e2063616e63656c2074686973206f666665722e426565626974733a206e6f742074686520726563697069656e74206f662074686973206f666665722e4265656269743a20636f6e7472616374206973207365616c6564000000000000426565626974733a20696e76616c696420746f6b656e20696400000000000000426565626974733a206174206c65617374206f6e652074616b657220746f6b656e20646f65736e27742062656c6f6e6720746f2074616b65722e426565626974733a206966207472616465206973206f66666572656420746f20616e79626f64792c2063616e6e6f74207370656369667920746f6b656e732066726f6d2074616b65722e426565626974733a20616c7265616479206d696e746564207769746820746869732062756e6b426565626974733a20696e73756666696369656e742066756e647320746f2070757263686173652e426565626974733a2063616e6e6f742062696420746f206f776e206c697374696e67426565626974733a206269642076616c7565206e6f7420657175616c206f722067726561746572207468616e206c6973746564207072696365426565626974733a206f6e6c79206f6e652073696465206f66207472616465206d757374207061792e426565626974733a20746f6b656e206e6f7420696e2073616c6520616c7265616479426565626974733a206e6f7420746865206f776e6572206f6620746869732062756e6b2e426565626974733a206269642077697468647261772063616e6e6f7420626520646f6e65207768656e206f776e696e67206120626565626974426565626974733a2063616e277420616363657074206f6e6573206f776e2074726164652ea26469706673582212204bd05907bd94e817e124d52259f62d939e69abf7d3c6c2c293cf2120632aff7764736f6c63430007060033516d66585967665831714e667a51364e5279466e75706e695a7573617346504d6569576e356161446e783759586f",
  "linkReferences": {},
  "deployedLinkReferences": {}
}