{
  "_format": "hh-sol-artifact-1",
  "contractName": "Beebits",
  "sourceName": "contracts/Beebits.sol",
  "abi": [
    {
      "inputs": [
        {
          "internalType": "address",
          "name": "_bunks",
          "type": "address"
        },
        {
          "internalType": "address payable",
          "name": "_beneficiary",
          "type": "address"
        },
        {
          "internalType": "address",
          "name": "_linkTokenAddress",
          "type": "address"
        },
        {
          "internalType": "address",
          "name": "_vrfCoordinator",
          "type": "address"
        },
        {
          "internalType": "bytes32",
          "name": "_keyHash",
          "type": "bytes32"
        },
        {
          "internalType": "uint256",
          "name": "_randomnessFee",
          "type": "uint256"
        }
      ],
      "stateMutability": "nonpayable",
      "type": "constructor"
    },
    {
      "anonymous": false,
      "inputs": [
        {
          "indexed": true,
          "internalType": "address",
          "name": "owner",
          "type": "address"
        },
        {
          "indexed": true,
          "internalType": "address",
          "name": "approved",
          "type": "address"
        },
        {
          "indexed": true,
          "internalType": "uint256",
          "name": "tokenId",
          "type": "uint256"
        }
      ],
      "name": "Approval",
      "type": "event"
    },
    {
      "anonymous": false,
      "inputs": [
        {
          "indexed": true,
          "internalType": "address",
          "name": "owner",
          "type": "address"
        },
        {
          "indexed": true,
          "internalType": "address",
          "name": "operator",
          "type": "address"
        },
        {
          "indexed": false,
          "internalType": "bool",
          "name": "approved",
          "type": "bool"
        }
      ],
      "name": "ApprovalForAll",
      "type": "event"
    },
    {
      "anonymous": false,
      "inputs": [
        {
          "indexed": false,
          "internalType": "uint256",
          "name": "tokenId",
          "type": "uint256"
        },
        {
          "indexed": false,
          "internalType": "uint256",
          "name": "bidValue",
          "type": "uint256"
        },
        {
          "indexed": false,
          "internalType": "address",
          "name": "bidder",
          "type": "address"
        }
      ],
      "name": "BeebitBidPlaced",
      "type": "event"
    },
    {
      "anonymous": false,
      "inputs": [
        {
          "indexed": false,
          "internalType": "uint256",
          "name": "tokenId",
          "type": "uint256"
        },
        {
          "indexed": false,
          "internalType": "uint256",
          "name": "bidValue",
          "type": "uint256"
        },
        {
          "indexed": false,
          "internalType": "address",
          "name": "bidder",
          "type": "address"
        }
      ],
      "name": "BeebitBidWithdrawn",
      "type": "event"
    },
    {
      "anonymous": false,
      "inputs": [
        {
          "indexed": false,
          "internalType": "uint256",
          "name": "tokenId",
          "type": "uint256"
        },
        {
          "indexed": false,
          "internalType": "uint256",
          "name": "price",
          "type": "uint256"
        },
        {
          "indexed": false,
          "internalType": "address",
          "name": "seller",
          "type": "address"
        },
        {
          "indexed": false,
          "internalType": "address",
          "name": "buyer",
          "type": "address"
        }
      ],
      "name": "BeebitBought",
      "type": "event"
    },
    {
      "anonymous": false,
      "inputs": [
        {
          "indexed": false,
          "internalType": "uint256",
          "name": "tokenId",
          "type": "uint256"
        }
      ],
      "name": "BeebitDelisted",
      "type": "event"
    },
    {
      "anonymous": false,
      "inputs": [
        {
          "indexed": false,
          "internalType": "uint256",
          "name": "tokenId",
          "type": "uint256"
        },
        {
          "indexed": false,
          "internalType": "uint256",
          "name": "askingPrice",
          "type": "uint256"
        },
        {
          "indexed": false,
          "internalType": "address",
          "name": "buyerAddress",
          "type": "address"
        }
      ],
      "name": "BeebitListed",
      "type": "event"
    },
    {
      "anonymous": false,
      "inputs": [],
      "name": "CommunityGrantEnds",
      "type": "event"
    },
    {
      "anonymous": false,
      "inputs": [
        {
          "indexed": true,
          "internalType": "address",
          "name": "account",
          "type": "address"
        },
        {
          "indexed": false,
          "internalType": "uint256",
          "name": "amount",
          "type": "uint256"
        }
      ],
      "name": "Deposit",
      "type": "event"
    },
    {
      "anonymous": false,
      "inputs": [
        {
          "indexed": false,
          "internalType": "bool",
          "name": "mode",
          "type": "bool"
        }
      ],
      "name": "DevMintToggled",
      "type": "event"
    },
    {
      "anonymous": false,
      "inputs": [
        {
          "indexed": true,
          "internalType": "uint256",
          "name": "index",
          "type": "uint256"
        },
        {
          "indexed": true,
          "internalType": "address",
          "name": "minter",
          "type": "address"
        },
        {
          "indexed": false,
          "internalType": "uint256",
          "name": "createdVia",
          "type": "uint256"
        }
      ],
      "name": "Mint",
      "type": "event"
    },
    {
      "anonymous": false,
      "inputs": [
        {
          "indexed": false,
          "internalType": "bytes32",
          "name": "hash",
          "type": "bytes32"
        }
      ],
      "name": "OfferCancelled",
      "type": "event"
    },
    {
      "anonymous": false,
      "inputs": [
        {
          "indexed": true,
          "internalType": "address",
          "name": "minter",
          "type": "address"
        },
        {
          "indexed": false,
          "internalType": "bytes32",
          "name": "requestId",
          "type": "bytes32"
        }
      ],
      "name": "RequestedMint",
      "type": "event"
    },
    {
      "anonymous": false,
      "inputs": [],
      "name": "SaleBegins",
      "type": "event"
    },
    {
      "anonymous": false,
      "inputs": [
        {
          "indexed": true,
          "internalType": "bytes32",
          "name": "hash",
          "type": "bytes32"
        },
        {
          "indexed": true,
          "internalType": "address",
          "name": "maker",
          "type": "address"
        },
        {
          "indexed": false,
          "internalType": "address",
          "name": "taker",
          "type": "address"
        },
        {
          "indexed": false,
          "internalType": "uint256",
          "name": "makerWei",
          "type": "uint256"
        },
        {
          "indexed": false,
          "internalType": "uint256[]",
          "name": "makerIds",
          "type": "uint256[]"
        },
        {
          "indexed": false,
          "internalType": "uint256",
          "name": "takerWei",
          "type": "uint256"
        },
        {
          "indexed": false,
          "internalType": "uint256[]",
          "name": "takerIds",
          "type": "uint256[]"
        }
      ],
      "name": "Trade",
      "type": "event"
    },
    {
      "anonymous": false,
      "inputs": [
        {
          "indexed": true,
          "internalType": "address",
          "name": "from",
          "type": "address"
        },
        {
          "indexed": true,
          "internalType": "address",
          "name": "to",
          "type": "address"
        },
        {
          "indexed": true,
          "internalType": "uint256",
          "name": "tokenId",
          "type": "uint256"
        }
      ],
      "name": "Transfer",
      "type": "event"
    },
    {
      "anonymous": false,
      "inputs": [
        {
          "indexed": true,
          "internalType": "address",
          "name": "account",
          "type": "address"
        },
        {
          "indexed": false,
          "internalType": "uint256",
          "name": "amount",
          "type": "uint256"
        }
      ],
      "name": "Withdraw",
      "type": "event"
    },
    {
      "inputs": [],
      "name": "SALE_LIMIT",
      "outputs": [
        {
          "internalType": "uint256",
          "name": "",
          "type": "uint256"
        }
      ],
      "stateMutability": "view",
      "type": "function"
    },
    {
      "inputs": [],
      "name": "TOKEN_LIMIT",
      "outputs": [
        {
          "internalType": "uint256",
          "name": "",
          "type": "uint256"
        }
      ],
      "stateMutability": "view",
      "type": "function"
    },
    {
      "inputs": [
        {
          "internalType": "uint256",
          "name": "_tokenId",
          "type": "uint256"
        },
        {
          "internalType": "uint256",
          "name": "minPrice",
          "type": "uint256"
        }
      ],
      "name": "acceptBeebitBid",
      "outputs": [
        {
          "internalType": "bool",
          "name": "",
          "type": "bool"
        }
      ],
      "stateMutability": "nonpayable",
      "type": "function"
    },
    {
      "inputs": [
        {
          "internalType": "address",
          "name": "maker",
          "type": "address"
        },
        {
          "internalType": "address",
          "name": "taker",
          "type": "address"
        },
        {
          "internalType": "uint256",
          "name": "makerWei",
          "type": "uint256"
        },
        {
          "internalType": "uint256[]",
          "name": "makerIds",
          "type": "uint256[]"
        },
        {
          "internalType": "uint256",
          "name": "takerWei",
          "type": "uint256"
        },
        {
          "internalType": "uint256[]",
          "name": "takerIds",
          "type": "uint256[]"
        },
        {
          "internalType": "uint256",
          "name": "expiry",
          "type": "uint256"
        },
        {
          "internalType": "uint256",
          "name": "salt",
          "type": "uint256"
        },
        {
          "internalType": "bytes",
          "name": "signature",
          "type": "bytes"
        }
      ],
      "name": "acceptTrade",
      "outputs": [],
      "stateMutability": "payable",
      "type": "function"
    },
    {
      "inputs": [
        {
          "internalType": "address",
          "name": "_approved",
          "type": "address"
        },
        {
          "internalType": "uint256",
          "name": "_tokenId",
          "type": "uint256"
        }
      ],
      "name": "approve",
      "outputs": [],
      "stateMutability": "nonpayable",
      "type": "function"
    },
    {
      "inputs": [
        {
          "internalType": "address",
          "name": "_owner",
          "type": "address"
        }
      ],
      "name": "balanceOf",
      "outputs": [
        {
          "internalType": "uint256",
          "name": "",
          "type": "uint256"
        }
      ],
      "stateMutability": "view",
      "type": "function"
    },
    {
      "inputs": [
        {
          "internalType": "uint256",
          "name": "",
          "type": "uint256"
        }
      ],
      "name": "beebitsBids",
      "outputs": [
        {
          "internalType": "bool",
          "name": "hasBid",
          "type": "bool"
        },
        {
          "internalType": "uint256",
          "name": "beebitTokenId",
          "type": "uint256"
        },
        {
          "internalType": "address",
          "name": "bidder",
          "type": "address"
        },
        {
          "internalType": "uint256",
          "name": "bidValue",
          "type": "uint256"
        }
      ],
      "stateMutability": "view",
      "type": "function"
    },
    {
      "inputs": [
        {
          "internalType": "uint256",
          "name": "",
          "type": "uint256"
        }
      ],
      "name": "beebitsListings",
      "outputs": [
        {
          "internalType": "bool",
          "name": "isForSale",
          "type": "bool"
        },
        {
          "internalType": "uint256",
          "name": "tokenId",
          "type": "uint256"
        },
        {
          "internalType": "address",
          "name": "seller",
          "type": "address"
        },
        {
          "internalType": "uint256",
          "name": "minimumValue",
          "type": "uint256"
        },
        {
          "internalType": "address",
          "name": "sellTo",
          "type": "address"
        }
      ],
      "stateMutability": "view",
      "type": "function"
    },
    {
      "inputs": [
        {
          "internalType": "uint256",
          "name": "_tokenId",
          "type": "uint256"
        }
      ],
      "name": "bidForListing",
      "outputs": [],
      "stateMutability": "payable",
      "type": "function"
    },
    {
      "inputs": [
        {
          "internalType": "address",
          "name": "",
          "type": "address"
        }
      ],
      "name": "bnbBalance",
      "outputs": [
        {
          "internalType": "uint256",
          "name": "",
          "type": "uint256"
        }
      ],
      "stateMutability": "view",
      "type": "function"
    },
    {
      "inputs": [
        {
          "internalType": "uint256",
          "name": "_tokenId",
          "type": "uint256"
        }
      ],
      "name": "buyBeebit",
      "outputs": [
        {
          "internalType": "bool",
          "name": "",
          "type": "bool"
        }
      ],
      "stateMutability": "payable",
      "type": "function"
    },
    {
      "inputs": [
        {
          "internalType": "address",
          "name": "maker",
          "type": "address"
        },
        {
          "internalType": "address",
          "name": "taker",
          "type": "address"
        },
        {
          "internalType": "uint256",
          "name": "makerWei",
          "type": "uint256"
        },
        {
          "internalType": "uint256[]",
          "name": "makerIds",
          "type": "uint256[]"
        },
        {
          "internalType": "uint256",
          "name": "takerWei",
          "type": "uint256"
        },
        {
          "internalType": "uint256[]",
          "name": "takerIds",
          "type": "uint256[]"
        },
        {
          "internalType": "uint256",
          "name": "expiry",
          "type": "uint256"
        },
        {
          "internalType": "uint256",
          "name": "salt",
          "type": "uint256"
        }
      ],
      "name": "cancelOffer",
      "outputs": [],
      "stateMutability": "nonpayable",
      "type": "function"
    },
    {
      "inputs": [
        {
          "internalType": "bytes32",
          "name": "",
          "type": "bytes32"
        }
      ],
      "name": "cancelledListings",
      "outputs": [
        {
          "internalType": "bool",
          "name": "",
          "type": "bool"
        }
      ],
      "stateMutability": "view",
      "type": "function"
    },
    {
      "inputs": [
        {
          "internalType": "bytes32",
          "name": "",
          "type": "bytes32"
        }
      ],
      "name": "cancelledOffers",
      "outputs": [
        {
          "internalType": "bool",
          "name": "",
          "type": "bool"
        }
      ],
      "stateMutability": "view",
      "type": "function"
    },
    {
      "inputs": [
        {
          "internalType": "uint256",
          "name": "_newSaleCount",
          "type": "uint256"
        }
      ],
      "name": "changeSaleCount",
      "outputs": [],
      "stateMutability": "nonpayable",
      "type": "function"
    },
    {
      "inputs": [],
      "name": "communityGrant",
      "outputs": [
        {
          "internalType": "bool",
          "name": "",
          "type": "bool"
        }
      ],
      "stateMutability": "view",
      "type": "function"
    },
    {
      "inputs": [],
      "name": "contentHash",
      "outputs": [
        {
          "internalType": "string",
          "name": "",
          "type": "string"
        }
      ],
      "stateMutability": "view",
      "type": "function"
    },
    {
      "inputs": [],
      "name": "contractSealed",
      "outputs": [
        {
          "internalType": "bool",
          "name": "",
          "type": "bool"
        }
      ],
      "stateMutability": "view",
      "type": "function"
    },
    {
      "inputs": [
        {
          "internalType": "uint256",
          "name": "",
          "type": "uint256"
        }
      ],
      "name": "creatorNftMints",
      "outputs": [
        {
          "internalType": "uint256",
          "name": "",
          "type": "uint256"
        }
      ],
      "stateMutability": "view",
      "type": "function"
    },
    {
      "inputs": [
        {
          "internalType": "uint256",
          "name": "_tokenId",
          "type": "uint256"
        },
        {
          "internalType": "address",
          "name": "_newSeller",
          "type": "address"
        },
        {
          "internalType": "bytes32",
          "name": "_listingHash",
          "type": "bytes32"
        }
      ],
      "name": "deListBeebit",
      "outputs": [
        {
          "internalType": "bool",
          "name": "",
          "type": "bool"
        }
      ],
      "stateMutability": "nonpayable",
      "type": "function"
    },
    {
      "inputs": [],
      "name": "deposit",
      "outputs": [],
      "stateMutability": "payable",
      "type": "function"
    },
    {
      "inputs": [
        {
          "internalType": "uint256",
          "name": "_quantity",
          "type": "uint256"
        },
        {
          "internalType": "address",
          "name": "recipient",
          "type": "address"
        },
        {
          "internalType": "uint256",
          "name": "_deadline",
          "type": "uint256"
        }
      ],
      "name": "devMint",
      "outputs": [
        {
          "internalType": "bytes32",
          "name": "",
          "type": "bytes32"
        }
      ],
      "stateMutability": "payable",
      "type": "function"
    },
    {
      "inputs": [],
      "name": "endCommunityGrant",
      "outputs": [],
      "stateMutability": "nonpayable",
      "type": "function"
    },
    {
      "inputs": [
        {
          "internalType": "uint256",
          "name": "_tokenId",
          "type": "uint256"
        }
      ],
      "name": "getApproved",
      "outputs": [
        {
          "internalType": "address",
          "name": "",
          "type": "address"
        }
      ],
      "stateMutability": "view",
      "type": "function"
    },
    {
      "inputs": [
        {
          "internalType": "address",
          "name": "maker",
          "type": "address"
        },
        {
          "internalType": "address",
          "name": "taker",
          "type": "address"
        },
        {
          "internalType": "uint256",
          "name": "makerWei",
          "type": "uint256"
        },
        {
          "internalType": "uint256[]",
          "name": "makerIds",
          "type": "uint256[]"
        },
        {
          "internalType": "uint256",
          "name": "takerWei",
          "type": "uint256"
        },
        {
          "internalType": "uint256[]",
          "name": "takerIds",
          "type": "uint256[]"
        },
        {
          "internalType": "uint256",
          "name": "expiry",
          "type": "uint256"
        },
        {
          "internalType": "uint256",
          "name": "salt",
          "type": "uint256"
        }
      ],
      "name": "hashToSign",
      "outputs": [
        {
          "internalType": "bytes32",
          "name": "",
          "type": "bytes32"
        }
      ],
      "stateMutability": "pure",
      "type": "function"
    },
    {
      "inputs": [
        {
          "internalType": "uint256",
          "name": "",
          "type": "uint256"
        }
      ],
      "name": "idToOwner",
      "outputs": [
        {
          "internalType": "address",
          "name": "",
          "type": "address"
        }
      ],
      "stateMutability": "view",
      "type": "function"
    },
    {
      "inputs": [
        {
          "internalType": "uint256",
          "name": "",
          "type": "uint256"
        }
      ],
      "name": "idToOwnerIndex",
      "outputs": [
        {
          "internalType": "uint256",
          "name": "",
          "type": "uint256"
        }
      ],
      "stateMutability": "view",
      "type": "function"
    },
    {
      "inputs": [
        {
          "internalType": "address",
          "name": "_owner",
          "type": "address"
        },
        {
          "internalType": "address",
          "name": "_operator",
          "type": "address"
        }
      ],
      "name": "isApprovedForAll",
      "outputs": [
        {
          "internalType": "bool",
          "name": "",
          "type": "bool"
        }
      ],
      "stateMutability": "view",
      "type": "function"
    },
    {
      "inputs": [
        {
          "internalType": "uint256",
          "name": "_askerTokenId",
          "type": "uint256"
        },
        {
          "internalType": "uint256",
          "name": "_askerMinPrice",
          "type": "uint256"
        }
      ],
      "name": "listBeebit",
      "outputs": [
        {
          "internalType": "bool",
          "name": "",
          "type": "bool"
        }
      ],
      "stateMutability": "nonpayable",
      "type": "function"
    },
    {
      "inputs": [],
      "name": "marketPaused",
      "outputs": [
        {
          "internalType": "bool",
          "name": "",
          "type": "bool"
        }
      ],
      "stateMutability": "view",
      "type": "function"
    },
    {
      "inputs": [
        {
          "internalType": "uint256",
          "name": "_deadline",
          "type": "uint256"
        }
      ],
      "name": "mint",
      "outputs": [
        {
          "internalType": "bytes32",
          "name": "",
          "type": "bytes32"
        }
      ],
      "stateMutability": "payable",
      "type": "function"
    },
    {
      "inputs": [
        {
          "internalType": "uint256",
          "name": "_createVia",
          "type": "uint256"
        },
        {
          "internalType": "uint256",
          "name": "_deadline",
          "type": "uint256"
        }
      ],
      "name": "mintWithBunk",
      "outputs": [
        {
          "internalType": "bytes32",
          "name": "",
          "type": "bytes32"
        }
      ],
      "stateMutability": "payable",
      "type": "function"
    },
    {
      "inputs": [],
      "name": "mintsRemaining",
      "outputs": [
        {
          "internalType": "uint256",
          "name": "",
          "type": "uint256"
        }
      ],
      "stateMutability": "view",
      "type": "function"
    },
    {
      "inputs": [],
      "name": "name",
      "outputs": [
        {
          "internalType": "string",
          "name": "_name",
          "type": "string"
        }
      ],
      "stateMutability": "view",
      "type": "function"
    },
    {
      "inputs": [
        {
          "internalType": "uint256",
          "name": "_tokenId",
          "type": "uint256"
        }
      ],
      "name": "ownerOf",
      "outputs": [
        {
          "internalType": "address",
          "name": "_owner",
          "type": "address"
        }
      ],
      "stateMutability": "view",
      "type": "function"
    },
    {
      "inputs": [
        {
          "internalType": "address",
          "name": "",
          "type": "address"
        },
        {
          "internalType": "uint256",
          "name": "",
          "type": "uint256"
        }
      ],
      "name": "ownerToIds",
      "outputs": [
        {
          "internalType": "uint256",
          "name": "",
          "type": "uint256"
        }
      ],
      "stateMutability": "view",
      "type": "function"
    },
    {
      "inputs": [
        {
          "internalType": "bool",
          "name": "_paused",
          "type": "bool"
        }
      ],
      "name": "pauseMarket",
      "outputs": [],
      "stateMutability": "nonpayable",
      "type": "function"
    },
    {
      "inputs": [],
      "name": "publicSale",
      "outputs": [
        {
          "internalType": "bool",
          "name": "",
          "type": "bool"
        }
      ],
      "stateMutability": "view",
      "type": "function"
    },
    {
      "inputs": [
        {
          "internalType": "bytes32",
          "name": "requestId",
          "type": "bytes32"
        },
        {
          "internalType": "uint256",
          "name": "randomness",
          "type": "uint256"
        }
      ],
      "name": "rawFulfillRandomness",
      "outputs": [],
      "stateMutability": "nonpayable",
      "type": "function"
    },
    {
      "inputs": [
        {
          "internalType": "bytes32",
          "name": "",
          "type": "bytes32"
        }
      ],
      "name": "requestToMinters",
      "outputs": [
        {
          "internalType": "address",
          "name": "",
          "type": "address"
        }
      ],
      "stateMutability": "view",
      "type": "function"
    },
    {
      "inputs": [
        {
          "internalType": "address",
          "name": "",
          "type": "address"
        }
      ],
      "name": "requesters",
      "outputs": [
        {
          "internalType": "bytes32",
          "name": "requestId",
          "type": "bytes32"
        },
        {
          "internalType": "bool",
          "name": "isClaiming",
          "type": "bool"
        },
        {
          "internalType": "uint256",
          "name": "bunkIndex",
          "type": "uint256"
        }
      ],
      "stateMutability": "view",
      "type": "function"
    },
    {
      "inputs": [
        {
          "internalType": "address",
          "name": "_from",
          "type": "address"
        },
        {
          "internalType": "address",
          "name": "_to",
          "type": "address"
        },
        {
          "internalType": "uint256",
          "name": "_tokenId",
          "type": "uint256"
        }
      ],
      "name": "safeTransferFrom",
      "outputs": [],
      "stateMutability": "nonpayable",
      "type": "function"
    },
    {
      "inputs": [
        {
          "internalType": "address",
          "name": "_from",
          "type": "address"
        },
        {
          "internalType": "address",
          "name": "_to",
          "type": "address"
        },
        {
          "internalType": "uint256",
          "name": "_tokenId",
          "type": "uint256"
        },
        {
          "internalType": "bytes",
          "name": "_data",
          "type": "bytes"
        }
      ],
      "name": "safeTransferFrom",
      "outputs": [],
      "stateMutability": "nonpayable",
      "type": "function"
    },
    {
      "inputs": [],
      "name": "saleDuration",
      "outputs": [
        {
          "internalType": "uint256",
          "name": "",
          "type": "uint256"
        }
      ],
      "stateMutability": "view",
      "type": "function"
    },
    {
      "inputs": [],
      "name": "saleStartTime",
      "outputs": [
        {
          "internalType": "uint256",
          "name": "",
          "type": "uint256"
        }
      ],
      "stateMutability": "view",
      "type": "function"
    },
    {
      "inputs": [],
      "name": "sealContract",
      "outputs": [],
      "stateMutability": "nonpayable",
      "type": "function"
    },
    {
      "inputs": [
        {
          "internalType": "address",
          "name": "_operator",
          "type": "address"
        },
        {
          "internalType": "bool",
          "name": "_approved",
          "type": "bool"
        }
      ],
      "name": "setApprovalForAll",
      "outputs": [],
      "stateMutability": "nonpayable",
      "type": "function"
    },
    {
      "inputs": [
        {
          "internalType": "address",
          "name": "_linkSwapperAddress",
          "type": "address"
        }
      ],
      "name": "setLinkSwapper",
      "outputs": [],
      "stateMutability": "nonpayable",
      "type": "function"
    },
    {
      "inputs": [
        {
          "internalType": "uint256",
          "name": "_price",
          "type": "uint256"
        },
        {
          "internalType": "uint256",
          "name": "_saleDuration",
          "type": "uint256"
        }
      ],
      "name": "startSale",
      "outputs": [],
      "stateMutability": "nonpayable",
      "type": "function"
    },
    {
      "inputs": [
        {
          "internalType": "bytes4",
          "name": "_interfaceID",
          "type": "bytes4"
        }
      ],
      "name": "supportsInterface",
      "outputs": [
        {
          "internalType": "bool",
          "name": "",
          "type": "bool"
        }
      ],
      "stateMutability": "view",
      "type": "function"
    },
    {
      "inputs": [],
      "name": "symbol",
      "outputs": [
        {
          "internalType": "string",
          "name": "_symbol",
          "type": "string"
        }
      ],
      "stateMutability": "view",
      "type": "function"
    },
    {
      "inputs": [
        {
          "internalType": "bool",
          "name": "_mode",
          "type": "bool"
        }
      ],
      "name": "toggleDevMintMode",
      "outputs": [],
      "stateMutability": "nonpayable",
      "type": "function"
    },
    {
      "inputs": [
        {
          "internalType": "uint256",
          "name": "index",
          "type": "uint256"
        }
      ],
      "name": "tokenByIndex",
      "outputs": [
        {
          "internalType": "uint256",
          "name": "",
          "type": "uint256"
        }
      ],
      "stateMutability": "pure",
      "type": "function"
    },
    {
      "inputs": [
        {
          "internalType": "address",
          "name": "_owner",
          "type": "address"
        },
        {
          "internalType": "uint256",
          "name": "_index",
          "type": "uint256"
        }
      ],
      "name": "tokenOfOwnerByIndex",
      "outputs": [
        {
          "internalType": "uint256",
          "name": "",
          "type": "uint256"
        }
      ],
      "stateMutability": "view",
      "type": "function"
    },
    {
      "inputs": [
        {
          "internalType": "uint256",
          "name": "_tokenId",
          "type": "uint256"
        }
      ],
      "name": "tokenURI",
      "outputs": [
        {
          "internalType": "string",
          "name": "",
          "type": "string"
        }
      ],
      "stateMutability": "view",
      "type": "function"
    },
    {
      "inputs": [],
      "name": "totalSupply",
      "outputs": [
        {
          "internalType": "uint256",
          "name": "",
          "type": "uint256"
        }
      ],
      "stateMutability": "view",
      "type": "function"
    },
    {
      "inputs": [
        {
          "internalType": "address",
          "name": "maker",
          "type": "address"
        },
        {
          "internalType": "address",
          "name": "taker",
          "type": "address"
        },
        {
          "internalType": "uint256",
          "name": "makerWei",
          "type": "uint256"
        },
        {
          "internalType": "uint256[]",
          "name": "makerIds",
          "type": "uint256[]"
        },
        {
          "internalType": "uint256",
          "name": "takerWei",
          "type": "uint256"
        },
        {
          "internalType": "uint256[]",
          "name": "takerIds",
          "type": "uint256[]"
        },
        {
          "internalType": "uint256",
          "name": "expiry",
          "type": "uint256"
        },
        {
          "internalType": "uint256",
          "name": "salt",
          "type": "uint256"
        },
        {
          "internalType": "bytes",
          "name": "signature",
          "type": "bytes"
        }
      ],
      "name": "tradeValid",
      "outputs": [
        {
          "internalType": "bool",
          "name": "",
          "type": "bool"
        }
      ],
      "stateMutability": "view",
      "type": "function"
    },
    {
      "inputs": [
        {
          "internalType": "address",
          "name": "_from",
          "type": "address"
        },
        {
          "internalType": "address",
          "name": "_to",
          "type": "address"
        },
        {
          "internalType": "uint256",
          "name": "_tokenId",
          "type": "uint256"
        }
      ],
      "name": "transferFrom",
      "outputs": [],
      "stateMutability": "nonpayable",
      "type": "function"
    },
    {
      "inputs": [
        {
          "internalType": "uint256",
          "name": "amount",
          "type": "uint256"
        }
      ],
      "name": "withdraw",
      "outputs": [],
      "stateMutability": "nonpayable",
      "type": "function"
    },
    {
      "inputs": [
        {
          "internalType": "uint256",
          "name": "_tokenId",
          "type": "uint256"
        }
      ],
      "name": "withdrawBeebitBid",
      "outputs": [
        {
          "internalType": "bool",
          "name": "",
          "type": "bool"
        }
      ],
      "stateMutability": "nonpayable",
      "type": "function"
    }
  ],
  "bytecode": "0x610140604052602e60e08181529062006cc56101003980516200002b9160029160209091019062000232565b50612710600355604080518082019091526007808252664265656269747360c81b60209092019182526200006291600d9162000232565b5060408051808201909152600380825262e29a8760e81b60209092019182526200008f91600e9162000232565b506000600f81905560108190556011556016805461ffff60a81b1960ff60a01b19909116600160a01b17169055348015620000c957600080fd5b5060405162006cf338038062006cf3833981810160405260c0811015620000ef57600080fd5b508051602080830151604084015160608086015160808088015160a098890151600160008181556001600160601b031995871b8616909b529590941b909216905260049094527f9fe05126d2d9ecf60592e254dead906a4b2e492f36cca727682c38e9008c6ac1805460ff1990811684179091557f4267c0a6fd96b7a87f183ee8744f24d011423cd0e0142b3f563f183d8d9a456b80548216841790557f37d12c04da6fbc6cb50ddd5422176e58bb06358c56bda46618e6bc919ed84fa08054821684179055635b5e139f60e01b9096527e24030bcf4927897dffe721c2d8dda4bfd8910861687c42b03a463b43b041478054909616909117909455601480546001600160a01b03199081163317909155601280546001600160a01b03958616908316179055601580549490921693169290921790915560135560c052620002de565b828054600181600116156101000203166002900490600052602060002090601f0160209004810192826200026a5760008555620002b5565b82601f106200028557805160ff1916838001178555620002b5565b82800160010185558215620002b5579182015b82811115620002b557825182559160200191906001019062000298565b50620002c3929150620002c7565b5090565b5b80821115620002c35760008155600101620002c8565b60805160601c60a05160601c60c0516169876200033e60003980612a645280612c0152806139ce5280613b62528061471a52806148c9528061590e5280615a0d525080613f69528061640a52508061592f52806163db52506169876000f3fe6080604052600436106103975760003560e01c80636352211e116101dc578063b88d4fde11610102578063d6f8307f116100a0578063ec613e4c1161006f578063ec613e4c14611263578063f4f3122e14611296578063f592934c146112c6578063feb3d3d61461142457610397565b8063d6f8307f14611174578063d84e4f5a146111c5578063e0ca1f67146111f8578063e985e9c51461122857610397565b8063c87b56dd116100dc578063c87b56dd14610f43578063d0e30db014610f6d578063d357b01e14610f75578063d3d6c76714610f8a57610397565b8063b88d4fde14610e54578063b9f7e21814610eef578063bfc206ed14610f1957610397565b80638a84fe001161017a5780639f7bf762116101495780639f7bf76214610dbd578063a0712d6814610de7578063a22cb46514610e04578063b650163714610e3f57610397565b80638a84fe0014610bea57806394985ddd14610d485780639549522e14610d7857806395d89b4114610da857610397565b80636d630b8d116101b65780636d630b8d14610ad057806370a0823114610b2a5780637c6602ff14610b5d578063880fa0e814610b8757610397565b80636352211e14610a7c578063646c2e3314610aa657806368bd580e14610abb57610397565b80632f745c59116102c157806342842e0e1161025f5780634f6ccce71161022e5780634f6ccce7146109d75780635b93488814610a015780635ec390d814610a1e5780635fbcf27514610a4a57610397565b806342842e0e1461093857806344c66be71461097b578063456d020414610990578063475e41de146109ad57610397565b806337ba76a81161029b57806337ba76a8146108ac5780633a283bd2146108d65780633a682774146108eb57806340adac5f1461090e57610397565b80632f745c591461084957806333bc1c5c146108825780633711d9fb1461089757610397565b8063095ea7b311610339578063212e8f6711610308578063212e8f671461079b57806323b872dd146107b05780632636f27d146107f35780632e1a7d4d1461081f57610397565b8063095ea7b3146105595780630faadcf61461059457806318160ddd146107715780631cbaee2d1461078657610397565b806304935e511161037557806304935e51146104355780630614a6ba1461047457806306fdde0314610489578063081812fc1461051357610397565b806301ffc9a71461039c57806302a73507146103e4578063031bd4c41461040e575b600080fd5b3480156103a857600080fd5b506103d0600480360360208110156103bf57600080fd5b50356001600160e01b03191661145d565b604080519115158252519081900360200190f35b3480156103f057600080fd5b506103d06004803603602081101561040757600080fd5b5035611480565b34801561041a57600080fd5b50610423611495565b60408051918252519081900360200190f35b34801561044157600080fd5b506103d06004803603606081101561045857600080fd5b508035906001600160a01b03602082013516906040013561149b565b34801561048057600080fd5b506103d061173c565b34801561049557600080fd5b5061049e61174c565b6040805160208082528351818301528351919283929083019185019080838360005b838110156104d85781810151838201526020016104c0565b50505050905090810190601f1680156105055780820380516001836020036101000a031916815260200191505b509250505060405180910390f35b34801561051f57600080fd5b5061053d6004803603602081101561053657600080fd5b50356117e2565b604080516001600160a01b039092168252519081900360200190f35b34801561056557600080fd5b506105926004803603604081101561057c57600080fd5b506001600160a01b03813516906020013561185b565b005b61059260048036036101208110156105ab57600080fd5b6001600160a01b03823581169260208101359091169160408201359190810190608081016060820135600160201b8111156105e557600080fd5b8201836020820111156105f757600080fd5b803590602001918460208302840111600160201b8311171561061857600080fd5b91908080602002602001604051908101604052809392919081815260200183836020028082843760009201919091525092958435959094909350604081019250602001359050600160201b81111561066f57600080fd5b82018360208201111561068157600080fd5b803590602001918460208302840111600160201b831117156106a257600080fd5b9190808060200260200160405190810160405280939291908181526020018383602002808284376000920191909152509295843595602086013595919450925060608101915060400135600160201b8111156106fd57600080fd5b82018360208201111561070f57600080fd5b803590602001918460018302840111600160201b8311171561073057600080fd5b91908080601f0160208091040260200160405190810160405280939291908181526020018383808284376000920191909152509295506119cd945050505050565b34801561077d57600080fd5b50610423611f04565b34801561079257600080fd5b50610423611f0a565b3480156107a757600080fd5b50610423611f10565b3480156107bc57600080fd5b50610592600480360360608110156107d357600080fd5b506001600160a01b03813581169160208101359091169060400135611f16565b3480156107ff57600080fd5b506105926004803603602081101561081657600080fd5b503515156120ec565b34801561082b57600080fd5b506105926004803603602081101561084257600080fd5b503561218f565b34801561085557600080fd5b506104236004803603604081101561086c57600080fd5b506001600160a01b03813516906020013561232b565b34801561088e57600080fd5b506103d0612386565b3480156108a357600080fd5b50610423612396565b3480156108b857600080fd5b506103d0600480360360208110156108cf57600080fd5b503561239c565b3480156108e257600080fd5b506103d0612752565b6104236004803603604081101561090157600080fd5b508035906020013561275b565b34801561091a57600080fd5b506104236004803603602081101561093157600080fd5b5035612d14565b34801561094457600080fd5b506105926004803603606081101561095b57600080fd5b506001600160a01b03813581169160208101359091169060400135612d26565b34801561098757600080fd5b50610423612d46565b610592600480360360208110156109a657600080fd5b5035612d64565b3480156109b957600080fd5b50610592600480360360208110156109d057600080fd5b5035613106565b3480156109e357600080fd5b50610423600480360360208110156109fa57600080fd5b503561315b565b6103d060048036036020811015610a1757600080fd5b5035613172565b348015610a2a57600080fd5b5061059260048036036020811015610a4157600080fd5b50351515613787565b61042360048036036060811015610a6057600080fd5b508035906001600160a01b03602082013516906040013561383a565b348015610a8857600080fd5b5061053d60048036036020811015610a9f57600080fd5b5035613c48565b348015610ab257600080fd5b5061049e613cc0565b348015610ac757600080fd5b50610592613d4b565b348015610adc57600080fd5b50610afa60048036036020811015610af357600080fd5b5035613dac565b60408051941515855260208501939093526001600160a01b03909116838301526060830152519081900360800190f35b348015610b3657600080fd5b5061042360048036036020811015610b4d57600080fd5b50356001600160a01b0316613de3565b348015610b6957600080fd5b5061053d60048036036020811015610b8057600080fd5b5035613e07565b348015610b9357600080fd5b50610bb160048036036020811015610baa57600080fd5b5035613e22565b60408051951515865260208601949094526001600160a01b03928316858501526060850191909152166080830152519081900360a00190f35b348015610bf657600080fd5b506105926004803603610100811015610c0e57600080fd5b6001600160a01b03823581169260208101359091169160408201359190810190608081016060820135600160201b811115610c4857600080fd5b820183602082011115610c5a57600080fd5b803590602001918460208302840111600160201b83111715610c7b57600080fd5b91908080602002602001604051908101604052809392919081815260200183836020028082843760009201919091525092958435959094909350604081019250602001359050600160201b811115610cd257600080fd5b820183602082011115610ce457600080fd5b803590602001918460208302840111600160201b83111715610d0557600080fd5b9190808060200260200160405190810160405280939291908181526020018383602002808284376000920191909152509295505082359350505060200135613e60565b348015610d5457600080fd5b5061059260048036036040811015610d6b57600080fd5b5080359060200135613f5e565b348015610d8457600080fd5b506103d060048036036040811015610d9b57600080fd5b5080359060200135613fe9565b348015610db457600080fd5b5061049e6144f8565b348015610dc957600080fd5b506103d060048036036020811015610de057600080fd5b5035614559565b61042360048036036020811015610dfd57600080fd5b503561456e565b348015610e1057600080fd5b5061059260048036036040811015610e2757600080fd5b506001600160a01b03813516906020013515156149e9565b348015610e4b57600080fd5b506103d0614a57565b348015610e6057600080fd5b5061059260048036036080811015610e7757600080fd5b6001600160a01b03823581169260208101359091169160408201359190810190608081016060820135600160201b811115610eb157600080fd5b820183602082011115610ec357600080fd5b803590602001918460018302840111600160201b83111715610ee457600080fd5b509092509050614a65565b348015610efb57600080fd5b5061042360048036036020811015610f1257600080fd5b5035614aae565b348015610f2557600080fd5b5061053d60048036036020811015610f3c57600080fd5b5035614ac0565b348015610f4f57600080fd5b5061049e60048036036020811015610f6657600080fd5b5035614adb565b610592614bd9565b348015610f8157600080fd5b50610592614c3e565b348015610f9657600080fd5b506103d06004803603610120811015610fae57600080fd5b6001600160a01b03823581169260208101359091169160408201359190810190608081016060820135600160201b811115610fe857600080fd5b820183602082011115610ffa57600080fd5b803590602001918460208302840111600160201b8311171561101b57600080fd5b91908080602002602001604051908101604052809392919081815260200183836020028082843760009201919091525092958435959094909350604081019250602001359050600160201b81111561107257600080fd5b82018360208201111561108457600080fd5b803590602001918460208302840111600160201b831117156110a557600080fd5b9190808060200260200160405190810160405280939291908181526020018383602002808284376000920191909152509295843595602086013595919450925060608101915060400135600160201b81111561110057600080fd5b82018360208201111561111257600080fd5b803590602001918460018302840111600160201b8311171561113357600080fd5b91908080601f016020809104026020016040519081016040528093929190818152602001838380828437600092019190915250929550614cdc945050505050565b34801561118057600080fd5b506111a76004803603602081101561119757600080fd5b50356001600160a01b0316615110565b60408051938452911515602084015282820152519081900360600190f35b3480156111d157600080fd5b50610423600480360360208110156111e857600080fd5b50356001600160a01b0316615134565b34801561120457600080fd5b506103d06004803603604081101561121b57600080fd5b5080359060200135615146565b34801561123457600080fd5b506103d06004803603604081101561124b57600080fd5b506001600160a01b0381358116916020013516615408565b34801561126f57600080fd5b506105926004803603602081101561128657600080fd5b50356001600160a01b0316615436565b3480156112a257600080fd5b50610592600480360360408110156112b957600080fd5b50803590602001356154a8565b3480156112d257600080fd5b5061042360048036036101008110156112ea57600080fd5b6001600160a01b03823581169260208101359091169160408201359190810190608081016060820135600160201b81111561132457600080fd5b82018360208201111561133657600080fd5b803590602001918460208302840111600160201b8311171561135757600080fd5b91908080602002602001604051908101604052809392919081815260200183836020028082843760009201919091525092958435959094909350604081019250602001359050600160201b8111156113ae57600080fd5b8201836020820111156113c057600080fd5b803590602001918460208302840111600160201b831117156113e157600080fd5b919080806020026020016040519081016040528093929190818152602001838360200280828437600092019190915250929550508235935050506020013561555d565b34801561143057600080fd5b506104236004803603604081101561144757600080fd5b506001600160a01b0381351690602001356155c0565b6001600160e01b0319811660009081526004602052604090205460ff165b919050565b601f6020526000908152604090205460ff1681565b614e2081565b601a54600090849060ff16156114eb576040805162461bcd60e51b815260206004820152601060248201526f1b585c9ad95d081a5cc81c185d5cd95960821b604482015290519081900360640190fd5b601a54610100900460ff161561153d576040805162461bcd60e51b815260206004820152601260248201527118dbdb9d1c9858dd081a5cc81cd9585b195960721b604482015290519081900360640190fd5b614e20811115801561154f5750600081115b611593576040805162461bcd60e51b815260206004820152601060248201526f1a5b9d985b1a59081d1bdad95b881a5960821b604482015290519081900360640190fd5b6000858152600860205260409020546001600160a01b031633146115f8576040805162461bcd60e51b815260206004820152601760248201527631b0b63632b9103737ba103132b2b134ba1037bbb732b960491b604482015290519081900360640190fd5b6000858152601c602052604090205460ff1661165b576040805162461bcd60e51b815260206004820152601960248201527f746f6b656e206e6f7420696e2073616c6520616c726561647900000000000000604482015290519081900360640190fd5b6040805160a081018252600080825260208083018981526001600160a01b03808a1685870190815260608601858152608087018681528d8752601c86528887209751885490151560ff19918216178955945160018981019190915592516002890180549186166001600160a01b0319928316179055915160038901555160049097018054979093169616959095179055878352601f82529184902080549092169092179055815187815291517ffc8c8fa0c3012532727758399e7eb91f21daa8ffbc505378b7e044164f5066ce9281900390910190a1506001949350505050565b601654600160a01b900460ff1681565b600d8054604080516020601f60026000196101006001881615020190951694909404938401819004810282018101909252828152606093909290918301828280156117d85780601f106117ad576101008083540402835291602001916117d8565b820191906000526020600020905b8154815290600101906020018083116117bb57829003601f168201915b5050505050905090565b60008181526008602052604081205482906001600160a01b031661183e576040805162461bcd60e51b815260206004820152600e60248201526d24b73b30b634b2103a37b5b2b71760911b604482015290519081900360640190fd5b50506000908152600660205260409020546001600160a01b031690565b60008181526008602052604090205481906001600160a01b0316338114806118a657506001600160a01b038116600090815260076020908152604080832033845290915290205460ff165b6118e9576040805162461bcd60e51b815260206004820152600f60248201526e21b0b73737ba1037b832b930ba329760891b604482015290519081900360640190fd5b60008381526008602052604090205483906001600160a01b0316611945576040805162461bcd60e51b815260206004820152600e60248201526d24b73b30b634b2103a37b5b2b71760911b604482015290519081900360640190fd5b6000848152600860205260409020546001600160a01b0390811690861681141561196e57600080fd5b60008581526006602052604080822080546001600160a01b0319166001600160a01b038a811691821790925591518893918516917f8c5be1e5ebec7d5bd14f71427d1e84f3dd0314c0f7b2291e5b200ac8c7c3b92591a4505050505050565b60026000541415611a13576040805162461bcd60e51b815260206004820152601f60248201526000805160206167cd833981519152604482015290519081900360640190fd5b6002600055601a5460ff1615611a64576040805162461bcd60e51b815260206004820152601160248201527036b0b935b2ba1034b9903830bab9b2b21760791b604482015290519081900360640190fd5b336001600160a01b038a161415611ac2576040805162461bcd60e51b815260206004820152601c60248201527f63616e277420616363657074206f6e6573206f776e2074726164652e00000000604482015290519081900360640190fd5b60006040518061010001604052808b6001600160a01b031681526020018a6001600160a01b031681526020018981526020018881526020018781526020018681526020018581526020018481525090506000341115611b7f57336000908152601d6020526040902054611b3590346155f1565b336000818152601d6020908152604091829020939093558051348152905191927fe1fffcc4923d04b559f4d29a8bfc6cda04eb5b0d3c460751c2402c5c5cc9109c92918290030190a25b60208101516001600160a01b03161580611ba5575060208101516001600160a01b031633145b611bf6576040805162461bcd60e51b815260206004820181905260248201527f6e6f742074686520726563697069656e74206f662074686973206f666665722e604482015290519081900360640190fd5b611c078a8a8a8a8a8a8a8a8a614cdc565b611c4b576040805162461bcd60e51b815260206004820152601060248201526f3a3930b232903737ba103b30b634b21760811b604482015290519081900360640190fd5b6080810151336000908152601d60205260409020541015611c9d5760405162461bcd60e51b81526004018080602001828103825260248152602001806167ed6024913960400191505060405180910390fd5b60408082015182516001600160a01b03166000908152601d6020529190912054611cc691615652565b81516001600160a01b03166000908152601d6020526040808220929092558183015133825291902054611cf8916155f1565b336000908152601d602052604090208190556080820151611d199190615652565b336000908152601d602052604080822092909255608083015183516001600160a01b0316825291902054611d4c916155f1565b81516001600160a01b03166000908152601d60205260408120919091555b8751811015611d9857611d9033898381518110611d8357fe5b60200260200101516156af565b600101611d6a565b5060005b8551811015611dbd57611db58b878381518110611d8357fe5b600101611d9c565b506000611dc98261572a565b90506001601b600083815260200190815260200160002060006101000a81548160ff02191690831515021790555081600001516001600160a01b0316817f753d4db383bcac616c2e2651156bc71c1ec81c0d5509071a85e3f565568765a3338560400151866060015187608001518860a0015160405180866001600160a01b031681526020018581526020018060200184815260200180602001838103835286818151815260200191508051906020019060200280838360005b83811015611e9b578181015183820152602001611e83565b50505050905001838103825284818151815260200191508051906020019060200280838360005b83811015611eda578181015183820152602001611ec2565b5050505090500197505050505050505060405180910390a350506001600055505050505050505050565b600f5490565b60185481565b60035481565b60008181526008602052604090205481906001600160a01b031633811480611f5457506000828152600660205260409020546001600160a01b031633145b80611f8257506001600160a01b038116600090815260076020908152604080832033845290915290205460ff165b611fc6576040805162461bcd60e51b815260206004820152601060248201526f21b0b73737ba103a3930b739b332b91760811b604482015290519081900360640190fd5b60008381526008602052604090205483906001600160a01b0316612022576040805162461bcd60e51b815260206004820152600e60248201526d24b73b30b634b2103a37b5b2b71760911b604482015290519081900360640190fd5b6000848152600860205260409020546001600160a01b039081169087168114612088576040805162461bcd60e51b81526020600482015260136024820152722bb937b73390333937b69030b2323932b9b99760691b604482015290519081900360640190fd5b6001600160a01b0386166120d9576040805162461bcd60e51b815260206004820152601360248201527221b0b73737ba1039b2b732103a3790183c181760691b604482015290519081900360640190fd5b6120e386866156af565b50505050505050565b6014546001600160a01b0316331461213c576040805162461bcd60e51b815260206004820152600e60248201526d27b7363c903232b83637bcb2b91760911b604482015290519081900360640190fd5b60168054821515600160b01b810260ff60b01b199092169190911790915560408051918252517f557edfda0ed39485f1caf0084bd8c96b98886100f46e47226c6f93e2b9c73e309181900360200190a150565b600260005414156121d5576040805162461bcd60e51b815260206004820152601f60248201526000805160206167cd833981519152604482015290519081900360640190fd5b60026000908155338152601d6020526040902054811115612232576040805162461bcd60e51b8152602060048201526012602482015271696e73756666696369656e742066756e647360701b604482015290519081900360640190fd5b336000908152601d602052604090205461224c9082615652565b336000818152601d602052604080822093909355915183908381818185875af1925050503d806000811461229c576040519150601f19603f3d011682016040523d82523d6000602084013e6122a1565b606091505b50509050806122ec576040805162461bcd60e51b81526020600482015260126024820152711d1c985b9cd858dd1a5bdb8819985a5b195960721b604482015290519081900360640190fd5b60408051838152905133917f884edad9ce6fa2440d8a54cc123490eb96d2768479d49ff9c7366125a9424364919081900360200190a250506001600055565b6001600160a01b038216600090815260096020526040812054821061234f57600080fd5b6001600160a01b038316600090815260096020526040902080548390811061237357fe5b9060005260206000200154905092915050565b601654600160a81b900460ff1681565b60195481565b6000600260005414156123e4576040805162461bcd60e51b815260206004820152601f60248201526000805160206167cd833981519152604482015290519081900360640190fd5b6002600055601a54829060ff1615612436576040805162461bcd60e51b815260206004820152601060248201526f1b585c9ad95d081a5cc81c185d5cd95960821b604482015290519081900360640190fd5b601a54610100900460ff1615612488576040805162461bcd60e51b815260206004820152601260248201527118dbdb9d1c9858dd081a5cc81cd9585b195960721b604482015290519081900360640190fd5b614e20811115801561249a5750600081115b6124de576040805162461bcd60e51b815260206004820152601060248201526f1a5b9d985b1a59081d1bdad95b881a5960821b604482015290519081900360640190fd5b6000838152600860205260409020546001600160a01b031661253e576040805162461bcd60e51b81526020600482015260146024820152733134b2103a379034b73b30b634b2103a37b5b2b760611b604482015290519081900360640190fd5b6000838152600860205260409020546001600160a01b03163314156125945760405162461bcd60e51b81526004018080602001828103825260308152602001806168116030913960400191505060405180910390fd5b6000838152601e60205260409020600201546001600160a01b031633146125f6576040805162461bcd60e51b815260206004820152601160248201527031b0b63632b9103737ba103134b23232b960791b604482015290519081900360640190fd5b604080516080810182526000808252602080830187815283850183815260608501848152898552601e9093528584209451855460ff191690151517855590516001850155516002840180546001600160a01b0319166001600160a01b0390921691909117905551600390920182905591513391908381818185875af1925050503d80600081146126a2576040519150601f19603f3d011682016040523d82523d6000602084013e6126a7565b606091505b50509050806126f2576040805162461bcd60e51b81526020600482015260126024820152711d1c985b9cd858dd1a5bdb8819985a5b195960721b604482015290519081900360640190fd5b6000848152601e602090815260409182902060030154825187815291820152338183015290517fa365bd5f760d7166e40cee2cee5c7f32f204acf82e237db21fce693ab1040c349181900360600190a16001925050506001600055919050565b601a5460ff1681565b6000600260005414156127a3576040805162461bcd60e51b815260206004820152601f60248201526000805160206167cd833981519152604482015290519081900360640190fd5b6002600055601654600160a01b900460ff16612806576040805162461bcd60e51b815260206004820152601f60248201527f636f6d6d756e697479206772616e74206e6f7420737461727465642079657400604482015290519081900360640190fd5b601a5460ff161561284e576040805162461bcd60e51b815260206004820152600d60248201526c1b585c9ad95d081c185d5cd959609a1b604482015290519081900360640190fd5b60008311801561286057506127108311155b6128a7576040805162461bcd60e51b815260206004820152601360248201527234b73b30b634b210313ab7359034b73232bc1760691b604482015290519081900360640190fd5b336000908152600b602052604090206001015460ff161561290b576040805162461bcd60e51b815260206004820152601960248201527870726576696f7573206d696e7420696e2070726f677265737360381b604482015290519081900360640190fd5b6000838152600560205260409020541561296c576040805162461bcd60e51b815260206004820152601d60248201527f616c7265616479206d696e746564207769746820746869732062756e6b000000604482015290519081900360640190fd5b6000612979846001615652565b60125460408051630b02f02d60e31b815260048101849052905192935033926001600160a01b0390921691635817816891602480820192602092909190829003018186803b1580156129ca57600080fd5b505afa1580156129de573d6000803e3d6000fd5b505050506040513d60208110156129f457600080fd5b50516001600160a01b031614612a51576040805162461bcd60e51b815260206004820152601b60248201527f6e6f7420746865206f776e6572206f6620746869732062756e6b2e0000000000604482015290519081900360640190fd5b6016546040805163fc5bb07f60e01b81527f0000000000000000000000000000000000000000000000000000000000000000600482015290516000926001600160a01b03169163fc5bb07f916024808301926020929190829003018186803b158015612abc57600080fd5b505afa158015612ad0573d6000803e3d6000fd5b505050506040513d6020811015612ae657600080fd5b5051905034811115612b3f576040805162461bcd60e51b815260206004820152601a60248201527f696e73756666696369656e742066756e647320746f206d696e74000000000000604482015290519081900360640190fd5b80341115612be7576000612b533483615652565b604051909150600090339083908381818185875af1925050503d8060008114612b98576040519150601f19603f3d011682016040523d82523d6000602084013e612b9d565b606091505b5050905080612be4576040805162461bcd60e51b815260206004820152600e60248201526d726566756e64206661696c75726560901b604482015290519081900360640190fd5b50505b6016546040805163d96073cf60e01b8152600481018790527f0000000000000000000000000000000000000000000000000000000000000000602482015290516000926001600160a01b03169163d96073cf91859160448082019260209290919082900301818588803b158015612c5d57600080fd5b505af1158015612c71573d6000803e3d6000fd5b50505050506040513d6020811015612c8857600080fd5b5051905080612cd2576040805162461bcd60e51b81526020600482015260116024820152704c494e4b2053776170206661696c75726560781b604482015290519081900360640190fd5b600086815260056020526040902054612cec9060016155f1565b600087815260056020526040902055612d05338761586a565b60016000559695505050505050565b600a6020526000908152604090205481565b612d4183838360405180602001604052806000815250615ae3565b505050565b6000612d5f60105460035461565290919063ffffffff16565b905090565b601a54819060ff1615612db1576040805162461bcd60e51b815260206004820152601060248201526f1b585c9ad95d081a5cc81c185d5cd95960821b604482015290519081900360640190fd5b601a54610100900460ff1615612e03576040805162461bcd60e51b815260206004820152601260248201527118dbdb9d1c9858dd081a5cc81cd9585b195960721b604482015290519081900360640190fd5b614e208111158015612e155750600081115b612e59576040805162461bcd60e51b815260206004820152601060248201526f1a5b9d985b1a59081d1bdad95b881a5960821b604482015290519081900360640190fd5b6000828152600860205260409020546001600160a01b0316612eb9576040805162461bcd60e51b81526020600482015260146024820152733134b2103a379034b73b30b634b2103a37b5b2b760611b604482015290519081900360640190fd5b6000828152600860205260409020546001600160a01b0316331415612f25576040805162461bcd60e51b815260206004820152601960248201527f63616e6e6f742062696420746f206f776e206c697374696e6700000000000000604482015290519081900360640190fd5b60003411612f6f576040805162461bcd60e51b8152602060048201526012602482015271195b5c1d1e48189a59081c9958d95a5d995960721b604482015290519081900360640190fd5b6000828152601e60205260409020600301543411612fd4576040805162461bcd60e51b815260206004820152601960248201527f6269642076616c7565206e6f74206869676820656e6f75676800000000000000604482015290519081900360640190fd5b6000828152601e60205260409020600301541561304d576000828152601e6020908152604080832060038101546002909101546001600160a01b03168452601d90925290912054613024916155f1565b6000838152601e60209081526040808320600201546001600160a01b03168352601d9091529020555b60408051608081018252600180825260208083018681523384860181815234606080880182815260008c8152601e88528a90209851895460ff191690151517895594519688019690965590516002870180546001600160a01b0319166001600160a01b0390921691909117905591516003909501949094558451878152918201528084019290925291517f1627396a943f27a9f2b8b73532817c5a830cfc29d541bc035af8a53e945c8b50929181900390910190a15050565b6014546001600160a01b03163314613156576040805162461bcd60e51b815260206004820152600e60248201526d27b7363c903232b83637bcb2b91760911b604482015290519081900360640190fd5b600355565b6000614e20821061316b57600080fd5b5060010190565b6000600260005414156131ba576040805162461bcd60e51b815260206004820152601f60248201526000805160206167cd833981519152604482015290519081900360640190fd5b6002600055601a54829060ff161561320c576040805162461bcd60e51b815260206004820152601060248201526f1b585c9ad95d081a5cc81c185d5cd95960821b604482015290519081900360640190fd5b601a54610100900460ff161561325e576040805162461bcd60e51b815260206004820152601260248201527118dbdb9d1c9858dd081a5cc81cd9585b195960721b604482015290519081900360640190fd5b614e2081111580156132705750600081115b6132b4576040805162461bcd60e51b815260206004820152601060248201526f1a5b9d985b1a59081d1bdad95b881a5960821b604482015290519081900360640190fd5b6000838152601c60209081526040808320815160a081018352815460ff161515815260018201549381019390935260028101546001600160a01b03908116928401929092526003810154606084015260040154166080820152906133188286615de6565b60408301519091506001600160a01b031633141561337d576040805162461bcd60e51b815260206004820152601b60248201527f63616e6e6f7420627579206f6e652773206f776e206265656269740000000000604482015290519081900360640190fd5b81516133c3576040805162461bcd60e51b815260206004820152601060248201526f1d1bdad95b881b9bdd081b1a5cdd195960821b604482015290519081900360640190fd5b6000818152601f602052604090205460ff161561341b576040805162461bcd60e51b81526020600482015260116024820152701b1a5cdd1a5b99c81b9bdd08199bdd5b99607a1b604482015290519081900360640190fd5b341561348557336000908152601d602052604090205461343b90346155f1565b336000818152601d6020908152604091829020939093558051348152905191927fe1fffcc4923d04b559f4d29a8bfc6cda04eb5b0d3c460751c2402c5c5cc9109c92918290030190a25b60808201516001600160a01b031615806134ab575060808201516001600160a01b031633145b6134eb576040805162461bcd60e51b815260206004820152600c60248201526b1d5b985d5d1a1bdc9a5e995960a21b604482015290519081900360640190fd5b6060820151336000908152601d6020526040902054101561353d5760405162461bcd60e51b81526004018080602001828103825260248152602001806167ed6024913960400191505060405180910390fd5b6000858152600860205260409081902054908301516001600160a01b039081169116146135b1576040805162461bcd60e51b815260206004820181905260248201527f73656c6c6572206e6f206c6f6e676572206f776e6572206f6620626565626974604482015290519081900360640190fd5b6060820151336000908152601d60205260409020546135cf91615652565b336000908152601d6020526040808220929092556060840151848301516001600160a01b0316825291902054613604916155f1565b6040808401516001600160a01b03166000908152601d602052205561362933866156af565b61363485338361149b565b50606080830151604080850151815189815260208101939093526001600160a01b031682820152339282019290925290517f16090b730e22957728c5a4dc5643ede79032d9cb7d0054843c24e30c42cc34a09181900360800190a16000858152601e602052604090205460ff1680156136c657506000858152601e60205260409020600201546001600160a01b031633145b15613776576000858152601e6020908152604080832060030154338452601d909252909120546136f5916155f1565b336000908152601d60209081526040808320939093558251608081018452828152808201898152818501848152606083018581528b8652601e909452949093209051815460ff19169015151781559151600183015591516002820180546001600160a01b0319166001600160a01b0390921691909117905590516003909101555b600193505050506001600055919050565b6014546001600160a01b031633146137d7576040805162461bcd60e51b815260206004820152600e60248201526d27b7363c903232b83637bcb2b91760911b604482015290519081900360640190fd5b601a54610100900460ff1615613827576040805162461bcd60e51b815260206004820152601060248201526f21b7b73a3930b1ba1039b2b0b632b21760811b604482015290519081900360640190fd5b601a805460ff1916911515919091179055565b6014546000906001600160a01b0316331461388d576040805162461bcd60e51b815260206004820152600e60248201526d27b7363c903232b83637bcb2b91760911b604482015290519081900360640190fd5b601654600160b01b900460ff166138e1576040805162461bcd60e51b81526020600482015260136024820152723232bb1036b7b232903a3ab93732b21037b33360691b604482015290519081900360640190fd5b6001600160a01b0383166000908152600b602052604090206001015460ff1615613952576040805162461bcd60e51b815260206004820152601c60248201527f70726576696f757320646576206d696e7420696e2070726f6365737300000000604482015290519081900360640190fd5b600f5461396290614e2090615652565b8411156139b6576040805162461bcd60e51b815260206004820152601f60248201527f7175616e746974792065786365656473206d696e7461626c65206c696d697400604482015290519081900360640190fd5b60118490556016546040805163fc5bb07f60e01b81527f0000000000000000000000000000000000000000000000000000000000000000600482015290516000926001600160a01b03169163fc5bb07f916024808301926020929190829003018186803b158015613a2657600080fd5b505afa158015613a3a573d6000803e3d6000fd5b505050506040513d6020811015613a5057600080fd5b5051905034811115613aa9576040805162461bcd60e51b815260206004820152601a60248201527f696e73756666696369656e742066756e647320746f206d696e74000000000000604482015290519081900360640190fd5b80341115613b4857600033613abe3484615652565b604051600081818185875af1925050503d8060008114613afa576040519150601f19603f3d011682016040523d82523d6000602084013e613aff565b606091505b5050905080613b46576040805162461bcd60e51b815260206004820152600e60248201526d726566756e64206661696c75726560901b604482015290519081900360640190fd5b505b6016546040805163d96073cf60e01b8152600481018690527f0000000000000000000000000000000000000000000000000000000000000000602482015290516000926001600160a01b03169163d96073cf91859160448082019260209290919082900301818588803b158015613bbe57600080fd5b505af1158015613bd2573d6000803e3d6000fd5b50505050506040513d6020811015613be957600080fd5b5051905080613c33576040805162461bcd60e51b81526020600482015260116024820152704c494e4b2053776170206661696c75726560781b604482015290519081900360640190fd5b613c3e85600061586a565b9695505050505050565b6000818152600860205260408120546001600160a01b0316613ca4576040805162461bcd60e51b815260206004820152601060248201526f1d1bdad95b881b9bdd081b5a5b9d195960821b604482015290519081900360640190fd5b506000908152600860205260409020546001600160a01b031690565b6002805460408051602060018416156101000260001901909316849004601f81018490048402820184019092528181529291830182828015613d435780601f10613d1857610100808354040283529160200191613d43565b820191906000526020600020905b815481529060010190602001808311613d2657829003601f168201915b505050505081565b6014546001600160a01b03163314613d9b576040805162461bcd60e51b815260206004820152600e60248201526d27b7363c903232b83637bcb2b91760911b604482015290519081900360640190fd5b601a805461ff001916610100179055565b601e60205260009081526040902080546001820154600283015460039093015460ff9092169290916001600160a01b039091169084565b60006001600160a01b038216613df857600080fd5b613e0182615e55565b92915050565b600c602052600090815260409020546001600160a01b031681565b601c602052600090815260409020805460018201546002830154600384015460049094015460ff9093169391926001600160a01b0391821692911685565b6001600160a01b0388163314613ea75760405162461bcd60e51b81526004018080602001828103825260258152602001806168946025913960400191505060405180910390fd5b60006040518061010001604052808a6001600160a01b03168152602001896001600160a01b031681526020018881526020018781526020018681526020018581526020018481526020018381525090506000613f028261572a565b6000818152601b6020908152604091829020805460ff19166001179055815183815291519293507f3f9cb69d022b6ec319f86f2df848bcce01f2fc51c9f86396779a8081cf6ca2ea92918290030190a150505050505050505050565b336001600160a01b037f00000000000000000000000000000000000000000000000000000000000000001614613fdb576040805162461bcd60e51b815260206004820152601f60248201527f4f6e6c7920565246436f6f7264696e61746f722063616e2066756c66696c6c00604482015290519081900360640190fd5b613fe58282615e70565b5050565b600060026000541415614031576040805162461bcd60e51b815260206004820152601f60248201526000805160206167cd833981519152604482015290519081900360640190fd5b6002600055601a54839060ff1615614083576040805162461bcd60e51b815260206004820152601060248201526f1b585c9ad95d081a5cc81c185d5cd95960821b604482015290519081900360640190fd5b601a54610100900460ff16156140d5576040805162461bcd60e51b815260206004820152601260248201527118dbdb9d1c9858dd081a5cc81cd9585b195960721b604482015290519081900360640190fd5b614e2081111580156140e75750600081115b61412b576040805162461bcd60e51b815260206004820152601060248201526f1a5b9d985b1a59081d1bdad95b881a5960821b604482015290519081900360640190fd5b6000848152600860205260409020546001600160a01b03163314614189576040805162461bcd60e51b815260206004820152601060248201526f31b0b63632b9103737ba1037bbb732b960811b604482015290519081900360640190fd5b6000848152601e602052604090205460ff166141da576040805162461bcd60e51b815260206004820152600b60248201526a1a5b9d985b1a5908189a5960aa1b604482015290519081900360640190fd5b6000848152601e602052604090206003015483111561422a5760405162461bcd60e51b81526004018080602001828103825260308152602001806168416030913960400191505060405180910390fd5b6000848152601c6020908152604091829020825160a081018452815460ff16151580825260018301549382019390935260028201546001600160a01b03908116948201949094526003820154606082015260049091015490921660808301526142cd576040805162461bcd60e51b815260206004820152601060248201526f1d1bdad95b881b9bdd081b1a5cdd195960821b604482015290519081900360640190fd5b6000858152600860205260409081902054908201516001600160a01b03908116911614614341576040805162461bcd60e51b815260206004820181905260248201527f73656c6c6572206e6f206c6f6e676572206f776e6572206f6620626565626974604482015290519081900360640190fd5b600061434d8287615de6565b6000818152601f602052604090205490915060ff16156143a8576040805162461bcd60e51b81526020600482015260116024820152701b1a5cdd1a5b99c81b9bdd08199bdd5b99607a1b604482015290519081900360640190fd5b6000868152601e6020908152604080832060030154338452601d909252909120546143d2916155f1565b336000908152601d6020908152604080832093909355888252601e905220600201546144099087906001600160a01b03168361149b565b506000868152601e602052604090206002015461442f906001600160a01b0316876156af565b6040805160808082018352600080835260208084018b815284860183815260608087018581528e8652601e8552948890209651875460ff191690151517875591516001870155516002860180546001600160a01b0319166001600160a01b0392831617908190559351600390960186905586518d8152928301959095523382870152919093169083015291517f16090b730e22957728c5a4dc5643ede79032d9cb7d0054843c24e30c42cc34a0929181900390910190a160019350505050600160005592915050565b600e8054604080516020601f60026000196101006001881615020190951694909404938401819004810282018101909252828152606093909290918301828280156117d85780601f106117ad576101008083540402835291602001916117d8565b601b6020526000908152604090205460ff1681565b6000600260005414156145b6576040805162461bcd60e51b815260206004820152601f60248201526000805160206167cd833981519152604482015290519081900360640190fd5b6002600055601654600160a81b900460ff1661460d576040805162461bcd60e51b815260206004820152601160248201527039b0b632903737ba1039ba30b93a32b21760791b604482015290519081900360640190fd5b601a5460ff1615614655576040805162461bcd60e51b815260206004820152600d60248201526c1b585c9ad95d081c185d5cd959609a1b604482015290519081900360640190fd5b600354601054106146a3576040805162461bcd60e51b815260206004820152601360248201527239b0b632903634b6b4ba103932b0b1b432b21760691b604482015290519081900360640190fd5b336000908152600b602052604090206001015460ff1615614707576040805162461bcd60e51b815260206004820152601960248201527870726576696f7573206d696e7420696e2070726f677265737360381b604482015290519081900360640190fd5b6016546040805163fc5bb07f60e01b81527f0000000000000000000000000000000000000000000000000000000000000000600482015290516703782dace9d90000926000926001600160a01b039091169163fc5bb07f91602480820192602092909190829003018186803b15801561477f57600080fd5b505afa158015614793573d6000803e3d6000fd5b505050506040513d60208110156147a957600080fd5b5051905060006147b983836155f1565b905080341015614810576040805162461bcd60e51b815260206004820152601e60248201527f696e73756666696369656e742066756e647320746f2070757263686173650000604482015290519081900360640190fd5b803411156148af576000336148253484615652565b604051600081818185875af1925050503d8060008114614861576040519150601f19603f3d011682016040523d82523d6000602084013e614866565b606091505b50509050806148ad576040805162461bcd60e51b815260206004820152600e60248201526d726566756e64206661696c75726560901b604482015290519081900360640190fd5b505b6016546040805163d96073cf60e01b8152600481018890527f0000000000000000000000000000000000000000000000000000000000000000602482015290516000926001600160a01b03169163d96073cf91869160448082019260209290919082900301818588803b15801561492557600080fd5b505af1158015614939573d6000803e3d6000fd5b50505050506040513d602081101561495057600080fd5b505190508061499a576040805162461bcd60e51b81526020600482015260116024820152704c494e4b2053776170206661696c75726560781b604482015290519081900360640190fd5b6015546040516001600160a01b039091169085156108fc029086906000818181858888f193505050501580156149d4573d6000803e3d6000fd5b50601080546001019055612d0533600061586a565b3360008181526007602090815260408083206001600160a01b03871680855290835292819020805460ff1916861515908117909155815190815290519293927f17307eab39ab6107e8899845ad3d59bd9653f200f220920489ca2b5937696c31929181900390910190a35050565b601a54610100900460ff1681565b614aa785858585858080601f016020809104026020016040519081016040528093929190818152602001838380828437600092019190915250615ae392505050565b5050505050565b60056020526000908152604090205481565b6008602052600090815260409020546001600160a01b031681565b60008181526008602052604090205460609082906001600160a01b0316614b3a576040805162461bcd60e51b815260206004820152600e60248201526d24b73b30b634b2103a37b5b2b71760911b604482015290519081900360640190fd5b614b4383615f35565b60405160200180807f68747470733a2f2f626565626974732e78797a2f626565626974732f00000000815250601c0182805190602001908083835b60208310614b9d5780518252601f199092019160209182019101614b7e565b6001836020036101000a038019825116818451168082178552505050505050905001915050604051602081830303815290604052915050919050565b336000908152601d6020526040902054614bf390346155f1565b336000818152601d6020908152604091829020939093558051348152905191927fe1fffcc4923d04b559f4d29a8bfc6cda04eb5b0d3c460751c2402c5c5cc9109c92918290030190a2565b6014546001600160a01b03163314614c8e576040805162461bcd60e51b815260206004820152600e60248201526d27b7363c903232b83637bcb2b91760911b604482015290519081900360640190fd5b601654600160a01b900460ff16614ca457600080fd5b6016805460ff60a01b191690556040517f5f00e567de9d29d9d36405c34b1164390da767fb97a1fb7d6bf3680ff90a3b2690600090a1565b6000806040518061010001604052808c6001600160a01b031681526020018b6001600160a01b031681526020018a81526020018981526020018881526020018781526020018681526020018581525090506000614d388261572a565b6000818152601b602052604090205490915060ff1615614d9f576040805162461bcd60e51b815260206004820152601a60248201527f7472616465206f66666572207761732063616e63656c6c65642e000000000000604482015290519081900360640190fd5b6000614daa83616010565b9050614dbb83600001518287616070565b614e03576040805162461bcd60e51b815260206004820152601460248201527339b4b3b730ba3ab932903737ba103b30b634b21760611b604482015290519081900360640190fd5b8260c001514210614e52576040805162461bcd60e51b81526020600482015260146024820152733a3930b2329037b33332b91032bc3834b932b21760611b604482015290519081900360640190fd5b8a1580614e5d575088155b614eae576040805162461bcd60e51b815260206004820181905260248201527f6f6e6c79206f6e652073696465206f66207472616465206d757374207061792e604482015290519081900360640190fd5b60008a511180614ebf575060008851115b614f10576040805162461bcd60e51b815260206004820152601b60248201527f6f6e652073696465206d757374206f6666657220746f6b656e732e0000000000604482015290519081900360640190fd5b60408084015184516001600160a01b03166000908152601d60205291909120541015614f6d5760405162461bcd60e51b81526004018080602001828103825260278152602001806168b96027913960400191505060405180910390fd5b60005b8360600151518110156150075783600001516001600160a01b03166008600086606001518481518110614f9f57fe5b6020908102919091018101518252810191909152604001600020546001600160a01b031614614fff5760405162461bcd60e51b81526004018080602001828103825260318152602001806169216031913960400191505060405180910390fd5b600101614f70565b5060208301516001600160a01b03166150615760a0830151511561505c5760405162461bcd60e51b81526004018080602001828103825260418152602001806168e06041913960600191505060405180910390fd5b6150fd565b60005b8360a00151518110156150fb5783602001516001600160a01b0316600860008660a00151848151811061509357fe5b6020908102919091018101518252810191909152604001600020546001600160a01b0316146150f35760405162461bcd60e51b815260040180806020018281038252603181526020018061679c6031913960400191505060405180910390fd5b600101615064565b505b5060019c9b505050505050505050505050565b600b60205260009081526040902080546001820154600290920154909160ff169083565b601d6020526000908152604090205481565b601a54600090839060ff1615615196576040805162461bcd60e51b815260206004820152601060248201526f1b585c9ad95d081a5cc81c185d5cd95960821b604482015290519081900360640190fd5b601a54610100900460ff16156151e8576040805162461bcd60e51b815260206004820152601260248201527118dbdb9d1c9858dd081a5cc81cd9585b195960721b604482015290519081900360640190fd5b614e2081111580156151fa5750600081115b61523e576040805162461bcd60e51b815260206004820152601060248201526f1a5b9d985b1a59081d1bdad95b881a5960821b604482015290519081900360640190fd5b6000848152600860205260409020546001600160a01b031633146152a3576040805162461bcd60e51b815260206004820152601760248201527631b0b63632b9103737ba103132b2b134ba1037bbb732b960491b604482015290519081900360640190fd5b6000848152601c602052604090205460ff16156152ff576040805162461bcd60e51b8152602060048201526015602482015274746f6b656e20616c726561647920696e2073616c6560581b604482015290519081900360640190fd5b6040805160a08101825260018152602081018690523391810191909152606081018490526000608082018190526153368287615de6565b6000878152601c602090815260408083208651815490151560ff19918216178255838801516001830155828801516002830180546001600160a01b039283166001600160a01b0319918216179091556060808b0151600386015560808b0151600490950180549590931694909116939093179055858552601f84528285208054909116905581518b81529283018a905282820193909352519293507ff571c65afd7c58efee1f8029cb279f89e7ce60da562fd28a61fc3fd8c7eb5b30929081900390910190a150600195945050505050565b6001600160a01b03918216600090815260076020908152604080832093909416825291909152205460ff1690565b6014546001600160a01b03163314615486576040805162461bcd60e51b815260206004820152600e60248201526d27b7363c903232b83637bcb2b91760911b604482015290519081900360640190fd5b601680546001600160a01b0319166001600160a01b0392909216919091179055565b6014546001600160a01b031633146154f8576040805162461bcd60e51b815260206004820152600e60248201526d27b7363c903232b83637bcb2b91760911b604482015290519081900360640190fd5b601654600160a81b900460ff161561550f57600080fd5b60178290556019819055426018556016805460ff60a81b1916600160a81b1790556040517f771cfe172460b7d64cc46cca57a1e1f40f52b47cf1d16fe30c78a2935b3dd58090600090a15050565b60006155b36040518061010001604052808b6001600160a01b031681526020018a6001600160a01b031681526020018981526020018881526020018781526020018681526020018581526020018481525061572a565b9998505050505050505050565b600960205281600052604060002081815481106155dc57600080fd5b90600052602060002001600091509150505481565b60008282018381101561564b576040805162461bcd60e51b815260206004820152601b60248201527f536166654d6174683a206164646974696f6e206f766572666c6f770000000000604482015290519081900360640190fd5b9392505050565b6000828211156156a9576040805162461bcd60e51b815260206004820152601e60248201527f536166654d6174683a207375627472616374696f6e206f766572666c6f770000604482015290519081900360640190fd5b50900390565b6000818152600860205260409020546001600160a01b03166156d082616154565b6156da8183616191565b6156e48383616303565b81836001600160a01b0316826001600160a01b03167fddf252ad1be2c89b69c2b068fc378daa952ba7f163c4a11628f55a4df523b3ef60405160405180910390a4505050565b6000816000015182602001518360400151846060015160405160200180828051906020019060200280838360005b83811015615770578181015183820152602001615758565b505050509050019150506040516020818303038152906040528051906020012085608001518660a0015160405160200180828051906020019060200280838360005b838110156157ca5781810151838201526020016157b2565b50505050905001915050604051602081830303815290604052805190602001208760c001518860e0015160405160200180896001600160a01b031660601b8152601401886001600160a01b031660601b815260140187815260200186815260200185815260200184815260200183815260200182815260200198505050505050505050604051602081830303815290604052805190602001209050919050565b60006001600160a01b0383166158bd576040805162461bcd60e51b815260206004820152601360248201527231b0b73737ba1036b4b73a103a3790183c181760691b604482015290519081900360640190fd5b614e20600f541061590c576040805162461bcd60e51b81526020600482015260146024820152733a37b5b2b7103634b6b4ba103932b0b1b432b21760611b604482015290519081900360640190fd5b7f00000000000000000000000000000000000000000000000000000000000000007f00000000000000000000000000000000000000000000000000000000000000006001600160a01b03166370a08231306040518263ffffffff1660e01b815260040180826001600160a01b0316815260200191505060206040518083038186803b15801561599a57600080fd5b505afa1580156159ae573d6000803e3d6000fd5b505050506040513d60208110156159c457600080fd5b50511015615a035760405162461bcd60e51b81526004018080602001828103825260238152602001806168716023913960400191505060405180910390fd5b6000615a366013547f0000000000000000000000000000000000000000000000000000000000000000434060001c6163d7565b60408051606081018252828152600160208083018281528385018981526001600160a01b038b166000818152600b8552878120965187559251948601805460ff19169515159590951790945551600290940193909355848352600c81529183902080546001600160a01b0319168217905582518481529251939450927f12f50b93996340c1531e9ede80a612e2ca18013db72a0d05fee30b0c0b3d7a389281900390910190a29392505050565b60008281526008602052604090205482906001600160a01b031633811480615b2157506000828152600660205260409020546001600160a01b031633145b80615b4f57506001600160a01b038116600090815260076020908152604080832033845290915290205460ff165b615b93576040805162461bcd60e51b815260206004820152601060248201526f21b0b73737ba103a3930b739b332b91760811b604482015290519081900360640190fd5b60008481526008602052604090205484906001600160a01b0316615bef576040805162461bcd60e51b815260206004820152600e60248201526d24b73b30b634b2103a37b5b2b71760911b604482015290519081900360640190fd5b6000858152600860205260409020546001600160a01b039081169088168114615c52576040805162461bcd60e51b815260206004820152601060248201526f34b731b7b93932b1ba1037bbb732b91760811b604482015290519081900360640190fd5b6001600160a01b038716615ca3576040805162461bcd60e51b815260206004820152601360248201527273656e646572207a65726f206164647265737360681b604482015290519081900360640190fd5b615cad87876156af565b615cb68761658c565b15615ddc576000876001600160a01b031663150b7a02338b8a8a6040518563ffffffff1660e01b815260040180856001600160a01b03168152602001846001600160a01b0316815260200183815260200180602001828103825283818151815260200191508051906020019080838360005b83811015615d40578181015183820152602001615d28565b50505050905090810190601f168015615d6d5780820380516001836020036101000a031916815260200191505b5095505050505050602060405180830381600087803b158015615d8f57600080fd5b505af1158015615da3573d6000803e3d6000fd5b505050506040513d6020811015615db957600080fd5b505190506001600160e01b03198116630a85bd0160e11b14615dda57600080fd5b505b5050505050505050565b8151604080840151606080860151608090960151835194151560f81b6020808701919091526bffffffffffffffffffffffff1993831b841660218701526035860197909752901b1660558301526069808301939093528051808303909301835260899091019052805191012090565b6001600160a01b031660009081526009602052604090205490565b6000828152600c60205260409020546016546001600160a01b0390911690600160b01b900460ff168015615ea657506000601154115b15615efd5760015b6011548111615ef25760408051602080820186905281830184905282518083038401815260609092019092528051910120615ee98382616592565b50600101615eae565b506000601155615f07565b615f078183616592565b6001600160a01b03166000908152600b6020526040812081815560018101805460ff19169055600201555050565b606081615f5a57506040805180820190915260018152600360fc1b602082015261147b565b8160005b8115615f7257600101600a82049150615f5e565b60008167ffffffffffffffff81118015615f8b57600080fd5b506040519080825280601f01601f191660200182016040528015615fb6576020820181803683370190505b50859350905060001982015b831561600757600a840660300160f81b82828060019003935081518110615fe557fe5b60200101906001600160f81b031916908160001a905350600a84049350615fc2565b50949350505050565b600061601b8261572a565b60405160200180807f19457468657265756d205369676e6564204d6573736167653a0a333200000000815250601c01828152602001915050604051602081830303815290604052805190602001209050919050565b60006001600160a01b03841661608557600080fd5b815160411461609357600080fd5b60208201516040830151606084015160001a601b8110156160b257601b015b8060ff16601b14806160c757508060ff16601c145b6160d057600080fd5b60018682858560405160008152602001604052604051808581526020018460ff1681526020018381526020018281526020019450505050506020604051602081039080840390855afa15801561612a573d6000803e3d6000fd5b505050602060405103516001600160a01b0316876001600160a01b03161493505050509392505050565b6000818152600660205260409020546001600160a01b03161561618e57600081815260066020526040902080546001600160a01b03191690555b50565b6000818152600860205260409020546001600160a01b038381169116146161f2576040805162461bcd60e51b815260206004820152601060248201526f34b731b7b93932b1ba1037bbb732b91760811b604482015290519081900360640190fd5b600081815260086020908152604080832080546001600160a01b0319169055600a8252808320546001600160a01b0386168452600990925282205490919061623b906001615652565b90508181146162c6576001600160a01b038416600090815260096020526040812080548390811061626857fe5b906000526020600020015490508060096000876001600160a01b03166001600160a01b0316815260200190815260200160002084815481106162a657fe5b6000918252602080832090910192909255918252600a9052604090208290555b6001600160a01b03841660009081526009602052604090208054806162e757fe5b6001900381819060005260206000200160009055905550505050565b6000818152600860205260409020546001600160a01b03161561636d576040805162461bcd60e51b815260206004820152601a60248201527f63616e6e6f74206164642c20616c7265616479206f776e65642e000000000000604482015290519081900360640190fd5b600081815260086020908152604080832080546001600160a01b0319166001600160a01b0387169081179091558084526009835290832080546001818101835582865293852001859055925290546163c491615652565b6000918252600a60205260409091205550565b60007f00000000000000000000000000000000000000000000000000000000000000006001600160a01b0316634000aea07f000000000000000000000000000000000000000000000000000000000000000085878660405160200180838152602001828152602001925050506040516020818303038152906040526040518463ffffffff1660e01b815260040180846001600160a01b0316815260200183815260200180602001828103825283818151815260200191508051906020019080838360005b838110156164b357818101518382015260200161649b565b50505050905090810190601f1680156164e05780820380516001836020036101000a031916815260200191505b50945050505050602060405180830381600087803b15801561650157600080fd5b505af1158015616515573d6000803e3d6000fd5b505050506040513d602081101561652b57600080fd5b505060008481526001602052604081205461654b908690859030906166c1565b60008681526001602081905260409091205491925061656a91906155f1565b6000868152600160205260409020556165838582616708565b95945050505050565b3b151590565b60006165ab600f54614e2061565290919063ffffffff16565b905060006165c460016165be8585616734565b906155f1565b600f549091506165d59060016155f1565b600f556001600160a01b038416616627576040805162461bcd60e51b815260206004820152601160248201527033b7ba10183c181030b99036b4b73a32b960791b604482015290519081900360640190fd5b6166318482616303565b60405181906001600160a01b038616906000907fddf252ad1be2c89b69c2b068fc378daa952ba7f163c4a11628f55a4df523b3ef908290a46001600160a01b0384166000818152600b6020908152604091829020600201548251908152915184927f4e3883c75cc9c752bb1db2e406a822e4a75067ae77ad9a0a4d179f2709b9e1f692908290030190a350505050565b60408051602080820196909652808201949094526001600160a01b039290921660608401526080808401919091528151808403909101815260a09092019052805191012090565b604080516020808201949094528082019290925280518083038201815260609092019052805191012090565b600080821161678a576040805162461bcd60e51b815260206004820152601860248201527f536166654d6174683a206d6f64756c6f206279207a65726f0000000000000000604482015290519081900360640190fd5b81838161679357fe5b06939250505056fe6174206c65617374206f6e652074616b657220746f6b656e20646f65736e27742062656c6f6e6720746f2074616b65722e5265656e7472616e637947756172643a207265656e7472616e742063616c6c00696e73756666696369656e742066756e647320746f20657865637574652074726164652e6269642077697468647261772063616e6e6f7420626520646f6e65207768656e206f776e696e672061206265656269746269642076616c7565206e6f7420657175616c206f722067726561746572207468616e206c6973746564207072696365696e73756666696369656e74206c696e6b2066756e647320666f7220726571756573746f6e6c7920746865206d616b65722063616e2063616e63656c2074686973206f666665722e6d616b657220646f6573206e6f7420686176652073756666696369656e742062616c616e63652e6966207472616465206973206f66666572656420746f20616e79626f64792c2063616e6e6f74207370656369667920746f6b656e732066726f6d2074616b65722e6174206c65617374206f6e65206d616b657220746f6b656e20646f65736e27742062656c6f6e6720746f206d616b65722ea26469706673582212201b6f202adee215499644a2e0a4f84825103e951624277d1c641cbe8f8d5b5b6664736f6c63430007060033516d66585967665831714e667a51364e5279466e75706e695a7573617346504d6569576e356161446e783759586f",
  "linkReferences": {},
  "deployedLinkReferences": {}
}